:020000040800F2
:10000000000001209D9800080D3D0008113D0008EA
:10001000153D0008193D00081D3D000800000000C6
:10002000000000000000000000000000213D00086A
:10003000253D000800000000293D00082D3D000876
:10004000ED980008ED980008ED980008413D000883
:10005000ED980008ED980008ED980008ED9800086C
:10006000ED9800087D3D0008ED980008ED98000827
:10007000913D00089D3D0008ED980008ED980008AE
:10008000A93D0008B53D0008ED980008ED9800086E
:10009000ED980008ED980008ED980008ED9800082C
:1000A000ED980008ED980008ED980008ED9800081C
:1000B000ED9800080000000000000000ED98000826
:1000C000ED980008C13D0008ED980008ED98000883
:1000D000ED980008ED98000835470008ED980008F5
:1000E000E93D0008FD3D00080000000000000000A0
:1000F0000000000000000000000000000000000000
:1001000000000000ED98000800000000ED980008D5
:100110000000000000000000ED980008ED980008C5
:10012000ED980008ED980008ED980008ED9800089B
:10013000ED98000800000000000000000000000032
:10014000ED980008ED980008ED9800080000000008
:10015000ED980008ED980008ED980008ED9800086B
:10016000ED980008ED980008ED98000800000000E8
:10017000ED980008ED980008000000000000000065
:10018000ED980008ED980008ED98000800000000C8
:1001900008B518B1064B02689A4207D0054B064ACB
:1001A0001B69064900209847002008BD012008BDB2
:1001B0000EB037137800002078FF000890FF000889
:1001C000B1F804C093680A899A80BCF1000C18BF8A
:1001D0004FF0010CCA7983F800C091F806C083F88B
:1001E00001C09A709860704703460068D3F8E81021
:1001F0004268C3F8F0101047D0E90F23816B006903
:10020000184700BF0068C368184700BF704700BFA9
:1002100010B1024B9B681847704700BF7800002060
:1002200000688368184700BF08B518B1064B02681C
:100230009A4207D0054B064A1B6906490020984799
:10024000002008BD012008BD0FB037137800002042
:1002500098FF0008B0FF0008B5EEC00ADFED0D7A88
:100260009FED0D7AF1EE10FA54BF30EE270A37EE0B
:10027000C00ADFED087A70EE277AFCEEE77AF8EE36
:10028000677A30EE670A20EE070AFCEEC07A17EEB6
:10029000900A7047BD3706350024744990F824C091
:1002A000BCF1010F3CD070B590F825C00124A445E5
:1002B00080F824405FFA8CFE04D0002380F82430BC
:1002C000022070BD022580F8255004680025C56312
:1002D0002668456C26F00106266005F01C05066CB4
:1002E0000EFA05F5756063608368102B036B0BBF16
:1002F000A260A160E160E2604BB1236843F00E03AD
:100300002360236843F001030020236070BD23684D
:1003100023F004032360236843F00A032360F0E71B
:10032000022070472DE9F0417A4C0023237694F89F
:100330007D30012B0D46616A08D0B1F5827F64D112
:10034000D8B2A36A002B60D104285ED1002D5CD006
:1003500092B2002A59D094F87C30012B55D094F8F1
:100360007D30266AA565042B1CBF052384F87D30EB
:1003700001210023C4F8803084F87C10A4F85E20AA
:10038000A4F86620C4E91B337368A4F85C2023F446
:10039000C0432566A4F864207360E36AA06FB3F5D8
:1003A000E06F34D8636F99697368B1F5806F43F477
:1003B0008053736000F082808369B3F5806F69D0E9
:1003C00094F87D30544A042B544B18BF1346544ABA
:1003D0000363544B4363544B18BF1346C362B4F8D2
:1003E00066304FF00008C0F838809BB206F10C016F
:1003F0002A46FFF753FF074670B1D4F8803084F8DF
:100400007C8043F01003C4F88030BDE8F08173684D
:1004100023F480537360D3E77368606F43F0010384
:100420007360B4F85E300A46C0E90B77C0E90D7717
:1004300029469BB2FFF732FF00284CD133685B0698
:1004400023D5002384F87C30736843F02003736065
:10045000736843F002037360D4F88420237E002B7A
:10046000D3D141F2873109E072B6237E03B930BFA0
:1004700062B6BFF36F8F237E002BC6D1D4F88430D1
:100480009B1A8B42F0D9BDE8F081336843F04003FA
:100490003360D6E7736823F480537360B4F8663032
:1004A00013F0010F73681FD123F400537360B4F885
:1004B0006630C3F34E03A4F8663081E7D207736851
:1004C0001DD423F480437360B4F85E30C3F34E034D
:1004D000A4F85E3070E7D4F8803084F87C7043F084
:1004E0001003C4F8803090E743F400537360B4F80D
:1004F0006630C3F34E030133A4F8663060E743F47B
:1005000080437360B4F85E30C3F34E030133A4F844
:100510005E3051E778000020E5060008E10600089B
:1005200075280008E9060008C527000870B4436C68
:10053000066C056831682C6803F01C0304229A409D
:100540000A420ED014F0040F0BD02B689B0603D484
:100550002B6823F004032B60036B7260CBB170BC7B
:10056000184702229A400A4215D014F0020F12D006
:100570002B68990606D42B6823F00A032B6001230D
:1005800080F82530C36A7260002180F82410002BA7
:10059000E5D170BC704708229A400A42F9D0220780
:1005A000F7D52A68416B22F00E022A60012202FA76
:1005B00003F300247360C26380F8244080F8252090
:1005C0000029E6D070BC0847434A036830B4D468B9
:1005D000A40707D0D46804F003049C424AD0012049
:1005E00030BC7047022B56D0032B4DD0012BF6D1D7
:1005F00012689207F3D5384CE26822F07302134375
:100600004268013A43EA0213E360334C334A2368F9
:1006100023F080632360D2F8845004E0D2F8843061
:100620005B1B022B3BD823681B01F7D483681B029A
:10063000002936D12169C56821F0784121F4FE41B5
:1006400043EAC5630B43236123490B6843F080638E
:100650000B60D2F8844004E0D2F884301B1B022BDC
:100660001DD80B681B01F7D582690B691343002065
:100670000B61B5E7002CB2D0D3684268C3F3021314
:1006800001339342ABD1C0E71468A403B3D412681A
:100690005203A4D5AFE712685505A0D5ABE70320F8
:1006A0009EE7012921690BD021F0C06121F4FE41B0
:1006B000194343695B08013B41EA43612161C3E798
:1006C00021F4C00121F4FE410B43016949080139BD
:1006D00043EA41532361B7E700100240780000204D
:1006E000704700BF704700BF836A19684A6822F0EC
:1006F00003024A601A6E4FF0010C42F010021A66B3
:1007000083F85DC0704700BF836A0022A3F85A20B7
:10071000A3F85220704700BF10B520B10C4B0268FF
:100720009A42044607D00B4B0B4A1B690B49BDE8A4
:10073000104000201847406818B1C368984700234C
:100740006360002323602046BDE8104060E500BFE1
:100750000DB0371378000020B8FF0008D4FF000860
:1007600010B50446FFF714FD00B910BD2069002341
:10077000236008B1FFF74CFD2046BDE8104047E577
:100780002DE9F047D0F800800546B8F1000F1ED0E3
:10079000D8F898700FB3124E07F148044FF00009D3
:1007A000583754F8040F18B1B3689847C4F800904C
:1007B000A742F6D1D8F89800B36800B19847B3685B
:1007C00040469847B3682846BDE8F0471847044EAE
:1007D0002846B368BDE8F0471847014EEFE700BF71
:1007E00078000020F8B505460088002A1C460CBF9A
:1007F0004FF400534FF48053B0F59C6F0E460ED368
:1008000000F151077F008342BFB235D21C4B1D4A15
:100810001B691D49002098474FF0000C03E040F68B
:1008200062274FF0010C1949194AC4E9011202F17B
:100830001912E26002F1191222612346002262803D
:100840005122A28223F8167B29686A68A868EF689B
:10085000C4F816105A609860DF602969A8696A694F
:100860009861196196E803005A61AA8B9A8334341F
:1008700084E803006046F8BD4FF0010CD3E700BFE9
:1008800078000020E0FF00080000010801000200DD
:1008900003001B0010B50C4C94F88810012982B09D
:1008A0000FD90A49246912F4006F0346084818BF9B
:1008B0000846C2F30A01CDE90001064A06490220B2
:1008C000A04702B010BD00BF78000020140001084E
:1008D0001C000108240001083800010810B50A4C6A
:1008E00094F888C0BCF1010F82B00AD92C3989B2C2
:1008F000034610462469054ACDE900100449022048
:10090000A04702B010BD00BF780000204C000108D5
:100910003800010830B5084991F88840012C83B0AF
:1009200008D902F00F040D69044A054900940346F2
:100930000220A84703B030BD7800002074000108F1
:100940003800010810B50A4C94F888C0BCF1010FBA
:1009500082B00AD97D3989B2034610462469054A16
:10096000CDE9001004490220A04702B010BD00BF2D
:1009700078000020940001083800010810B5A1F1AA
:10098000620C134C1CF0010F034694F888E084B00D
:100990001FFA8CF00DD1BEF1010F08D9400824696F
:1009A0000292CDE900010B4A0B490220A04704B096
:1009B00010BDBEF1010FFAD9400824690292CDE9B9
:1009C0000001064A04490220A04704B010BD00BF40
:1009D00078000020C400010838000108FC0001086C
:1009E00010B50A4C94F888C0BCF1010F84B00BD943
:1009F0000346A1F58C7080B224690090CDE9011204
:100A00000220034A0349A04704B010BD780000202B
:100A100034010108380001082DE9F04F1F4EDFF8BE
:100A200088B0804615460FCE91B002AC0FC40FCEF1
:100A30000FC40FCE0FC49BF888C096E80300BCF12A
:100A4000010F84E8030007D9DBF81040144A154968
:100A5000009543460220A047DFF850A0DFF84490FD
:100A600002AC10AE02E00834B44213D0A3881D4299
:100A7000F9D09BF88820012A4346524649464FF058
:100A80000200F0D927680097DBF810700834B847E7
:100A9000B442EBD111B0BDE8F08F00BF20C0000818
:100AA0005C01010838000108780000207801010885
:100AB0002DE9F04782B0BDF828400B9F03EBC40539
:100AC0006B88002B44D06E68844601EB0208043E1C
:100AD0004FF0000E56F8044F620092B28A4233D3B0
:100AE000424531DAC4F30170012817D002283AD008
:100AF00090BB521A93B2C4F34459012202FA09F28C
:100B0000974249D33349013A0C6901923249334A39
:100B10000097A047002002B0BDE8F087521A92B2B9
:100B20000CEB42093CF81200B9F8023043EA0043EA
:100B300023F00F0317B1C4F303442343180C2CF81C
:100B40001200A9F802306B880EF1010E7345C1D86E
:100B5000012002B0BDE8F0871E4B214A1B691E49E7
:100B600000209847D6E7521A92B20CEB42003CF8AC
:100B70001290438843EA094323F00F0317B9C4F3E3
:100B8000034423431C0C2CF8124043806B880EF165
:100B9000010E73459ED8DBE7C4F3044A0CEB430413
:100BA0003CF813006288C9F1200942EA00424FF084
:100BB000FF3020FA09F000FA0AF022EA000207FAF0
:100BC0000AFA42EA0A02100C2CF8130062806B88C1
:100BD000BAE700BF78000020C40101088C010108B9
:100BE000D0010108002870B446DB0029034639DB38
:100BF00088420A464BDA0025012429461B04B3FB30
:100C0000F2F343F6284293425AD946F2D63293423F
:100C100060D948F6720293425ED94AF6494293423D
:100C20005CD94DF2A30293425AD94FF24B729342D0
:100C300098BF052045D94FF24C7648F233224CF24A
:100C4000A3409B1B02FB03F300EB134014B1C0F560
:100C5000C9301F3015B1C0F549303F30C1B14042F5
:100C600070BC7047494209B2884217DA0025012456
:100C70000A4603462146C1E7404202B20029104617
:100C800014DB91420B4605DD91BB1C4800E048BBDC
:100C900070BC7047002401252146AFE70028DED054
:100CA00000250B4602462C460121A7E7494209B21E
:100CB0008A424FF00105DADB0B46002429469DE706
:100CC00000200F4A02EBC00602EB8002D6E90E605C
:100CD000126FB6E70120F4E70220F2E70320F0E705
:100CE0000420EEE700250B4602462C46294685E700
:100CF00001251A462C46034600217FE72092010079
:100D000020C000082DE9F0470646804602EB42006D
:100D10008CB0154606EB8000002289460DF10C0AC6
:100D2000014617464FEA870E54469FED767AB31A6E
:100D300075B103EB020CF444DCED007A9C46DCED6B
:100D4000006A0C3367EEA67A8B4237EE277AF0D131
:100D50000EF1040EBEF10C0FA4EC017AE5D10137BF
:100D6000032F0AF1100AA2F1040201F10401D9D102
:100D70009DED045ADDED055ADDED086A6A4606F17F
:100D80000C01DFED607A43463DB11C4694ED007ADC
:100D90000C33834277EE877AF7D108F1040888454F
:100DA000E2EC017A00F10400EBD19DED037AF0EE64
:100DB000C77AF4EE677AF1EE10FA12D69FED526A16
:100DC000F4EE467AF1EE10FA0BDC9FED506AF4EE89
:100DD000C67AF1EE10FA04DAB5EE407AF1EE10FAC6
:100DE0007DD0F7EE007A87EE872A9DED073A9DEDDC
:100DF0000B7A65EE023A25EE824A65EE237A65EEBD
:100E0000A34A33EE673A25EE846AF0EEC32A65EE14
:100E1000047AF4EE622AF1EE10FA76EEE44A76EE07
:100E2000E77A37EE466A06D69FED377AF4EE472A20
:100E3000F1EE10FA47DDB7EE007AC7EE032ADDEDDA
:100E4000006A9DED017A9DED023A63EEA63A67EEE7
:100E5000A27A37EE637A64EEA73A67EE877A36EEC7
:100E6000636A24EE264AF0EEC63A73EE677AF4EE31
:100E7000633AF1EE10FA77EEC47A06D69FED224A75
:100E8000F4EE443AF1EE10FA2FDD87EE864A0120A7
:100E9000002364EE844A65EE845A77EE647A89ED25
:100EA000024A67EEA27A25EE275AC9ED017A76EE5C
:100EB000C57A77EEE57A67EE827AC9ED007A33601B
:100EC0000CB0BDE8F0879FED117AF4EEC72AF1EE81
:100ED00010FAB0DAB5EE403AF1EE10FAABD10020DC
:100EE000002333600CB0BDE8F0879FED084AF4EEB4
:100EF000C43AF1EE10FAC8DAB5EE406AF1EE10FA33
:100F0000EDD0C2E700000000FFFF7F7F00008000FF
:100F10002DE9F047C36D8769056900247C8081460F
:100F20001C7000F14806A04656F8043FFBB1B3F828
:100F300038C0B3F89400B3F89610B3F8DC2005EB92
:100F4000400005EB410105EB420205EB4C0CC3E907
:100F50001301C3F8A820C3F814C03C701868D3F874
:100F6000E020416883F8E880C3F8E4208847013432
:100F7000E4B2042CD8D1D9F80000BDE8F0474368AA
:100F8000184700BF70B50446806978B1E36943B182
:100F90000F4B93F8882022B11B690E4A0E4901209D
:100FA00098472068BDE8704083681847084D0B4A91
:100FB0002B6909499847E3693BB195F8883023B11B
:100FC0002B69044A044901209847002070BD00BFE6
:100FD00078000020F401010804020108140201084D
:100FE00030B40269B0F8423090F8381032F813305B
:100FF000032908BF83F4004340F2E51101FB03F32A
:101000001B0C816C8446A3F589700880BCF83C10E9
:10101000DCF84C0032F8111039B1BCF8401032F84D
:101020001110012994BF002101210170BCF83E007C
:10103000BCF83A10DCF8505032F8111032F8102099
:10104000DCF8544040F2E51000FB02F2A3EB12433F
:101050001BB2002BBCF94420DCF80000B8BF5B4297
:101060001BB29A42A1F10102B2FA82F2ACBF002394
:10107000012352092A70237030BC4368184700BF0F
:101080000068C368184700BF836910B50446BBB148
:101090000D4B93F888204AB963697BB10A4B0B4A20
:1010A0001B690B4900209847002010BD1B69094AA5
:1010B0000749012098476369002BEFD1012010BD3B
:1010C000C369002BE4D1E7E778000020680201083B
:1010D0004C020108300201082DE9F04F9B461B68C5
:1010E000C2F51E66B34294BF9EB2B6B2884674087B
:1010F0004FEA520183B017464FEA81010CD0144BDE
:1011000008EB84041944434651F8042B5A80120C0E
:101110001A800433A342F7D10E4C851E04F1E20A73
:1011200004F1E40914F8013B35F8022F3946CDE902
:10113000003240464B463246FFF7BAFCA24501D08A
:101140000028EFD1CBF8006003B0BDE8F08F00BFFE
:1011500050D40008ACC000080068C368184700BF3E
:1011600000688368184700BFF0B482B02F4E05684E
:1011700000238DF80330D6F88430D6F88470C3F19C
:1011800064031A442A4B1B6803EB8303C3EBC303BA
:101190001B0D02FB03F30193AB6819420AD135E042
:1011A000019C019B013B0193AB68002C08BF00220E
:1011B00019422BD0B1F5C06F05D12B7BDBB28DF876
:1011C00003309DF80330D6F88430DB1B9342E7D31D
:1011D0006B68426823F0E003B2F5827F6B6019D040
:1011E000836AB3F5005F07D12B6823F400532B60AB
:1011F0002B6843F400532B600122002380F85D200C
:1012000080F85C30032002B0F0BC7047002002B0D0
:10121000F0BC70478368B3F5004F02D0B3F5806F20
:10122000DED12B6823F040032B60D9E77800002043
:101230000000002040B338B5056804461DB12846BB
:10124000FEF7F2FF08BB606908B10AF0F7F8E06941
:1012500008B10AF0F3F8206A08B10AF0EFF8606A02
:1012600008B10AF0EBF8606B08B10AF0E7F8A06B80
:1012700008B10AF0E3F8E06B08B10AF0DFF82046A5
:10128000BDE838400AF0DAB8704700232B602846E2
:10129000FEF7BEFFD7E700BFF8B5B0F90030DFEDCD
:1012A000806A9FED807A07EE903AF8EEE77A837DC8
:1012B00067EEA67A0546F4EEC77AF1EE10FA0C4610
:1012C0007BD55E1E18BF01262046EF69FEF7ACFFF6
:1012D00000B167652046AF69FEF7A6FF00B1A765BC
:1012E00020462F8CFEF7A0FF08B1A4F85C702046C2
:1012F00095F82570FEF798FF08B184F85E702046D7
:1013000095F82470FEF790FF08B184F85F702046CE
:1013100095F82670FEF788FF08B184F863702046C0
:1013200095F82770FEF780FF08B184F864702046B6
:10133000FEF77AFF10B1012384F8623020462F684F
:10134000FEF772FF00B167602046FEF76DFF08B13F
:10135000012323812046FEF767FF08B10123638143
:1013600020466F8CFEF760FF00B1A7812046FEF794
:101370005BFF08B10A23A3732046FEF755FF08B1AF
:101380000123E3732046FEF74FFF08B100232374C7
:101390002046FEF749FF08B10023A3742046AF7D25
:1013A000FEF742FF00B127752046FEF73DFF00B172
:1013B000E6746B7D03BB0120F8BD9FED3B7AF4EE34
:1013C000C77AF1EE10FA67D4B1EE0C7AF4EEC77A70
:1013D000F1EE10FA5ED49FED357AF4EEC77AF1EEB5
:1013E00010FA5BD49FED327AF4EEC77AF1EE10FA80
:1013F0004CBF0426052667E72046AD7DFEF714FFA7
:1014000010B1022384F862302046FEF70DFF08B1C8
:101410000023A3612046FEF707FF08B10123A38341
:101420002046FEF701FF08B10123E3832046FEF7C3
:10143000FBFE08B1082323842046FEF7F5FE10B119
:101440000A2384F822302046FEF7EEFE10B1012375
:1014500084F823302046FEF7E7FE10B1002384F81D
:1014600024302046FEF7E0FE10B1012384F8263038
:101470002046FEF7D9FE10B1052384F82830204617
:10148000FEF7D2FE002896D0013D18BF012584F852
:10149000275090E7022617E7012615E7032613E7F2
:1014A0000AD7233B666646403333A34033334B4170
:1014B00000009441F8B516460D464FF4E27201461D
:1014C00018461C4609F0A4FFB6F8581021B196F84A
:1014D0005E30191E18BF0121012396F85B2084F8A5
:1014E000C6312B4684F8C52133F8262B84F8C41165
:1014F000A4F8C82105F1560104F5E5721F685E687D
:101500009868D3F80CC0C2F80CC010338B42176037
:101510005660906002F11002F0D1B5F85630A4F890
:10152000FA3105F1580604F5FE7E05F18807B44648
:10153000BCE80F00BC450EF1100E06F110064EF887
:10154000100C4EF80C1C4EF8082C4EF8043CEED152
:10155000B5F88830A4F82C3205F18A0304F22E2461
:10156000BA35186859689A68DE68E6601033AB428D
:1015700020606160A26004F11004F2D1F8BD00BFE8
:10158000DFF83CC0F8B51C464FF480530746CCF852
:1015900028300E46154605F08DFD17B13846FFF789
:1015A000DFF816B13046FFF7B7F815B1284609F055
:1015B00045FF1CB12046BDE8F8403BE6F8BD00BF42
:1015C00000040048F8B595692B7802EB43030F46F9
:1015D000B3F84460536901466888144603EB400041
:1015E000720009F0FBFE6B88E26D1E4413786E807A
:1015F00003B93B791370F8BD2DE9F04F2DED048B45
:10160000038F8DB00546002B00F01581B0F84030F7
:10161000428F0469B0F850E007925B000293838F19
:10162000C28F34F913300B92BEF1000F00F003812A
:101630001B010893D0E91223D718B0F85200B5F86F
:101640004230DFED8A8ADFF830B20193FE434FF07B
:101650000008F6EE009A0990C1460496CDF828E0FD
:10166000834B83FB0710F917C1EBA00101EB41008D
:10167000A7EBC00000281FFA89F886B2C0F2EB8001
:10168000002FC0F2F180089B09B2090481FB03011D
:10169000002906DA4FF6FF7C10EB0C0C604641F196
:1016A0000001079B000C40EA0140991934F9111020
:1016B000A0EB011007EE900AB8EEE79A29EE289AFF
:1016C000B0EE490A08F090FBB0EE408AB0EE490A4D
:1016D00008F030F9019B002B00F0A2800B9BB5F8BD
:1016E00044A01E4404EB46030020CDE90597039374
:1016F0000646009059E095F838C0BCF1000F4BD079
:1017000007EE101A07EE903AF8EEC76AF8EEE77A9D
:1017100026EE806A27EE887A66EE886A37EE467A89
:1017200067EE807AB5EEC07A77EEA67AF1EE10FA1F
:101730004CBF37EE697A37EE297AF5EEC07AF1EED2
:1017400010FABDEEC77A4CBF77EEE97A77EEA97A48
:1017500017EE103AFDEEE77A5B4517EE901A47F662
:10176000FF70B8BF5B468342D5F85490A8BF0346CC
:101770005945B8BF594699F800E08142A8BF0146D3
:10178000BEF1000F04D117EE100A98425BD0E64676
:1017900089F800E01BB209B2A352009B7980534440
:1017A0000093019B01369E4238D0009B95F839C0CA
:1017B00008EB5302029B92B203EB8202A718A35ECE
:1017C000B7F90210BCF1000F95D00398B0F800C033
:1017D0000CF01F0E0EF1300E03FB0EFE4FEA9C23A1
:1017E000203BCCF3441C01FB03F3BEF1000F0CF1D2
:1017F000300C01FB0CFCB8BF0EF13F0E002BB8BF44
:101800001F334FEAAE1EBCF1000F0EEB6313B8BFDF
:101810000CF13F0C1BB24CF38F116CE7DDE905971F
:10182000099B049A1F44D31A04930A9B09F10109E6
:1018300099457FF415AF286843680DB0BDEC048B63
:10184000BDE8F04F184717EE900AB0EB010E18BF35
:101850004FF0010E9CE71836B6B2049B054AA2FB76
:1018600003016FEA11110EE70026F6E7000080374A
:10187000ABAAAA2AABAAAAAA0080FFFF70B5114E94
:10188000114A3368A2FB03239B09013BB3F1807F1C
:1018900001D3012070BD4FF0E0220C495361F023C9
:1018A00081F82330002507230F2895610446136132
:1018B000EFD801464FF0FF3005F0AEFB74602846CC
:1018C00070BD00BF00000020D34D621000ED00E0AD
:1018D0000CB4F0B5ADB032AB06AE53F8042B0593A3
:1018E00004460D463046962109F026FE9528C4BFD1
:1018F0001C4BCDF8AA301C4B1C49D3F88470A1FBBB
:1019000007311B4BA3FB0723980B1A4BA3FB0723A1
:101910004FEA931C184B4FF47A7202FB1C77A3FB1F
:1019200000E25209042CC2EB0212A0EB8202A3FBDC
:101930000CE398BF114800974FEA531394BF005D22
:101940003F20C3EB03130190CDE90256490DACEBE8
:1019500083030B4809F0BCFD2DB0BDE8F04002B098
:10196000704700BF2E2E2E0078000020B17C2195FC
:1019700073B2E745D34D621089888888B4020108A4
:10198000900201082DE9F04F2DED0A8B0D4689B02C
:1019900011469FEDC38AB5F828900192BC4A0C8C81
:1019A00091ED049A0093029083ED008A5A609A6048
:1019B000DA60B9F1000F00F0C285D0F808A02F79E5
:1019C000F0EE488A0026D046B3B20FB15B009BB25E
:1019D0000AEB83023AF9233007EE903AB2F902306B
:1019E00000EE903AF8EEE00AF8EEE77A20EEA80A68
:1019F000013637EE800A08F059FEF0EE480A08F08A
:101A000041FAB145B0EE408ADED1009BB4EEC90A7E
:101A1000F1EE10FA404683ED000A00F13F82002FFC
:101A200068D0DFED9F9AB6EE009A4FEA49074FF073
:101A300000080AF10206834608F1010292B20AEB9D
:101A400082011FFA88F3B1F902103AF922200AEE56
:101A5000901A0AEB830108EE902AB1F902203AF9B4
:101A60002330F8EEEAAA0AEE102A6AEEA97AF8EE16
:101A7000E88AB8EECAAA08EE103A78EEA78AB8EE5D
:101A8000C88A6AEE297AF0EE6A0AB0EE680A38EE81
:101A9000278A08F00BFEF0EE407A88EEA70ACAEE1D
:101AA000A76A20EE087A66EECA5A66EEC87A20EE79
:101AB0000A6A37EE657A77EE867AF1EE660AF4EE18
:101AC000477AF1EE10FA80F17F8537EE097A77EEEA
:101AD000897ABDEEC77AFDEEE77A17EE103A2AF85A
:101AE000183017EE903A26F8183008F102084745EA
:101AF000A2D158466B79002B40F0DC839FED688AB9
:101B00006E692C8B6F8B0AEB8909BAF9023000EEF3
:101B1000903A3AF9043BF8EEE00A07EE903A20EEEC
:101B2000880AF8EEE77A37EE800A08F007FE631CB1
:101B3000D14506EB8404B3FBF7F207FB123384EDC7
:101B4000000A9CB2E1D12C836E8B6C6B26B36F695B
:101B5000DFED537AB0003B4607EB8602B3EC017A27
:101B6000934277EE877AF9D107EE106AF8EE476A6A
:101B70002A8B87EEA67A20442146B2FBF6F306FBB9
:101B8000132307EB83030132D3ED007A77EEC77A94
:101B9000E1EC017A8842F0D1AA8D019BAF6B9B8862
:101BA000013A1FFA82FB0392BBF1000F00F04D8156
:101BB0004FF0010C0CFA0BF2E34502921FFA82F986
:101BC000C2F34E0800F06584B9F1000F00F0718196
:101BD0000026DFED337ABE46B246304632468242B8
:101BE00080F010849E423ABF04EB860292ED007AA8
:101BF000B0EE677A9C4580F0228404EB8C0292ED73
:101C0000006A66EE276A420092B2934288BF04EBF4
:101C1000820102F1010292B237EE267A8CBFD1ED39
:101C2000006AF0EE676A934240F20F8404EB82028E
:101C3000D2ED005A25EEA75A76EE856A07EBC00270
:101C4000CEED015ACEED006A82ED007A82ED016A96
:101C500010EA080F424607D020EA0200520800EAC4
:101C6000020189B20029F7D10AF1010A10431FFAD3
:101C70008AF20CF1020C02364A450EF1080E1FFAE8
:101C80008CFCB6B2ABD3DFED062A00210AE000BF20
:101C9000FFFF7F7FF304B53F00000080F304353F72
:101CA00000000000CA0002F1100602F118003E44D4
:101CB0003844D6ED006AD0ED005AD0ED017A96EDA9
:101CC000016A36EEE57A083207EBC10C3A4492ED30
:101CD000003AD2ED013A75EEA65A27EE225ADCED13
:101CE000016A36EE674A36EE276ADCED007A34EE9A
:101CF000454A77EE834A36EEA35A77EEC37A76EEFC
:101D0000E36A043135EEA43A75EE063A74EEE54A1C
:101D100035EE465A74EE275A36EEC76A77EEC47A25
:101D200037EE267A89B289458CED003ACCED013A3E
:101D3000C6ED004A86ED015AC2ED005A82ED016AF5
:101D4000C0ED007A80ED017AACD8B9F1040F40F211
:101D5000B0804FF0040A1FED310A5FED319A5FED5C
:101D6000308A0695CDE90434BFEE009A5446B7EEAA
:101D7000008ACA46B94679EE887A620089EE009AEE
:101D800095B2C7EE809A002C00F0288300274346C6
:101D9000B8462746F0EE68AAB7EE00AA1FFA88F602
:101DA000B24536D9F41909EBC40494ED000AD4ED18
:101DB000010A2AEE007A2AEEA06A6AEE207A6AEE1A
:101DC000806A37EE467A77EEA67AF4EE477AF1EE3D
:101DD00010FA80F1428309EBC60292ED016AD2ED5E
:101DE000006A36EE676A76EEC76A84ED016AC4ED72
:101DF000006A92ED016AD2ED006A2E4477EE867A8F
:101E000036EE877AB6B2B24582ED007AC2ED017A3B
:101E1000C8D86AEE297A29EE2A6A29EEAA7A6AEEE9
:101E2000096A77EEC67A37EE267AF4EE477AF1EE53
:101E300010FA80F1208408F10108B84500F0CA8248
:101E4000F0EE47AAB0EE67AAA8E7002B00F02B82BD
:101E5000012B94ED000A00F08483D4ED017A1FED8C
:101E6000707A27EE877AF1EE670A30EE070A37EECE
:101E7000807A70EE677AB4EE677AF1EE10FAC0F10C
:101E80001682F7EE001AB0EE611A029308F086FE91
:101E9000029BB0EE407AF0EE607A08E200232B74E9
:101EA00009B0BDEC0A8BBDE8F08FDDE90545049B68
:101EB0004F4697ED000AD7ED010A70EE808A30EEAA
:101EC000608AF4EE488AF1EE10FA80F15183BBF19A
:101ED000020F1FED8EBA00F05A83B7EE009AF0EEB3
:101EE0004BBA02269946F0EE489A3BEE898AF0EE0C
:101EF0004B0AB0EE480A08F0D9FB0136B6B2B3453A
:101F0000C8EE00BA8BEE00BAEFD14B46B0EE698A4C
:101F1000B8F1010FC7ED008A87ED018A6AD9BDF8D3
:101F200008601FEDA11AA8F10202F6EE001A92B2A3
:101F300007F1080AB0EE61CA07EBC6060AEBC20A4F
:101F4000B9469B4603E0B0EE6A1AF0EE4A1A6BEE11
:101F500081AA6BEE216A2BEE01AA2BEEA17AD9EDB4
:101F6000029AD9ED037A56ED025A16ED016A7AEE1D
:101F7000E6AA3AEE07AA35EEA99A37EEC68AB4EE7B
:101F80006AAAF1EE677AF1EE10FA79EEE59A77EE49
:101F9000C68A29EE0C9A28EE0C8A80F1FB826AEE42
:101FA000A96A2AEE286A2AEEA87A6AEE297A76EEDB
:101FB000C66A37EE277AB4EE667AF1EE10FA80F14F
:101FC000F48276EE895A38EE476AF1EE487AC9ED26
:101FD000025A89ED036A39EE669A77EEC77A09F1FB
:101FE0000809D14506ED029A46ED017AA6F10806E8
:101FF000A9D15B4607EBC808D8ED017AF1EE677A04
:10200000C8ED017AD7ED017A0399B5F83290D5F889
:102010003C8008228A403A440021C2ED007A516097
:102020007960B9F1000F00F02982B5F830B0D5F829
:1020300020A0CDF8108007EBCB0B4FEA8902CDE949
:1020400002392F7CA946019DD846B7EE008AA346E7
:102050000026144698ED000AD8ED010A08F026FB88
:10206000D9ED037A0AEB060160EE277A08F1080839
:1020700004365FB195ED027A91ED006A78EE476A19
:1020800027EE067A66EEA77A77EE277AA642C1EDAA
:10209000007ADFD14D46DDF80C90029BDDF8108010
:1020A00001225C46A9F10F0B1FFA8BFB2A74A9F1E0
:1020B000190292B25946002B00F0DC819FEDCB7AD9
:1020C000274626460020D6ED007A013067EE877A53
:1020D0001FFA80FC6345E6EC017AF4D8012BDFEDB2
:1020E000C77A1DD004EB8300B4EC017A844277EE0A
:1020F000877AF9D107EE103AB8EE476A9FEDBF7ABA
:10210000C7EE866AF7EC017A77EEE67A874267EEE9
:10211000A77A37EE277AF5D1C7EE066AF1EEE67AAE
:10212000009BC3ED037AB9F1000F3DD0D5F820A094
:102130009FEDAF6A9FEDB15A0AF12803CDE9023253
:10214000019AF3EE045AC64606274FF6F1740020B2
:102150000E28D2ED036A40F29B8083B29B4540F289
:1021600097800AEB84030193029B03EB840C019B91
:10217000F0EE457A0AEB8706B3EC017AF6EC014AF9
:1021800077EE877A634577EEA47AF5D187EEA57A64
:1021900077EE267A0130013401374845EEEC017ABA
:1021A000A4B2BFB2D4D1039AD8ED105A98ED0F6AF9
:1021B000DFED927A98ED117A75EEC66A37EE657AA0
:1021C00076EEA76AF6EE005A37EE267A08F1280373
:1021D00027EE257A03EB820337EE077A08EB8202BB
:1021E0004046F2EC016A934277EEA67AF9D1F2EE1C
:1021F000046AC7EEA65A08EB81010023F2EE0E6ACC
:102200009AB207EE902AF8EE677A013377EEE67A13
:102210000F2B67EE877A77EE867AE0EC017AE1ECB5
:10222000015AEDD1009A0023B9F1010F536032D960
:102230002E6A08F104080436012400279246B6EC01
:10224000010AF8EC017AB4EEE70AF1EE10FA0DDDBE
:102250009AED018AF0EE480A07F014FEB4EEC08A47
:10226000F1EE10FA8AED010A48BFA7B20134A3B219
:102270009945E4D87FB12A8EEB693A4403EB820397
:10228000009A1B68936009B0BDEC0A8BBDE8F08F23
:10229000F0EE467A7EE7574B009A536009B0BDECEA
:1022A0000A8BBDE8F08FDFED557AB0EE677A87EDE7
:1022B000007AA9E61F2C6B6A7FF620ACA3F1040814
:1022C00000EB840EA31EAEF1080E0393C446024633
:1022D0000027B2F90410B2F900A0B2F90830B2F93F
:1022E00006605B1AA1EB0A015B1AB2F902A0B2F90F
:1022F0000A10891BA6EB0A06002BA1EB0601B8BF4A
:102300005B420029B8BF494204320B4496454CF861
:10231000043F1F44DDD1039B97FBF3F7D8F804304B
:1023200007EB87079F4208F1040804F1FF3A80F2A7
:10233000928000231A460121049004F097FC04982F
:10234000061D631F9BB20595DFF8ACB0039D049397
:10235000022421E0534588BF1FFA8AF3B6F900C072
:1023600030F92320B6F9021000EB830E4FEA4C0C33
:10237000BEF90230624449000B448BFB02C1A1EB61
:10238000E2718BFB03C2A2EBE373B180F3800134F3
:10239000A24506F1040613D058F8042FA1B28B1CF5
:1023A00097429BB2F3DAAC42D4D1049B0390002253
:1023B000013404F05BFCA245039806F10406EBD15E
:1023C000059DB9F1000F3FF4BFAB029BD3F808A005
:1023D000FFF794BBAA4598467FF667AD39EE880AA9
:1023E000F0EE490A08F062F92C46C4E4BC29C54362
:1023F000FFFF7F7FFFFF7F7F565555550000000090
:10240000000000807FF424AC9E423ABF04EB8602B9
:10241000D2ED006A5FED076A1FED087A9C453DBF6B
:1024200004EB8C0292ED006A26EE077AB0EE476A62
:1024300076EE876A8EED016ACEED006A08E4F0EE72
:10244000676AB0EE676AFFF7DEBBB0EE675AF0EE80
:10245000675AFFF7F1BB061D73E7F0EE6A1AB0EE9C
:102460004A1A079308F09AFB079BB0EE407AF0EE09
:10247000607AB0E400980023C36059E601222A7410
:10248000002B00F0F1804FF6F1718B464FF6E772AA
:1024900014E6002B4AD0012BD4ED007A00F0D18055
:1024A000D4ED016A1FED2B7A26EE870A022B30EE5F
:1024B000270A00F0A480032BD4ED025A00F09D807F
:1024C000D4ED037A27EE876A77EEA67A76EE256A50
:1024D000C7ED017A36EE800AF1EE670A87ED000A51
:1024E000D4ED018A94ED036AD4ED026AD4ED005A6A
:1024F00028EE878A26EE077A38EE258A37EE267A86
:1025000078EEC68A70EE276A38EE478A70EE677AF0
:10251000F4EE676AF1EE10FA62D687ED028AC7ED33
:10252000038AC7ED006AC7ED017A63E51FED4D8AA6
:10253000F0EE488AF0EE487AF0EE486AEDE7B5EE44
:10254000C09AF1EE10FA3FF7A9AC6B79002B3FF47B
:10255000FBAA029B1F2C98686B6A3FF6AFAEFFF791
:10256000F3BA1FED5A7A5FED5A0AF0EE477A7CE42F
:10257000F7EE001AB0EE611AF1EE600A049308F06B
:102580000DFB049BF0EE408AB0EE608A9FE4F0EE13
:102590004BBABDE4F0EE4B0AB0EE6B0A08F0FEFA5F
:1025A000F0EE40AAB0EE60AAF9E4B0EE6A1AF0EEDE
:1025B0004A1AF0EE680AB0EE690A08F0EFFAF0EE97
:1025C000406AB0EE607AFCE4F0EE4A1AB0EE481AC7
:1025D00008F0E4FAB0EE407AF0EE607AFFF775BAF0
:1025E000F7EE001AB0EE611A029308F0D7FA029BD8
:1025F000F0EE406AF0EE607A8FE735EE877A1FEDF5
:10260000816A30EE070A36EE867A87ED000A87ED9A
:10261000017AD4ED018AD4ED007A28EE868A022B65
:1026200038EE278A70EE076A70EE477AF1EE470AB5
:102630003FF46EAF94ED027A37EE067A38EE478AB1
:1026400066E75FED928A5FED920AC7ED018A37EE89
:10265000A80A87ED000A94ED008AF0EE407A38EE81
:10266000288AF0EE406A53E7009B4FF6E772D96084
:102670004FF6F17198E5F0EE6A1AB0EE4A1AF0EEF4
:10268000490AB0EE690A079308F088FA079BF0EE52
:10269000407AB0EE607AFFF7CEBB00BF2DE9F04F75
:1026A000BFB00DF138090D469046019300F1020BC1
:1026B0003EAFCA46002440F6B73631E025B335F8C0
:1026C000141001F01F0E4FEA912C0EF1300E00FB9A
:1026D0000EF0C1F34411ACF1200C02FB0CFC0028FD
:1026E00001F1300102FB01F1B8BF3F30BCF1000F36
:1026F000B8BF0CF11F0C8011002900EB6C10B8BFA3
:102700003F3100B241F38F110134182C08BF00246F
:10271000FEF768FA4AF8040BBA450BF1040B0ED029
:10272000BBF900203BF9020C02FB02FC00FB00CCD1
:10273000B4451146C2DC00203FB0BDE8F08F0DACBF
:102740000DF1060109F15C05224652F8043F002B09
:10275000B8BF0F3302311B1195420B80F5D14846AB
:1027600004F094F8002254F8043F216EA542A3EB34
:1027700001031A44F7D1124B83FB0213D217C2EBA9
:10278000A31404F5994330334CF662129342D2D825
:1027900002AE35460FCD4D4508F1100806F1100682
:1027A00048F8100C48F80C1C48F8082C48F8043C71
:1027B000EFD1019B01201C803FB0BDE8F08F00BF2E
:1027C000ABAAAA2A38B52A4A0368D2F884501B68F3
:1027D0009B061BD4846A2368A2685868616820F04D
:1027E000200058609AB15868B1F5827F20F001004E
:1027F000586022D02946204603F09AFFB0B9012341
:102800000022A4F8462084F85D30236E38BD5A6853
:10281000B1F5827F0CBF22F0030222F001025A6060
:102820002946204603F084FF0028E8D0236E43F0B9
:102830002003236620232366E1E7B2F5004F12D17F
:102840001A6822F0400229461A60204603F070FF01
:102850000028EBD12A464FF4C0612046FEF784FCE5
:102860000028CCD0E2E7B2F5806FE9D0C2E700BF24
:1028700078000020F8B51C4D0368D5F884701B68FB
:10288000846A9B062CD42668736823F02003736047
:102890003A464FF4C0512046FEF766FC58B9394617
:1028A000204603F045FF30B93A464FF4C061204658
:1028B000FEF75AFC38B1236E43F020032366236EE3
:1028C00043F020032366736823F003037360002240
:1028D0000123E287A4F8462084F85D30236E0BB90B
:1028E00001232B76F8BD00BF780000202DE9F04FC2
:1028F0002DED108B9BB090F85E401D4690F85C303B
:102900000893042CB0F85830039380468946164645
:102910001AD8D0ED147AF5EEC07AF1EE10FA00F183
:10292000F58190F86630002B00F0918290F85B30D2
:10293000002B00F08C82024C024A059407E000BF95
:102940007800002000030108C64CC74A059423699B
:10295000C64900209847D8ED157AD4F88C300093FA
:1029600007EE103AF5EEC07AF1EE10FAB8EE478AAB
:1029700040F3D081C8EE278AF6EE007A78EEA78A77
:10298000039B002B00F0A68198F85E30049398F822
:102990005A30002B40F0A58198F86020022A41F0BF
:1029A000298198F85E40012C00F0E1830024224642
:1029B00034990C71A6F8AC21002B00F0978198F89F
:1029C0005F30012B00F00484022B00F0EB83002B1E
:1029D00040F0DD8301231A46F384328598F8603095
:1029E000012B00F0CD83022B00F0C983002B00F0F7
:1029F0000784059B9E4A1B699C4900209847B9F1B2
:102A0000000F00F0778100230093B9F8E410B9F8C3
:102A100008307180B9F8E610B180B9F8E210318061
:102A2000B9F8E810F180B9F8021031819B00B9F8CB
:102A3000041071819BB2B9F80610B18103F1300224
:102A4000B9F80A10F18192B2B9F8201031825F2AE8
:102A5000B9F82210718240F2EE818649A1FB020191
:102A6000890901EB4101A2EB411189B200201A460C
:102A700004460B460121F2820322B38272830023B3
:102A8000009A7384B483F083318331846B80012393
:102A9000C5F80A30002A00F054870027CDE90177F5
:102AA00006F13E039FED749A9FED74AADFED779ACD
:102AB000CDE90696B34605F10E0A44461E46049A31
:102AC000FBB29A4200F229810023AAF80030AAF84A
:102AD000083033800137042F0AF1020A06F102069A
:102AE0000BF1560B04F11404E9D1039BAA89DDF81C
:102AF00004E012FB03F26B8992B213449BB2DDE94E
:102B00000696591C012089B20090B6F8AC01012844
:102B100004D1DDE9020404FB00F00290029FB8F842
:102B2000640098F863C098F862B04FF6FF74A7424B
:102B300028BF27464408A4F1030A98F86640A6F87F
:102B40009EB18CF0010C0338A6F8A6C1A6F8A471BA
:102B5000A6F8A0E1A6F8A801A6F8AAA1AA81AB80D0
:102B6000E980002C00F02781413399B240240123F1
:102B700029802C81A6F8C031B9F1000F03D0B9F833
:102B80000C30A6F8C231009B002B40F03E81349AF5
:102B900098ED145A00231360089BA6F8B231039BEA
:102BA000012B40F22F81B8F85830023B01229BB232
:102BB0009FED336ADFED335A98F85A10F1EE007A40
:102BC000C8EE066A68EE277A68EE255A87EE867A9E
:102BD000C5EE867AB6EE006A76EE866A37EE067A3B
:102BE000FCEEE66AB5EE405AD8ED155AA6F8AE31BD
:102BF000F1EE10FA16EE903A77EE867ABCEEC77ACE
:102C0000A6F8B02114BF01220022FCEEE77A328739
:102C100098F85B20A6F8B43117EE103AA6F8B63152
:102C200017EE903AF5EE405AA6F8B831009BF1EE57
:102C300010FA14BF01200020002B40F0BE80318626
:102C40007286708598F861300F4A0098C6F8BA21EC
:102C50000121B184A6F8BE311BB0BDEC108BBDE8DC
:102C6000F08F00BF78000020BC020108D8020108E4
:102C7000FC030108ABAAAAAA2549123E8FC2753DE2
:102C80000024744900009643FF070108000000007B
:102C9000B5EEC07AF1EE10FA00F1078398F85A20E9
:102CA000002A00F00583B5EE407AF1EE10FA05D166
:102CB000F5EE407AF1EE10FA40F0BB835FED0D8A3D
:102CC000059B724A1B69724900209847039B002BA1
:102CD0007FF45AAE039B049398F85A30002B3FF4CC
:102CE0005BAE349A00231371A6F8AC31B9F1000F32
:102CF0007FF489AE0123A5F802906B81CE460221B4
:102D00004A46CDF80890CDF80090FEE6614C624A44
:102D100005941CE6DFED618A32E60123338098F8E2
:102D20005C90228940F2FF3340F2FF11B9F1000FAD
:102D300018BF0B4642B39A4226D8A27B237C3AB1F5
:102D4000022B05D1059B564A1B69DDE9069620E05A
:102D5000E07B002840F03E82012B00F0AB80059B19
:102D6000504A1B694A490090DDE906969847DDF80C
:102D700004E0039BAA8912FB03F26B8992B213440D
:102D80009BB2591C89B2C0E6059B474A1B69DDE925
:102D900006963F4900209847039BAA89DDF804E086
:102DA00012FB03F26B8992B213449BB2591C0020B0
:102DB00089B20090A9E62346DAE6B5EE405AF1EE74
:102DC00010FA0AD0C8EE057A77EE867AFCEEE77A3A
:102DD00017EE903AB3871B0C7387002361F30F0340
:102DE000F5EE405A62F31F43F1EE10FA708533633B
:102DF0003FF428AFFCEEE87A17EE903A1A0CB28551
:102E0000F3851FE700221346D2E698F85D30072BC2
:102E100015D8264A9FED219A134493F80439A6F851
:102E2000A231349B83ED009A049B002B40F0438237
:102E300098ED145AB0E60320012400211BE6349AD1
:102E400098ED145A0023136000230093A4E6012C8C
:102E500040F2E28198F80F104246012303E001336B
:102E6000A34200F0D981084692F82310814202F172
:102E70001402F4D2074F0E4A3C6905490597002019
:102E8000A047D8ED157AD7F88C3068E560030108C3
:102E9000D802010878000020EC02010800000000C0
:102EA0002C040108580401081C04010820C0000873
:102EB0002C0301086FF00B030993E288A3880A92A0
:102EC000182A009340F2968202EB820303EB03136D
:102ED00003EB032302EB4303C3F3CC0242EA433385
:102EE0009BB240F6AA22934200F2D782AF4B0A9AD5
:102EF000A3FB02231B090E93013B9BB215935C239A
:102F00000D9318230B930098002840F0D684059B5E
:102F1000A74A1B69A7499847B9F1000F00F0C08480
:102F20004FF000090222009B099913FB02F292B2B2
:102F30000092226811440A460C910A99013B01FB58
:102F40000323099302F5C34328334CF250329342D2
:102F500007D9059B984A1B699649002098474FF06E
:102F60000009099B03F5C34328334CF250329342C6
:102F700007D9059B914A1B698E49002098474FF05D
:102F800000090C9A002AC0F23D838D4880FB023074
:102F9000D217C2EBA00000B2099B002BC0F226831F
:102FA000874981FB0331099BDB17C3EBA101119317
:102FB00009B280B2091A0C9B0F90814880FB03C0B4
:102FC000C2EBA00288B209B20E9B1091B0FBF3F0E5
:102FD000411C0A901FFA81FE0B981821B1FBF0F3F7
:102FE0000E930C9B02EB4202B3EBC20200F1F7829C
:102FF00013B2139393B20C93099A7148119B0B99D6
:1030000080FB020CC3EBAC0303EB430C0C9BB3FB48
:10301000F1F001FB103081B2B2EBCC03099100F169
:10302000FB821AB219929BB20E9A0B98511E099A02
:1030300089B21891BEF1010F11FB002189B200F095
:10304000F182099A0C98824240F0FF82994200F086
:103050004F840023012213931692149312920E931D
:103060000C9B9A00099BABF882209B00ABF8843044
:10307000B9F1000F40F0F5826C23179336230C93BF
:103080007D223D234FF00009ABF87C300F9BABF85D
:103090007A200C9A1099C3F1290313441AB21192A1
:1030A000521A9BB2292A0F9307DC059B454A1B69DC
:1030B0004049002098474FF00009119B179A93420E
:1030C00007DB059B404A1B693A49002098474FF0AF
:1030D00000090D9B2C2B00F20F821E2B40F2E38384
:1030E0001E3B0F229BB20D92ABF89A30159B0C99A8
:1030F000ABF89430139BABF87E10ABF88E300F9981
:103100000A9BABF880100D99ABF89610ABF898209D
:10311000002B40F0CF81149B002B0E9B08BF002397
:103120000E93129B002B00F0D783099A199B9B1AD0
:103130000B9A93FBF2F39BB2169AABF89220ABF882
:103140008C300E9AABF888200023ABF89030ABF8A7
:103150008A300A9BABF88630B9F1000F40F0BC8290
:10316000CDF80090DDF804E0DDE9069601E698F878
:103170001020013A012A7FF619AC224618E40023F8
:103180007363B9F1000F41D0012300933DE4059B27
:103190000E4A1B69074900209847B9F1000F7FF4D8
:1031A00032ACA7E500231A4616E400BFABAAAAAAD0
:1031B000A4040108D8020108F0040108040501086C
:1031C000ABAAAA2A3805010858050108DC03010842
:1031D000002201E4013B042B00F2348501A252F8E5
:1031E00023F000BFB52E00082B340008F931000889
:1031F00023340008F93100086FF00C0309935CE6F2
:103200004FF001137363B9F1000FBDD100236B8040
:103210000123C5F80A3040E4B94B98ED157A0593BF
:10322000D3F88C30009306EE903AB5EEC07AF1EE0A
:1032300010FAB8EE668A7FF72BADC8EE078AF6EE75
:10324000007A78EEA78A18EE900A07F00DFE51B1C9
:10325000059BAC4A1B69AC4900209847039B002B97
:103260007FF492AB37E598F85A20002A7FF428AD16
:10327000039B98F85F10002B98F8603014BF20462D
:1032800000209942049007D9059BA04A1B699E49DA
:1032900000209847FFF77BBB022B00F0B584349BDE
:1032A0001A71A6F8AC21FFF78ABBDFED998ACFE748
:1032B000DFED978ADCE7B6F8AC31B6F8A421012B34
:1032C00000F0CD8007EE902ADFED929AB8EE67AA63
:1032D000B7EE089AF2EE02DA059B9FED8F0AD3F85B
:1032E0008C30019307EE903AB8EE67FA80EE0F0A41
:1032F00006F05AFB98F86030022B2FEE00FA00F22D
:103300002181864A98F85E1002EB830090ED00EA76
:10331000D0ED03FA002900F02681009BDFED7CEA66
:103320009FED7FBA9FED7FDADFED7FCA9FED7FCA09
:10333000DFED7FBADFED7FAADDF81490444600256B
:10334000227C052A00F29280022A40F29A804FF0F5
:10335000300A0827E27B052A00F26984DFE802F0E0
:103360003E413B034744F0EE4B7A8FEE276A2289B9
:1033700098F85E1002FB077702377F00BFB2A28881
:10338000013514349FED6C7AC6EE076A07EE90AAF9
:10339000F8EE677A87EEA66A07EE907AF8EE677A1B
:1033A00087EEA67A07EE902AF8EE677AEAB267EE21
:1033B000277A914277EE867A77EEA97A77EE897A44
:1033C0007EEEA7EABCD898ED145A002B40F0CF80CF
:1033D0000093FFF7E1BBF0EE6A7AC6E7F0EE6C7A95
:1033E000C3E7F0EE4D7AC0E7F0EE4C7ABDE7F0EEC1
:1033F0006B7ABAE70A9A002A4FD01823B3FBF2F38C
:1034000002FB03F3C3F118039BB21593002B44D1C5
:103410000A9A0B92531E9B009BB20D9301230E93AD
:1034200071E56FF00F03099347E56FF00603099309
:1034300043E598F85F2098F860309A427FF43EACFC
:10344000039B349ADFED328A002B14BF23460023FE
:10345000049300231371A6F8AC31FFF7B0BAF0EE75
:10346000499AF0EE49DAB0EE49AA35E7D9F81030BA
:10347000324A2549002098474FF0180A04270023B4
:1034800068E7012A05D0022AF0D14FF03C0A0A274A
:1034900060E74FF0480A0C275CE7059B284A1B6948
:1034A00019490020984700230122CDE90D321593D8
:1034B0000B9231E5149B002B0E9B08BF00230E934B
:1034C000129B33B1099A199B9B1A0B9A93FBF2F347
:1034D0009BB2ABF88C300A9B169AABF89220013B5A
:1034E0000E9AABF888209BB2189A0A930123ABF886
:1034F0008A20ABF890302CE600230D931A46F3E5B2
:10350000780000204C030108D80201088C03010850
:10351000000000009A999D41F902154F2CC900083E
:103520000000904300002043000000430000F043EF
:103530000000C04300004043002474498004010897
:1035400090040108059BBE4A1B69BE4900209847AC
:1035500098F85E30002B00F0EF81DFEDBBFA00231E
:10356000B0EE6FEADAE698ED145ADFEDB7EA9FEDB8
:10357000B77ADFEDB76A349BCFEE077AB1EE0C7AFB
:10358000C7EEA65A2AEE07AA7FEE8EFACAEE257A71
:103590009FEDB07A77EEAD7AB0EE006A77EEAE7A54
:1035A00077EEAF7A27EE877A37EE067A77EE277ACC
:1035B00086EEA77AB4EEC57AF1EE10FA83ED007AC2
:1035C0007FF5EAAA059BA44A1C699E49FDEEC77ACD
:1035D000002017EE903AA0470023009328E402F160
:1035E000180083B20C9303B2139305E509999B4B22
:1035F000C943A3FB0131099B6FEA1111DB1709B223
:103600001193D6E40C9A954BD043A3FB00306FEA9C
:10361000101000B2D217BFE403F1180002B283B257
:10362000199201E50C98824200F05F8100220A9213
:1036300016921292139A9B1A0B9A93FBF2F39BB277
:103640000E930123CDE913330AE5994200F05A8124
:103650000A9B013B9BB20A930123169312930B46DC
:10366000E8E7E37B052B00F21183DFE803F01A1390
:103670000C032B214FF486731793D6230C9340F23F
:103680001D128D2300E5AC23179376230C93BD22E6
:103690005D23F9E48C23179356230C939D224D232D
:1036A000F2E46C23179336230C937D223D23EBE445
:1036B0004FF4E67317934FF4CB730C9340F2DD1283
:1036C000ED23E1E44FF4B67317934FF49B730C931F
:1036D00040F27D12BD23D7E4A37A172B00F2FE80BF
:1036E000092B00F21B81C3F109039AB21523ABF831
:1036F0004630069BABF84820002B00F05B8203EBC2
:1037000042029389ABF84A30237C013B042B00F240
:103710009F82DFE803F0BA7603A984004FF0000926
:103720004FF400724FF4C063CDE909234FF0C00E8F
:1037300002204FF0040C08214A464B46ABF86E00BD
:103740000A98ABF856000998ABF870C0ABF858006F
:10375000ABF84E10ABF85010ABF852E0ABF854E0B9
:1037600098F85D10B9F1000F00F00681002B00F011
:103770000381022900F27881394B0B4493F8003918
:10378000ABF85A30069B002B00F019810023ABF8F0
:103790005E300123ABF86A30069B0021D3E932EC9E
:1037A000D3F8C4900B460EEB1140A0EB09009042F9
:1037B000614480F22C8201330F2BF4D1069AABF8CE
:1037C0006030D2E936E303EB83020EEB1242F92AB2
:1037D00000F3EC81062003FB00F0052103E0BCF1BF
:1037E000FA0C40F1D7810A46013189B214290EEB57
:1037F000104C1844F3D1059B1A4A1B69DDE9069663
:1038000037E100214FF40073CDE909134FF0400E6A
:1038100003204FF0020C08219622FA238EE74FF086
:1038200000094FF4F0504FF47853CDE909034FF4F9
:10383000F86E02204FF00B0C08214A464B467DE7FC
:10384000FC030108D802010800000000000020432A
:10385000002474490AD7233CD4050108ABAAAAAABC
:1038600020C00008A80501084FF000094FF4C06C03
:103870004FF46063CDE909C34FF4E07E02204FF0BE
:10388000060C08214A464B4658E7069B9B8C0422AF
:10389000082BCBF86E205BD9DDE90696FFF77CBAE2
:1038A0000422FFF740BB0D9B0F2B30D9A3F10F0271
:1038B0000F230D9392B2002316E4B9F1000F2AD121
:1038C000237B002B33D0059BC44A1B69C44948465F
:1038D00098470422FFF727BB0A9B2DE4059BC14AAA
:1038E0001B69DDE90696FFF754BA99427FF49EAE54
:1038F0000023CDE91333CDF828E0169312930E93ED
:10390000FFF7AEBB0023169312930B4692E60022FC
:103910001346FFF7E9BB0222FFF705BB102B94BF4C
:10392000C3F11E03C3F117039BB20022DFE64FF081
:1039300001090422FFF7F7BA98ED145A0093FFF734
:103940002BB900980290864602210246FFF7DDB8A7
:10395000ABF84E30ABF8503040230022ABF8523079
:10396000ABF854304FF40073ABF85630ABF8582036
:1039700098F85D1013469146072975D89A48014476
:1039800091F80419ABF85A100699C1B10021ABF8AF
:103990005E10B9F1000F40F08380ABF86A90ABF88D
:1039A0006090ABF85C90ABF86290ABF86890ABF8C5
:1039B00064904A460023ABF86620ABF86C3023894C
:1039C000E27AABF87620012B67D0023B9BB2012153
:1039D000ABF87230A37BABF84C3083F00103ABF84B
:1039E0007410ABF878300099AB89AAF800300B441A
:1039F000AAF80810AB81A388217C06EE903A2389AF
:103A0000012907EE103ABBF86E302AD0022914BF04
:103A1000F0EE695AF0EE4A5A01339BB207EE903A43
:103A2000F8EE677AB1EE006AF8EE666A67EE867ABB
:103A3000B8EE477A67EEA67A0198029B67EE877A1E
:103A4000014667EEA57A002808BF114667EE897A1D
:103A50000191FCEEE77A17EE902A13440293FFF7E8
:103A600039B8DFED625AD7E7059B614A1B69DDE98A
:103A700006965B4900209847039BAA89DDF804E07D
:103A800012FB03F26B8913FA82F39BB2591C0020DC
:103A900092B289B20090FFF738B80023194697E731
:103AA0000121ABF86A10002B7FF476AEABF86030E2
:103AB00019461A46ABF85C200022ABF86220ABF83E
:103AC00068204BBBABF864301A4602EB0109069A3A
:103AD000D2E92FE1CE451DDA0846002202F1010CA1
:103AE00009921FFA8CF2162A3FF485AE0EEB104CA9
:103AF000BCEB090C0844F1D4002B7FF45BAF0998B0
:103B000000FB01F10EEB1143A9EB03039C45C8BF79
:103B100002464FE700224DE7069BD3E9349C8945D6
:103B200046DA134662469E4601339BB2162B3FF49B
:103B300062AE09EB1240401A6244F4D40CFB0EF260
:103B400009EB12428A1A9042D8BF9E460699BBF8EA
:103B50006020D1F8CC30BBF85C00099002FB03F385
:103B6000D1F8C820ABF864E002EB13420B46D1F861
:103B7000C410521AD3E936303FF53DAE09990CFB1B
:103B80000EFE00FB01F103EB114309EB1E40191877
:103B9000FA239AE702FB03F30EEB1343C3F1FA0394
:103BA0009C45D8BF0A46FA210B4683E70522FAE76F
:103BB0009646CBE7069BABF84A30237C013B042BAF
:103BC00046D801A252F823F0133C0008033800083D
:103BD0001D370008693800081F380008B8040108BC
:103BE000D80201087005010820C00008CDCC4C3E69
:103BF00088050108349A1371A6F8AC31B9F1000FA9
:103C00007EF401AFFFF776B80123FEF7CCBE9BB27E
:103C1000D4E54FF000094FF40073CDE909934FF05C
:103C2000400E0420CC4602214A464B4686E5D9F890
:103C300010301A4A1A4900209847DFED1A7A0023FB
:103C4000FFF793BB059B184A1B69DDE9069610E751
:103C5000059B154A1B6912490020DDE90696984725
:103C6000AA89039BDDF804E012FB03F26B8956215D
:103C700013FA82F301FB076100209BB2C1F86E00CA
:103C8000591C92B2009089B2FEF73FBF059B034AD0
:103C90001B69034900209847FFF7EEB92C0501087E
:103CA000D8020108000000438004010870B5FEB08E
:103CB0004FF4E27204460D460DA8002103AE07F052
:103CC0007BFA00960DAA05AB00212046FEF70EFEFA
:103CD00008B97EB070BD94F85B202B46314605A82C
:103CE000FCF780FDF5E700BFBFF34F8F0549064B9A
:103CF000CA6802F4E0621343CB60BFF34F8F00BF8A
:103D0000FDE700BF00ED00E00400FA05FEE700BF9C
:103D1000FEE700BFFEE700BFFEE700BFFEE700BF13
:103D2000704700BF704700BF704700BF034AD2F81A
:103D300084300133C2F88430704700BF780000201F
:103D40000C4B0D49D3F890204FF480104861D16896
:103D5000490503D4012283F8B1207047D168C9B264
:103D600061F49061D1600120012283F8B40083F8EE
:103D7000B12070477800002000040140034B5A69CD
:103D8000120744BF08225A61704700BF0004014077
:103D90000148FCF7CBBB00BF300100200148FCF715
:103DA000C5BB00BF780100200148FCF7BFBB00BFC6
:103DB000C00100200148FCF7B9BB00BF0802002089
:103DC000084810B4D0F8D831D0F80C4299691A6874
:103DD0002CB1234600F5EC705DF8044B18475DF8F4
:103DE000044B704778000020034B5A69120544BF0A
:103DF0004FF400625A6170470004014010B5194C3D
:103E0000194AD4F890304FF4802151619A68D20455
:103E100002D5DA68D00509D49A68910402D5DA6827
:103E2000920513D4012384F8B13010BDDA68D2B200
:103E300062F4C0720121DA6084F82C1202F0CCFC2A
:103E400068B9D4F8903084F82C02E5E7DA68D2B289
:103E500062F42072DA60012384F8B13010BDFFF7FC
:103E600043FF00BF7800002000040140034AD2F85D
:103E7000883043F47003C2F88830704700ED00E0EA
:103E8000244A9368D26813F00C0305D00C2B34D06D
:103E9000042B38D1204870471E4A1168090754BFC7
:103EA000D2F8941011681D4A54BFC1F30321C1F325
:103EB000031102EB8102D2F82409002BEBD0154B41
:103EC000DB6803F00303022B22D0154A032B08BF43
:103ED0001046104BD968DA68DB68C3F34163C2F35C
:103EE0000622C1F30211013300FB02F201315B0033
:103EF000B2FBF1F2B2FBF3F0704702F00302012AC9
:103F0000CAD00020DBE7082B054818BF0020704707
:103F10000148DEE7001002400024F40020C0000841
:103F200000127A00064A074B92680749C2F3022240
:103F30001344086893F8543903F01F03D8407047BE
:103F40000010024020C0000800000020064A074B75
:103F500092680749C2F3C2221344086893F854399F
:103F600003F01F03D84070470010024020C0000833
:103F700000000020F0B504680546200583B000F17C
:103F8000F5800026A10351D5A74B9A6DD20040F1D0
:103F9000F8800027A549A64A0B6843F480730B609C
:103FA000D2F8840005E0D2F884301B1A022B00F20C
:103FB00001810B68DB05F6D5AEBB9B49A86DD1F836
:103FC000903013F4407326D0834224D0D1F890C0AF
:103FD000D1F8903043F48033C1F89030D1F890306C
:103FE00023F48033C1F890301CF0010F2CF440739F
:103FF000C1F890300FD0D2F884E041F2883C06E05E
:10400000D2F88430A3EB0E03634500F2D380D1F8DD
:1040100090309B07F4D5844AD2F8903023F4407353
:104020000343C2F89030002F40F0DC80E10708D550
:104030007D4A296AD2F8883023F003030B43C2F883
:104040008830A20708D5784A696AD2F8883023F008
:104050000C030B43C2F88830630708D5724AA96A7B
:10406000D2F8883023F030030B43C2F88830A7061B
:1040700008D56D4AE96AD2F8883023F440630B43CF
:10408000C2F88830A00508D5674AE96BD2F88830B5
:1040900023F440230B43C2F88830610508D5624AF7
:1040A000296CD2F8883023F440130B43C2F88830CF
:1040B000620608D55C4A296BD2F8883023F4405355
:1040C0000B43C2F88830230608D5574A696BD2F8EB
:1040D000883023F440430B43C2F88830E70508D505
:1040E000514AA96BD2F8883023F440330B43C2F80D
:1040F0008830200323D4374661030FD54A4AE96C40
:10410000D2F8883023F040630B43B1F1006FC2F85E
:10411000883000F08380B1F1806F77D03E46620432
:104120004DD43046230408D53F4A696DD2F8883013
:1041300023F080430B43C2F8883003B0F0BD3A4A05
:10414000A96CD2F8883023F040630B43B1F1006FC3
:10415000C2F888304CD0B1F1806FCCD10121281D3C
:10416000FCF732FA07460028C5D0C5E76F6CB7F5F3
:10417000000F11D0B7F5400F13D0002F3DD001260E
:1041800000E79A6D42F080529A659B6D03F0805370
:104190000193019B0127FDE6234AD36843F4803352
:1041A000D360214AD2F8883023F440033B43C2F85D
:1041B0008830E6E60326002F3FF438AF12E01A49B4
:1041C0002A6DD1F8883023F040531343B2F1805F59
:1041D000C1F88830A5D10221281DFCF7F5F9002887
:1041E0009FD09FE7104A936D23F0805393651DE79E
:1041F000D36843F48013D3607DE73946281DFCF76C
:10420000E3F9064600287FF4BDAECAE70121281D68
:10421000FCF7DAF90646002880D080E7D36843F43B
:104220008013D3607AE700BF0010024000700040A6
:1042300078000020F0B5704C7048714B94F819521A
:104240000022A42701269DB0C4E97603C4E978764C
:10425000C4E97A22C4E97C22C4F8F821002D67D091
:10426000242184F81912016821F001010160036121
:10427000836823F4004383600346104647F40047F5
:104280009F60596821F400615960596841F00071DC
:1042900041F400415960D96821F40041D960DA60E5
:1042A00018601968002241F0010120201960C4F84B
:1042B0001C2284F81902C4F8082284F81A2294F8FF
:1042C00019128142CDB240F0958094F8181201295C
:1042D00000F09080242084F81902196821F001016F
:1042E0001960196821F480511960196819601968FA
:1042F00041F00101196084F8195294F8191284F8F8
:1043000018222029CDB275D184F81902196821F03C
:1043100001011960196821F470611960196841F090
:104320000101196084F8195284F818221DB0F0BDFB
:1043300005F0FF01582206A884F8181206F03CFF89
:10434000802305A80593FFF715FE0746002851D1E5
:104350002C4D2D48EA6C42F00202EA64EA6C02F04D
:104360000202049204210322CDE90021334604997C
:1043700012224FF4406102F0CBFFAB6D43F4800397
:10438000AB65AB6D03F48003039321203946039B97
:1043900002F042FE1D4B02225A602422D4E97631FB
:1043A00084F81922D4E97A021D68D4F8E461D4F8BB
:1043B000E0710243D4F8F00121F0706125F00105AD
:1043C00042EA0022D4E97D0C1D6019619968012E32
:1043D00021F400414CEA000099603FF44FAF47F4EC
:1043E0000447022E9F607FF44CAF596841F400618E
:1043F00059604AE7FFF778FC780000200058004039
:10440000E49CD110001002400004004800E100E0EC
:104410002DE9F043A3B0764C2C220021684606F02B
:10442000CBFE744A94F8B1000023C4E92423C4E904
:104430002833C4E92A331F2140F2E733C4E92613A5
:10444000002846D0022384F8B130D368DB066AD551
:1044500094F8B0300125AB4284F8B15037D0D4F88D
:10446000903084F8B0504FF00209CA27532684F8E0
:10447000B1905F625E6202F055FCD4F8903008BBE8
:104480009A6818609A6822F480229A609A689A6002
:1044900002F06EFCD4F890304FF0FF08C3F824808F
:1044A00090B984F8B15084F8B1905F625E6284F88C
:1044B000B05002F037FC00286BD0D4F89030C3F82D
:1044C000248001E0FF225A62002384F8B030FFF715
:1044D0000BFC00F0FF0154220CA884F8B0104FF43C
:1044E000007606F069FE4FF400330BA80B9321967B
:1044F000FFF740FD05460028E9D13F4AD2F8903049
:1045000043F400430146C2F89030032002F084FDDA
:104510003A4F08233B602920294602F07DFD7E604A
:10452000D4F890208EE7CA2153235162536202F0DF
:10453000F9FBC8B9D4E924329968D4F8A00021F471
:10454000E00121F0400199600243D4F8A800996885
:1045500002430A43D4F89C109A6019611A69D4F88E
:10456000981042EA01421A6102F002FCD4F890303D
:10457000002838D1D96CD4F8AC20D4F8A40021F0AC
:104580000301D964D96C02430A43FF21DA645962FA
:104590005EE7D4F8903042F201125A6002F0E8FB74
:1045A000D4F890200346C2F8248000288CD14FF420
:1045B00080726846CDE90333CDE9073384F8B15002
:1045C00084F8B030ADF800308DF8023001930593D7
:1045D0008DF824500A9202F0F3FB00287FF477AFA5
:1045E00023B0BDE8F083FF225A62FFF77DFB00BFD6
:1045F00078000020002800400010024000E100E0A8
:10460000F0B4C56F202D4CD10C4601B112B9012078
:10461000F0BC7047194600252123C0F88450C367B9
:1046200083682B4FA0F85020B3F5805FD7F88460E3
:10463000A0F8522038D0B0F85220036892B2B2B13C
:10464000DA69120604D44A1C1DD1DA691206FCD5B7
:104650000CB314F8012B1A85B0F85220013A92B22B
:10466000A0F85220B0F8522092B2002AE8D1DA69BC
:10467000520604D44C1C1DD1DA695106FCD5202306
:10468000C3670020C4E7D7F88420921B914219D356
:10469000C1B11A68D4E735F8022BC2F308021A85B3
:1046A000DAE70220F0BC70470369002BC3D125462E
:1046B0001C46C0E7D7F88420921B914202D309B16F
:1046C0001A68D4E72023C367F0BC0320704700BFFB
:1046D00078000020026852E8003F23F4907342E81B
:1046E00000310029F7D102F1080353E8003F23F01D
:1046F000010302F1080C4CE800310029F3D1036EEC
:10470000012B06D000232022C0F880208366036698
:10471000704752E8003F23F0100342E800310029BF
:10472000F0D052E8003F23F0100342E800310029A6
:10473000EFD1E7E770B5AE4CD4F83052EB692A6898
:10474000A96840F60F00034240F08780980602D522
:10475000960600F1F380D4F89002012816D0D80212
:1047600002D5490200F1F4801E0605D4590602D58F
:10477000530600F1258170BD1006F7D5D4F89C32A0
:10478000002BF8D0BDE870409A481847DE06E6D501
:10479000D006E4D510232B62AB68B4F888225B0600
:1047A00040F14281D4F8A43219684B689BB2002BC7
:1047B00000F09681934280F09381A4F88A320B68CE
:1047C0009E0644D455E8003F23F4807345E8003248
:1047D0004AB1D4F8302252E8003F23F4807342E813
:1047E00000310029F5D1D4F8302202F1080353E852
:1047F000003F23F00103083242E800310029F2D1E2
:10480000D4F8302202F1080353E8003F23F04003BC
:10481000083242E800310029F2D12023C4F8B03236
:10482000C4F89012D4F8302252E8003F23F010036D
:1048300042E800310029F5D1D4F8A43293F82520BC
:10484000022A00F054810422DA6383F82410022340
:10485000C4F89432B4F88A3270BD11F0010640F009
:104860009E80654802423FF476AFD8070FD5D10548
:1048700040F1D68001212962D4F8B41241F001013F
:10488000C4F8B41299076BD5002E40F08C805807FD
:104890007DD51E0700F1C1801E050AD5500108D53F
:1048A0004FF400612962D4F8B41241F02001C4F839
:1048B000B412D4F8B41200293FF45DAF990602D5C2
:1048C000920600F1A080D4F8B422AB6802F028026E
:1048D00003F04003134300F000814648FFF7FAFE5F
:1048E000AB685B067FF547AF05F1080353E8003F6F
:1048F00023F0400305F1080141E8003262B1D4F829
:10490000302202F1080353E8003F23F0400308324D
:1049100042E800310029F2D1D4F8A40200283FF483
:104920002AAF90F82530354A8263022B00F0BB8015
:104930000423BDE87040C363FBF7E6BED4F89832A9
:10494000002B3FF418AF04F50C70BDE87040184719
:104950004FF480132B6270BDD1058BD4980722D4FD
:10496000590714D5002E94D004212962D4F8B4122A
:10497000180741F00201C4F8B4128DD5082129624C
:10498000D4F8B41241F00801C4F8B41284E719074E
:1049900082D502F0200131433FF47EAFEEE7D80725
:1049A000DAD499072CD502212962D4F8B4125E0713
:1049B00041F00401C4F8B412D6D41907DED46BE771
:1049C00055E8003F23F0400345E800324AB1D4F8EF
:1049D000302252E8003F23F0400342E80031002932
:1049E000F5D120220023C4F8AC22C4F89C3270BD5B
:1049F00078000020A8020020200100040907000818
:104A00005E07B1D4D9E7D4F89832002B3FF45BAFFE
:104A100042489847D4F8305255E79006AED43BE769
:104A200098073FF534AF9BE7B4F88A12B4F88A329E
:104A30009BB289B2002B3FF49EAE91423FF49BAEF5
:104A400055E8003F23F4907345E800324AB1D4F8AA
:104A5000302252E8003F23F4907342E800310029ED
:104A6000F5D1D4F8302202F1080353E8003F23F0D7
:104A70000103083242E800310029F2D12023C4F8B2
:104A8000B032C4F89812C4F89012D4F8302252E828
:104A9000003F23F0100342E800310029F5D1022342
:104AA000C4F8943270BD0268436C116821F00E01A5
:104AB0001160116821F0010111600124026C03F002
:104AC0001C0304FA03F35360002380F8254080F8A8
:104AD0002430BDE87040FBF717BEC4F8B43270BD97
:104AE00093427FF448AE0B689D06D8D470BD1A6817
:104AF0001D6C106820F00E001060106820F001009E
:104B000010605A6C012002F01C0200FA02F26A6086
:104B100083F8250083F8241099E600BFA80200203E
:104B20002DE9F041174F1D467B6913B1BDE8F041F7
:104B30001847FB684FEA4208002AF7D08F1EA8F1F9
:104B4000020406468E460C443A4632F802CF9CFADE
:104B50009CFCA242A2F800C0F7D142467146304602
:104B600098470DB9BDE8F08137F8023F5BBAA7421C
:104B70003B80F7D037F8023F5BBAA7423B80F3D1C6
:104B8000F0E700BF7800002000B583B041F4A041F9
:104B9000012394464FEA124EADF80010ADF80230F2
:104BA000042200236946ADF804E0ADF806C0FFF723
:104BB000B7FF03B05DF804FB2DE9F04FA5B0044644
:104BC000FBF7E6FA10B925B0BDE8F08FDFF80481F5
:104BD000A56898F88830012B05D9D8F81030374AE5
:104BE0003749022098477822364906A806F010FC7B
:104BF000D8F81430344A0492002B55D004AF022266
:104C0000394628469847DFF8D0A00DF1180B00264A
:104C1000BBF80440BBF80690A144A14532DD0397E0
:104C200005E0624698470134A4B2A14529DD44F469
:104C3000405C0399ADF810C0012328460322ADF86B
:104C40001260ADF81460FFF76BFFDBF80830BDF8B9
:104C500014C021462846002BE3D198F88820184933
:104C6000012A2B4652464FF00200DCD9DBF80070D7
:104C7000CDE9007C0134D8F81070A4B2B847A14542
:104C8000D5DC039F0BF10C0B24AB9B45C0D198F8EE
:104C90008830012B97D9D8F810300C4A08490220E7
:104CA00025B0BDE8F04F1847094B049304AFD8F87E
:104CB0000C300422394628469847A4E7F405010839
:104CC000380001087CC90008D5100100440601081D
:104CD00010D50001780000203006010810B50E4CF8
:104CE0008C461146228803F1020EB2EB4E0F06D21B
:104CF00023690A4A0A49BDE8104000201847013BD1
:104D00004CF4A04C4B802EF00042A1F800C0BDE84E
:104D10001040002304E700BF78000020800601084F
:104D2000A0060108F0B583B043F21C0200920123F3
:104D30000E460024032269460746ADF80440FFF7FB
:104D4000EFFEBDF8043013F4006517D141F21B04E7
:104D50002B46694638460222009446F40066FFF767
:104D6000DFFE38462B4669460222ADF80040ADF81A
:104D70000260FFF7D5FE012003B0F0BD044B054AE9
:104D80001D69054920463B46A847204603B0F0BDB3
:104D900078000020B4060108E4060108F0B50129F6
:104DA00083B00546144621D0022909D01B4B1C4A6A
:104DB0001C691C4903460020A047002003B0F0BD39
:104DC00043F2460384270026ADF80030284601232D
:104DD00003226946ADF80260ADF80460FFF7A0FE5B
:104DE000BDF8040030B164B90120E7E743F24503A0
:104DF0008327E8E7094B0C4A1C690A492B46A04760
:104E0000DBE747F480573346694628460222ADF86F
:104E10000070ADF80260FFF783FEE5E77800002040
:104E2000FC060108E406010818070108F0B501298D
:104E300085B00646154631D0022924D143F232030B
:104E400001240027ADF808300322012302A93046CF
:104E5000ADF80A70ADF80C70FFF762FEBDF80C30CB
:104E60006B8003F00702012A2A8027D013F0060086
:104E700018D11649164A0C6916490096A047002415
:104E8000204605B0F0BD114B134A1C691149034679
:104E90000020A0474FF440530024D2E743F23303ED
:104EA0000C46CEE7023A012AEAD9084A009614696C
:104EB00008490A4A3846A0472F80E0E70349084AD4
:104EC0000C69044900963846A047D8E778000020CE
:104ED0004C070108E4060108FC060108B0070108B8
:104EE0007C07010810B582B001AA01210446FFF732
:104EF0009DFF002201212046FFF750FFBDF804303E
:104F0000022B08D00549064A0C6906490020A04733
:104F1000002002B010BD012002B010BD78000020BA
:104F2000E40701082C0801082DE9F04383B01D4671
:104F300043F440534FF00008BDF82840ADF800306E
:104F40008946164669460123032245F480550746E3
:104F5000ADF80280ADF80480FFF7E2FDADF8005037
:104F6000BDF9045004FA09F46C4004EA0602554005
:104F70004346694638460222ADF80250FFF7D0FD9D
:104F800003B0BDE8F08300BF30B583B000252946EB
:104F900000957B23FF220446FFF7C6FF0121009105
:104FA00020468B230222FFF7BFFF8B238022009530
:104FB00007212046FFF7B8FF03B030BD70B582B0BF
:104FC00043F2370200230092ADF80430032201239C
:104FD00069460546FFF7A4FDBDF8043013F0C00F85
:104FE00019D143F21C0201230092002469460322D6
:104FF0002846ADF80440FFF793FDBDF804301B05CB
:1050000015D50E4B0E4A1E690E4920462B46B04759
:10501000204602B070BD094B93F88820002AE0D0EA
:105020001C69094A07492B460120A047D9E72846B1
:10503000FFF7AAFF012002B070BD00BF780000207A
:1050400078080108E40601084C0801082DE9F04F32
:10505000ADF6240DCDE9020106920021F0224CA804
:10506000089306F0A9F8DFF864B24FF00208934BFA
:105070004FF480541D469C6202F01CF8AC6102F0B3
:1050800019F8029B5BB9DBF810308D4A8D4900207E
:105090009847B8F1010F32D04FF00108E7E71B68DD
:1050A000894A9342EFD1039B002BF2D0DDF808A090
:1050B0009AF80D30DAF808400A2B14D8DFE813F01C
:1050C00025006804E3036203E602D0011C01AB0083
:1050D00075000B0025002046FFF704FF002840F074
:1050E000D985029B5B7B794D794A2C6979490020EF
:1050F000A047029A0023B8F1010F5373CCD10025C9
:1051000028460DF6240DBDE8F08F704DEC220021ED
:105110004CA806F051F8D5ED237ADFED6F5ADFED9C
:105120006F6AF8EE677AB6EE006A85EEA77AF4EE5B
:10513000E67A37EE067AF1EE10FABCEEC77A17EE91
:10514000103A9FB200F3A1849FED657AF4EEC77A1E
:10515000F1EE10FA00F19984A7F110039BB2EF2B46
:1051600040F2C2849FED5F7ADFED5F6A77EE877A67
:1051700037EE877ABCEEC77AB8EE477A37EEC77A51
:10518000FCEEE77A27EE267A17EE904AFCEEC77A15
:1051900017EE906ACDE90046544B2C69544A5549A4
:1051A0000020A047029B5B7B9EE72046FFF79AFE0C
:1051B000002896D0039960230022204601F090FB3E
:1051C0000DF5C3730DF5AB7200210546FDF766FAC8
:1051D000002886D028466EAB62AA0DF5DD71FDF77A
:1051E0005DFA00283FF47DAF204640F27C41FFF796
:1051F00099FD00283FF475AF09258AF80D5001F09C
:1052000035FF00283FF445AFDAF800302E4A9342CC
:105210007FF439AF4CE72046FFF764FE00283FF4E7
:1052200060AF102303990022204601F059FBBDF81E
:10523000BA31074603F01F09C3F3441E9B0A002539
:10524000A3F12000BB1C09F130090EF1300E0795C7
:105250000595AC462E4604930CE0059B9A426646A3
:1052600040F215859C46ABB2059207930135082D97
:1052700000F0E484049A37F9253032F9252009FB3F
:1052800003F302FB00F1002BB8BF3F33002902FB00
:105290000EF2B8BF1F319B11002A03EB6113B8BF98
:1052A0003F321BB242F38F1203FB03F302FB0232C5
:1052B000B242DBD96245D0D81646D7E70004004891
:1052C00078FF000890FF00080EB037137800002028
:1052D000E80801080C090108F902154F8096984C5E
:1052E0008096984BBD370635002474494C1201084E
:1052F000A8080108D40801082046FFF7F3FD0D9027
:1053000000283FF4EEAE504D504AD5F88C3003994A
:10531000A2FB0323BDF810229B0902FB03F30493B5
:1053200000224FF44073204601F0DAFA88AB0B906C
:1053300005930DF50779871C0DF61C06B7F90010CB
:1053400037F9020CFBF74EFC49F8040F4E4507F104
:105350000407F3D10DF1D00920220021484605F0C1
:105360002BFF3B4B0793049B0E9403EB4303DB00A3
:105370000993059B0C9503F15C064FF0000E33AAD0
:105380004FF6FF7337460A93744675461646A7F1E3
:105390005C0001F07BFA4FF0000CA7F1600050F8C0
:1053A000043F026E8742A3EB02039C44F7D1BCF199
:1053B000000FC0F2188440F694534FEA9C1003FB90
:1053C00000F0049B400D03FB00F0099B03EB102051
:1053D00070601DB13368834240F22B8556F8043F5C
:1053E000079AA3F16673A3F54A33203B002BB8BF9D
:1053F0005B42934202D20D9C07930A95691C8DB2C1
:10540000082D07F1C007C2D1A6460C9D0E9CBEF127
:10541000000F00F00F850A9B0093ADF852310D4B41
:105420000D49372283F8242020460C4A0C2301F032
:10543000EBFE204640F21741FFF774FC002840F0D5
:10544000AF85029B5B7B4FE678000020D34D621056
:1054500040420F000000002010E80008F4C90008D6
:105460002046FFF73FFD00283FF43BAE4FF440736A
:1054700000220399BD4DBE4E204601F031FA00F5E1
:10548000C06213AB0A9200220492CDE90C4388AAB1
:1054900005921CAACDE90E8A07930DF1D0090B9253
:1054A0004BAF82460B9CD046B8F9021038F9040B7A
:1054B000FBF798FB44F8040B4C45F5D133AA14468E
:1054C000D0460992B8F96210B8F96000FBF78AFB80
:1054D00044F8040FBC4208F10408F3D1DDE90413D9
:1054E000099A58180DF16C0E002152F8043F5EF82D
:1054F000044F1B1BAB4240F3F482A3F5C9237E3B50
:10550000AB42FADC002BB8BF5B429942B8BF1946E8
:10551000BA4240F8043BE8D1079B491043F8041F06
:105520000793049B603304930A9B0AF1C00A9A45CF
:10553000B8D1DDE90C43DDE90E8A002108460A46B0
:1055400053F8045F8542C8BF114602F10102C8BF8B
:105550002846082AF4D114AB0DF1CF0253F821509C
:10556000059B01EB410103EB41110DF1E70051F8FF
:10557000043BAB42ACBF0023012302F8013F904241
:105580001376F4D100200123024619F8011F6AB9ED
:1055900081B119F8011C69B91A4601200133302B79
:1055A0003FF49FAD19F8011F002AF1D0002900F047
:1055B0000A8301300133302BE7D1A0F10C03082B13
:1055C0003FF68FAD02EB5002172A02D9183A172A7C
:1055D000FCD892B2ADF83821920093B203F13005B5
:1055E000ADB25F2D40F28884624AA2FB0512920997
:1055F00002EB4202A5EB421200271D46B94693B2C8
:1056000001265D4A5D4900932046212301F0FCFDFF
:10561000594A5A4900952223204601F0F5FD0325F9
:10562000554A564900960123204601F0EDFD524AA5
:10563000524900950223204601F0E6FD4E4A4F49AB
:10564000CDF800902B46204601F0DEFD4A4A4B493A
:1056500000970423204601F0D7FD474A47490096AA
:105660000523204601F0D0FD002344490093204645
:10567000414A062301F0C8FD204640F2ED31FFF714
:1056800051FB00283FF42DAD0625B6E52046FFF777
:1056900029FC00283FF425AD039900225023204621
:1056A00001F01EF90DF59D72871E3021CDE9048AA7
:1056B0000A948C46384692463149CDF81CC00024E5
:1056C00047F6FF7605464FF6E473A646A1460F4619
:1056D000B046CDF824A009E0964204F10104C4BF0D
:1056E000D64616460833082C9BB21CD035F9022F3B
:1056F0000FFA83FA5CB135F802CCA2EB0C0C0FFA6E
:105700008CFCE045A8BFE0466745B8BF6746002A65
:10571000E2DA914204F10104BCBFD14611460833DC
:10572000082C9BB2E2D1A7F51C57103FBFB244F63C
:1057300020639F42DDF81CC0DDF824A011D8B8F129
:10574000000F0ED111F5004F47F6FF7300F07A837A
:105750009E4200F0D985AEEB090EBEF1080F00F0B5
:105760001586DDE904830293BBE400BF3F240300F8
:10577000C1DBFCFFABAAAAAAF4C9000810E8000824
:105780000080FFFF2046FFF7ADFB00283FF4A9ACE7
:10579000039900222023204601F0A2F8B0F900204E
:1057A00006460746012115460020944637F9022F88
:1057B00002F54873A3EB0C039BB2B3F5C86F3FF639
:1057C00090ACAA42A8BF084601F10101A8BF154646
:1057D0002029EAD1072840F295831728A0F1070372
:1057E00040F2D285D3F1200240F08F8388AB05933D
:1057F0000DF1D00905984946FBF784FA00283FF4DB
:1058000070AC99ED006AB5EE406AF1EE10FA3FF423
:1058100068AC99ED017AB5EE407AF1EE10FA3FF4FA
:1058200060ACD9ED026AF1EE666AC6EE877AF5EEF3
:10583000C07AF1EE10FAFFF654ACB1EE477AC7EE3B
:10584000066AF5EEC06AF1EE10FA7FF54AACB7EEE3
:10585000007A77EE877AFCEEE77A17EE903A9AB202
:105860003F2AC3F34E033FF63CAC83F010032046BF
:1058700040F21531ADF83631FFF754FA00283FF405
:1058800030AC0425B9E42046FFF72CFB0790002834
:105890003FF427AC039941230022204601F020F871
:1058A0000023028C05920146A0F1020C9946049354
:1058B0004FF6FF7E5A1E02FB02F2C2EBC2025000FC
:1058C00000F51676C83A3CF9020F002B00F08181F2
:1058D0003CF9027C00F57A75C01B9042FFF601ACE2
:1058E000B0423FF7FEAB85EAE572A2EBE57292B2F9
:1058F000724506D24FEA83099646079A04921FFA28
:1059000089F90133102BD5D1049A002A3FF4E9AB71
:10591000B1F822E0B1F88020A2EB0E0289F0300746
:10592000B2F5FA6FADF83471FFF6DBABB948099701
:105930001204A0FB02025209002020310792054602
:105940004FF6FF76A14631F8022F059FA2EB070C18
:10595000BCF1000FB8BFCCF1000C1FFA8CFCB445B1
:105960000EEB104438BF664604F5487C38BF1D4630
:10597000944503F1010702F5487280F0FA83079A13
:10598000BBB2402B10443FF4ACAB00220492DAE7E8
:105990002046FFF7A7FA00283FF4A3AB88AA1546D4
:1059A00043F232030026294688930322012320462E
:1059B000ADF82462FFF7B4F80399AD88122332469C
:1059C000204600F08DFF0146B0F800C047883346FE
:1059D000304604314FF6FF7645FA03F2D2070AD576
:1059E00031F81320D21B002AB8BF524292B296421D
:1059F00084BF98B216460133102BEDD1431E0D2BF8
:105A00003FF66FAB00F10043013B01EB430631F879
:105A10001320738841F28731D21A8A427FF761AB33
:105A20004FF6FF7295423FF45CABB2889B1A8B42F3
:105A30007FF757AB40F2E51303FB0CF31B0CA3F508
:105A4000897313F1140F1AB2C0F2B3842C2A40F3F5
:105A5000AD844F2ACCBF042303236F49ADF85431E2
:105A60000090ADF832016D4AADF830C120462523D3
:105A700001F0CAFB204640F23321FFF753F900281A
:105A80003FF42FAB0225FFF7B8BB9FED657ADFED42
:105A9000656A654B654A664977EE877AB94637EE9F
:105AA000877A0020BCEEC77AB8EE477A37EEC77A1D
:105AB000FCEEE77A27EE267ACDED007A17EE904AD3
:105AC000FCEEC77ACDED017A2F6917EE906AB847E0
:105AD000A9F11003EF2B3FF65DABB2E403F5C92348
