:020000040800F2
:100000000000012089CD0008655A0008695A0008DF
:100010006D5A0008715A0008755A00080000000067
:10002000000000000000000000000000795A0008F5
:100030007D5A000800000000815A0008855A000817
:10004000D9CD0008D9CD0008D9CD0008995A0008AB
:10005000D9CD0008D9CD0008D9CD0008D9CD0008E8
:10006000D9CD0008D55A0008D9CD0008D9CD00084F
:10007000E95A0008F55A0008D9CD0008D9CD000882
:10008000015B00080D5B0008D9CD0008D9CD000840
:10009000D9CD0008D9CD0008D9CD0008D9CD0008A8
:1000A000D9CD0008D9CD0008D9CD0008D9CD000898
:1000B000D9CD00080000000000000000D9CD0008E4
:1000C000D9CD0008195B0008D9CD0008D9CD0008AA
:1000D000D9CD0008D9CD0008A5600008D9CD000809
:1000E000415B0008555B00080000000000000000B4
:1000F0000000000000000000000000000000000000
:1001000000000000D9CD000800000000D9CD000893
:100110000000000000000000D9CD0008D9CD000883
:10012000D9CD0008D9CD0008D9CD0008D9CD000817
:10013000D9CD000800000000000000000000000011
:10014000D9CD0008D9CD0008D9CD000800000000A5
:10015000D9CD0008D9CD0008D9CD0008D9CD0008E7
:10016000D9CD0008D9CD0008D9CD00080000000085
:10017000D9CD0008D9CD0008000000000000000023
:10018000D9CD0008D9CD0008D9CD00080000000065
:1001900011F00EB90368816A1B6813F0200317D1B0
:1001A0000A68A1F8523002F1080353E8003F23F037
:1001B000800302F1080040E800310029F3D152E841
:1001C000003F43F0400342E800310029F7D1704777
:1001D000034B994204BF002381F88830704700BF69
:1001E00090030020014BD3F88C007047900300204F
:1001F000B1F804C093680A899A80BCF1000C18BF5A
:100200004FF0010CCA7983F800C091F806C083F85A
:1002100001C09A709860704711F0D2B870B4436C06
:10022000066C056831682C6803F01C0304229A40B0
:100230000A420ED014F0040F0BD02B689B0603D497
:100240002B6823F004032B60036B7260CBB170BC8E
:10025000184702229A400A4215D014F0020F12D019
:100260002B68990606D42B6823F00A032B60012320
:1002700080F82530C36A7260002180F82410002BBA
:10028000E5D170BC704708229A400A42F9D0220793
:10029000F7D52A68416B22F00E022A60012202FA89
:1002A00003F300247360C26380F8244080F82520A3
:1002B0000029E6D070BC0847264A9368D26813F03C
:1002C0000C0305D00C2B32D0042B3ED122487047B2
:1002D000204A1168090754BFD2F8942012681F49B8
:1002E00054BFC2F30322C2F3031251F82200002BC1
:1002F000EDD0184BDB6803F00303022B23D0184A20
:10030000032B08BF1046134BD968DA68DB68C3F3C8
:100310004163C2F30622C1F30211013300FB02F272
:1003200001315B00B2FBF1F2B2FBF3F0704702F077
:100330000302012ACCD0074BDB6803F00303022B36
:100340004FF00000DBD10448DDE7082B044818BF5C
:1003500000207047001002400024F400E83A010831
:1003600000127A00434A036830B4D468A40707D067
:10037000D46804F003049C424AD0012030BC70478A
:10038000022B56D0032B4DD0012BF6D112689207C9
:10039000F3D5384CE26822F0730213434268013A05
:1003A00043EA0213E360334C334A236823F080634B
:1003B0002360D2F88C5004E0D2F88C305B1B022B07
:1003C0003BD823681B01F7D483681B02002936D170
:1003D0002169C56821F0784121F4FE4143EAC563F3
:1003E0000B43236123490B6843F080630B60D2F811
:1003F0008C4004E0D2F88C301B1B022B1DD80B68FC
:100400001B01F7D582690B69134300200B61B5E727
:10041000002CB2D0D3684268C3F302130133934275
:10042000ABD1C0E71468A403B3D412685203A4D5B7
:10043000AFE712685505A0D5ABE703209EE7012979
:1004400021690BD021F0C06121F4FE4119434369B9
:100450005B08013B41EA43612161C3E721F4C0012C
:1004600021F4FE410B4301694908013943EA415334
:100470002361B7E70010024090030020F0B5046844
:100480000546200583B000F1F6800026A10351D572
:10049000A54B9A6DD20040F1F8800027A349A44AE9
:1004A0000B6843F480730B60D2F88C0005E0D2F83F
:1004B0008C301B1A022B00F201810B68DB05F6D58C
:1004C000AEBB9949A86DD1F8903013F4407326D093
:1004D000834224D0D1F890C0D1F8903043F48033D7
:1004E000C1F89030D1F8903023F48033C1F89030C7
:1004F0001CF0010F2CF44073C1F890300FD0D2F8EB
:100500008CE041F2883C06E0D2F88C30A3EB0E037D
:10051000634500F2D380D1F890309B07F4D5824A2E
:10052000D2F8903023F440730343C2F89030002F88
:1005300040F0C880E10708D57B4A296AD2F88830A4
:1005400023F003030B43C2F88830A20708D5764A8C
:10055000696AD2F8883023F00C030B43C2F8883064
:10056000630708D5704AA96AD2F8883023F03003AF
:100570000B43C2F88830A70608D56B4AE96AD2F85F
:10058000883023F440630B43C2F88830A00508D5B7
:10059000654AE96BD2F8883023F440230B43C2F854
:1005A0008830610508D5604A296CD2F8883023F478
:1005B00040130B43C2F88830620608D55A4A296BAB
:1005C000D2F8883023F440530B43C2F88830230616
:1005D00008D5554A696BD2F8883023F440430B4361
:1005E000C2F88830E70508D54F4AA96BD2F88830A1
:1005F00023F440330B43C2F8883020030ED54A4A17
:10060000A96CD2F8883023F040630B43B1F1006F3E
:10061000C2F888305CD0B1F1806F74D061030ED520
:10062000414AE96CD2F8883023F040630B43B1F1C2
:10063000006FC2F8883050D0B1F1806F6BD0620487
:100640000BD539492A6DD1F8883023F04053134334
:10065000B2F1805FC1F888304DD0230408D5324A0A
:10066000696DD2F8883023F080430B43C2F888309C
:10067000304603B0F0BD6F6CB7F5000F10D0B7F582
:10068000400F12D077B3012600E79A6D42F08052F6
:100690009A659B6D03F080530193019B0127FDE652
:1006A000214AD36843F48033D3601F4AD2F888309C
:1006B00023F440033B43C2F88830E6E60326002FCC
:1006C0003FF438AF184A936D23F08053936531E7B8
:1006D000D36843F48013D360A0E7D36843F4801356
:1006E000D360ACE73946281DFFF73CFE06460028DC
:1006F0007FF4CCAED9E70221281DFFF733FE002896
:1007000018BF0646A9E70121281DFFF72BFE002888
:1007100018BF064682E70121281DFFF723FE0028A7
:1007200018BF06468BE700BF001002400070004073
:1007300090030020704700BF704700BF836A1968AC
:100740004A6822F003024A601A6E4FF0010C42F030
:1007500010021A6683F85DC0704700BF704700BF83
:100760000368806A1A6812F0200228D10368A0F892
:100770005A2053E8002F22F4807243E80021002918
:10078000F7D103F1080252E8002F22F0010203F131
:10079000080C4CE800210029F3D103F1080252E8CB
:1007A000002F22F0400203F1080C4CE80021002940
:1007B000F3D12022C0F88020026E012A03D000234A
:1007C0004366036E704753E8002F22F0100243E89F
:1007D00000210029F3D053E8002F22F0100243E853
:1007E00000210029EFD1EAE7836A01225A661B6ED5
:1007F000704700BF0278142A01D001207047F8B575
:100800001E461B685BB10F4635460024696855F8E3
:10081000083F38469847336801349C42F6D301209C
:10082000F8BD00BF58B32DE9F041154F05464FF014
:1008300000082C462D68E268D10516460ED4A06843
:1008400028B1FFF7EFFFE268D305164606D420690A
:1008500098B17B689847E668C4F8108016F4007673
:1008600004D1206A10B17B68984726627B682046D5
:100870009847002DDDD1BDE8F0811646EEE77047C0
:100880000000002010B5421EC11C002012F8013FDC
:10089000A3F1300C5FFA8CFEBEF1090FA3F1410405
:1008A00004D860448A420AD00001EFE7052CA3F186
:1008B000610CA3F1370403D88A422044F4D110BD5F
:1008C000BCF1050F02D8573B1844EBE7002010BDE0
:1008D0002DE9F0478B680D688846E95C5A1C22298F
:1008E000814605EB020605EB030019D1D8F8047028
:1008F000BA4215D23446002103E00134621BBA42E9
:100900000ED22378222B14D05C2BF6D10134631B3A
:100910009F4205D90134621BBA4201F10101F0D3B3
:1009200026B1D8F80030F31AC8F808300020BDE826
:10093000F0879742F4D9231AC1F101001844D8F87E
:100940001030984782460028EAD0B44240F29080A6
:10095000574606E001367A1CB4423B7040F289806B
:10096000174633785C2BF5D17378752B18D85B2B31
:1009700012D9A3F15C02192A12D8DFE802F075112E
:1009800011111111701111116B111111111111119E
:100990006611111161115C16222B65D02F2B63D0CB
:1009A000D8F8143050469847BBE7A31B052BF7DD5A
:1009B000B01CFFF767FFA0F55C43B3F5806F0546F9
:1009C000EED3A0F55843B3F5806F61D2B31DE31A9F
:1009D000052BE5DDB3795C2BE2D1F379752BDFD103
:1009E00006F10800FFF74EFFA0F55C42B2F5806FFC
:1009F000D6D2374AC0F3090302EA8522134303F52E
:100A000080350C214FF0F00E0323042207EB030C7A
:100A100005F03F00013B60F07F0013F0FF030CF88E
:100A200001094FEA9515F3D14EEA050E5FFA8EF3F0
:100A30003A440E4490E702217A1C09230E448BE7C6
:100A400002217A1C0D230E4486E702217A1C0A2318
:100A50000E4481E702217A1C0C230E447CE702211C
:100A60007A1C08230E4477E702217A1C0E4473E7B0
:100A70005246002313701023C9F80C30D8F8003008
:100A8000C9F810A0E31A0133C8F8083001204EE776
:100A90007F2804D80122C3B206213A44C9E7B0F541
:100AA000006F05D206214FF0C00E01230222ADE7F0
:100AB000B0F5803F05D206214FF0E00E022303225D
:100AC000A4E7B0F5881FBFF46BAF06219AE700BF1B
:100AD00000FC0F000146E8B10068E0B110B4D1E9B4
:100AE0000143A3420CD25A1E024403E001339C424C
:100AF0008B6009D012F8010F2028F7D99C4203D04F
:100B000008465DF8044B7047013C8C6008465DF870
:100B1000044B70477047704718B1084A016891420A
:100B200006D0074B074AD3F8A030074900201847E2
:100B3000034A0021D2F89820016010470FB0371304
:100B400090030020D4820108DC88010810B418B199
:100B50000C4B04689C4208D00B4B0C4AD3F8A030D5
:100B60000B495DF8044B00201847042A02D1064BBC
:100B7000084AF3E702EB820200EB8200C1745DF8E1
:100B8000044B70470FB0371390030020D482010844
:100B9000DC880108EC82010838B50D461849864604
:100BA00000F1FF3C00F1EB044FF0FF321CF8013F75
:100BB00008205A4042F300030B40013883EA5202F6
:100BC000F8D1A445F2D1DEF8EC30D24393420CBF09
:100BD0000124002407D00B4B0B4AD3F8A0300B495B
:100BE0009847204638BDBEF8003040F2E51202FBBF
:100BF00003F31B0CA3F589732B80204638BD00BF7F
:100C00002083B8ED900300200483010820830108AD
:100C1000074B10B51B6828209847044628B12822A6
:100C200000210EF02BFB2023E360204610BD00BF07
:100C30000000002070B5114E114AF368A2FB032397
:100C40009B09013BB3F1807F01D3012070BD4FF0C0
:100C5000E0220C495361F02381F82330002507235B
:100C60000F28956104461361EFD801464FF0FF301D
:100C70000AF0F6FE3461284670BD00BF0000002077
:100C8000D34D621000ED00E000283FD070B504465F
:100C90000068E0B16368BBB9002918DBA2680131C4
:100CA00011448B4215D223698BB9B1F1804F12D216
:100CB000236A4D00B3B129469847064600B3A068A1
:100CC000C4E90065304470BDA2689342E4D80020B6
:100CD00070BD104470BD0029F9DB236A6FF0004538
:100CE000002BE8D1A36928469847064640B1A26880
:100CF000216801320EF096FCE36920689847DEE730
:100D0000E36920689847C4E90066E0E7002070477F
:100D100038B5084BD3E92A4500212A4620460EF073
:100D2000ADFA0AF04DFFA9B22046BDE838400AF0FE
:100D3000C1BE00BF9003002038B568B10D4659B15F
:100D400084682CB909E00BF057FA30B1246824B15B
:100D5000216A28460029F6D10024204638BD00BF6C
:100D60002DE9F8430D469549DDF8209004461746D5
:100D70009846FFF7E1FF18B1037B082B00F00E81C6
:100D800000268F492046FFF7D7FF88B1037B082B49
:100D90000ED1416925B18B4B2A689A4200F06381DC
:100DA000894B8A4AD3F8A030894900209847012608
:100DB00088492046FFF7C0FF88B1037B082B0ED17E
:100DC000416925B17F4B2A689A4200F037817E4BFA
:100DD0007E4AD3F8A0307E490020984701267E49FC
:100DE0002046FFF7A9FF88B1037B082B0ED141698C
:100DF00025B1744B2A689A4200F02B81724B734ADA
:100E0000D3F8A03072490020984701267349204644
:100E1000FFF792FF88B1037B082B0ED1416925B102
:100E2000684B2A689A4200F0FF80674B674AD3F804
:100E3000A030674900209847012669492046FFF7FE
:100E40007BFF88B1037B082B0ED1416925B15D4B37
:100E50002A689A4200F030815B4B5C4AD3F8A0309C
:100E60005B490020984701265E492046FFF764FF52
:100E700080B1C3689A070DD025B1524A29689142C2
:100E800000F00681504B514AD3F8A0305049002061
:100E90009847012654492046FFF74EFF80B1C368AA
:100EA00098070DD025B1474A2968914200F0FA8091
:100EB000454B464AD3F8A0304549002098470126C3
:100EC0004A492046FFF738FF80B1C36899070DD023
:100ED00025B13C4A2968914200F0D0803A4B3B4A08
:100EE000D3F8A0303A4900209847012640492046CF
:100EF000FFF722FF80B1C3689A070DD025B1314AB0
:100F00002968914200F0E2802F4B304AD3F8A0309C
:100F10002F4900209847012636492046FFF70CFF4D
:100F2000002839D0037B102B36D104693249204682
:100F30000BF062F9002800F0DB80304920460BF00E
:100F40005BF9002800F02A812D4920460BF054F966
:100F5000002800F0C5802B4920460BF04DF90028F1
:100F600000F02A81284920460BF046F9002800F0BD
:100F70002981264920460BF03FF9002800F0168110
:100F8000234BC8F8003000200126B9F1000F01D032
:100F900089F80060BDE8F8830120F6E741691DB1DA
:100FA000084B2A689A4235D0074B084AD3F8A0303C
:100FB0000749002098470126E3E600BF288301087F
:100FC000E09401080FB0371390030020D482010889
:100FD000DC880108CC940108BC94010858940108ED
:100FE000AC9501083483010840830108508301084F
:100FF0006483010868950108808301088C830108D7
:1010000098830108A4830108AC830108B483010814
:10101000183B0108042F71D16D4B6E4AD3F8A030F4
:101020006D4900209847C6E7042F78D1684B694A7C
:10103000D3F8A030684900209847FDE6042F40F01F
:101040009080634B634AD3F8A030634900209847EF
:10105000C4E6042F74D15E4B5E4AD3F8A0305E49DB
:1010600000209847D1E6042F40F08C80584B594A15
:10107000D3F8A03058490020984798E6042F54D15F
:10108000534B544AD3F8A0305349002098472CE7DB
:10109000042F6CD14E4B4F4AD3F8A0304E4900205C
:1010A0009847F6E6042F51D1494B4A4AD3F8A0306D
:1010B00049490020984702E7042F69D1444B454A2B
:1010C000D3F8A030444900209847CCE6042F1BD128
:1010D0003F4B404AD3F8A0303F49002098471AE7D9
:1010E0003A4602212846FFF731FD012006464CE72B
:1010F00001463A462846FFF729FDF6E707EB870346
:1011000005EB8303596056E7A3F1020307EB87025F
:10111000B3FA83F305EB82025B095374FBE607EB3A
:10112000870305EB8303998186E6A3F1020307EBAE
:101130008702B3FA83F305EB82025B091374D4E6EA
:1011400007EB870305EB830319755EE6A3F1020342
:1011500007EB8702B3FA83F305EB82025B09937412
:10116000ADE607EB870305EB8303598136E6A3F170
:10117000020307EB8702B3FA83F305EB82025B09F4
:10118000D37386E607EB870305EB830319810EE62D
:1011900007EB870305EB8303997364E628463A4619
:1011A00001210126FFF7D2FC3046EEE63A46052142
:1011B0002846FFF7CBFC98E73A4603212846FFF77D
:1011C000C5FC92E73A4604212846FFF7BFFC8CE7AE
:1011D00090030020EC820108DC880108264B2DE9F1
:1011E000F0411B680546282057EC106B884698474D
:1011F000044690B1282200210EF040F80823E36055
:10120000C4E906671AA3D3E90023304639460BF038
:1012100099FC60B16FF00043636128462246414665
:101220000AF026FA0546A0B12046BDE8F081134B2E
:101230000022304639460BF07BFC88B14FF000436A
:1012400028466361224641460AF012FA0546002804
:10125000EAD120462C46FFF7E5FA2046BDE8F081AA
:10126000304639460BF098FC6061D6E7AFF300805A
:101270000000C0FFFFFFDF41000000200000E0C1D0
:101280000E4B70B51B68054628200E46984704464D
:1012900028B1282200210DF0F1FF2023E360284629
:1012A000224631460AF0E4F9054608B1204670BDF1
:1012B00020462C46FFF7B6FA204670BD00000020FD
:1012C000F8B50F4B06461B6828200F461546984771
:1012D000044628B12822002101350DF0CFFFE5603A
:1012E0002246394630460AF0C3F9054618B1201E99
:1012F00018BF0120F8BD2046FFF794FA2846F8BD34
:10130000000000202DE9F843DFF880800646D8F879
:10131000003028200F461546984740B3044628223F
:1013200000210DF0ABFF1023E360EDB128460AF079
:10133000BFFF00F10109D8F80030484698478046C1
:1013400088B129464A460EF06DF9C4F8108022464D
:10135000394630460AF08CF9054688B1201E18BF80
:101360000120BDE8F88320612046FFF75BFA0024E6
:101370002246394630460AF07BF905460028EDD171
:101380002046FFF74FFA2846BDE8F883000000200A
:10139000002849D02DE9F84384685CB3DFF88C90CD
:1013A0000F4616E0D9F80030D4F82080984728225C
:1013B0000021064658B30DF061FF022D18BF01252C
:1013C000F5603246414638460AF052F940B3246887
:1013D00084B1E568AA074FF02800EBB2E2D1102BE8
:1013E00038460AD12269216AFFF78CFFA8B1246828
:1013F000002CEED10120BDE8F883082B0DD194ED2F
:10140000060B216AFFF7EAFE0028E0D105E002465C
:10141000414638460AF02CF910B10020BDE8F883A7
:101420003046FFF7FFF9F8E7012070470000002081
:1014300038B52A4A0368D2F88C501B689B061BD427
:10144000846A2368A2685868616820F020005860A8
:101450009AB15868B1F5827F20F00100586022D01F
:101460002946204608F0B8FBB0B901230022A4F8B1
:10147000462084F85D30236E38BD5A68B1F5827F0E
:101480000CBF22F0030222F001025A6029462046D6
:1014900008F0A2FB0028E8D0236E43F02003236667
:1014A00020232366E1E7B2F5004F12D11A6822F03B
:1014B000400229461A60204608F08EFB0028EBD136
:1014C0002A464FF4C061204608F022FB0028CCD009
:1014D000E2E7B2F5806FE9D0C2E700BF90030020D9
:1014E000F8B51C4D0368D5F88C701B68846A9B06A0
:1014F0002CD42668736823F0200373603A464FF4B7
:10150000C051204608F004FB58B93946204608F07F
:1015100063FB30B93A464FF4C061204608F0F8FA50
:1015200038B1236E43F020032366236E43F020037B
:101530002366736823F00303736000220123E287AC
:10154000A4F8462084F85D30236E13B9012385F892
:10155000B030F8BD90030020002900F0AF802DE9E5
:10156000F04705460846002D00F087802C78002CB7
:1015700000F08E80534F2A46002607E0072C54D9EE
:10158000DB0750D5013612F8014F64B1A4F108030E
:10159000DBB2222C27FA03F3F0D95C2CF2D012F83C
:1015A000014F002CF2D1541B04EB060A0AF103018F
:1015B000FFF76AFB074600285AD001300AF10108FC
:1015C0008146002E7CD022233B702B78002B3BD011
:1015D0005C240AE0222B0AD05C2B08D089F800306A
:1015E00015F8013F09F1010973B31F2BF2D84846E2
:1015F00000F8014B2A78222A19D8072A19D9A2F112
:1016000008031A2B15D8DFE803F0362531142F2AEA
:10161000141414141414141414141414141414148A
:101620001414141426001F2CADD80536ABE75C2A21
:1016300011D0254910F042F915F8013F09F10509CB
:1016400009F10109002BD0D1222327F8083001200D
:10165000BDE8F087742289F801208146C0E7722234
:1016600089F801208146BBE76622F4E76E22F2E7A3
:101670000020BDE8F0876222EDE70321FFF704FBBD
:101680000028F5D0114B1A889B7802808370DEE722
:101690000321FFF7F9FA07460028E9D04FF00108C7
:1016A0000226A24640442224524629463C700DF0B0
:1016B000B9FF002307F80840BB55C8E70020704772
:1016C000A61CF0E737000004C0830108BC830108B2
:1016D000002800F0F7812DE9F0430C4689B000297D
:1016E0003AD0037B202B054625DCABB3013B1F2BF7
:1016F00032D8DFE813F0430035003100E700310055
:10170000310031009E0031003100310031003100E4
:1017100031003100990031003100310031003100D9
:101720003100310031003100310031003100310031
:10173000310031005000402B00F0DF80802B0BD1B6
:10174000006948B10AF0B4FD461C31462046FFF757
:101750009BFA002840F07681002009B0BDE8F083B4
:1017600005212046FFF790FA03460028F4D0B14A3D
:101770001068127918601A710120EEE706212046E0
:10178000FFF782FA03460028E6D0AB4A1068928839
:1017900018609A80F0E701212046AD68FFF774FADF
:1017A0000028D9D05B230370D4E90223013201332E
:1017B000C4E90223002D00F093802C274FF020086D
:1017C000002608E001300670A3682D684B44A36032
:1017D000002D00F0858021462846FFF779FF00287C
:1017E000BAD0206830B1D4F8089048440AF060FDBF
:1017F0004844A0602B68002B72D06369002B0CBF9B
:101800000221032120460CBF4FF001094FF00209CD
:10181000FFF73AFA00289FD007706369002BD1D0F8
:1018200080F801800230CEE7006909B0BDE8F043DE
:1018300092E6D0E906670023CDE90133CDE9033311
:10184000CDE90533ADF81C3032463B4630463946CB
:101850000BF08CF9A8B927F00049784B4FF0FF3214
:10186000304649460BF082F9002840F0F080734B77
:10187000304649464FF0FF320BF05AF9002840F04D
:10188000E6806F4B93E80300042601908DF8081062
:10189000711C2046FFF7F8F900283FF45DAF56B100
:1018A000751E01AB421E054413F8011B02F8011F0F
:1018B000AA42F9D1304400230370A36833440120C5
:1018C000A3604AE705212046FFF7DEF9034600281A
:1018D0003FF442AF5A4A1068127918601A714BE708
:1018E00002212046FFF7D0F900283FF435AF5D23F1
:1018F0000380E368013BE3603EE74B69AD68002B82
:1019000008460BBF0221032101260226FFF7BCF97E
:1019100000283FF421AF7B230370E3680133E360C9
:101920006369002B40F0A580A2683244A260002DBC
:1019300000F0CA8009263A274FF02C08002B40F00F
:10194000A280286A2146FFF707FE00283FF404AF73
:10195000206830B1D4F8089048440AF0A9FC484403
:10196000A0606369002B0CBF4FF001094FF0020922
:1019700049462046FFF788F900283FF4EDAE07708E
:10198000636903B14670A3684B44A36021462846AF
:10199000FFF79EFE00283FF4DFAE206830B1D4F898
:1019A000089048440AF084FC4844A0606369B3F19D
:1019B00000092B6818BF4FF00109002B18BF09F16F
:1019C000010909F101012046FFF75EF900283FF403
:1019D000C3AE2B680BB100F8018B636913B10A2306
:1019E00000F8013B00230370A3682D684B44A360FB
:1019F0006369002DA2D1002B66D0E1680131204639
:101A0000FFF742F900283FF4A7AE63695BB1E368D2
:101A1000012B08D00022092100F8011BE3680132E4
:101A2000013B9A42F8D37D230380E368013BE360E6
:101A3000A2E600BFD8830108D0830108FFFFEF7F33
:101A4000C8830108296932460DF0ECFD94E66D6902
:101A500028460AF087FD02460B46304639460BF011
:101A600053F820B319492A4601A80FF027FF06466C
:101A70000EE70A234370A26863693244A260002D16
:101A80007FF458AFB7E7E1682046FFF7FDF800287C
:101A90003FF462AEE26832B1002300F8016BE26805
:101AA00001339342F9D3A3681344A36049E7324654
:101AB00007493B4601A80FF001FF192806463FF6EB
:101AC0004BAEE5E600207047022198E73C8B010809
:101AD000E08301082DE9F0412E4C8AB024220D4606
:101AE0000646002101A80DF0C9FB23684FF4807061
:101AF00098474FF4807202920022034601900692AA
:101B000094E807000AAF07E907004BB301A928468C
:101B1000FFF7DEFD00B3019F039D27B178190AF09E
:101B2000C7FB05440395D4F80880691CB8F1000F81
:101B30001AD03846C047054670B128460AF0B8FBAF
:101B40000A232B54411C2846B0472846636898470F
:101B500001200AB0BDE8F081019808B16368984798
:101B600000200AB0BDE8F081236808469847054682
:101B70000028F1D0039A029B019901329A4228BFB2
:101B80001A460DF04FFD039B05F80380019863682A
:101B90009847D2E7000000200CB4F0B5A9B02EABF6
:101BA000054653F8042B01930E4602A8962110F027
:101BB0006FF89528C4BF304BCDF89A302F4B2820B2
:101BC0001B689847044600B3282200210DF056FBFD
:101BD0004023E360042D15D8DFE805F0221E1C0326
:101BE0002000274D274B2849D3F88C709FED200B00
:101BF0002046FFF7F3FA28B1244A25492046FFF78B
:101C000081FB78B92046FEF70DFE29B0BDE8F04013
:101C100002B070471F4DE5E71F4DE3E71F4DE1E7B9
:101C20001F4DDFE738460AF08DFC41EC100B1D49D3
:101C30002046FFF7D3FA0028E4D01B492A46204665
:101C4000FFF760FB0028DDD0184932462046FFF739
:101C500059FB0028D6D00D4902AA2046FFF752FBB7
:101C60000028CFD021461248FFF734FFCAE700BF53
:101C700000000000000000002E2E2E0000000020BA
:101C8000F8830108900300201084010820840108D3
:101C900024840108F0830108E88301080084010816
:101CA000088401082C840108388401084084010854
:101CB000855E000838B50C460546044A04492346AB
:101CC0000220FFF769FF6C8238BD00BF488401081D
:101CD0007C84010838B50C460546044A044923466D
:101CE0000220FFF759FF2C8238BD00BF9C840108F9
:101CF0007C84010838B50C460546044A044923464D
:101D00000220FFF749FFA5F86E4038BDD0840108D6
:101D10007C84010838B50C460546044A044923462C
:101D20000220FFF739FFA5F8704038BD0C85010887
:101D30007C84010838B50C460546044A044923460C
:101D40000220FFF729FFA5F8504038BD448501085F
:101D50007C84010838B50C460546044A04492346EC
:101D60000220FFF719FFA5F84E4038BD788501081D
:101D70007C8401082DE9F04F564A5749DFF87891E5
:101D8000DFF87881554F83B00220FFF705FFA9F1F6
:101D9000BC05D5F8B830002B4BD04FF0000BDFF866
:101DA00060A15E4627E0D5F8A0304D49524600209C
:101DB000984700236360A06818B10FF001FB00236F
:101DC000A360A36953B11A68BA4223D0D5F8A030F2
:101DD000444A4549002098470023A361206D18B16B
:101DE0000FF0EEFA00232365D5F8B8300136B34280
:101DF0000BF15C0B1DD9D9F800405C4460680028E9
:101E0000D9D003684345CED10022D5F8983002607E
:101E10009847CEE7586828B1C26801939047019B64
:101E200000225A600021D5F8982019601846904782
:101E3000D2E72E4B09F104099945AAD1D5F8B4305F
:101E4000002B43D00027DFF8BCA0DFF8BC90DFF800
:101E5000BC803C463E46BB461FE0D5F8A0309847C4
:101E6000D5E93920171900234FF48051135187F811
:101E7000F43040F80B30C9F8281009F04FFB164930
:101E8000334642460220FFF787FED5F8B430B3420E
:101E900004F1F8040BF1040B18D9D5F8E4301F59FC
:101EA0000136002FF1D03B68114A124953454FF0DB
:101EB0000000D2D1386900233B6010B1D5F89830CA
:101EC0009847D5F8983038469847C9E703B0BDE839
:101ED000F08F00BFAC8501087C8401080DB037137A
:101EE000DC880108C4850108E0850108740400202D
:101EF000EC850108208301084C0400200FB0371343
:101F0000D48201080EB0371300040048048601088B
:101F1000F8B52B4B07461B6828200D4616469847F8
:101F2000044600B3282200210DF0A8F940232549DA
:101F3000E3602A462046FFF7E5F9F0B9224D234B2E
:101F4000D5F8A070224A23490020B8472EB1224973
:101F500032462046FFF7D6F9F8B100252046FEF7B5
:101F600061FC2846F8BD184A1C4BD2F8A05019490C
:101F7000174AA84725462846F8BD9FED0F0B18497C
:101F80002046FFF72BF90028D8D076B11249324607
:101F90002046FFF7B7F940B90B4DD5F8A0500B4BD1
:101FA0000B4A0C490020A847D7E721463846FFF7DF
:101FB00091FD0546D2E700BF0000000000000000D0
:101FC000000000202484010890030020403B010809
:101FD000488C010820860108388601082C3B01083E
:101FE000108401082DE9F04F2DED028B8C4B91B040
:101FF00002461B68069228200C469847064628B1E0
:10200000282200210DF03AF94023F360854A8649E1
:102010003046FFF777F9089078B9844A8449002060
:10202000FFF7BAFD002416B13046FEF7FBFB204651
:1020300011B0BDEC028BBDE8F08F20460AF082FAA9
:1020400041EC100B7B493046FFF7C8F80028E4D07C
:102050009FED710B78493046FFF7C0F80028DCD0BF
:10206000DFF8F491D9F8B430002B40F0B98073490F
:102070003046FFF705F907460028CED0DFF8DCA18F
:102080005446D9F8B810002900F07881206801EB97
:102090004103C1EBC3010430002302E08B4200F096
:1020A0006D8150F823201733002AF7D05C4B28208D
:1020B0001B68984704900028AFD0282200210DF01B
:1020C000DDF8049A5E492023D360384609F0D0FA3F
:1020D000D9F8B830002B00F051814FF0000821688A
:1020E0000997C34605944546079601EB0B0ADAF8B3
:1020F00004306BB9D9F8B83001359D4280F04F817A
:102100000BF15C0B01EB0B0ADAF80430002BF1D079
:10211000434B28201B6898470646002800F033816F
:10212000282200210DF0AAF8402346490498F360C4
:10213000324609F09DFA002800F02D81DAF80030CF
:10214000D9F8E400C3EB431300EBC300F4380BA948
:10215000FEF722FDD9F8F870002840F032814FF0E8
:102160000008CDF8048044460026CDE902B500966B
:1021700002E0009B01330093DAF80430324A33491D
:102180009DF80050002023B11F68314EB74200F087
:10219000DE80D9F8A0309847012295420AEB450B22
:1021A00080F0DC80002C00F0D980BBF820000AF021
:1021B000D9F941EC100B23494046FFF70FF80446CC
:1021C0000028D6D0BBF828000AF0CCF941EC100B5F
:1021D0001C490198FFF702F8041E18BF0124C8E744
:1021E0001C493046FFF74CF8804600283FF415AFF5
:1021F00040F2E1100FF0DCF8834600283FF40DAF09
:10220000D9F8B430002B00F07481089D002700F548
:10221000F17A2BE0AFF30080000000000000000026
:102220000000002040860108248401082887010856
:102230007C84010844860108108401087086010826
:10224000A88E01087C860108D4820108DC88010878
:102250000FB0371350860108900300204C04002073
:102260000025D9F8B430BB4240F23781D9F8E400F8
:10227000C7EB471300EBC300DC0090F8F4300137E4
:10228000002BEED004300AA9FEF786FC0028E7D028
:10229000D9F8E420994DE31C02EB030E0FCD0BACF3
:1022A0000FC42B6823700BF1020C1EF8013F10A91C
:1022B00003F00F02403201EB13130CF1020C6A44DD
:1022C00013F8143C0CF8043CE24512F8143C0CF8EA
:1022D000033CEAD18A4B00251B688BF8E05128208B
:1022E000984704460028BBD0294628220CF0C6FF98
:1022F0004023E36038460AF025F941EC100B814990
:102300002046FEF76BFF0028AAD0BDF928000AF08E
:1023100029F941EC100B7C492046FEF75FFF0028AD
:102320009ED07A495A462046FEF7ECFF0546002823
:1023300096D0A04594D0D8F80830002B00F0D48077
:102340005A68002A8DD0146062605C6089E793F857
:10235000622095420AEB450BFFF424AFDDE902B59C
:10236000D9F8B8300135AB4240F2A9800BF15C0BD3
:10237000002C00F0A280059B1968B6E6644B9C42D5
:1023800019D004347DE602466249049809F070F9D8
:1023900000287FF4E4AE3046FEF744FADFE6059C01
:1023A0005B4B099F079E9C42EBD1DDF820B0BBF14F
:1023B000000F3FF432AE06983146FFF78BFB044620
:1023C00031E6BDF92C000AF0CDF841EC100B524972
:1023D0003046FEF703FF00283FF4C1AEBAF81C00F8
:1023E0000AF0C0F841EC100B4C493046FEF7F6FEFF
:1023F00000283FF4B4AEBAF81E000AF0B3F841EC7E
:10240000100B47493046FEF7E9FE00283FF4A7AE1F
:10241000DAF830000AF0B8F841EC100B41493046C8
:10242000FEF7DCFE00283FF49AAE9AF834203E49CD
:102430003046FEF745FF044600283FF490AE07EE15
:10244000907A9FED3A0AB8EE678A80EE080A10F09B
:1024500057FB68EE007AB3EE087A67EE877AF7EEFC
:10246000006A86EEA77A9FED326A67EE067AF6EE8C
:10247000006A67EEA67A17EE900A0AF085F841EC3A
:10248000100B2C493046FEF7A9FE00283FF467AE3A
:10249000FEF7BEFB804600283FF461AE02462649A7
:1024A000304609F0E5F8FEF7B3FB0246019018B399
:1024B0002249304609F0DCF856E6079EADE5144B9C
:1024C000099F079EA346059C9C423FF470AF0434CD
:1024D000BBF1000F7FF4D5AD9FE558460EF070FFBD
:1024E000002D3FF49AADC2E5C8F80840C4E90034B5
:1024F000B7E60EF065FFBAE5019C35E638870108BE
:10250000000000206486010890860108E49A010812
:10251000700400207C860108848601089C860108DE
:10252000B0860108C4860108D4860108F902154F57
:10253000C2F38E4DE4860108F88601081087010871
:102540002DE9F04F2DED028B824B834F91B0CDE9F9
:10255000041003F10805AA46A3F1B4090A95D9F8B5
:10256000B830002B00F007824FF000084546DAF83B
:10257000003003EB080BDBF80400002800F0A28019
:10258000DBF8082053F80830744E754CC6F860210B
:10259000002A08BF002403F18042C6F85841D9F848
:1025A000E810013A0024C6F85C4151F8222090421C
:1025B00000F05A81C3EB4313DB00F83BD9F8E42069
:1025C000DBF85010D458069102EB030CDBF85430C2
:1025D000079324B12368634A934200F06E81D9F8CF
:1025E000A030614A614900209847DBF80030D9F8F3
:1025F000E810DBF8040003F18042013A41F82200C0
:1026000000228BF81420D9F8E420C3EB431302EB2B
:10261000C30252F8F83C23B11A6852498A4200F0CA
:102620007F81D9F8A030504A504900209847059B37
:1026300023B1D9F8B820002A00F08885DDF8108091
:102640004B4BC8F80030002011B0BDEC028BBDE848
:10265000F08F0CF104030893031D099343F21C034C
:10266000A0680D93032201230DA9ADF8386006F090
:1026700089FDBDF8383003F40063002B14BF01233B
:102680000023237300F05281A0680999A61D0396C8
:10269000261D029624690194069C0094DDE9073208
:1026A00006F09CFEDBF80030D9F8E810DBF80440B7
:1026B00003F18042013A41F8224000228BF81420B5
:1026C0000028A0D0D9F8B8300135AB4208F15C0839
:1026D0003FF64DAF059A002A00F0FE82002B00F075
:1026E000058200242646DAF8003003EB0408D8F807
:1026F0000420002A56D01B59D9F8E420C3EB431319
:1027000002EBC30252F8F85C25B12B68154A9342DC
:1027100000F0BD80D9F8A030134A14490020464685
:10272000DDF8108098473368D9F8E420C3EB4313F1
:1027300002EBC30252F8F83C23B10A4A19689142ED
:1027400000F0E680D9F8A030074A084900209847F1
:1027500076E700BF440400202083B8ED000000208D
:10276000F50700080EB03713EC8501082083010837
:10277000743B0108D5F810B0A8689BF8C611012277
:1027800006F088FF9BF8C531002B00F0CD809BF848
:10279000C631022B0CBF012302238BF8C63100285F
:1027A00000F0BA80D9F8B8300136B34204F15C04C5
:1027B00099D8002B00F0E380DAF800204FF00008F1
:1027C00002EB0804464663682046DBB109F0F4FAE0
:1027D000059B1B6905460BB198470346D9F8B820FD
:1027E000A3650136B24240F29383002D3FF426AF39
:1027F000DAF8002008F15C0802EB08042046636860
:10280000002BE3D1D9F8B83001369E42F2D3002B29
:1028100000F06C814FF0000BD846CDF81CA002EB05
:102820000B046368002B00F0078352F80B30D9F8D3
:10283000E420C3EB431302EBC302236D52F8F85CB0
:102840000693626D25B12B68AE498B4200F024835C
:10285000D9F8A030AC4AAD49DDF810800020A2467E
:102860009847DAF800305FE79BF80C20002A3FF425
:1028700029AF9BF81420002A7FF49CAED9F8B83019
:102880000135AB4208F15C083FF671AE22E72B7BC5
:10289000002B7FF46FAFA868152106F0BFFE00285B
:1028A0003AD04FF001032B73D9F8B8300136B34258
:1028B00004F15C043FF617AF7BE70CF103010CF168
:1028C000EF0E4FF0FF3211F8013F08265A4042F355
:1028D00000033B40013E83EA5202F8D18E45F2D11B
:1028E000DCF8F030D24393420BD10368884A93421C
:1028F0003FF4AFAED9F8A030864A874930469847B2
:1029000073E6D9F8A030854A8049304698476CE68E
:10291000986809F0D1F993E64646DDF8108002E7A1
:10292000986809F0C9F982E6012336E743F23103DA
:10293000A0680D930DA901230322ADF8386006F0BD
:1029400021FC237BBDF83810002B7FF49DAE4AF6A6
:10295000C0429142A06823693FF497AEA61D01933F
:102960000434069B009309990396DDE9073202942B
:1029700007F02CF896E6059B002B00F0B681684B1B
:10298000534540F0B681DDE904820A9D002A00F03B
:10299000DB80644F16683B6828209847044600286F
:1029A00000F09581282200210CF068FC4023E360B0
:1029B00028203B68049498470446002800F0C88308
:1029C000282200210CF05AFC2023E36022465649BD
:1029D000049808F04DFE00230B94AA462C4606935B
:1029E000B3464546D9F8B800002879D0266800EBF0
:1029F0004002C0EBC2000436002201E090426FD0DA
:102A000056F822301732002BF8D03A682820904729
:102A10000790002800F01A81282200210CF02EFCDB
:102A2000079B42490B982022DA601A4608F020FEE4
:102A3000D9F8B820002A53D0CDE908BA2168059505
:102A40004FF000085C2303FB08167368002B3ED090
:102A50003B6828209847054600287BD02822002183
:102A60000CF00CFC4023B06DEB6009F06BFD41EC09
:102A7000100B2F492846FEF7B1FB002876D14FF006
:102A8000000B337B002B40F0A880069AB38B02EB3F
:102A900083030693079BAB4208D09B68002B00F092
:102AA0002B815A6812B115606A605D60D9F8B83040
:102AB00008F10108984580F0BD80BBF1000F49D0B6
:102AC00021685C2303FB08167368002BC0D1D9F87A
:102AD000B83008F101084345B4D8DDE908BA059DCE
:102AE0000F4BA34200F0B48004347BE74FF0010B9E
:102AF0000B4B53451ED00AF1040ABBF1000F7FF4C3
:102B00002EAD9BE50EB03713EC850108208301083C
:102B10000FB03713D4820108DC8801084C87010804
:102B2000700400200000002058880108A88E0108C9
:102B300064880108DDE904820A9DBBF1000F3FF4BF
:102B40007FAD002A7FF425AF012011B0BDEC028BD0
:102B5000BDE8F08FDDF81480BD4ABE490020FFF7C4
:102B60001BF80498FDF75EFEBB4B6AE53B6896F8E0
:102B700038B0282098478246002800F02383282276
:102B800000210CF07BFB0BF10103B449CAF80C30B7
:102B90005246284608F06CFD002800F01B83B6F969
:102BA0003C0009F0DFFC41EC100BAD492846FEF774
:102BB00015FB00283FF463AF96F83A20A949284650
:102BC000FEF77EFB00283FF45AAF96F83920A6495D
:102BD0002846FEF775FB834653E796F844203B688A
:102BE0000A92282098478246002800F0B6822822C0
:102BF00000210CF043FB0A9B9C490133CAF80C30BE
:102C00005246284608F034FD002800F0AC82B37D1F
:102C1000002B3FF43AAFB06C09F0B6FC41EC100B5E
:102C200093492846FEF7DAFA002840F0D7824FF0A1
:102C3000000B2AE78F4A059DA2425B46DDE908BAF0
:102C400000F0DF820434002B7FF4CCAEA84683E78B
:102C5000A8465E465546049C874A88492046FEF7AA
:102C600051FB00283FF478AF069809F07BFC41EC5B
:102C7000100B83492046FEF7B1FA00283FF46CAFF1
:102C800021463046FEF726FF00283FF46AAF7D4B11
:102C900003F13007D9F8B8308BB10024A0462B6877
:102CA00023445A681AB1998B186C8900B047D9F837
:102CB000B83008F10108984504F15C04EFD30435FD
:102CC000BD42E7D10498FDF7ADFD01203DE7604A24
:102CD0006049FEF761FF47E7664A52453FF434AF6B
:102CE0000AF1040A002B7FF43FAC624B53453FF4DA
:102CF0002BAF0AF1040A32E4079A9560C5E9003562
:102D0000D4E6BDF832302969069AC3F30013138064
:102D100091F8C43133B191F8C631A3F10103B3FA8C
:102D200083F35B09069E06947380B1F8C831B380C3
:102D3000B21D01F5E57301F5FD7AD3F800C05C68BA
:102D40009868D3F80CE0C2F80CE010335345C2F891
:102D500000C05460906002F11002EED1B1F8FA3177
:102D6000F38606F1380201F5FE7301F50B7AD3F80C
:102D700000C05C689868D3F80CE0C2F80CE010332F
:102D80005345C2F800C05460906002F11002EED1C9
:102D9000B1F82C32069CA6F8683006F16A0201F2FE
:102DA0002E2301F25E21D3F800E0D3F804C0986826
:102DB000D3F80CA0C2F80CA010338B42C2F800E08C
:102DC000C2F804C0906002F11002ECD1B5F806A080
:102DD0002B69A86893F8C631A9880696BAF5005FF2
:102DE00000F2DB80013B069A18BF012302EB410190
:102DF0001A03534607F004F8002800F07581BAF171
:102E0000000F00F0A280237BA569002B40F0B68064
:102E1000266D25B12B681C4A934200F03181D9F808
:102E2000A0301A4A1A49002098472EB9D9F8A03084
:102E3000184A174900209847D9F8B83008F1010816
:102E400043450BF15C0B6DD9079B1A68E7E400BFA3
:102E5000288701087C840108543B01086C8801081C
:102E6000908601087C88010890880108A0880108E4
:102E7000AC88010870040020408601082484010801
:102E800010840108440400200DB03713C4850108E4
:102E9000E085010840880108AB88E9880B44B2EB63
:102EA000430F09D2D9F8A030B24AB349DDF81080F7
:102EB0000020A2469847D4E42B69A86808901E46D3
:102EC0004FF0000C96F8C6A1CDF830C043F2370E93
:102ED000032201230DA9CDF834E0ADF838C006F087
:102EE00051F9BAF1010FBDF8382032D0BAF1020F12
:102EF0000CBF8023C02313EA02001FD1A246089B07
:102F0000D9F8A0409D4A9E49DDF81080A047A8E46A
:102F1000AB46002A3FF4ECAD002D3FF48FABDAF85E
:102F2000002077E4DDF81CA0964A52453FF42BAD13
:102F30000AF1040A002B7FF417AB20E596F8C611BE
:102F400008980CAA06F0EEFB28B9DDF81080A2461E
:102F500087E44023CFE7BDF83030032B3FF4D1AEF8
:102F6000BDF832300093A246089BD9F8A040864AAB
:102F70008349DDF810800020A04772E4E889AB891E
:102F8000D4F850A00693C0B9D9F8A0307F4A804940
:102F9000DDF81080A246984763E4D9F8A0307D4A56
:102FA0007D49DDF810800020A2469847D9F8A0306E
:102FB0007A4A73490020984753E4794B01228DF8EF
:102FC0003420DA6A002116460222CDE90E12069A52
:102FD0000AEB420136B142001B6B08910DA8B047C5
:102FE000E8890899012840F2AE80069B3AF913203F
:102FF000831E9BB28E1C06EB43060025134631F957
:10300000022FD31A002BB8BF5B428E421D44F5D16C
:1030100007EE905AF8EEE77A07EE100AB8EE470A84
:10302000B7EE007A30EE470A87EE800A0FF0FEFC1A
:10303000637DF3EE047A20EE278A9FED5A7AD4ED71
:10304000047A38EE478A002B45D0B4EEE78AF1EED9
:1030500010FA4DDC012284F84420B4EEE78AF1EE48
:1030600010FA84F84D30CCBF0123002384F84C3093
:1030700094BF01230023A56984ED128A6375C7E616
:10308000002E3FF4D3AE69683834AC600868038F13
:1030900006EB43034361B0F8943006EB4303C3648B
:1030A000B0F8963006EB43030365D0F898304BB187
:1030B000B0F89C2006EB42021A61B0F89E2006EBA5
:1030C00042025A61B0F8E4204B6806EB4206C0F8B1
:1030D000B0609847B0E6B4EEE78AF1EE10FA1CD97A
:1030E000002284F84420B8E7DDF81080A2465DE7AE
:1030F000012162682175002184F844101AB12A4D1B
:103100001068A8421DD0D9F8A030284A28490020CC
:103110009847D4ED047A637D9FE7626801212175A9
:103120001AB1214D1068A84209D0D9F8A0301F4A21
:103130001F4900209847D4ED047A637DD0E7D1730E
:10314000CEE7D17389E7DFED1B7A65E79346CFE4DD
:10315000194A1A49FEF720FD03E502461849284698
:1031600008F086FA10B95046FDF75CFB4FF0000BF3
:103170004DE500BF608701082083010878870108BA
:103180009887010870040020AC8701083088010886
:10319000E0850108D8870108F08701080488010844
:1031A00000000020000028420FB03713D48201082D
:1031B000DC88010800000000288701087C840108E1
:1031C000A088010802461249284608F051FA002852
:1031D0007FF455AC5046FDF725FB50E496F84C20A3
:1031E0000C492846FEF76CF800283FF420AD96F80D
:1031F0004D2009492846FEF763F800283FF417AD33
:1032000043E4A8465E465546002B7FF424ADA3E474
:103210006C880108B8880108C8880108002955D0C1
:103220002DE9F04FD1F8009093B00C46B9F1000FA2
:1032300033D08D68D1F804A02E1D5645074630D8EE
:1032400009EB0508B449042240460CF0AFFA002807
:103250003ED005F1050BDA4507D3B04905224046BB
:103260000CF0A4FA002800F08881AD494046042201
:103270000CF09CFA28B355450FD219F80530222BD3
:1032800000F0F0802D2B26D0A3F13002092A22D99C
:103290005B2B00F0F1807B2B73D0002013B0BDE8D6
:1032A000F08F6E1DB245E6D39C49052209EB05005F
:1032B0000CF07CFA0028DED10123FB60A66001201F
:1032C000ECE702220123FA607B61F7E700207047F8
:1032D0000423FB60F2E7AAEB050A02AE013D0023DE
:1032E000DFF844E201934D4430464FF0010C15F8ED
:1032F000011FA1F12B02D2B245290CFA02F200F211
:10330000AD802A290BD912EA0E0F01D12E2906D140
:1033100001333F2B00F8011B01D09A45E7D1483318
:103320006B44002501A9304603F8405C0BF06CF9B2
:10333000DDF804A0B24559EC108BAED074A3D3E9EC
:1033400000234046494609F0FDFB002840F09180EB
:10335000744B00224046494609F0EAFB002840F041
:10336000D2804046494609F017FCA3687861AAEB71
:10337000060A08225344C7E90689FA600120A360BF
:103380008CE7D4F80C80B8F57A7F86D208F1010377
:10339000E36019F805307B2B7FF47FAF0135A56022
:1033A0002046FDF797FBA668B24540F2C18019F8A8
:1033B00006307D2B00F0DC800025013EA660A8468B
:1033C000A9463CE0282200210BF058FFB8F1000F7D
:1033D00000F0AC8035606E60A36862680133934290
:1033E00038D2A3602046FDF775FB21462846FDF73D
:1033F0006FFA78B32046FDF76DFBD4E90123296904
:1034000029629342C5F8109024D22268D25C3A2AED
:1034100020D10133A3602046FDF75CFB21462846FE
:10342000FFF7FCFEB0B12046FDF754FBD4E90136AE
:103430009E420FD223689B5D2C2B40F0888023692D
:10344000282098472E4605460028BBD1B8F1000F2A
:103450003FF423AF4046FDF7E5F91EE765297FF409
:103460005EAF55E72146384613B0BDE8F04FFDF793
:103470002FBA6FF0004078E7D4F80C80B8F57A7F67
:10348000BFF40BAF08F10103E36019F805305B2BC3
:103490007FF403AF0135A5602046FDF71BFBA6684E
:1034A000B24545D919F806305D2B5CD0013E0025A8
:1034B000A660A8461DE00BF0E1FEB8F1000F25D094
:1034C00035606E60A36801332046A360FDF702FB00
:1034D00021462846FFF7A2FE0028BBD02046FDF774
:1034E000F9FAD4E901369E42B4D223689B5D2C2BB5
:1034F00021D12369282098472E46282200210546FD
:103500000028D8D1A2E74FF000402EE7A846D9E71F
:103510000000C0FFFFFFDF41C8830108D08301081E
:10352000D88301080000E0C1E57F0004A84653E706
:10353000013EA660B1E65D2B8CD1E368013BE36000
:10354000C8F804502023C7E902830136B6E67D2B74
:1035500080D1E368013BE360C8F804504023C7E929
:1035600002830136AAE6C4F80C804FF00008E9E7B0
:10357000C4F80C804FF00008F0E75E469CE600BF00
:1035800000285AD02DE9F041846882B024B30E6837
:103590000D46002E4DD0D4F820802F46304603E053
:1035A00057F8080F002845D0414608F025FE0028AE
:1035B000F6D13B79072B3CD8DFE803F0352E190410
:1035C000123B040B207BA0F11000B0FA80F0400900
:1035D00080B32468002CDED1012002B0BDE8F08168
:1035E000207BA0F12000B0FA80F04009F0E7237BB7
:1035F000082B1ED1D4E9060141EC100BCDE90001E6
:103600000FF0DEFCDDE9000153EC102B09F07CFA31
:10361000003818BF0120DBE7207BA0F10800B0FADA
:1036200080F04009D4E7E06810F0030018BF0120E3
:10363000CEE7002002B0BDE8F0810120704700BF56
:103640002DE9F04F884685B0A3498146FFF798FFE2
:10365000002865D0A14950226C2006F0B7FB044633
:1036600000284ED09E4B40F8043B68229D490BF049
:10367000D9FF9D494846FDF75FFB0DF10F03054655
:1036800000930022434621464846FDF769FB002887
:1036900042D0002D58D09DF80F70002F39D1AD6861
:1036A0002E46002D44D0DFF894B2BA46594628463B
:1036B000FFF766FF002800F066817E1CCDF800A0B1
:1036C00043463A4621462846F6B2FDF749FB18B371
:1036D0002D68374665B3042EE8D1814B22688349B3
:1036E000C8F800109A42824B00F03781814AD3F823
:1036F000A0307A49002098470024204605B0BDE854
:10370000F08F7D4B7D4A7E49C8F80030FEF744FAC1
:10371000F2E77C4BC8F800302046FDF7FDF9EBE7F7
:10372000794B7A4A7649C8F80030FEF735FAE3E774
:103730006B4B22689A4200F04D816D4B6D4AD3F875
:10374000A03066490020984771494846FDF7F4FAD1
:1037500080B1037B082B0DD1614B22689A42D0E9DE
:10376000060100F03381624B624AD3F8A0305B4916
:103770000020984767494846FDF7DEFA18B1037BF9
:10378000082B00F0DD8064494846FDF7D5FA80B18A
:10379000037B082B0DD1524B22689A42D0E90601D7
:1037A00000F0F880524B534AD3F8A0304B49002028
:1037B00098475A494846FDF7BFFA70B1C368980761
:1037C0000BD0474A2168914200F0F880484B494AA3
:1037D000D3F8A03041490020984751494846FDF7A9
:1037E000ABFA70B1C36899070BD03D4A216891428A
:1037F00000F0DC803E4B3F4AD3F8A0303749002030
:10380000984748494846FDF797FA70B1C3689A0748
:103810000BD0334A2168914200F0C080344B354AC6
:10382000D3F8A0302D49002098473F494846FDF77E
:1038300083FA20B3037B102B21D105693B4928462D
:1038400008F0DAFC0346002800F0C7803849284613
:1038500008F0D2FC002800F0D2803649284608F053
:10386000CBFC002840F08B801D4B22689A4200F070
:10387000BC801F4B1F4AD3F8A030184998472E49E7
:103880004846FDF759FA00283FF437AF037B102B69
:103890007FF433AF05692549284608F0ADFC03469F
:1038A000002800F0A6802249284608F0A5FC002840
:1038B0005DD02049284608F09FFC002840F0AA80EF
:1038C000074B22689A4200F0A180094B094AD3F8BD
:1038D000A0300249984710E7983B0108DC880108AE
:1038E0000FB03713643C0108FC880108283D01082B
:1038F00090030020D4820108543C0108E4880108A8
:103900007C840108CC3C0108403C0108D4880108B3
:103910008893010808890108289301081C89010877
:103920003489010810950108189401084889010894
:10393000548901085C89010838940108443D010854
:10394000384B226841699A420ED0374B374AD3F838
:10395000A03037490020984715E7D3F89830C4F8CD
:1039600000A020469847C7E6A4F85C100BE72D4B53
:1039700022689A42A9D1012384F86430BDE62D4B18
:10398000C8F80030C8E62C4BC8F800302046FDF7D8
:10399000C3F8B1E609F048F960650AE7A3F102034C
:1039A000B3FA83F35B0984F860303EE7A3F10203C6
:1039B000B3FA83F35B0984F85F3022E7A3F10203D3
:1039C000B3FA83F35B0984F85E3006E709F02CF95B
:1039D000A065CFE684F86260B6E6124A216891429B
:1039E0007FF447AF84F8633049E7022384F86330FB
:1039F00045E70C4A216891427FF467AFBCE7094B69
:103A000022689A427FF435AF0123EBE7022384F862
:103A1000643072E6094BC8F800302046FDF77CF8A8
:103A20006AE600BF0FB0371390030020D48201086C
:103A3000DC880108A43D0108403C0108CC3D010898
:103A4000BFF34F8F0549064BCA6802F4E062134387
:103A5000CB60BFF34F8F00BFFDE700BF00ED00E07C
:103A60000400FA052DE98048DFF83C83C3B0B8F8BC
:103A7000AC10D8F8A80008F01DF8B8F8FC00002732
:103A80002297D0B1D8F800410125011923462E1BF9
:103A9000BC460BE00A2A17D0F218824203D183F801
:103AA00000C00127002501338B4202D01A78002A7A
:103AB000F0D10FB1A64B2293FDB198F81431002B31
:103AC00040F0FC8030BFD8E70FB1A14A229200221B
:103AD0001A700139631E03E07B2A20D08B4204D088
:103AE000184613F8012F002AF6D1D8F8A030994AC9
:103AF000994900209847002DDFD1229C974A96498A
:103B0000D8F8A05000202346A8479549954822465A
:103B1000FEF7FEF9002388F81431FFF791FFC4F196
:103B200001031E1800F0AE808F4A8B49D8F8A030F0
:103B300000209847D8F800412644304608F0B8FBEA
:103B40003146421C20460DF075FE002DD5D0204692
:103B500008F0AEFBDFF840B23394013034909BE8BC
:103B6000070037AB0024CDE9354483E8070003465E
:103B7000282098470290002800F08A8028222146B9
:103B80000BF07CFB339870B1359B002B40F04D81DE
:103B9000349B042B06D9754903220BF007FE08B9A4
:103BA0000323359333A8FCF795FF01460298FFF7EE
:103BB00035FB002800F02081FDF7AAF86C49029837
:103BC000FDF7BAF8002875D0037B102B72D198F856
:103BD00004310669012B06D9D8F8A040654A5E4930
:103BE00033460220A047002E64D06349304608F0D7
:103BF00003FB0446002800F036816049304608F097
:103C0000FBFA0446002800F05C815D49304608F06C
:103C1000F3FA002840F00B8198F81431002B40F0A3
:103C2000E481C8F8183157490298012388F8153102
:103C30008BF89431FDF780F838B1027B082A04D163
:103C4000436923EAE373C8F818314F490298FDF736
:103C500073F838B1C3689D0704D09C1E634263416A
:103C60008BF894310123494A49493E4888F8143178
:103C7000FEF74EF904460298FCF7D4FD002C3FF401
:103C800049AF1AE7002D3FF438AF002C7FF45FAF47
:103C9000324A3149D8F8A0403E4B0020A0473D4A67
:103CA0002F493048FEF734F9002800F09A80FDF7DC
:103CB0002FF802E70298FCF7B5FDFEE698F815111B
:103CC000002940F09180D8F88841002C00F39880BA
:103CD000314B324893F89431002B22A908BF0020C1
:103CE000FEF72EFC0446B0B1D8F8181100295DD1BA
:103CF000D8E96242FCF776FA002C7FF7BEAEA31833
:103D00001B1A002B61DDA3425FDA002960D1012B71
:103D10007FF4D8AEB1E6FCF765FAFEF72BF8229DEA
:103D20000E4A0D49D8F8A0602B462046B0470C49F2
:103D30000C482A46FEF7ECF80346002848D1184AFA
:103D40001849084888F81431FEF7E2F8E2E600BFA7
:103D50001C3E0108E48E01082086010864890108E0
:103D6000D88A0108855E000884890108AC890108A9
:103D7000489F0108B0890108C0890108288A010804
:103D8000448A0108548A0108608A01086C8A010883
:103D9000709D0108383E010800000020043E010823
:103DA000188D0108288D010890030020D8F888415B
:103DB000D8F88C214B1EB3FA83F1C8F81831FCF700
:103DC00011FA002C4FEA511199DC00293FF455AE4D
:103DD0000023B14AB149B24888F81431FEF798F887
:103DE00070E6FCF795FF95E6FCF7FCF90023C8F8B0
:103DF0008C0188F815316BE70298FCF713FD47E753
:103E0000D8ED3B7AF5EE407AF1EE10FA7FF460AF30
:103E1000FCF7E8F9D8F88C21801A8442224440F358
:103E2000C481FCF7DFF9131A6BE72046BBE69D4916
:103E300030460DF075FD002800F0A38098F814318D
:103E4000069300202390002B00F0AF80D8F8A0400C
:103E5000954B964A9649A047934A96499048FEF753
:103E600057F8044607E7DBF8003028209847074654
:103E7000D8B1282221464FF040090BF0FFF98E4AB5
:103E80008E49C7F80C903846FDF73CFA002840F000
:103E90003D81D8F8A0408A4B8A4A85490020A04736
:103EA00000243846FCF7BEFCE5E6DDF80890D8F8BB
:103EB000A040854B834A7E49A0474846FCF7B2FCA8
:103EC00028E6DBF800302820984707460028ECD089
:103ED000282221460BF0D2F94023774A7749FB602C
:103EE0003846FDF70FFA82460028D2D09FED680BC6
:103EF00076493846FDF772F90028CAD0DBF8002071
:103F0000282090478146002800F02D842822214651
:103F10000BF0B4F92022C9F80C206D494A46384606
:103F200007F0A6FB5046D8F808319C4281F0CD80BE
:103F30000028B5D0DBF8003028209847661C0546DD
:103F4000E8B1282200210BF099F94023EB60D8F862
:103F5000B4306049B3422ABFD8F8F03000221A5D6D
:103F60002846FDF7ADF9A94509D0D9F80830002B4E
:103F700000F010855A6812B115606A605D603446C1
:103F8000D1E75549304608F037F900283AD198F87A
:103F90001421002A00F0FE8388F814013E4A3F49AC
:103FA0003F48FDF7B5FF044665E6FDF7E3FE4B4BE2
:103FB000CBF898314A49D8F8E43002980893FCF7D6
:103FC000BBFE002840F0A08346490298FCF7B4FEEF
:103FD0000346002800F0CF839C6800232246002A75
:103FE00000F0E68012680133F9E7D8F8A0403E4BB4
:103FF0002E4A2F49A0473C4A2E492948FDF788FF01
:10400000044638E63949304608F0F6F888B998F899
:104010001431002B00F0CB83D8F8A040344B234A56
:104020002349A047324A23491D48FDF771FF044642
:1040300021E63049304608F0DFF80446F8B12E4951
:10404000304608F0D9F8002800F0DA832B493046D2
:1040500008F0D2F8D8F8A040002840F0BD8398F8C6
:104060001401002840F09D84254B104A1049A047B8
:10407000234A10490A48FDF74BFF0446FBE5029826
:10408000FCF7D0FB1F4A20492046FDF785FD19E5C6
:104090000000000000000000188D0108288D0108B4
:1040A000855E0008948A01089C8A010864890108D9
:1040B00020860108D88A0108408601082484010866
:1040C000403B0108488C01082C3B01081084010882
:1040D0002C8A0108388A0108F48C0108000080BF8E
:1040E000C08A010850860108808A0108308D0108C5
:1040F000448D01089C8D0108B08D0108EC8D0108EC
:10410000308E01086C8E0108AC8E01089FED9C0B6F
:104110009F493846FDF762F800283FF4BAAEDBF855
:104120000030282098470646002800F01C832146CE
:1041300028220BF0A3F89749C6F80C90324638466F
:1041400007F096FA944A95493046FDF7DBF80028C7
:1041500040F0E687D8F8A040914B924A924900205F
:10416000A0470024D8F80C21002A00F0BD878F4911
:104170003046FDF7C7F8002840F0B6878A49D8F8DE
:10418000A040874B874AA0479FED7F0B8849304668
:10419000FDF724F800287FF483AED8F8A040804BC8
:1041A000804A81490020A0477AE6C8F88C218FE533
:1041B000002B00F06A827F4D4FF0F80A002C01F0CE
:1041C0000F81237B402B41F0028129462046FCF7DA
:1041D000B3FD18B1027B082A00F09080764B239340
:1041E00000247649029888F8F440FCF7A5FD0028E1
:1041F00000F0B680C368990700F0B280981E434271
:10420000434188F8F430002C00F0AA806C490298F1
:10421000FCF792FD064600B18668002335461E462F
:10422000002D00F0B28701360B2E00F02B82654B7B
:10423000AF68CDE92065002003EB86038246049336
:10424000002F00F08680D8F8B8300AF1010A9A45AC
:1042500000F284803B7B049A402B546845D1554939
:104260003846FCF769FD002845D0037B082B42D176
:104270004569002D3FD0D8F8B4309D423BD8D8F8DE
:10428000F0302B4413F8013C002B34D0F82305FB0D
:1042900003F3A3F1F802089905924FF05C0909FBBA
:1042A0000AF9A9F15C098B5844F809508A1804EB03
:1042B00009060392002B00F00F8100230A93424964
:1042C0003846FCF739FD18B1037B402B00F098808D
:1042D0003E4B23930A9B2BB13D4B4FF480529A6285
:1042E00007F01CF900203F68AAE73A493A4A002043
:1042F000FDF752FCF6E7304B2393F3E7D0F8149028
:10430000B9F1000F7FF76AAFD8F8B4304B45FFF42E
:1043100065AF32492046FCF70FFD10B1027B102A31
:1043200002D02F4B23935BE70669304607F0C0FFAE
:10433000B0F5F07F00F04881D8F8A030294A2A492A
:1043400000209847294A23494B460220FDF724FCC8
:10435000E7E7DDE9206518B12D6861E7244B239379
:10436000239C244A1049D8F8A06023460020B04777
:10437000224621492148FDF7CBFD04467BE400BFDE
:1043800000000000000000000000000080843E41AA
:1043900010840108C48901084C3E0108D089010835
:1043A0002C3B0108488C010820860108008A01087E
:1043B000048A010864860108C03E01085C8B01087C
:1043C000708B010844040020DC8801087C3F010850
:1043D000000400487C840108CC8A0108E49A0108A2
:1043E000DC3E0108E08A0108FC8A0108188B0108FC
:1043F0003C3F010864890108D88A0108855E0008ED
:1044000023A9FFF71DF9706000283FF463AF002572
:10441000A849B5603846FCF78FFC0590002838D0D5
:10442000A549FFF7ADF8002800F0CC870121342022
:104430000DF066FA0446002800F0BA87A9469F4DA1
:104440002B68059807931946FCF776FC98B1017B19
:10445000082910D1226841696868079B04EBC202F1
:10446000516090600091964A96490220FDF794FBB6
:1044700023680133236009F10109B9F1060F05F141
:104480000805DDD12368904A8E490220FDF784FBA0
:10449000B4608E493846FCF74FFC002800F0E981F3
:1044A000C26873689107184600F0E481022A0CBFC5
:1044B00001220022327300F0D18220B1844B0268C5
:1044C0009A4200F0DA81D8F8A030824A824900206E
:1044D0009847824B2393FDE6814B4FF480529A61BB
:1044E00007F01CF854F809307E4A76490220FDF79F
:1044F00053FB7D493722142005F068FC0446002850
:1045000000F0D0807949782240F25E2005F05EFC10
:10451000002800F0C2800123A0F8C43180F8C63121
:104520004FF00009724B20612360C4E9019584F8C3
:104530000D904946284605F073F901230A9000289A
:1045400000F0FC8643F21C022846339233A9032272
:10455000ADF8D09004F016FEBDF8D05015F400650B
:1045600040F0DA86A06805F0CDF9D4F8089003226F
:1045700040F2491300922946484605F093F940F26B
:104580004913042202214846009505F08BF940F2B8
:104590004913102204214846009505F083F940F2A2
:1045A0004913202205214846009505F07BF940F289
:1045B00049134FF47F5200954846062105F072F9E1
:1045C000089B059A9C507AE6089B0AFB0930A0F1EB
:1045D000F507B11CBE46A0F1F806053819E0A2F1B6
:1045E0005703DBB211F801CCACF13002D2B21B019F
:1045F000092ADBB206D9ACF16102052A1CD8ACF15C
:104600005702D2B21A430EF8012F704501F1020190
:104610001BD011F8022CA2F13003DBB2092BE1D937
:10462000A2F16103052BDAD9A2F14103052B3FF674
:1046300083AE373AD3B2D5E7ACF14102052A3FF653
:104640007BAEACF13702D2B2DCE72A4806F1EF0CC0
:104650004FF0FF3217F8013F08215A4042F30003A0
:104660000340013983EA5202F8D16745F2D1D6F806
:10467000F030D24393427FF465AE0123246886F87C
:10468000F4309BE51C4B23936AE61C4A0D4902203B
:10469000FDF782FA1A4B2393A2E52061D8F89830EF
:1046A00020469847174B089A0599239300235350A7
:1046B00012E600BF948B0108903F0108C83F010833
:1046C000B88B01087C840108D88B0108F48B0108A1
:1046D0000FB03713D4820108DC880108F83F0108C5
:1046E00000040048788B010820830108988701089E
:1046F0000EB037132083B8ED243F0108408B01082A
:10470000003F01085C3F0108027B102A7FF45CAC8B
:104710000469AA49204607F06FFD002800F03085A3
:10472000A749204607F068FD002800F02485A54928
:10473000204607F061FD002800F01885A2492046B8
:1047400007F05AFD002800F00C85A049204607F02C
:1047500053FD002800F0C3849D4B9E49029823938B
:10476000FCF7EAFA3CE5D8F8A0409B4B9B4A9C49F1
:10477000A047FFF795BB88F8F4309A490298FCF7F8
:10478000DBFA00283FF442ADC3689A073FF43EAD20
:10479000012433E598F80431012B7FF6FFABD8F8FC
:1047A000A030914A8E4902209847FFF7F7BB8F4906
:1047B0000298FCF7C1FA00284CD0027B082A49D1A4
:1047C00046698B4A8B498C48FDF7A2FB044630466C
:1047D00001F0C8F8FFF74FBA884A814933460020F4
:1047E000A047874B874AD8F8A0407D490020A047C2
:1047F000834A85498048FDF78BFB0446FFF73BBAA7
:1048000082490298FCF798FA0646002800F0BB801F
:10481000DBF8003028209847044628B128220021E0
:104820000AF02CFD4023E36030462146FCF7B0FD42
:10483000002800F08E80D8F8100108B1FBF7F2FFD5
:10484000C8F81041724A6B496B48FDF761FB04469A
:10485000FFF711BAD8F8A0406E4B6A4A60490020B1
:10486000A0476C4A68496448FDF752FB0446FFF7CD
:1048700002BA7068002333731FE6043033A904F0D2
:10488000AFFE00283FF425AEBDF8CC0070650CF0FB
:104890008FFD3065002800F01D81039B93F8F41014
:1048A00091B17268039222B15B4B12689A4200F098
:1048B0003A81D8F8A030594A594900209847594BB5
:1048C00023930023B36105E51D1DF02228460AF05D
:1048D000D5FC98F8F430FBB9DFF87C91039B1C6899
:1048E000D6E914121CB123684B4500F0F980D8F8C2
:1048F000A0304D4A4D49002098474D4C4D4B2393D5
:104900004FF48055A5620023C8E9473306F006FE40
:10491000A56106F003FEDDE498F80431464C474AF1
:10492000C8F81C41012BC8F82021D5D9D8F8A030EF
:10493000434A44490220984798F80431012BCBD9C7
:10494000A4F5EE73404AD8F8A0403E490220A047A3
:10495000C2E72046FBF766FF3C4E2A4A2049D8F8BA
:10496000A04000203346A047274923483246FDF7A0
:10497000CFFA00287FF466AFDDF808904846FBF7D1
:1049800051FFFFF7C7B8D8F8A030314A14490020CA
:104990009847E2E7C9F808503446C5E90035FFF703
:1049A000C2BA2C4B174A0E490020A047294A164983
:1049B0001148FDF7ADFA0446FFF75DB90884010818
:1049C000E8830108F0830108F883010800840108E6
:1049D000A43E0108508601082C3B0108488C0108C0
:1049E000208601085C8B0108048D0108908D010868
:1049F0006C8D010840860108855E0008488E01081C
:104A00005C8E010864890108D88A01085C86010867
:104A1000D88D01087C8D01080FB03713D4820108AE
:104A2000DC88010870400108EC850108208301083A
:104A3000000400485840010828400108B404002040
:104A40001C8C0108348C0108388C0108F43D0108E5
:104A5000C88D0108008E01080EB0371300223261A4
:104A60000022B2750122B28223B1864918688842B9
:104A700000F08C81D8F8A030834A84490020984700
:104A8000736803BBD8F8A0307F4A8049002098475C
:104A90007F493846FCF750F938B1027B082A04D127
:104AA000D0E9060108F0C0F830617A493846FCF7D1
:104AB00043F930B1C3689D0703D09C1E6342634134
:104AC000B3757068F9E46F4A19689142DAD100222F
:104AD000DA73DDE7704A7149FDF75EF8FFF7FABB5C
:104AE00000293FF40AAF0095A06804F10D0305F01A
:104AF000D9F900283FF401AF637B039A0A2B0CBF5E
:104B00000123002382F8F43040F04381644C4FF4D9
:104B10008055A5620023C8E9473306F0FFFCA56174
:104B200006F0FCFCBDE65F496722102005F04EF957
:104B3000079000283FF4C3AE5B4B0360039B5B49C7
:104B400093F8625038221020002D00F02F81B3F826
:104B50005C5005F03BF9554905903922FC2005F0E1
:104B600035F90446002D00F00F8150493E226020A7
:104B700005F02CF901258146059B3BB314B315B113
:104B8000B9F1000F1ED0059BC4F898901C60039BE0
:104B900033A9181D04F024FD60BBD8F8A030444AA6
:104BA00042499847059801F0B3FC07993E4B0A68C3
:104BB00000209A42486016D0D8F8A0303D4A3949C2
:104BC00098477CE60598D8F8983098471CB1D8F8F3
:104BD000983020469847B9F1000FE6D0D8F89830C1
:104BE00048469847E1E7079B18601846D8F8983080
:104BF000984764E6BDF8E030BDF8EC20D4F8989012
:104C00001A4491B2BDF8E2201491A4F89E1004F168
:104C1000F8015200C4F8841004F1F401C4F8E8204B
:104C2000C4F88810002204F1F601C4F89420A4F816
:104C30009C20C4F88C1004F1F00204F1F7012387E2
:104C40006262C4F89010B9F1000F09D004F1EC01D0
:104C5000C9F8181004F1F501C9F82420C9F85C104E
:104C6000C4F8D820149AA4F8E420079AC4F8DC20E9
:104C7000039A92F862200B920DF1F60524A8002207
:104C80009C461FE00FB03713D4820108DC8801086E
:104C9000008C0108108C0108288701087C84010819
:104CA00000040048E08501080DB037134C8C010862
:104CB0005C8C0108C485010835F8021F490820F8FA
:104CC000021B01320B9BD1B28B42F5D8BDF8E82014
:104CD0009DF804111891624492B21992039ABDF89A
:104CE000EA10B2F85C201A919DED408A0C9263465E
:104CF0001146002A00F0E080BDF8EE20B2FBF1F290
:104D00000D92BDF8E610BDF8E420BDF8D2001A44BB
:104D10000B44DDF8CE10A4F87E309D4B23649D4BF0
:104D200063649D4BA364032384F874300F23A4F8B9
:104D3000803004F13C03A4F87A00C4F87610A4F89B
:104D40007C201B93B9F1000F00F08C800020359A75
:104D50001E92CDE92C00369A1792CDE92E00CDE9AE
:104D60003000BDF8DC201C922DAB15930DF1EE0246
:104D70000B9DC1B2A94224D232F8021F23F8021FB0
:104D8000118919810130F3E7A946F5E683F86A2015
:104D90009DE6304607F010F800283FF4AEAD039BC7
:104DA00093F8F430002B3FF499ADAFE605F00EF820
:104DB0007A4905903922FC2005F008F8A9460446F6
:104DC000DAE60C9BA9F838300D9BA9F83A3000239D
:104DD000C9E91333C9E915330993714BC9F8043094
:104DE000704BC9F80830704BC9F80C306F4B1093FA
:104DF0006F4B0E936F4B0F93CDE9116409F148038C
:104E00001693039D09F13A0313939DF824300B9AEE
:104E10001D939A4240F24181159B139A33F8024F39
:104E200022F8024F15931B891392138162491F9335
:104E30002F22EC2004F0CAFF0646002800F00E8165
:104E40005E4B03645E495F4B43648164297D1F9B15
:104E500001393C30042900F2C782DFE801F08F9568
:104E600092309200514B1093514B0E93514B0F9334
:104E7000109BC4F8A4300E9BC4F8A8300F9BC4F854
:104E8000AC301B9B2360504BC4F8E03004F1A0030E
:104E9000B9F1000F00F0DC80C4F83C90C9F8003094
:104EA000206883689847002840F09480D8F8A030A4
:104EB000464A3A49984775E60C9A0D9221E76FF0F9
:104EC0000F02149995F811C095F810E086F874E077
:104ED00021441C9CA6F87A400C9CA6F87E405B00FE
:104EE0000D9C1F93A6F88040179B1E9C86F875C0EA
:104EF00089B2BCF1000F18BF1C466B68A6F87C1085
:104F0000C6F87640C6E92132AB68C6F88C301F9BE4
:104F1000C6F8E030109BC6F89C300E9BC6F8A03057
:104F2000A6F896100F9BA6F8DC1006F1E401C6F86F
:104F3000A430C6F8D4907162C6F8D010002134466F
:104F40003187A6F894102249C6F8D81006F1E80176
:104F5000C6F8901044F8980BF46302F0CDF8099B62
:104F600014355C1C002800F0A3803068C1688847B5
:104F7000169B099443F8046F169346E76FF00B02F3
:104F80009FE76FF00C029CE76FF0060299E700BF05
:104F9000616F000809700008017000084C8C01085E
:104FA000856E0008016F0008F96E00081170000896
:104FB0001D700008D9930008808C0108018F00083B
:104FC000F1700008F9700008F1010008948C0108E4
:104FD000CD8E00082068C36898470599B04A4A609A
:104FE000B04ACA60079A00238B605160039AF3832A
:104FF00092F862501C4606F12602D8B28542F18B27
:1050000028D924A822F8061C30F813000144F183A3
:105010000133042B22F8020FEFD1039B189AB3F847
:105020005C3086F83420F28B86ED0C8A13FB02F399
:10503000B383079B199A9A811A9ADA8123A9B361DB
:105040000020FDF77DFA00287FF44DA9FFF742B953
:10505000E36325E722F8064C0020D9E7DDE9116477
:10506000099B914A9149123309EB830300255D6046
:105070002846D8F8A03098470B941D9C09973746CE
:1050800084B1013CE6B209EB8606E4B2F06C10B1E3
:10509000D8F898309847F564F2E7DDE91164D4F860
:1050A0009890E5E60B9C3E46D4F89890099FDFE681
:1050B000D8F8A0307E4A7F49129C3546119E984709
:1050C000D8F8983028469847CAE700283EF4E8AE5A
:1050D00079483946FCF7FEFC0446FEF7E2BE04239D
:1050E00088F80431FEF770BF9FED690B73493046B5
:1050F000FCF774F800283FF450A8002C3EF4D0AE22
:10510000D8F810010028E3D03146FCF741F9002817
:10511000DED1D8F8A0306A4A6A499847FEF7C0BE87
:10512000694A6A493046FCF7EDF8044600283FF426
:1051300011A8D8F8080107F015FA41EC100B6449E2
:105140003046FCF74BF800283FF404A89FED520BC3
:1051500060493046FCF742F800283EF4FBAFFFF709
:1051600001B8032388F80431FEF72EBF022388F824
:105170000431FEF729BF012388F80431FEF724BF6C
:10518000069B88F80431FEF71FBF03960023524E9A
:10519000C8F8EC302F46039BBB422FD0069C002C56
:1051A0006AD14E4BDFF854A1DFF8549103EB870529
:1051B00009E0D8F8A030524649460020984700231D
:1051C000C8F8EC300134D8F8B8309C4214D2AB683F
:1051D0005C2202FB04335B68002BF3D01A68B242F6
:1051E000E7D1D3ED167AF5EE407AF1EE10FAC8ED7C
:1051F0003B7AE7D0012306930137CCE73849029880
:10520000FBF79AFD00287DD0069A002A3AD1027B4E
:10521000082A2DD1D0E9060107F006FDCBF8980148
:105220009BED667AB5EEC07AF1EE10FA1EDDDFED89
:105230002D6AC6EE877AFDEEE77A17EE901A1E48C1
:10524000C8F88811FCF7CEFE044600287EF413ADA2
:10525000D8F8A040244B254A1A49A047224A24499D
:105260001548FCF755FE0446FEF705BD0021E6E7AC
:10527000204B2393FFF774B819490298FBF75CFDA4
:10528000002842D01C4B2393FFF76AB8AFF300808D
:105290000000000080843E410000000000408F407C
:1052A0000165000811650008B48C0108D88C01085C
:1052B000948C0108808C0108855E0008048A01082E
:1052C000148A0108208601086497010820830108D8
:1052D000DC890108EC8901080FB037134404002071
:1052E000E88C010800007A4424410108648901081F
:1052F000D88A0108CC40010894400108D4820108F2
:10530000DC880108069B002B8AD0039B012B87DDDC
:10531000364B2393FFF724B8D8F8A030344A3549E8
:10532000484698472368344A934228D0D8F8A0309A
:10533000324A304900209847FFF7B4B923682E4A13
:10534000934229D0D8F8A0302C4A2A49984743F2F2
:105350001C032846339300240123032233A9ADF80C
:10536000D04003F00FFFBDF8D03018057FF59AA9A3
:10537000D8F8A0301E4A1F4920469847D6E7206932
:10538000C4F8009010B1D8F898309847D8F8983001
:1053900020469847FFF786B920690A9B236010B121
:1053A000D8F898309847D8F8983020469847CEE7F4
:1053B000134A1449FCF7F0FB134B23930023B3600B
:1053C000FEF788BF114A0F49FCF7E6FBF4E7104AE5
:1053D0000C490020FCF7E0FB0E4B2393FEF700BFC7
:1053E00088F8F440FFF7C9B900226AE5E8400108EF
:1053F000C88E0108208301080EB03713EC85010820
:10540000288701087C840108403C0108A48B01081E
:10541000CC8A0108383E01082DE9F041C16F0568CA
:105420009EB00446002947D02423E3672A68636AB4
:1054300022F001022A60002B40F0AD80D4E9041272
:10544000A36828680B431343E169A84A0B43024051
:1054500013432B606B68E26823F440531343A44A60
:105460006B609542A369AA6800F0DB80206A22F491
:105470003062034313439F4AAB60954200F04A8178
:105480009D4B9D4240F00D8103F5E633D3F8883003
:1054900003F00C030C2B00F26381DFE813F0D4015E
:1054A000610161016101110161016101610171012C
:1054B0006101610161016A0180F878105C2207A82E
:1054C00009F0DCFE8B4B9D4200F0F0818A4B9D423F
:1054D000AAD1022707A80797FAF7D0FF06460028A7
:1054E00040F01A82854B864D9A6D42F400329A65DF
:1054F0009A6D02F400320492049ADA6C42F00102CE
:10550000DA64DB6C03F00103039307220323CDE984
:105510000032039903463A464FF090400F214FF076
:10552000800806F011FDC5E96576C5E96768C5E93B
:105530006966C5E96B6605F5C876724BC5F89031AA
:10554000304606F0EBF9002840F0E681666710234C
:1055500005F5EC76C5E97908C5E97B00C5E97D006C
:10556000C5F8E0313046684BC5F8DC71C5F8B84184
:10557000C5F8D83106F0D2F90146002840F0CC81B8
:1055800026672620C5F8004206F06AFA5F4B4022E3
:105590005A60256848E71E0705D56A68616B22F4E2
:1055A00000420A436A60D80705D56A68A16A22F4F6
:1055B00000320A436A60990705D56A68E16A22F4F5
:1055C00080320A436A605A0705D56A68216B22F463
:1055D00080220A436A60DF0605D5AA68A16B22F41F
:1055E00080520A43AA609E0605D5AA68E16B22F4A0
:1055F00000520A43AA60580609D56A68216C22F451
:1056000080120A43B1F5801F6A6000F00481190618
:105610007FF514AF6B68A26C23F4002313436B6017
:105620000CE722F4306213433449AB60D1F8883080
:1056300003F44063B3F5006F00F0898000F2E58069
:10564000002B00F05981FAF737FE0646002E7FD175
:105650006A682B49002322F49042C4E91A336A6035
:10566000AA6822F02A02AA602A6842F001022A608F
:10567000C4F88430D1F88C602B681A0700F186805A
:105680002B685B0700F19D80002320221846E2670B
:1056900084F87830C4F88020236663661EB0BDE8C5
:1056A000F0811B4B9D425BD103F5E433D3F8883086
:1056B00003F03003202B63D059D8002B00F0C380B7
:1056C000B1F5004F00F02F81FAF7F6FD0028BFD0AA
:1056D000636800EB5300B0FBF3F04FF6EF73A0F1FB
:1056E00010029A423CD8E860B2E700BFF369FFEFCE
:1056F000008000400038014000440040001002409B
:10570000900300206C0002408000024000E100E0B5
:105710000048004002F55842D2F8883003F00303F5
:10572000022B2DD0032B24D0012BC9D0864BB1F5F1
:10573000004FD86800F098809268844BC2F3C22270
:10574000134493F8603603F01F03D840BEE7804E41
:10575000626802EB4203B34202D8B6EB023F61D962
:105760000023C4E91A3301201EB0BDE8F081302BBC
:10577000F6D1B1F5004F00F0D3804FF40040A7E719
:10578000B1F5004F00F0CA807148A1E76FF07E4389
:1057900032464FF40011204606F024F900283FF469
:1057A0006FAF236853E8002F22F0800243E8002106
:1057B0000029F7D12023E367002384F87830032001
:1057C000D2E76FF07E4332464FF48001204606F068
:1057D00009F900283FF458AF236853E8002F22F45A
:1057E000907243E800210029F7D103F1080252E842
:1057F000002F22F0010203F1080040E800210029F7
:10580000F3D12023C4F88030D6E7B3F5406FA7D199
:105810004FF400469CE76A68616C22F4C0020A43B8
:105820006A60F4E60023500819464FF48077E6FBDF
:10583000070107F049FA474BA0F540729A428FD80A
:10584000454BD86004E7B1F5004F6FD0434A3F4B5A
:1058500092683D49C2F302221344C86893F8603647
:1058600003F01F03D84031E79268384BC2F3C222DD
:10587000134493F8603603F01F03D84000283FF428
:10588000E7AE4300626803EB5203B3FBF2F34FF65B
:10589000EF72A3F1100191423FF662AF23F00F02C5
:1058A00092B2C3F342031343EB60D1E6012307A88E
:1058B0000793FAF7E3FD034670BB284A116E41F4E3
:1058C00080411166116E01F4804106910699D16CF8
:1058D00041F00101D164D26C02F00102059207216E
:1058E0000322CDE90021059802224FF4C0614FF058
:1058F000904006F029FB97E58A68144BC2F3022218
:105900001344114A93F86036D66803F01F03DE4053
:10591000002E3FF49DAE1BE7FEF792F8104BB1E767
:105920004FF48033AEE7FAF7C7FCA7E70B4A074B03
:1059300092680549C2F302221344C86893F860369E
:1059400003F01F03D84099E700000020E83A01085F
:105950000024F400FFFC0F00008000400010024013
:105960000048E80138B5054672B6304C94F88830E6
:10597000DBB262B63BB130BF72B694F88830DBB2AE
:1059800062B6002BF7D106F01BF9236828492422C0
:10599000E2671A6822F001021A608B424FF000029F
:1059A0001A605A609A601BD0224A934225D0002385
:1059B0001E48C4F8843084F87830E3676560C4F822
:1059C000803023666366FFF727FD38B9B4F8AC1062
:1059D000D4F8A800BDE8384006F06CB8FEF730F8FF
:1059E00002F1804202F504324FF4C060136E23F4DA
:1059F0008043136604F084F9D9E702F5E6320F20FC
:105A0000936D23F40033936504F07AF9606F06F028
:105A100097FB206F06F094FB074B4022C3F88420CD
:105A2000BFF34F8FBFF36F8FC1E700BF900300201C
:105A3000003801400044004000E100E008B508499A
:105A4000836A00228B42A3F85A20A3F8522000D088
:105A500008BDD3F884305B07FAD5FDF7F1FF00BF2E
:105A600090030020FEE700BFFEE700BFFEE700BF97
:105A7000FEE700BFFEE700BF704700BF704700BFF2
:105A8000704700BF034AD2F88C300133C2F88C3023
:105A9000704700BF900300200C4B0D49D3F8F02352
:105AA0004FF480104861D168490503D4012283F87E
:105AB00011247047D168C9B261F49061D1600120AE
:105AC000012283F8140C83F81124704790030020FE
:105AD00000040140034B5A69120744BF08225A616F
