:020000040800F2
:1000000000000120F5D90008B5290008B929000829
:10001000BD290008C1290008C5290008000000000A
:10002000000000000000000000000000C9290008D6
:10003000CD29000800000000D1290008D5290008BA
:1000400045DA000845DA000845DA0008E529000825
:1000500045DA000845DA000845DA000845DA000804
:1000600045DA0008212A000845DA000845DA0008C8
:10007000352A0008412A000845DA000845DA000858
:100080004D2A0008592A000845DA000845DA000818
:1000900045DA000845DA000845DA000845DA0008C4
:1000A00045DA000845DA000845DA000845DA0008B4
:1000B00045DA0008000000000000000045DA0008F2
:1000C00045DA0008652A000845DA000845DA000824
:1000D00045DA000845DA0008FD2F000845DA000877
:1000E0008D2A0008A12A000800000000000000007E
:1000F0000000000000000000000000000000000000
:100100000000000045DA00080000000045DA0008A1
:10011000000000000000000045DA000845DA000891
:1001200045DA000845DA000845DA000845DA000833
:1001300045DA000800000000000000000000000098
:1001400045DA000845DA000845DA0008000000003A
:1001500045DA000845DA000845DA000845DA000803
:1001600045DA000845DA000845DA0008000000001A
:1001700045DA000845DA0008000000000000000031
:1001800045DA000845DA000845DA000800000000FA
:10019000836A0022A3F85A20A3F85220704700BFB8
:1001A00090F824C0BCF1010F3CD070B590F825C088
:1001B0000124A44580F824405FFA8CFE04D000237B
:1001C00080F82430022070BD022580F82550046894
:1001D0000025C5632668456C26F00106266005F0FB
:1001E0001C05066C0EFA05F5756063608368102BBC
:1001F000036B0BBFA260A160E160E2604BB12368BA
:1002000043F00E032360236843F0010300202360C2
:1002100070BD236823F004032360236843F00A03BE
:100220002360F0E7022070472DE9F041764C00236F
:10023000237094F86530012B0D46E16808D0B1F5C4
:10024000827F60D1D8B22369002B5CD104285AD1B7
:10025000002D58D092B2002A55D094F86430012B6A
:1002600051D094F86530A6682564042B1CBF052383
:1002700084F8653001210023A36684F86410A4F893
:100280004620A4F84E20C4E915337368A4F844202E
:1002900023F4C043A564A4F84C2073606369206E06
:1002A000B3F5E06F31D8E36D99697368B1F5806F8C
:1002B00043F4805373607DD08369B3F5806F65D05C
:1002C00094F86530514A042B514B18BF1346514ADC
:1002D0000363514B4363514B18BF1346C362B4F8D9
:1002E0004E304FF00008C0F838809BB206F10C0188
:1002F0002A46FFF755FF074660B1A36E84F8648075
:1003000043F01003A366BDE8F081736823F48053C3
:100310007360D5E77368E06D43F001037360B4F870
:1003200046300A46C0E90B77C0E90D7729469BB2F3
:10033000FFF736FF00284AD133685B0621D500233A
:1003400084F86430736843F020037360736843F08B
:1003500002037360E26E2378002BD4D141F287311F
:1003600009E072B6237803B930BF62B6BFF36F8F6E
:100370002378002BC7D1E36E9B1A8B42F1D9BDE8DD
:10038000F081336843F040033360D8E7736823F4A7
:1003900080537360B4F84E3013F0010F73681DD1B1
:1003A00023F400537360B4F84E30C3F34E03A4F843
:1003B0004E3085E7D20773681BD423F48043736003
:1003C000B4F84630C3F34E03A4F8463074E7A36E86
:1003D00084F8647043F01003A36694E743F4005379
:1003E0007360B4F84E30C3F34E030133A4F84E30BB
:1003F00066E743F480437360B4F84630C3F34E03BA
:100400000133A4F8463057E778000020D1050008F2
:10041000CD05000861110008D5050008B5100008D9
:1004200070B4436C066C056831682C6803F01C03DB
:1004300004229A400A420ED014F0040F0BD02B680D
:100440009B0603D42B6823F004032B60036B7260BC
:10045000CBB170BC184702229A400A4215D014F062
:10046000020F12D02B68990606D42B6823F00A03DA
:100470002B60012380F82530C36A7260002180F868
:100480002410002BE5D170BC704708229A400A4224
:10049000F9D02207F7D52A68416B22F00E022A60B4
:1004A000012202FA03F300247360C26380F824403F
:1004B00080F825200029E6D070BC0847414A03682F
:1004C00030B4D468A40707D0D46804F003049C4275
:1004D00046D0012030BC7047022B52D0032B49D0AC
:1004E000012BF6D112689207F3D5364CE26822F060
:1004F000730213434268013A43EA0213E360314C4A
:10050000314A236823F080632360D56E03E0D36E05
:100510005B1B022B39D823681B01F8D483681B02AC
:10052000002934D12169C56821F0784121F4FE41C8
:1005300043EAC5630B43236122490B6843F08063A0
:100540000B60D46E03E0D36E1B1B022B1DD80B680F
:100550001B01F8D582690B69134300200B61B9E7D1
:10056000002CB6D0D3684268C3F302130133934220
:10057000AFD1C4E71468A403B7D412685203A8D556
:10058000B3E712685505A4D5AFE70320A2E7012918
:1005900021690BD021F0C06121F4FE411943436968
:1005A0005B08013B41EA43612161C5E721F4C001D9
:1005B00021F4FE410B4301694908013943EA4153E3
:1005C0002361B9E70010024078000020704700BFA7
:1005D000704700BF836A19684A6822F003024A60C4
:1005E0001A6E4FF0010C42F010021A6683F85DC0DB
:1005F000704700BF10B418B10C4B04689C4208D07F
:100600000B4B0C4AD3F880300B495DF8044B0020AB
:100610001847032A02D9064B084AF3E702EB820285
:1006200000EB82005DF8044B416070470FB0371358
:1006300078000020E44E0108FC4E0108044F010838
:1006400010B418B10C4B04689C4208D00B4B0C4AF8
:10065000D3F880300B495DF8044B00201847032A7B
:1006600002D9064B084AF3E702EB820200EB820054
:100670005DF8044B018170470FB0371378000020FC
:10068000E44E0108FC4E0108044F010810B418B1F3
:100690000C4B04689C4208D00B4B0C4AD3F88030BA
:1006A0000B495DF8044B00201847032A02D9064B7A
:1006B000084AF3E702EB820200EB82005DF8044B8C
:1006C000418170470FB0371378000020E44E0108D5
:1006D000FC4E0108044F010810B418B10C4B04681B
:1006E0009C4208D00B4B0C4AD3F880300B495DF884
:1006F000044B00201847032A02D9064B084AF3E7A7
:1007000002EB820200EB820001755DF8044B70473A
:100710000FB0371378000020E44E0108FC4E0108AA
:10072000044F010810B418B10C4B04689C4208D067
:100730000B4B0C4AD3F880300B495DF8044B00207A
:100740001847032A02D9064B084AF3E702EB820254
:1007500000EB82005DF8044B818170470FB03713C6
:1007600078000020E44E0108FC4E0108044F010807
:1007700010B418B10C4B04689C4208D00B4B0C4AC7
:10078000D3F880300B495DF8044B00201847032A4A
:1007900002D9064B084AF3E702EB820200EB820023
:1007A00081735DF8044B70470FB037137800002059
:1007B000E44E0108FC4E0108044F010810B418B1C2
:1007C0000C4B04689C4208D00B4B0C4AD3F8803089
:1007D0000B495DF8044B00201847032A02D9064B49
:1007E000084AF3E702EB820200EB82005DF8044B5B
:1007F000017470470FB0371378000020E44E0108F1
:10080000FC4E0108044F010810B418B10C4B0468E9
:100810009C4208D00B4B0C4AD3F880300B495DF852
:10082000044B00201847032A02D9064B084AF3E775
:1008300002EB820200EB82005DF8044B41747047CA
:100840000FB0371378000020E44E0108FC4E010879
:10085000044F010810B418B10C4B04689C4208D036
:100860000B4B0C4AD3F880300B495DF8044B002049
:100870001847032A02D9064B084AF3E702EB820223
:1008800000EB8200C1745DF8044B70470FB0371362
:1008900078000020E44E0108FC4E0108044F0108D6
:1008A000B1F804C093680A899A80BCF1000C18BFA3
:1008B0004FF0010CCA7983F800C091F806C083F8A4
:1008C00001C09A709860704703460068D3F8E8103A
:1008D0004268C3F8F0101047D0E90F23816B00691C
:1008E000184700BF0068C368184700BF704700BFC3
:1008F00000688368184700BF2DE9F047D0F80080F2
:100900000546B8F1000F1ED0D8F898700FB3124EFC
:1009100007F148044FF00009583754F8040F18B194
:10092000B36F9847C4F80090A742F6D1D8F8980062
:10093000B36F00B19847B36F40469847B36F2846EE
:10094000BDE8F0471847044E2846B36FBDE8F047AE
:100950001847014EEFE700BF78000020F8B50546C4
:100960000088002A1C460CBF4FF400534FF48053FC
:10097000B0F59C6F0E460FD300F151077F00834204
:10098000BFB236D21C4B1D4AD3F880301C49002020
:1009900098474FF0000C03E040F662274FF0010C3F
:1009A0001849194AC4E9011202F11912E26002F170
:1009B000191222612346002262805122A28223F86A
:1009C000167B29686A68A868EF68C4F816105A6030
:1009D0009860DF602969A8696A699861196196E879
:1009E00003005A61AA8B9A83343484E8030060467A
:1009F000F8BD4FF0010CD3E7780000201C4F010830
:100A00003C4F01080100020003001B002DE9F047E4
:100A100082B0BDF828400B9F03EBC4056B88002B08
:100A200045D06E68844601EB0208043E4FF0000E8C
:100A300056F8044F620092B28A4234D3424532DA09
:100A4000C4F30170012818D002283CD098BB521A78
:100A500093B2C4F34459012202FA09F297424BD3EC
:100A60003449013AD1F8804001923349334A009722
:100A7000A047002002B0BDE8F087521A92B20CEBFA
:100A800042093CF81200B9F8023043EA004323F06F
:100A90000F0317B1C4F303442343180C2CF81200BE
:100AA000A9F802306B880EF1010E7345C0D8012001
:100AB00002B0BDE8F0871F4B214AD3F880301E49B1
:100AC00000209847D5E7521A92B20CEB42003CF84E
:100AD0001290438843EA094323F00F0317B9C4F384
:100AE000034423431C0C2CF8124043806B880EF106
:100AF000010E73459CD8DAE7C4F3044A0CEB4304B7
:100B00003CF813006288C9F1200942EA00424FF024
:100B1000FF3020FA09F000FA0AF022EA000207FA90
:100B20000AFA42EA0A02100C2CF8130062806B8861
:100B3000B9E700BF78000020884F0108504F010836
:100B4000944F01082DE9F0470646804602EB42002B
:100B50008CB0154606EB8000002289460DF10C0A88
:100B6000014617464FEA870E54469FED767AB31A30
:100B700075B103EB020CF444DCED007A9C46DCED2D
:100B8000006A0C3367EEA67A8B4237EE277AF0D1F3
:100B90000EF1040EBEF10C0FA4EC017AE5D1013781
:100BA000032F0AF1100AA2F1040201F10401D9D1C4
:100BB0009DED045ADDED055ADDED086A6A4606F141
:100BC0000C01DFED607A43463DB11C4694ED007A9E
:100BD0000C33834277EE877AF7D108F10408884511
:100BE000E2EC017A00F10400EBD19DED037AF0EE26
:100BF000C77AF4EE677AF1EE10FA12D69FED526AD8
:100C0000F4EE467AF1EE10FA0BDC9FED506AF4EE4A
:100C1000C67AF1EE10FA04DAB5EE407AF1EE10FA87
:100C20007DD0F7EE007A87EE872A9DED073A9DED9D
:100C30000B7A65EE023A25EE824A65EE237A65EE7E
:100C4000A34A33EE673A25EE846AF0EEC32A65EED6
:100C5000047AF4EE622AF1EE10FA76EEE44A76EEC9
:100C6000E77A37EE466A06D69FED377AF4EE472AE2
:100C7000F1EE10FA47DDB7EE007AC7EE032ADDED9C
:100C8000006A9DED017A9DED023A63EEA63A67EEA9
:100C9000A27A37EE637A64EEA73A67EE877A36EE89
:100CA000636A24EE264AF0EEC63A73EE677AF4EEF3
:100CB000633AF1EE10FA77EEC47A06D69FED224A37
:100CC000F4EE443AF1EE10FA2FDD87EE864A012069
:100CD000002364EE844A65EE845A77EE647A89EDE7
:100CE000024A67EEA27A25EE275AC9ED017A76EE1E
:100CF000C57A77EEE57A67EE827AC9ED007A3360DD
:100D00000CB0BDE8F0879FED117AF4EEC72AF1EE42
:100D100010FAB0DAB5EE403AF1EE10FAABD100209D
:100D2000002333600CB0BDE8F0879FED084AF4EE75
:100D3000C43AF1EE10FAC8DAB5EE406AF1EE10FAF4
:100D4000EDD0C2E700000000FFFF7F7F00008000C1
:100D50002DE9F047C36D8769056900247C808146D1
:100D60001C7000F14806A04656F8043FFBB1B3F8EA
:100D700038C0B3F89400B3F89610B3F8DC2005EB54
:100D8000400005EB410105EB420205EB4C0CC3E9C9
:100D90001301C3F8A820C3F814C03C701868D3F836
:100DA000E020416883F8E880C3F8E42088470134F4
:100DB000E4B2042CD8D1D9F80000BDE8F04743686C
:100DC000184700BF70B50446806980B1E3694BB134
:100DD000104B93F888202AB1D3F880300E4A0F497F
:100DE000012098472068BDE8704083681847094D86
:100DF0000B4AD5F8803009499847E36943B195F823
:100E000088302BB1D5F88030034A04490120984737
:100E1000002070BD78000020B84F0108C84F0108BD
:100E2000D84F010830B40269B0F8423090F8381059
:100E300032F81330032908BF83F4004340F2E51170
:100E400001FB03F31B0C816C8446A3F589700880B9
:100E5000BCF83C10DCF84C0032F8111039B1BCF889
:100E6000401032F81110012994BF002101210170B6
:100E7000BCF83E00BCF83A10DCF8505032F81110C3
:100E800032F81020DCF8544040F2E51000FB02F28A
:100E9000A3EB12431BB2002BBCF94420DCF800008A
:100EA000B8BF5B421BB29A42A1F10102B2FA82F2D0
:100EB000ACBF0023012352092A70237030BC436861
:100EC000184700BF0068C368184700BF836910B5A2
:100ED0000446CBB10E4B93F8882052B963698BB1AD
:100EE0000B4B0C4AD3F880300B4900209847002068
:100EF00010BDD3F88030094A07490120984763693B
:100F0000002BEDD1012010BDC369002BE2D1E5E734
:100F1000780000202C50010810500108F44F0108FF
:100F20002DE9F04F9B461B68C2F51E66B34294BF85
:100F30009EB2B6B2884674084FEA520183B0174693
:100F40004FEA81010CD0144B08EB8404194443464A
:100F500051F8042B5A80120C1A800433A342F7D1A3
:100F60000E4C851E04F1E20A04F1E40914F8013B79
:100F700035F8022F3946CDE9003240464B4632461D
:100F8000FFF744FDA24501D00028EFD1CBF8006067
:100F900003B0BDE8F08F00BF94220108700F010874
:100FA0000068C368184700BF00688368184700BF1F
:100FB00070B5114E114A3368A2FB03239B09013B14
:100FC000B3F1807F01D3012070BD4FF0E0220C49C6
:100FD0005361F02381F82330002507230F28956102
:100FE00004461361EFD801464FF0FF3008F0DAFFF6
:100FF0007460284670BD00BF00000020D34D621011
:1010000000ED00E00CB4F0B5ADB032AB06AE53F875
:10101000042B059304460D46304696210EF04EFFF4
:101020009528C4BF1B4BCDF8AA301B4B1B49DF6E64
:10103000A1FB07311A4BA3FB0723980B194BA3FB0A
:1010400007234FEA931C184B4FF47A7202FB1C776C
:10105000A3FB00E25209042CC2EB0212A0EB8202B5
:10106000A3FB0CE398BF114800974FEA531394BFBA
:10107000005D3F20C3EB03130190CDE90256490DFB
:10108000ACEB83030A480EF0F3FE2DB0BDE8F04050
:1010900002B070472E2E2E0078000020B17C2195E2
:1010A00073B2E745D34D621089888888785001086B
:1010B0005450010838B5294A0368D56E1B689B0651
:1010C0001BD4846A2368A2685868616820F02000F5
:1010D00058609AB15868B1F5827F20F001005860DD
:1010E00022D02946204608F0C9FAB0B901230022CF
:1010F000A4F8462084F85D30236E38BD5A68B1F5F7
:10110000827F0CBF22F0030222F001025A602946BE
:10111000204608F0B3FA0028E8D0236E43F02003FD
:10112000236620232366E1E7B2F5004F12D11A6847
:1011300022F0400229461A60204608F09FFA002853
:10114000EBD12A464FF4C061204608F033FA00285C
:10115000CCD0E2E7B2F5806FE9D0C2E7780000209A
:10116000F8B51B4D0368EF6E1B68846A9B062CD490
:101170002668736823F0200373603A464FF4C05129
:10118000204608F017FA58B93946204608F076FA92
:1011900030B93A464FF4C061204608F00BFA38B136
:1011A000236E43F020032366236E43F0200323665F
:1011B000736823F00303736000220123E287A4F81D
:1011C000462084F85D30236E0BB901232B70F8BDE7
:1011D00078000020F8B595692B7802EB43030F46A1
:1011E000B3F84460536901466888144603EB400035
:1011F00072000EF0DFFD6B88E26D1E4413786E8086
:1012000003B93B791370F8BD2DE9F04F2DED048B38
:10121000038F8DB00546002B00F01581B0F84030EB
:10122000428F0469B0F850E007925B000293838F0D
:10123000C28F34F913300B92BEF1000F00F003811E
:101240001B010893D0E91223D718B0F85200B5F863
:101250004230DFED8A8ADFF830B20193FE434FF06F
:101260000008F6EE009A0990C1460496CDF828E0F1
:10127000834B83FB0710F917C1EBA00101EB410081
:10128000A7EBC00000281FFA89F886B2C0F2EB80F5
:10129000002FC0F2F180089B09B2090481FB030111
:1012A000002906DA4FF6FF7C10EB0C0C604641F18A
:1012B0000001079B000C40EA0140991934F9111014
:1012C000A0EB011007EE900AB8EEE79A29EE289AF3
:1012D000B0EE490A0DF058F8B0EE408AB0EE490A77
:1012E0000CF062FC019B002B00F0A2800B9BB5F878
:1012F00044A01E4404EB46030020CDE90597039368
:101300000646009059E095F838C0BCF1000F4BD06C
:1013100007EE101A07EE903AF8EEC76AF8EEE77A91
:1013200026EE806A27EE887A66EE886A37EE467A7D
:1013300067EE807AB5EEC07A77EEA67AF1EE10FA13
:101340004CBF37EE697A37EE297AF5EEC07AF1EEC6
:1013500010FABDEEC77A4CBF77EEE97A77EEA97A3C
:1013600017EE103AFDEEE77A5B4517EE901A47F656
:10137000FF70B8BF5B468342D5F85490A8BF0346C0
:101380005945B8BF594699F800E08142A8BF0146C7
:10139000BEF1000F04D117EE100A98425BD0E6466A
:1013A00089F800E01BB209B2A352009B7980534434
:1013B0000093019B01369E4238D0009B95F839C0BE
:1013C00008EB5302029B92B203EB8202A718A35EC2
:1013D000B7F90210BCF1000F95D00398B0F800C027
:1013E0000CF01F0E0EF1300E03FB0EFE4FEA9C2395
:1013F000203BCCF3441C01FB03F3BEF1000F0CF1C6
:10140000300C01FB0CFCB8BF0EF13F0E002BB8BF37
:101410001F334FEAAE1EBCF1000F0EEB6313B8BFD3
:101420000CF13F0C1BB24CF38F116CE7DDE9059713
:10143000099B049A1F44D31A04930A9B09F10109DA
:1014400099457FF415AF286843680DB0BDEC048B57
:10145000BDE8F04F184717EE900AB0EB010E18BF29
:101460004FF0010E9CE71836B6B2049B054AA2FB6A
:1014700003016FEA11110EE70026F6E7000080373E
:10148000ABAAAA2AABAAAAAA0080FFFFF8B5164603
:101490000D464FF4E272014618461C460EF0A4FCBD
:1014A000B6F8581021B196F85E30191E18BF012108
:1014B000012396F85B2084F8C6312B4684F8C521B9
:1014C00033F8262B84F8C411A4F8C82105F156017D
:1014D00004F5E5721F685E689868D3F80CC0C2F81E
:1014E0000CC010338B4217605660906002F11002FE
:1014F000F0D1B5F85630A4F8FA3105F1580604F5E4
:10150000FE7E05F18807B446BCE80F00BC450EF12D
:10151000100E06F110064EF8100C4EF80C1C4EF88A
:10152000082C4EF8043CEED1B5F88830A4F82C32E3
:1015300005F18A0304F22E24BA35186859689A68AE
:10154000DE68E6601033AB4220606160A26004F1A7
:101550001004F2D1F8BD00BF2DE9F04F2DED108B36
:101560009BB090F85E401D4690F85C300893042CC8
:10157000B0F8583003938046894616461AD8D0ED05
:10158000147AF5EEC07AF1EE10FA00F1F88190F8D5
:101590006630002B00F0978290F85B30002B00F053
:1015A0009282024C024A059407E000BF78000020B6
:1015B000C4500108C74CC84A0594D4F88030C749C4
:1015C00000209847D8ED157AD4F88C30009307EEB8
:1015D000103AF5EEC07AF1EE10FAB8EE478A40F311
:1015E000D281C8EE278AF6EE007A78EEA78A039BAE
:1015F000002B00F0A88198F85E30049398F85A30D8
:10160000002B40F0A78198F86020022A41F0428127
:1016100098F85E40012C00F0ED83002422463499B6
:101620000C71A6F8AC21002B00F0998198F85F307E
:10163000012B00F01184022B00F0F883002B40F006
:10164000E98301231A46F384328598F86030012B30
:1016500000F0D983022B00F0D583002B00F0148416
:10166000059B9F4AD3F880309C4900209847B9F1E8
:10167000000F00F0788100230093B9F8E410B9F866
:1016800008307180B9F8E610B180B9F8E210318005
:10169000B9F8E810F180B9F8021031819B00B9F86F
:1016A000041071819BB2B9F80610B18103F13002C8
:1016B000B9F80A10F18192B2B9F8201031825F2A8C
:1016C000B9F82210718240F2F2818649A1FB020131
:1016D000890901EB4101A2EB411189B200201A46B0
:1016E00004460B460121F2820322B3827283002357
:1016F000009A7384B483F083318331846B80012337
:10170000C5F80A30002A00F06A870027CDE9017782
:1017100006F13E039FED749A9FED74AADFED779A70
:10172000CDE90696B34605F10E0A44461E46049AD4
:10173000FBB29A4200F22A810023AAF80030AAF8EC
:10174000083033800137042F0AF1020A06F102063D
:101750000BF1560B04F11404E9D1039BAA89DDF8BF
:1017600004E012FB03F26B8992B213449BB2DDE9F1
:101770000696591C012089B20090B6F8AC010128E8
:1017800004D1DDE9020404FB00F00290029FB8F8E6
:10179000640098F863C098F862B04FF6FF74A742EF
:1017A00028BF27464408A4F1030A98F86640A6F823
:1017B0009EB18CF0010C0338A6F8A6C1A6F8A4715E
:1017C000A6F8A0E1A6F8A801A6F8AAA1AA81AB8074
:1017D000E980002C00F02B81413399B24024012391
:1017E00029802C81A6F8C031B9F1000F03D0B9F8D7
:1017F0000C30A6F8C231009B002B40F04281349A95
:1018000098ED145A00231360089BA6F8B231039B8D
:10181000012B40F23381B8F85830023B01229BB2D1
:101820009FED336ADFED335A98F85A10F1EE007AE3
:10183000C8EE066A68EE277A68EE255A87EE867A41
:10184000C5EE867AB6EE006A76EE866A37EE067ADE
:10185000FCEEE66AB5EE405AD8ED155AA6F8AE3160
:10186000F1EE10FA16EE903A77EE867ABCEEC77A71
:10187000A6F8B02114BF01220022FCEEE77A3287DD
:1018800098F85B20A6F8B43117EE103AA6F8B631F6
:1018900017EE903AF5EE405AA6F8B831009BF1EEFB
:1018A00010FA14BF01200020002B40F0C2803186C6
:1018B0007286708598F861300F4A0098C6F8BA2190
:1018C0000121B184A6F8BE311BB0BDEC108BBDE880
:1018D000F08F00BF78000020805001089C50010864
:1018E000C0510108ABAAAAAA2549123E8FC2753D74
:1018F0000024744900009643FF070108000000001F
:10190000B5EEC07AF1EE10FA00F1158398F85A207E
:10191000002A00F01383B5EE407AF1EE10FA05D1FB
:10192000F5EE407AF1EE10FA40F0C9835FED0D8AD2
:10193000059B754AD3F88030744900209847039B73
:10194000002B7FF458AE039B049398F85A30002B79
:101950003FF459AE349A00231371A6F8AC31B9F1B3
:10196000000F7FF488AE0123A5F802906B81CE466C
:1019700002214A46CDF80890CDF80090FDE6644C6F
:10198000644A059419E6DFED648A30E6012333806A
:1019900098F85C90228940F2FF3340F2FF11B9F1D0
:1019A000000F18BF0B4652B39A4228D8A27B237C63
:1019B00042B1022B06D1059B584AD3F88030DDE9AD
:1019C000069622E0E07B002840F04982012B00F0DF
:1019D000AF80059B524AD3F880304C490090DDE936
:1019E00006969847DDF804E0039BAA8912FB03F2F0
:1019F0006B8992B213449BB2591C89B2BDE6059B18
:101A0000484AD3F88030DDE90696404900209847DF
:101A1000039BAA89DDF804E012FB03F26B8992B202
:101A200013449BB2591C002089B20090A5E62346BE
:101A3000D6E6B5EE405AF1EE10FA0AD0C8EE057AB5
:101A400077EE867AFCEEE77A17EE903AB3871B0CB6
:101A50007387002361F30F03F5EE405A62F31F43CF
:101A6000F1EE10FA708533633FF424AFFCEEE87AB0
:101A700017EE903A1A0CB285F3851BE70022134645
:101A8000CEE698F85D30072B15D8274A9FED229AAD
:101A9000134493F87838A6F8A231349B83ED009A6A
:101AA000049B002B40F04D8298ED145AACE60320C5
:101AB0000124002117E6349A98ED145A002313608C
:101AC00000230093A0E6012C40F2EA8198F80F1061
:101AD0004246012303E00133A34200F0E1810846BE
:101AE00092F82310814202F11402F4D2084F0F4AF7
:101AF000D7F88040054905970020A047D8ED157A12
:101B0000D7F88C3062E500BF245101089C500108D1
:101B100078000020B050010800000000F0510108DA
:101B20001C520108E0510108700F0108F050010833
:101B30006FF00B030993E288A3880A92182A009396
:101B400040F29E8202EB820303EB031303EB0323B9
:101B500002EB4303C3F3CC0242EA43339BB240F6A9
:101B6000AA22934200F2DF82B24B0A9AA3FB02231D
:101B70001B090E93013B9BB215935C230D93182315
:101B80000B930098002840F0E484059BAA4AD3F800
:101B90008030AA499847B9F1000F00F0CD844FF08A
:101BA00000090222009B099913FB02F292B20092F3
:101BB000226811440A460C910A99013B01FB032358
:101BC000099302F5C34328334CF25032934208D9AB
:101BD000059B9B4AD3F880309849002098474FF0E6
:101BE0000009099B03F5C34328334CF2503293425A
:101BF00008D9059B934AD3F8803090490020984734
:101C00004FF000090C9A002AC0F246838E4880FBF0
:101C10000230D217C2EBA00000B2099B002BC0F229
:101C20002F83894981FB0331099BDB17C3EBA1019A
:101C3000119309B280B2091A0C9B0F90824880FB65
:101C400003C0C2EBA00288B209B20E9B1091B0FB98
:101C5000F3F0411C0A901FFA81FE0B981821B1FB8A
:101C6000F0F30E930C9B02EB4202B3EBC20200F1C5
:101C7000008313B2139393B20C93099A7248119B89
:101C80000B9980FB020CC3EBAC0303EB430C0C9BE6
:101C9000B3FBF1F001FB103081B2B2EBCC03099140
:101CA00000F104831AB219929BB20E9A0B98511E3E
:101CB000099A89B21891BEF1010F11FB002189B276
:101CC00000F0FA82099A0C98824240F00883994207
:101CD00000F05C8400230122139316921493129255
:101CE0000E930C9B9A00099BABF882209B00ABF8EB
:101CF0008430B9F1000F40F0FE826C231793362335
:101D00000C937D223D234FF00009ABF87C300F9BF4
:101D1000ABF87A200C9A1099C3F1290313441AB234
:101D20001192521A9BB2292A0F9308DC059B474A4D
:101D3000D3F880304149002098474FF00009119BAB
:101D4000179A934208DB059B414AD3F880303B4900
:101D5000002098474FF000090D9B2C2B00F21382B6
:101D60001E2B40F2EC831E3B0F229BB20D92ABF870
:101D70009A30159B0C99ABF89430139BABF87E10FE
:101D8000ABF88E300F990A9BABF880100D99ABF829
:101D90009610ABF89820002B40F0D381149B002BB9
:101DA0000E9B08BF00230E93129B002B00F0E183D3
:101DB000099A199B9B1A0B9A93FBF2F39BB2169A02
:101DC000ABF89220ABF88C300E9AABF88820002349
:101DD000ABF89030ABF88A300A9BABF88630B9F19B
:101DE000000F40F0C382CDF80090DDF804E0DDE99B
:101DF0000696F9E598F81020013A012A7FF60DAC15
:101E000022460CE400237363B9F1000F42D0012392
:101E1000009332E4059B0F4AD3F880300749002035
:101E20009847B9F1000F7FF426AC9CE500231A46D1
:101E300009E400BFABAAAAAA685201089C50010895
:101E4000B4520108C8520108ABAAAA2AFC520108E0
:101E50001C530108A05101080022FFF7F4BB013B0D
:101E6000042B00F23F8501A252F823F0311B000839
:101E7000B7200008811E0008AF200008811E00085E
:101E80006FF00C03099356E64FF001137363B9F139
:101E9000000FBCD100236B800123C5F80A3034E465
:101EA000BB4B98ED157A0593D3F88C30009306EE72
:101EB000903AB5EEC07AF1EE10FAB8EE668A7FF786
:101EC0001FADC8EE078AF6EE007A78EEA78A18EE04
:101ED000900A0EF0C1FE59B1059BAE4AD3F880308E
:101EE000AD4900209847039B002B7FF484AB2BE582
:101EF00098F85A20002A7FF41BAD039B98F85F10D6
:101F0000002B98F8603014BF2046002099420490BE
:101F100008D9059BA14AD3F880309F4900209847F3
:101F2000FFF76CBB022B00F0BF84349B1A71A6F83C
:101F3000AC21FFF77BBBDFED9A8ACDE7DFED988A16
:101F4000DBE7B6F8AC31B6F8A421012B00F0CD8068
:101F500007EE902ADFED939AB8EE67AAB7EE089ADB
:101F6000F2EE02DA059B9FED900AD3F88C300193D4
:101F700007EE903AB8EE67FA80EE0F0A0BF0C2FE59
:101F800098F86030022B2FEE00FA00F22381874A86
:101F900098F85E1002EB830090ED00EAD0ED03FAB2
:101FA000002900F02981009BDFED7DEA9FED80BADA
:101FB0009FED80DADFED80CA9FED80CADFED80BA49
:101FC000DFED80AADDF8149044460025227C052A26
:101FD00000F29280022A40F29A804FF0300A0827DD
:101FE000E27B052A00F27384DFE802F03E413B0306
:101FF0004744F0EE4B7A8FEE276A228998F85E10FC
:1020000002FB077702377F00BFB2A2880135143484
:102010009FED6D7AC6EE076A07EE90AAF8EE677A32
:1020200087EEA66A07EE907AF8EE677A87EEA67AD0
:1020300007EE902AF8EE677AEAB267EE277A9142C5
:1020400077EE867A77EEA97A77EE897A7EEEA7EA3E
:10205000BCD898ED145A002B40F0D2800093FFF7C3
:10206000D3BBF0EE6A7AC6E7F0EE6C7AC3E7F0EE27
:102070004D7AC0E7F0EE4C7ABDE7F0EE6B7ABAE746
:102080000A9A002A4FD01823B3FBF2F302FB03F3A2
:10209000C3F118039BB21593002B44D10A9A0B92FB
:1020A000531E9B009BB20D9301230E9369E56FF0C5
:1020B0000F0309933FE56FF0060309933BE598F89A
:1020C0005F2098F860309A427FF430AC039B349ADA
:1020D000DFED338A002B14BF234600230493002333
:1020E0001371A6F8AC31FFF7A1BAF0EE499AF0EE01
:1020F00049DAB0EE49AA35E7D9F88030334A2649A3
:10210000002098474FF0180A0427002368E7012AA7
:1021100005D0022AF0D14FF03C0A0A2760E74FF0C1
:10212000480A0C275CE7059B294AD3F880301A49F6
:102130000020984700230122CDE90D3215930B9220
:1021400029E5149B002B0E9B08BF00230E93129BC6
:1021500033B1099A199B9B1A0B9A93FBF2F39BB22A
:10216000ABF88C300A9B169AABF89220013B0E9A82
:10217000ABF888209BB2189A0A930123ABF88A2007
:10218000ABF8903028E600230D931A46EFE500BF28
:1021900078000020105101089C500108505101089E
:1021A000000000009A999D41F902154FF0170108AF
:1021B0000000904300002043000000430000F04373
:1021C0000000C04300004043002474494452010809
:1021D00054520108059BC04AD3F88030BF49002003
:1021E000984798F85E30002B00F0F481DFEDBCFAE0
:1021F0000023B0EE6FEAD7E698ED145ADFEDB8EAA7
:102200009FEDB87ADFEDB86A349BCFEE077AB1EE76
:102210000C7AC7EEA65A2AEE07AA7FEE8EFACAEE0D
:10222000257A9FEDB27A77EEAD7AB0EE006A77EE5E
:10223000AE7A77EEAF7A27EE877A37EE067A77EEC8
:10224000277A86EEA77AB4EEC57AF1EE10FA83ED1E
:10225000007A7FF5D9AA059BA54AD3F880409F490B
:10226000FDEEC77A002017EE903AA04700230093B6
:102270001AE402F1180083B20C9303B21393FCE446
:1022800009999C4BC943A3FB0131099B6FEA1111CA
:10229000DB1709B21193CDE40C9A964BD043A3FB04
:1022A00000306FEA101000B2D217B6E403F1180044
:1022B00002B283B21992F8E40C98824200F0638172
:1022C00000220A9216921292139A9B1A0B9A93FB6F
:1022D000F2F39BB20E930123CDE9133301E599424A
:1022E00000F05E810A9B013B9BB20A930123169387
:1022F00012930B46E8E7E37B052B00F21983DFE836
:1023000003F01A130C032B214FF486731793D62373
:102310000C9340F21D128D23F7E4AC231793762320
:102320000C93BD225D23F0E48C23179356230C936A
:102330009D224D23E9E46C23179336230C937D22D1
:102340003D23E2E44FF4E67317934FF4CB730C9301
:1023500040F2DD12ED23D8E44FF4B67317934FF437
:102360009B730C9340F27D12BD23CEE4A37A172B0E
:1023700000F20181092B00F21F81C3F109039AB217
:102380001523ABF84630069BABF84820002B00F035
:10239000608203EB42029389ABF84A30237C013B15
:1023A000042B00F2A682DFE803F0BC7703AB8500C4
:1023B0004FF000094FF400724FF4C063CDE90923D8
:1023C0004FF0C00E02204FF0040C08214A464B4645
:1023D000ABF86E000A98ABF856000998ABF870C0DD
:1023E000ABF85800ABF84E10ABF85010ABF852E019
:1023F000ABF854E098F85D10B9F1000F00F00A81D5
:10240000002B00F00781022900F27C813A4B0B443B
:1024100093F87438ABF85A30069B002B00F01D81FE
:102420000023ABF85E300123ABF86A30069B002135
:10243000D3E932ECD3F8C4900B460EEB1140A0EB7D
:1024400009009042614480F2328201330F2BF4D1B3
:10245000069AABF86030D2E936E303EB83020EEB69
:102460001242F92A00F3F181062003FB00F0052156
:1024700003E0BCF1FA0C40F1DC810A46013189B27B
:1024800014290EEB104C1844F3D1059B1B4AD3F8CA
:102490008030DDE906963BE100214FF40073CDE981
:1024A00009134FF0400E03204FF0020C0821962232
:1024B000FA238DE74FF000094FF4F0504FF47853B2
:1024C000CDE909034FF4F86E02204FF00B0C082100
:1024D0004A464B467CE700BFC05101089C500108AA
:1024E0000000000000002043002474490AD7233C68
:1024F00098530108ABAAAAAA700F01086C530108EF
:102500004FF000094FF4C06C4FF46063CDE909C38C
:102510004FF4E07E02204FF0060C08214A464B465D
:1025200056E7069B9B8C0422082BCBF86E205DD9C6
:10253000DDE90696FFF76CBA0422FFF733BB0D9B6B
:102540000F2B32D9A3F10F020F230D9392B2002368
:102550000DE4B9F1000F2CD1237B002B35D0059B66
:10256000C64AD3F88030C649484698470422FFF748
:1025700019BB0A9B23E4059BC24AD3F88030DDE9EE
:102580000696FFF742BA99427FF49AAE0023CDE94E
:102590001333CDF828E0169312930E93FFF7A1BBE7
:1025A0000023169312930B468EE600221346FFF784
:1025B000DEBB0222FFF7F6BA102B94BFC3F11E0355
:1025C000C3F117039BB20022DBE64FF0010904229E
:1025D000FFF7E8BA98ED145A0093FFF715B9009881
:1025E0000290864602210246FFF7C7B8ABF84E308C
:1025F000ABF8503040230022ABF85230ABF85430E7
:102600004FF40073ABF85630ABF8582098F85D10D3
:1026100013469146072975D89B48014491F87818CC
:10262000ABF85A100699C1B10021ABF85E10B9F1B0
:10263000000F40F08480ABF86A90ABF86090ABF884
:102640005C90ABF86290ABF86890ABF864904A4647
:102650000023ABF86620ABF86C302389E27AABF844
:102660007620012B68D0023B9BB20121ABF872307F
:10267000A37BABF84C3083F00103ABF87410ABF8DC
:1026800078300099AB89AAF800300B44AAF80810FA
:10269000AB81A388217C06EE903A2389012907EEBD
:1026A000103ABBF86E302AD0022914BFF0EE695AF6
:1026B000F0EE4A5A01339BB207EE903AF8EE677A91
:1026C000B1EE006AF8EE666A67EE867AB8EE477A8F
:1026D00067EEA67A0198029B67EE877A014667EE5D
:1026E000A57A002808BF114667EE897A0191FCEEB1
:1026F000E77A17EE902A13440293FFF723B8DFED31
:10270000635AD7E7059B624AD3F88030DDE9069625
:102710005B4900209847039BAA89DDF804E012FB7F
:1027200003F26B8913FA82F39BB2591C002092B218
:1027300089B20090FFF721B80023194696E70121DE
:10274000ABF86A10002B7FF471AEABF8603019461D
:102750001A46ABF85C200022ABF86220ABF8682088
:102760004BBBABF864301A4602EB0109069AD2E97A
:102770002FE1CE451DDA0846002202F1010C099234
:102780001FFA8CF2162A3FF480AE0EEB104CBCEB15
:10279000090C0844F1D4002B7FF45AAF099800FBD0
:1027A00001F10EEB1143A9EB03039C45C8BF0246A0
:1027B0004EE700224CE7069BD3E9349C894546DA74
:1027C000134662469E4601339BB2162B3FF45DAE24
:1027D00009EB1240401A6244F4D40CFB0EF209EBF0
:1027E00012428A1A9042D8BF9E460699BBF86020D2
:1027F000D1F8CC30BBF85C00099002FB03F3D1F8B0
:10280000C820ABF864E002EB13420B46D1F8C410C9
:10281000521AD3E936303FF538AE09990CFB0EFE5B
:1028200000FB01F103EB114309EB1E401918FA23D9
:102830009AE702FB03F30EEB1343C3F1FA039C4543
:10284000D8BF0A46FA210B4683E70522FAE79646E7
:10285000CBE7069BABF84A30237C013B042B48D8DE
:1028600001A252F823F000BFB32800089924000801
:10287000B123000801250008B52400087C52010896
:102880009C50010834530108700F0108CDCC4C3E18
:102890004C530108349A1371A6F8AC31B9F1000F0A
:1028A0007EF4E9AEFFF75FB80123FEF7B3BE9BB23B
:1028B000CEE54FF000094FF40073CDE909934FF0D6
:1028C000400E0420CC4602214A464B4680E5D9F80A
:1028D00080301C4A1C4900209847DFED1C7A0023F9
:1028E000FFF789BB059B1A4AD3F88030DDE90696CD
:1028F0000EE7059B164AD3F8803013490020DDE926
:1029000006969847AA89039BDDF804E012FB03F2C0
:102910006B89562113FA82F301FB076100209BB2F9
:10292000C1F86E00591C92B2009089B2FEF725BF23
:10293000059B044AD3F88030034900209847FFF7ED
:10294000DCB900BFF05201089C50010800000043B0
:102950004452010870B5FEB04FF4E27204460D46D1
:102960000DA8002103AE0DF013F900960DAA05ABDA
:1029700000212046FEF7F0FD08B97EB070BD94F846
:102980005B202B46314605A8FDF7E8FF7EB070BD01
:10299000BFF34F8F0549064BCA6802F4E062134348
:1029A000CB60BFF34F8F00BFFDE700BF00ED00E03D
:1029B0000400FA05FEE700BFFEE700BFFEE700BF28
:1029C000FEE700BFFEE700BF704700BF704700BFD3
:1029D000704700BF024AD36E0133D366704700BF11
:1029E000780000200C4B0D49D3F890204FF4801054
:1029F0004861D168490503D4012283F8B1207047AA
:102A0000D168C9B261F49061D1600120012283F8DC
:102A1000B40083F8B1207047780000200004014022
:102A2000034B5A69120744BF08225A61704700BF1E
:102A3000000401400148FDF7F3BC00BF3001002055
:102A40000148FDF7EDBC00BF780100200148FDF70B
:102A5000E7BC00BFC00100200148FDF7E1BC00BF9A
:102A600008020020084810B4D0F8D831D0F80C4241
:102A700099691A682CB1234600F5EC705DF8044B97
:102A800018475DF8044B704778000020034B5A69E3
:102A9000120544BF4FF400625A61704700040140C0
:102AA00010B5194C194AD4F890304FF48021516177
:102AB0009A68D20402D5DA68D00509D49A689104DC
:102AC00002D5DA68920513D4012384F8B13010BD21
:102AD000DA68D2B262F4C0720121DA6084F82C1292
:102AE00006F020FE68B9D4F8903084F82C02E5E7AF
:102AF000DA68D2B262F42072DA60012384F8B1306D
:102B000010BDFFF745FF00BF780000200004014022
:102B1000034AD2F8883043F47003C2F88830704713
:102B200000ED00E0244A9368D26813F00C0305D04E
:102B30000C2B34D0042B38D1204870471E4A116822
:102B4000090754BFD2F8941011681D4A54BFC1F34D
:102B50000321C1F3031102EB8102D2F89808002B84
:102B6000EBD0154BDB6803F00303022B22D0154A90
:102B7000032B08BF1046104BD968DA68DB68C3F333
:102B80004163C2F30622C1F30211013300FB02F2DA
:102B900001315B00B2FBF1F2B2FBF3F0704702F0DF
:102BA0000302012ACAD00020DBE7082B054818BF22
:102BB000002070470148DEE7001002400024F400C6
:102BC000700F010800127A00064A074B9268074905
:102BD000C2F302221344086893F8C83803F01F03B5
:102BE000D840704700100240700F0108000000201C
:102BF000064A074B92680749C2F3C2221344086889
:102C000093F8C83803F01F03D84070470010024003
:102C1000700F010800000020F0B50468054620058B
:102C200083B000F1F2800026A1034ED5A54B9A6D2A
:102C3000D20040F1F5800027A349A44A0B6843F471
:102C400080730B60D06E04E0D36E1B1A022B00F26F
:102C500000810B68DB05F7D5A6BB9A49A86DD1F8B2
:102C6000903013F4407325D0834223D0D1F890C024
:102C7000D1F8903043F48033C1F89030D1F89030DF
:102C800023F48033C1F890301CF0010F2CF4407312
:102C9000C1F890300ED0D2F86CE041F2883C05E0EB
:102CA000D36EA3EB0E03634500F2D380D1F89030CE
:102CB0009B07F5D5834AD2F8903023F44073034341
:102CC000C2F89030002F40F0DC80E10708D57D4A43
:102CD000296AD2F8883023F003030B43C2F8883006
:102CE000A20708D5774A696AD2F8883023F00C0326
:102CF0000B43C2F88830630708D5724AA96AD2F834
:102D0000883023F030030B43C2F88830A70608D57B
:102D10006C4AE96AD2F8883023F440630B43C2F866
:102D20008830A00508D5674AE96BD2F8883023F4CB
:102D300040230B43C2F88830610508D5614A296CED
:102D4000D2F8883023F440130B43C2F8883062066F
:102D500008D55C4A296BD2F8883023F440530B43E2
:102D6000C2F88830230608D5564A696BD2F88830F5
:102D700023F440430B43C2F88830E70508D5514A95
:102D8000A96BD2F8883023F440330B43C2F8883063
:102D9000200323D4374661030FD54A4AE96CD2F8A1
:102DA000883023F040630B43B1F1006FC2F88830E4
:102DB00000F08380B1F1806F77D03E4662044DD43D
:102DC0003046230408D53F4A696DD2F8883023F095
:102DD00080430B43C2F8883003B0F0BD394AA96C78
:102DE000D2F8883023F040630B43B1F1006FC2F892
:102DF00088304CD0B1F1806FCCD10121281DFDF776
:102E00005DFB07460028C5D0C5E76F6CB7F5000F1E
:102E100011D0B7F5400F13D0002F3DD0012603E7A6
:102E20009A6D42F080529A659B6D03F08053019336
:102E3000019B012700E7234AD36843F48033D36022
:102E4000204AD2F8883023F440033B43C2F888304C
:102E5000E9E60326002F3FF438AF12E019492A6D46
:102E6000D1F8883023F040531343B2F1805FC1F8AA
:102E70008830A5D10221281DFDF720FB00289FD016
:102E80009FE7104A936D23F0805393651DE7D36845
:102E900043F48013D3607DE73946281DFDF70EFB10
:102EA000064600287FF4C0AECAE70121281DFDF7C1
:102EB00005FB0646002880D080E7D36843F48013E2
:102EC000D3607AE7001002400070004078000020D4
:102ED000F0B4C56F202D4AD10C4601B112B90120C2
:102EE000F0BC7047194600252123C0F88450C36701
:102EF0008368294FA0F85020B3F5805FFE6EA0F8DC
:102F0000522037D0B0F85220036892B2B2B1DA69D9
:102F1000120604D44A1C1DD1DA691206FCD504B38A
:102F200014F8012B1A85B0F85220013A92B2A0F899
:102F30005220B0F8522092B2002AE8D1DA69520643
:102F400004D44C1C1CD1DA695106FCD52023C3677C
:102F50000020C5E7FA6E921B914218D3B9B11A68E6
:102F6000D5E735F8022BC2F308021A85DBE7022009
:102F7000F0BC70470369002BC4D125461C46C1E74D
:102F8000FA6E921B914202D309B11A68D6E7202348
:102F9000C367F0BC0320704778000020026852E845
:102FA000003F23F4907342E800310029F7D102F189
:102FB000080353E8003F23F0010302F1080C4CE83A
:102FC00000310029F3D1036E012B06D0002320220B
:102FD000C0F8802083660366704752E8003F23F004
:102FE000100342E800310029F0D052E8003F23F0FE
:102FF000100342E800310029EFD1E7E770B5AE4C8D
:10300000D4F83052EB692A68A96840F60F000342F1
:1030100040F08780980602D5960600F1F380D4F838
:103020009002012816D0D80202D5490200F1F4809E
:103030001E0605D4590602D5530600F1258170BD40
:103040001006F7D5D4F89C32002BF8D0BDE87040BC
:103050009A481847DE06E6D5D006E4D510232B6241
:10306000AB68B4F888225B0640F14281D4F8A43200
:1030700019684B689BB2002B00F09681934280F058
:103080009381A4F88A320B689E0644D455E8003F29
:1030900023F4807345E800324AB1D4F8302252E874
:1030A000003F23F4807342E800310029F5D1D4F8C1
:1030B000302202F1080353E8003F23F001030832F5
:1030C00042E800310029F2D1D4F8302202F108039D
:1030D00053E8003F23F04003083242E80031002962
:1030E000F2D12023C4F8B032C4F89012D4F83022C0
:1030F00052E8003F23F0100342E800310029F5D1E7
:10310000D4F8A43293F82520022A00F05481042236
:10311000DA6383F824100223C4F89432B4F88A32B4
:1031200070BD11F0010640F09E80654802423FF4F8
:1031300076AFD8070FD5D10540F1D680012129629D
:10314000D4F8B41241F00101C4F8B41299076BD558
:10315000002E40F08C8058077DD51E0700F1C180FD
:103160001E050AD5500108D54FF400612962D4F834
:10317000B41241F02001C4F8B412D4F8B4120029FA
:103180003FF45DAF990602D5920600F1A080D4F815
:10319000B422AB6802F0280203F04003134300F0AE
:1031A00000814648FFF7FAFEAB685B067FF547AF44
:1031B00005F1080353E8003F23F0400305F108013F
:1031C00041E8003262B1D4F8302202F1080353E83A
:1031D000003F23F04003083242E800310029F2D1D9
:1031E000D4F8A40200283FF42AAF90F82530354ADD
:1031F0008263022B00F0BB800423BDE87040C363F0
:10320000FCF7C6BFD4F89832002B3FF418AF04F592
:103210000C70BDE8704018474FF480132B6270BDEE
:10322000D1058BD4980722D4590714D5002E94D0F9
:1032300004212962D4F8B412180741F00201C4F83D
:10324000B4128DD508212962D4F8B41241F00801D6
:10325000C4F8B41284E7190782D502F02001314383
:103260003FF47EAFEEE7D807DAD499072CD50221D8
:103270002962D4F8B4125E0741F00401C4F8B41214
:10328000D6D41907DED46BE755E8003F23F040039E
:1032900045E800324AB1D4F8302252E8003F23F02A
:1032A000400342E800310029F5D120220023C4F870
:1032B000AC22C4F89C3270BD78000020A802002027
:1032C00020010004910100085E07B1D4D9E7D4F8C9
:1032D0009832002B3FF45BAF42489847D4F8305205
:1032E00055E79006AED43BE798073FF534AF9BE730
:1032F000B4F88A12B4F88A329BB289B2002B3FF438
:103300009EAE91423FF49BAE55E8003F23F490738C
:1033100045E800324AB1D4F8302252E8003F23F4A5
:10332000907342E800310029F5D1D4F8302202F13F
:10333000080353E8003F23F00103083242E800315C
:103340000029F2D12023C4F8B032C4F89812C4F88E
:103350009012D4F8302252E8003F23F0100342E8E4
:1033600000310029F5D10223C4F8943270BD0268FF
:10337000436C116821F00E011160116821F0010108
:1033800011600124026C03F01C0304FA03F3536080
:10339000002380F8254080F82430BDE87040FCF719
:1033A000F7BEC4F8B43270BD93427FF448AE0B68E8
:1033B0009D06D8D470BD1A681D6C106820F00E00F0
:1033C0001060106820F0010010605A6C012002F0BB
:1033D0001C0200FA02F26A6083F8250083F82410C8
:1033E00099E600BFA8020020B5EEC00ADFED0D7A15
:1033F0009FED0D7AF1EE10FA54BF30EE270A37EE4A
:10340000C00ADFED087A70EE277AFCEEE77AF8EE74
:10341000677A30EE670A20EE070AFCEEC07A17EEF4
:10342000900A7047BD3706350024744910B5084925
:1034300050226C2006F0B6F9044630B1054B40F836
:10344000043B054968220CF0CFFC204610BD00BFAC
:10345000FC4E01080FB037135018010808B518B119
:10346000074B02689A4208D0064B074AD3F88030CF
:10347000064900209847012008BD90F8620008BD69
:103480000FB0371378000020E44E0108FC4E01080D
:1034900008B518B1074B02689A4208D0064B074A94
:1034A000D3F88030064900209847002008BD01204D
:1034B00008BD00BF0FB0371378000020E44E0108AC
:1034C000FC4E01082DE9F04F85B08246FFF7E0FF82
:1034D000002800F0B381B74C94F88830012B40F2FB
:1034E000A7809AED150AD4F88050B34AB349B5EED7
:1034F000C00AF1EE10FA4BBFB14BB24BF1EE406A8D
:10350000F0EE406AFFF770FFDFEDAF7A019076EEE4
:10351000A77A0220FCEEE77ACDED007AA84794F86E
:103520008830012B40F284809AED160AD4F880503E
:10353000A64AA249B5EEC00AF1EE10FA4BBFA04B65
:10354000A04BF1EE406AF0EE406AFFF74DFFDFED71
:103550009E7A019076EEA77A0220FCEEE77ACDED16
:10356000007AA84794F88830012B61D9BAF85C300A
:10357000D4F88050964A91490220A84794F88830A0
:10358000012B55D99AF85E30924F934DD4F8806054
:10359000924A8A49002B0CBF3B462B460220B0477B
:1035A00094F88830012B43D99AF85F30D4F88060C2
:1035B0008B4A8249002B0CBF3B462B460220B0476A
:1035C00094F88830012B33D99AF86330D4F88050BE
:1035D0007A49022B96BF834A834B02EB83034FF059
:1035E000020098BFD3F84839804AA84794F8883039
:1035F000012B1DD99AF86430D4F880506F49022B02
:1036000096BF784A784B02EB83034FF0020098BFD5
:10361000D3F84839764AA84794F88830012B07D95F
:10362000D4F880509AF86230724A64490220A84760
:103630009AF86230002B00F001810027DFF8E4B136
:103640005E4E0397554694F88820012A40F2EE809A
:10365000039BD4F880705A4631460220B84794F84C
:103660008830012B40F2E0806B68634AD4F88070A8
:1036700031460220B84794F88830012B40F2D480BC
:103680002B895E4AD4F8807031460220B84794F8FE
:103690008830012B40F2C8806B89594AD4F8807079
:1036A00031460220B84794F88830012B40F2BC80A4
:1036B000AB89544AD4F8807031460220B84794F858
:1036C0008830012B40F2B080AB7B4F4AD4F8807039
:1036D00031460220B84794F88830012B40F2A4808C
:1036E000EB7BDFF8F080DFF8F090484AD4F8807088
:1036F000002B0CBF43464B4631460220B84794F896
:103700008830012B40F290802B7C414AD4F88070A5
:10371000002B0CBF43464B4631460220B84794F875
:103720008830012B40F280806B7C3A4AD4F880705C
:10373000002B0CBF43464B4631460220B84794F855
:103740008830012B70D9A97C234A224BD4F8807091
:10375000002918BF134602202F4A3146B84794F873
:103760008830012B60D92B7DD4F88080013BDBB2FF
:10377000042B96BF1B4A1C4B02EB8303314698BFB8
:10378000D3F85439254A0220C04794F88830012BD9
:103790004AD9EB7CD4F88080052B96BF114A124B96
:1037A00002EB8303314698BFD3F868391C4A0220E4
:1037B000C04739E078000020D4530108FC4E0108CE
:1037C000B8530108605C0108BD370635EC530108A9
:1037D00004540108C4530108BC5301081C540108D7
:1037E00038540108700F0108CC53010850540108E7
:1037F0006C54010888540108AC540108D0540108E5
:10380000F4540108185501083C5501086055010899
:1038100084550108A8550108CC550108F055010848
:10382000145601089C5401089AF86230039A013238
:103830009342039205F114053FF605AF05B0BDE8CC
:10384000F08F00BF38B504460D46FFF721FE08B1E2
:1038500084F8625038BD00BF38B504460D46FFF706
:1038600017FE08B1A4F85C5038BD00BF10B1024B80
:103870009B6F1847704700BF7800002010B50446C2
:10388000FFF706FE00B910BD002323602046BDE807
:103890001040EBE770B50C4618B11F4B0168994218
:1038A00008D01E4D1E4AD5F880301E49002098478A
:1038B00054B370BD3CB3416882600868B0F894307E
:1038C000028F04EB430304EB4202C364B0F896306A
:1038D0004261D0F8982004EB430303654AB1B0F885
:1038E0009C3004EB43031361B0F89E3004EB4303B8
:1038F0005361B0F8E4204B6804EB4204C0F8B040D8
:10390000BDE870401847054DD5F88030064A054996
:10391000BDE87040002018470DB037137800002034
:103920005C560108505601083856010810B520B100
:103930000C4B02689A42044608D00B4B0B4AD3F852
:1039400080300B49BDE8104000201847406818B18E
:10395000C368984700236360002323602046BDE8C6
:10396000104083E70DB03713780000205C56010843
:103970005056010810B520B10B4B02689A4204461C
:1039800008D00A4B0A4AD3F880300A49BDE81040F3
:103990000020184700690023236008B1FFF766FF85
:1039A0002046BDE8104061E70EB0371378000020D4
:1039B0007856010890560108134B10B54FF4805209
:1039C00004469A6206F03CFB206808B1FFF7D2FF7C
:1039D0000E4BD3F8400308B10CF01CFAE06808B1B4
:1039E0000CF018FAA06808B105F08CF864681CB1F6
:1039F000204604F0ADFC00B910BD00232360204632
:103A0000BDE8104032E700BF000400487800002005
:103A10002DE9F041174F1D46D7F8843013B1BDE8AA
:103A2000F0411847FB6F4FEA4208002AF7D08F1E7B
:103A3000A8F1020406468E460C443A4632F802CFFC
:103A40009CFA9CFCA242A2F800C0F7D14246714603
:103A5000304698470DB9BDE8F08137F8023F5BBAB0
:103A6000A7423B80F7D037F8023F5BBAA7423B80C2
:103A7000F3D1F0E77800002000B583B041F4A04115
:103A8000012394464FEA124EADF80010ADF8023013
:103A9000042200236946ADF804E0ADF806C0FFF744
:103AA000B7FF03B05DF804FB10B50F4C8C46114610
:103AB000B4F8702003F1020EB2EB4E0F07D2D4F827
:103AC00080300A4A0A49BDE8104000201847013BEF
:103AD0004CF4A04C4B802EF00042A1F800C0BDE891
:103AE0001040002394E700BF78000020985601089A
:103AF000B85601082DE9F04FADF5137D06460C468A
:103B0000154600214FF4E27221A89A460CF040F8C5
:103B10003C22002112A80CF03BF89D9B93F8C57144
:103B20006FB1664B664AD3F88030664900209847EB
:103B30004FF0000840460DF5137DBDE8F08F0DF104
:103B40001808CDF800800AAB21AA29462046FDF7C7
:103B500003FD0028ECD0414694F85B200AA812AB84
:103B6000FCF7FCFE80460028E2D09E9ABDF85A3051
:103B700013809F9ABDF85E3013809D9808AB0DF1BD
:103B8000160221A905F0C4FFBDF82020BDF81630AB
:103B90009A4206D29D9B2246294621A8FDF776FC33
:103BA000C8E743F2370308930322012308A93046EC
:103BB000ADF82470FFF72CFFBDF8243013F0C003DC
:103BC00010D1ADF8243043F23103089303220123CE
:103BD00008A93046FFF71CFFBDF824204AF6C04371
:103BE0009A425CD19D9808AB0DF1160221A905F00F
:103BF0008FFFBDF81690BDF820B0D94508D9324BDB
:103C00000893304608A900230222FFF701FFC1E70D
:103C10002A499C9AB1F87010CDF808804FEA5A03EF
:103C200049088B4228BF0B460BF10201023BA1EB76
:103C3000090123F0010389B28B4228BF0B460432ED
:103C4000AA469FB2904603941D4604E0B9441FFA69
:103C500089F9D94511D808AB4A46414621A80895AB
:103C6000FDF75EF904460028F0D0089B9C9A4FEAC5
:103C700059013046FFF718FFE8E7134B0893554604
:103C80003046A24608A900230222DDF80880039CE2
:103C9000FFF7BEFEBAF1000F3FF44AAF7AE7074BD9
:103CA00093F88820002A3FF443AFD3F88040074AB6
:103CB000074933460120A0473AE700BF78000020BB
:103CC000CC5601083C4F0108801001000C57010838
:103CD00030570108F0B583B043F21C020092012373
:103CE0000E460024032269460746ADF80440FFF75C
:103CF0008FFEBDF8043013F4006517D141F21B04A8
:103D00002B46694638460222009446F40066FFF7C7
:103D10007FFE38462B4669460222ADF80040ADF8DA
:103D20000260FFF775FE012003B0F0BD054B064AA7
:103D3000D3F88050054920463B46A847204603B0AB
:103D4000F0BD00BF780000204857010878570108EF
:103D5000F0B5012983B00546144622D002290AD0C5
:103D60001C4B1D4AD3F880401C4903460020A04745
:103D7000002003B0F0BD43F2460384270026ADF8CF
:103D800000302846012303226946ADF80260ADF8F1
:103D90000460FFF73DFEBDF8040030B16CB90120AE
:103DA000E7E743F245038327E8E70A4B0C4AD3F8D9
:103DB00080400A492B46A047DAE747F4805733464C
:103DC000694628460222ADF80070ADF80260FFF7A0
:103DD0001FFEE4E77800002090570108785701089B
:103DE000AC57010838B520B1164B02689A42044618
:103DF00008D0154B154AD3F8803015490020984754
:103E0000002038BD037B43B980681521FFF762FFAE
:103E10000028F5D00123237338BD0569806895F823
:103E2000C6110122FFF794FF95F8C53143B195F80B
:103E3000C631022B0CBF0123022385F8C63138BDE1
:103E40000123FAE70EB037137800002078560108F6
:103E500090560108F0B5012985B00646154633D0C5
:103E6000022925D143F2320301240027ADF808309E
:103E70000322012302A93046ADF80A70ADF80C7098
:103E8000FFF7C6FDBDF80C306B8003F00702012A76
:103E90002A802AD013F006001AD11849184AD1F8FE
:103EA000804018490096A0470024204605B0F0BD88
:103EB000124B154AD3F88040124903460020A04710
:103EC0004FF440530024D0E743F233030C46CCE7D1
:103ED000023A012AE9D9094A0096D2F880400949F4
:103EE0000A4A3846A0472F80DEE70449084AD1F83D
:103EF0008040044900963846A047D5E77800002066
:103F0000E057010878570108905701084458010804
:103F1000105801082DE9F04184B028B1714B0D46CD
:103F20000168994204460AD06F4B704AD3F880303A
:103F30006F4900209847002004B0BDE8F0818388D5
:103F4000C1880B44B2EB430F07D2674B694AD3F8E1
:103F50008030674900209847EDE7D0F810808668E8
:103F600098F8C67143F2370302930023ADF80C3082
:103F70000322012302A93046FFF74AFD012FBDF8B5
:103F80000C300DD0022F0CBF8020C020184009D16A
:103F9000554B594AD3F8804058493346A047CAE7A1
:103FA0004020F3E798F8C61102AA3046FFF752FF07
:103FB0000028C0D0BDF80830032B0BD04A4ABDF80A
:103FC0000A30D2F880404D4900934D4A33460020D4
:103FD000A047B0E72169BDF80A2091F8C431C2F3C7
:103FE00000122A8033B191F8C631A3F10103B3FA6C
:103FF00083F35B096B80B1F8C831AB80AA1D01F572
:10400000E57301F5FD77D3F800C05E689868D3F8D2
:104010000CE0C2F80CE01033BB42C2F800C056609E
:10402000906002F11002EED1B1F8FA31EB8605F1A1
:10403000380201F5FE7301F50B77D3F800C05E6816
:104040009868D3F80CE0C2F80CE01033BB42C2F819
:1040500000C05660906002F11002EED1B1F82C322F
:10406000A5F8683005F16A0201F22E2301F25E2103
:10407000D3F800C05E689868D3F80CE0C2F80CE092
:1040800010338B42C2F800C05660906002F11002FB
:10409000EED1E6882369A068A18893F8C621B6F519
:1040A000005F0FD8013A18BF012205EB410112034E
:1040B000334605F0ABFD98B1301E18BF012004B0A7
:1040C000BDE8F081084C0F4AD4F880300E4900203A
:1040D0009847D4F880300D4A0849002098472AE7CD
:1040E000014CF6E70EB0371378000020785601082F
:1040F0009056010878580108905801083C4F010873
:10410000B0580108DC580108B8560108F4580108F5
:1041100010B582B001AA01210446FFF79BFE0022E0
:1041200001212046FFF714FEBDF80430022B09D010
:104130000649074AD1F8804006490020A0470020E0
:1041400002B010BD012002B010BD00BF78000020F9
:10415000205901086859010838B5074D6B6F984719
:10416000044608B1204638BDD5F88030034A0449DA
:104170009847204638BD00BF7800002088590108C4
:10418000985901082DE9F04F2DED028BB3B020B105
:10419000B04B02689A4206460ED0AF4BAF4AD3F8F6
:1041A0008030AF49002098474FF00008404633B0B8
:1041B000BDEC028BBDE8F08F0F466722A9491020A5
:1041C00005F0F0FA80460028EED0A74B036096F881
:1041D0006240A6493822ACB31020B6F85C4005F026
:1041E000E1FAA24982463922FC2005F0DBFA0546B5
:1041F000A4B39E493E22602005F0D4FA01248146F2
:10420000BAF1000F2CD05DB314B1B9F1000F27D073
:10421000C5F8989023A9CAF80050301DFEF79AFB04
:1042200040BB8D4B924AD3F8803090499847504616
:10423000FCF762FB0024C8F804404046FFF776FB19
:10424000A046B3E7102005F0ADFA8849824639222E
:10425000FC2005F0A7FAA1460546D1E7A146CFE725
:104260005046FFF703FB2846FFF700FB4846FFF7E1
:10427000FDFADFE7BDF8A030BDF8AC20D5F8980016
:104280002B871A4492B20492A5F89E20BDF8A22072
:10429000019005F1F8015200C5F8841005F1F40110
:1042A000C5F8E820C5F88810002205F1F601C5F828
:1042B0009420A5F89C20C5F88C1005F1F00205F1BA
:1042C000F7016A62C5F8901030B105F1EC01816127
:1042D00005F1F5014262C165C5F8D820049AA5F838
:1042E000E420C5F8DC8096F86220029262B1029A5E
:1042F00014A90DF1B60001EB420430F8022F520868
:1043000021F8022BA142F8D1BDF8A8209DF8C410D5
:104310000C911A4492B20D92B6F85C20BDF8AA1026
:104320009DED308A03920E9122B1BDF8AE20039923
:10433000B2FBF1F20892BDF8A4201A44A5F87C2043
:10434000BDF8A6201A44DDF88E30C5F87630BDF8E9
:104350009230A5F87A30474B2B64474B6B64474B40
:10436000AB64032385F874300F23A5F88030019BDC
:10437000A5F87E20002B00F0A48100232599099147
:10438000CDE91C3326990A91CDE91E33CDE92033BE
:10439000BDF89C10029C0B911DAA94460DF1AE0134
:1043A000D8B2A04207D231F8020F22F8020F0889D2
:1043B00010810133F4E70199314A4A60314A039B85
:1043C0008A60314A0B87CA60089B029A4B87002398
:1043D000C1E91333C1E91533002A00F072812B4A79
:1043E00007922B4A06922B4A0592019ACDF84480F7
:1043F00002F13A014832CDE90F5ACDE912679A46E7
:10440000E14688463746934639F8025F28F8025F4E
:10441000B9F808602049A8F808602F22EC20FFF7BF
:104420009BFEEC2200210446002800F0AB800BF03C
:10443000AFFB1A4B1A4A23641A4B6364A2643A7D99
:10444000013A042A00F24881DFE802F093992E969F
:104450002E0000BF0FB0371378000020E44E010893
:10446000FC4E0108505601080DB03713A859010839
:10447000B8590108250E0008F1080008C50E00080B
:10448000510D0008C50D0008E5080008D90800080E
:10449000CD0E0008ED080008DC59010809120008DB
:1044A000A10F0008A90F00086FF00C00049B797C95
:1044B00097F810C084F875101D440B9BA4F87A304F
:1044C000039BA4F87E30089BA4F88030DDE9092323
:1044D000ADB2002918BF1A467968079BC4F8762048
:1044E000A4F87C50C4E92110B968C4F89C30069B3C
:1044F000C4F8A030059BC4F88C10C4F8A43004F1B3
:10450000E401019B61627600224684F874C0C4F81D
:10451000E060A4F89650A4F8DC50C4F8D430C4F895
:10452000D0106E49C4F8D81004F13C0004F1E80141
:10453000C4F8901042F8980BE263FCF735FD0028B0
:1045400073D02068C26890470AF1010A029B4BF8B9
:10455000044F5FFA8AF29A4207F11407FFF454AF4E
:10456000DDE90F5AD5F89830139F0193DDE91186E4
:104570003AE06FF00B0099E76FF00F0096E76FF0ED
:10458000060093E7D346DDE91267DDE910A80F9D29
:10459000DFF858910199524A0BF1120301EB8303A2
:1045A0005FFA8BF44FF0000BC3F804B04D49D9F813
:1045B0008030584698470295039625464E46DDF8CA
:1045C000049009E0D4B209EB8404D5B2E06C08B1E0
:1045D000B26F9047C4F84CB06A1E002DF2D1DDE9ED
:1045E0000256D5F898300193079BC5F8A430069B76
:1045F000C5F8A830059BC5F8AC30019A3A4BC5F810
:10460000E03005F13C032B60002A61D005F1A003E6
:10461000EA631360286883689847C0B9334B344A0B
:10462000D3F880303349984701E6DFF8C090304A2C
:10463000D9F8803030490F9DDDE91267D346DDE9B6
:1046400010A89847D9F8783020469847A2E72868FC
:10465000C3689847294ACAF804200023284ACAF8A0
:104660000C20CAF80830C8F804A07B8096F8625085
:1046700014A807F10A011A469C46DCB2A5421CD9CF
:10468000048821F8062C224492B27A800133042B4C
:1046900021F8024F00F10200EFD1B6F85C3087ED4F
:1046A000058A13FB02F33B800C9B3B760D9BA8F81D
:1046B0000C300E9BA8F80E3078E521F806CC0024CB
:1046C000E4E7104B0793104B0693104B05938BE7D1
:1046D00005F1A003EB639DE70020E7E6D511000894
:1046E000105A0108C84F0108A108000878000020EE
:1046F000F0590108A8590108DC590108C908000847
:10470000F9080008D9080008CD0E0008ED080008D7
:104710002DE9F04383B01D4643F440534FF00008A9
:10472000BDF82840ADF80030894616466946012399
:10473000032245F480550746ADF80280ADF80480A9
:10474000FFF766F9ADF80050BDF9045004FA09F41A
:104750006C4004EA06025540434669463846022248
:10476000ADF80250FFF754F903B0BDE8F08300BF85
:1047700030B583B00025294600957B23FF220446EF
:10478000FFF7C6FF0121009120468B230222FFF78D
:10479000BFFF8B238022009507212046FFF7B8FF3B
:1047A00003B030BD70B582B043F2370200230092EF
:1047B000ADF804300322012369460546FFF728F9C6
:1047C000BDF8043013F0C00F1AD143F21C020123CC
:1047D00000920024694603222846ADF80440FFF702
:1047E00017F9BDF804301B0517D50F4B0F4AD3F846
:1047F00080600F4920462B46B047204602B070BD6E
:10480000094B93F88820002ADFD0D3F88040094A6A
:1048100007492B460120A047D7E72846FFF7A8FF06
:10482000012002B070BD00BF78000020605A01086E
:1048300078570108345A01082DE9F04FADF5117D84
:104840000C46154600214FF4E27206460DF1180899
:104850001FA81F460BF09CF9CDF8008008AB1FAADB
:1048600029462046FCF778FE30B94FF00008404654
:104870000DF5117DBDE8F08F94F85B20414608A846
:1048800010ABFCF76BF80028EFD09C9ABDF85230C3
:1048900013809D9ABDF85630DFF8B4A013803046DF
:1048A000BAF87080FFF77EFF50B37B084FEA5808D4
:1048B000434528BF43469A9A0397023B23F00103DE
:1048C0000432A8461FFA83FB4FF0000902941D46EC
:1048D00017464A4605AB39461FA80595FCF720FB4D
:1048E0004FEA5901D944059B9A9A04461FFA89F95F
:1048F0003046FFF7D9F8B9F51E6F08D2002CE8D181
:10490000DAF880300F4A104900209847ADE7454655
:10491000A046DDE90247B8F1000FF1D080239A9953
:1049200000933A463046094B05F03AF91FA89B9B85
:1049300022462946FCF7AAFD40460DF5117DBDE84B
:10494000F08F00BF905A01083C4F0108F018010891
:10495000780000202DE9F04186B030B116461F46A0
:104960000268444B9A4205460AD0434B434AD3F867
:104970008030434900209847002006B0BDE8F08110
:10498000404B721E06F1EB084FF0FF3E12F8010F8C
:1049900008248EEA000E4EF3000C0CEA030C013CD6
:1049A0008CEA5E0EF7D19045F0D1D6F8EC306FEA84
:1049B0000E0E73450CD119B1334B0A689A420FD0D1
:1049C0002D4B324AD3F88030314900209847D3E745
:1049D000294B304AD3F88030294920469847CBE705
:1049E00043F21C030493A868ADF81440012301F1BD
:1049F0000408032204A9FFF70BF8BDF8143003F4F0
:104A00000063002B14BF012300232B730FD0A86871
:104A10002B69AC1D0435CDE9007332460C9B039421
:104A200041460295FFF766F806B0BDE8F08143F213
:104A3000310304A90493A868ADF8144001230322AC
:104A4000FEF7E6FF2B7BBDF81410002BDFD14AF6F2
:104A5000C0429142A8682B69DBD0AC1D0435CDE97A
:104A6000007332460C9B039441460295FFF7E4FE27
:104A700083E700BF0EB03713780000207856010896
:104A8000905601082083B8ED0FB03713E44E0108AB
:104A9000FC4E0108A45A0108002870B446DB002926
:104AA000034639DB88420A464BDA002501242946B1
:104AB0001B04B3FBF2F343F6284293425AD946F261
:104AC000D632934263D948F67202934261D94AF6CC
:104AD000494293425FD94DF2A30293425DD94FF20E
:104AE0004B72934298BF052045D94FF24C7648F25D
:104AF00033224CF2A3409B1B02FB03F300EB134059
:104B000014B1C0F5C9301F3015B1C0F549303F3080
:104B1000C1B1404270BC7047494209B2884217DABD
:104B2000002501240A4603462146C1E7404202B25D
:104B30000029104614DB91420B4605DDA9BB1E4837
:104B400000E060BB70BC7047002401252146AFE740
:104B50000028DED000250B4602462C460121A7E79F
:104B6000494209B28A424FF00105DADB0B460024C4
:104B700029469DE70020114A02EBC00602EB8002A5
:104B8000D6F8840AD2F8B82AD6F8806AB3E70120AA
:104B9000F1E70220EFE70320EDE70420EBE7002533
:104BA0000B4602462C46294682E701251A462C462A
:104BB000034600217CE700BF20920100700F01082E
:104BC0002DE9F04FBFB00DF138090D469046019325
:104BD00000F1020B3EAFCA46002440F6B73631E082
:104BE00025B335F8141001F01F0E4FEA912C0EF189
:104BF000300E00FB0EF0C1F34411ACF1200C02FBAF
:104C00000CFC002801F1300102FB01F1B8BF3F307C
:104C1000BCF1000FB8BF0CF11F0C8011002900EB94
:104C20006C10B8BF3F3100B241F38F110134182C22
:104C300008BF0024FFF730FF4AF8040BBA450BF118
:104C4000040B0ED0BBF900203BF9020C02FB02FC66
:104C500000FB00CCB4451146C2DC00203FB0BDE8EB
:104C6000F08F0DAC0DF1060109F15C05224652F8FA
:104C7000043F002BB8BF0F3302311B1195420B804C
:104C8000F5D1484604F09AFD002254F8043F216E05
:104C9000A542A3EB01031A44F7D1124B83FB021385
:104CA000D217C2EBA31404F5994330334CF66212C9
:104CB0009342D2D802AE35460FCD4D4508F11008CB
:104CC00006F1100648F8100C48F80C1C48F8082C9F
:104CD00048F8043CEFD1019B01201C803FB0BDE8A7
:104CE000F08F00BFABAAAA2A2DE9F04F2DED028B61
:104CF0001C461B78ADF21C4D05460F4691460A2B0B
:104D000012D8DFE813F021000B007200F7007C01DD
:104D10000002AB02D203240455042100FFF7F8F986
:104D2000002840F00A852378C84ED6F88050C84A3B
:104D3000C8490020A8470020064626700DF21C4DE9
:104D4000BDEC028BBDE8F08FC04EDDF84804EC22CC
:104D500000210AF01DFFD6ED237ADFEDBF5ADFED0B
:104D6000BF6AF8EE677AB6EE006A85EEA77AF4EECF
:104D7000E67A37EE067AF1EE10FABCEEC77A17EE55
:104D8000103A1FFA83F800F333849FEDB57AF4EEFE
:104D9000C77AF1EE10FA00F12B84A8F1100292B25A
:104DA000EF2A40F2AD869FEDAF7ADFEDAF6AD6F81D
:104DB000805077EE877A37EE877ABCEEE78ABCEED2
:104DC000C77AB8EE477A77EEC77A67EEA67AFCEE36
:104DD000E77A17EE907AA54BA54AA64901978DED83
:104DE000008A0020A84723789FE7FFF791F90490F5
:104DF000002898D0412300223946284604F006FFB7
:104E00000023028C0292A0F1020A039398464FF607
:104E1000FF7B5A1E02FB02F2C2EBC202510001F5F7
:104E2000167CC83A3AF9021F002B00F073843AF955
:104E300002EC01F57A76A1EB0E019142FFF673AF19
:104E400061453FF770AF86EAE672A2EBE67292B276
:104E50005A4505D2990089B2DDF810800391934636
:104E60000133102BD5D1B8F1000F3FF45CAF039A9A
:104E700082F0300ADDF84824A2F804A0B0F822B08D
:104E8000B0F88020A2EB0B02B2F5FA6FFFF64BAF41
:104E90007949CDF810A01204A1FB021252094FF07B
:104EA000000C2030039266464FF6FF7E0AE0514523
:104EB00038BF4FF000080133039A9BB2402B944453
:104EC00000F05D8730F8021F029A8A1A002AB8BFE4
:104ED000524292B272450BEB1C4A38BF96460AF515
:104EE000487238BF1E468A4201F54871DFD24FF042
:104EF0000008E0E7FFF70CF900283FF414AF39464B
:104F000000222023284604F081FEB0F90020074645
:104F1000844616460121002096463CF9022F02F5F0
:104F20004873A3EB0E039BB2B3F5C86F3FF6FBAE1D
:104F3000B242A8BF084601F10101A8BF16462029C8
:104F4000EAD1072840F2B5861728A0F1070340F2FE
:104F50004B87D3F1200240F0AF8646AB0393039812
:104F60002EA9FBF7EFFD00283FF4DDAE9DED2E6A84
:104F7000B5EE406AF1EE10FA3FF4D5AE9DED2F7A12
:104F8000B5EE407AF1EE10FA3FF4CDAEDDED306AC9
:104F9000F1EE666AC6EE877AF5EEC07AF1EE10FAA7
:104FA000FFF6C1AEB1EE477AC7EE066AF5EEC06A0B
:104FB000F1EE10FA7FF5B7AEB7EE007A77EE877AAA
:104FC000FCEEE77A17EE903A9AB23F2AC3F34E030B
:104FD0003FF6A9AEDDF8482483F01003D38040F2F9
:104FE00015312846FEF776FE0426002800F0E582FB
:104FF00026700DF21C4DBDEC028BBDE8F08FFFF763
:1050000087F800283FF48FAE502339460022284607
:1050100004F0FCFDDDF84834CDF81890CDE90457D4
:1050200003F10A013023A0F1020B9C460846A24678
:10503000124B002447F6FF76CDE9020B5D464FF692
:10504000E472A646A1461F46B04623E07800002041
:10505000F85A01081C5B0108F902154F8096984C1C
:105060008096984BBD37063500247449605C010872
:10507000B85A0108E45A0108ABAAAAAA0080FFFFA7
:105080008E4204F10104C4BFDE460E460832082CED
:1050900092B21AD035F9021F0FFA82FB4CB135F8E3
:1050A000020C081A00B28045A8BF80468742B8BFEC
:1050B00007460029E4DA8B4204F10104BCBFD9465B
:1050C0000B460832082C92B2E4D1A7F51C57103FCA
:1050D000BFB244F620629742DDE9020B11D8B8F165
:1050E000000F0ED113F5004F00F0DB8547F6FF727D
:1050F000964200F03F86AEEB090EBEF1080F00F0BD
:10510000AD8254460FE6FFF703F800283FF40BAEDC
:105110004FF4407339462846002204F077FD0DF124
:10512000340B00F5C063CDE904B30023029346AB12
:105130000393484E484F099416ABCDE907B50DF1DE
:10514000B80906930DF58A780546069CAA46BAF971
:1051500002103AF9040BFFF79FFC44F8040B4C458E
:10516000F5D12DACA346AA46BAF96210BAF960008F
:10517000FFF792FC4BF8040FC3450AF1040AF3D180
:10518000DDE902230DF1540E9818002154F8043F74
:105190005EF8042F9B1AB34240F35782A3F5C9234C
:1051A0007E3BB342FADC002BB8BF5B429942B8BFEA
:1051B0001946A04540F8043BE8D1049B491043F848
:1051C000041F0493029B60330293059BC0359D42EC
:1051D000BBD1DDE907B50021099C0A460B465BF807
:1051E000040F9042C8BF194603F10103C8BF02462D
:1051F000082BF4D10EAB0DF1B70253F82160039BDD
:1052000001EB410103EB41110DF1CF0051F8043BDB
:10521000B342ACBF0023012302F8013F8242137660
:10522000F4D10020012302460AE029B119F8011C3B
:10523000002904BF1A4601200133302B00F0F4830B
:1052400019F8011F002AF0D0002900F00182013076
:10525000F2E700BF3F240300C1DBFCFF4FF6FF7302
:10526000ADF83830FEF754FF00283FF45CADD54E62
:10527000D54AD6F88C30A2FB0328DDF84834B3F8C1
:10528000E0304FEA9818394603FB08F800224FF443
:105290004073284604F0BAFC46AB07461A4603930F
:1052A00040460EAB394604F0B3FAC84B372283F8B8
:1052B0002420002800F08281DDF84824BDF8383031
:1052C0005384C34900932846C24A0C2304F062FF6A
:1052D000284640F21741FEF7FDFC002800F06E81E1
:1052E0009FEDBD7AF7EE007A3D4607F1C00007F565
:1052F000D86E0DF1B80CA0F1C0034FF00008B3F95F
:10530000022002FB02F1B3F90020043302FB021277
:1053100098429044F3D106EE908AB8EEE66AC03027
:10532000C6EE076A8645B1EEE66AC7EE866AECEC21
:10533000016AE0D1DDF84834DFEDA81ADFEDA80AF4
:105340009FEDA81A03F1880916AB60370DF1D80854
:105350009A46039B2EA92A46B2F90000F1EC016A95
:1053600007EE100AB8EEC77AB2F9020027EE267AE5
:10537000414567EE077A02F1C002C3ED007A07EEFD
:10538000900AF8EEE77A32F9600C67EEA67A03F13C
:105390000C0327EE277A67EEA77A03ED027A07EE71
:1053A000100AB8EEC77A43ED017A27EE267A32F971
:1053B0005E0C67EE077AC3ED157A07EE900AF8EEF9
:1053C000E77A67EEA67A27EE277A67EEA77A83ED6B
:1053D000167AC3ED177ABFD1039810225146FBF716
:1053E000B1FB002800F0EA80DAED006A9AED017A5C
:1053F000F1EEE67AB1EE006A66EE866A9AED026A2E
:1054000067EE075A66EE866AB6EE006A76EEE56AE1
:10541000F6EE085AB1EEE64AC6EE276A77EEE57A6E
:1054200026EE877A67EEA17A66EE846AF7EE004A86
:1054300077EE867A37EE247A76EEE56AB3EE0F5A87
:1054400027EE207A66EEA16AF4EEC57AF1EE10FA44
:1054500037EE067A76EE866A00F37184F5EEC07A4E
:10546000F1EE10FA00F18884FCEEE77A17EE903A3C
:105470001BB2B4EEC17AF1EE10FA40F351846FEA38
:1054800083536FEA9353F3EE0F7AF4EEE76AF1EE8B
:1054900010FA40F3368443F478730435AF4229F8A8
:1054A000023F7FF456AF072647E4FEF731FE00289F
:1054B0003FF439AC102339460022284604F0A6FBFD
:1054C000DDF84834B3F88A300026844603F01F091B
:1054D000C3F344189B0A09F1300908F13008A3F11D
:1054E00020000296B246B64637460CF1020B0BE09E
:1054F0005345774640F26E82D6469A46B3B202933F
:105500000136082E00F068823CF926303BF926204F
:1055100009FB03F302FB00F1002BB8BF3F33002966
:1055200002FB08F2B8BF1F319B11002A03EB611385
:10553000B8BF3F321BB242F38F1203FB03F302FBEF
:105540000233BB42DCD97345D2D81F46D8E7FEF7F9
:10555000DFFD00283FF4E7AB6023394600222846F0
:1055600004F054FBDDF84834DDF848245633263285
:1055700000210646FFF724FB00283FF4D4ABDDF8FA
:105580004834DDF84824DDF8481488333046583272
:105590008A31FFF715FB00283FF4C5AB40F27C4190
:1055A0002846FEF797FB092600287FF421AD04E08A
:1055B000FEF7AEFD002840F04781024E2378FFF74A
:1055C000B4BB00BF78000020D34D62100000002063
:1055D00054360108441A010800004042000080428D
:1055E0000000004200007C42BD37063500247449AB
:1055F0001FED037A5FED036AD6F880508B4B8C4A1F
:105600008C4977EE877A002037EE877ABCEEE78AFE
:10561000BCEEC77A8DED008AB8EE477AA8F1100883
:1056200077EEC77A67EEA67AFCEEE77ACDED017ADF
:1056300017EE907AA847B8F1EF0FBFD9D6F880508F
:10564000FFF7C9BB03F5C9237E33BB42FADBAAE5EA
:105650000B2800F2E98108460A46EDE5F61ADB0060
:1056600093FBF6F3A9EB03030FFA83FEBEF1000FE1
:10567000C0F26883BEF11F0F3FF743AD1FFA8EFEE5
:105680006D4B83F815C00CF1010C5FFA8CFCBCF17A
:105690003A0F20F802EF0BF1100B7FF4C9ACDDE9F3
:1056A0000457DDF8189080234A463946009328466F
:1056B000624B04F075FADDF84834DDF848149B8934
:1056C0000093CE885E4A5F490723284604F062FDB6
:1056D0005B4A5C4900960823284604F05BFD0323DF
:1056E000574A584900932846092304F053FD0623DE
:1056F000534A5449009328460A2304F04BFD40F2D4
:10570000D6312846FEF7E6FA5446052600287FF4EF
:105710006FAC52E701F57A73002BB8BF5B429BB2C6
:105720009B4502D80123FFF774BB00229B46DDF89E
:10573000108003920123FFF76CBB43F232034FF05A
:10574000000846930322012346A92846ADF81C8190
:10575000FEF75EF93946122342462846BDF81C6121
:1057600004F054FA0146B0F800E0B0F802C0434635
:10577000043140464FF6FF7746FA03F2D2070BD5C5
:1057800031F81320A2EB0C02002AB8BF524292B2A9
:10579000974284BF98B217460133102BECD1431EB9
:1057A0000D2B3FF6C0AA00F10043013B01EB43077C
:1057B00031F813207B8841F28731D21A8A427FF771
:1057C000B2AA4FF6FF7296423FF4ADAABA889B1A6E
:1057D0008B427FF7A8AA40F2E51303FB0EF31B0CE4
:1057E000A3F5897313F1140F1AB2C0F201832C2AA6
:1057F00040F3FC824F2ACCBF04230323DDF8482466
:105800001049A2F800E0508093840D4A00902523AF
:10581000284604F0BFFC40F233212846FEF75AFA2E
:10582000022600287FF4E4ABC7E600BF605C0108F5
:10583000B85A0108E45A010800000020F0180108D5
:10584000441A01085436010839464FF49C6300227B
:10585000284604F0DBF90DF1340A0EAF0DF1580BB8
:105860002EAE4FF00008CDF804805346CAF80080F1
:1058700046AA00979021C7F80080CBF80080C6F8B0
:105880000080814604F04EF800283FF496AECDE942
:1058900000685B4646AAF02109F5907004F042F8D2
:1058A00000283FF48AAECDE900A839683268CC4BB5
:1058B000CC4D521A02FB03F305FB01F11B0CC3EBA9
:1058C0005133DDF84814C1F8BC30DAF8003005FB7C
:1058D00003F305FB02F25B0BC1F8C020C1F8C43032
:1058E00046AA0CAB40F21F1109F2023004F01AF87C
:1058F00000283FF462AECDE9007B0BAB46AA4FF423
:10590000907109F5A86004F00DF800283FF455AE39
:10591000CDE90086434646AA09F5F0604FF4907140
:1059200004F000F800283FF448AEDAF800203F68A1
:10593000DDF82CE0DDF830C03368DBF80010BE1A6B
:1059400005FB02F7A84AACEB0E0C02FB0CF25B1A4B
:1059500005FB01F805FB0EFEDDF84814120CC2EB46
:105960005E32C1F8C82005FB0CF2C1F8CC209F4A7A
:1059700006FB02F2120CC2EB5732C1F8D0209C4A4F
:1059800005FB06F603FB05F502FB03F31B0CC3EB5B
:105990005833C1F8DC50974DC1F8D460C1F8D83005
:1059A0004E1E01F1EB074FF0FF3316F8012F0821CF
:1059B000534043F300022A40013982EA5303F8D1ED
:1059C000B742F2D1DDF84824DB43C2F8EC300A26B6
:1059D000FFF7B3B99E4693E5B7EB5A0FBFF4A3A9FF
:1059E000DDF84824029B13848349844A00932846A7
:1059F0000B2304F0CFFB0023804A7F490093284605
:105A0000092304F0C7FB7E237B49009328467B4A89
:105A10000A2304F0BFFB40F253412846FEF75AF92F
:105A200000287FF4E5AAC8E5A0F10C03082B3FF697
:105A30007AA902EB5002172A02D9183A172AFCD881
:105A400092B2910089B201F13006DDF84834B6B265
:105A50005F2E1A8140F2C281694BA3FB06239B098A
:105A600003EB4303A6EB43134FF000080E46C14679
:105A700099B20127614A009121235F49284604F029
:105A800089FB5E4A5C4900962223284604F082FB8B
:105A900003265A4A584900970123284604F07AFB06
:105AA000564A554900960223284604F073FB3346B4
:105AB000524A5149CDF80090284604F06BFB4F4AFA
:105AC0004D49CDF800800423284604F063FB4B4A7F
:105AD000494900970523284604F05CFB0023474A08
