:020000040800F2
:1000000000000120B9920008993B00089D3B0008C0
:10001000A13B0008A53B0008A93B00080000000028
:10002000000000000000000000000000AD3B0008E0
:10003000B13B000800000000B53B0008B93B0008D8
:10004000099300080993000809930008CD3B0008B4
:100050000993000809930008099300080993000810
:1000600009930008093C0008099300080993000857
:100070001D3C0008293C000809930008099300086A
:10008000353C0008413C000809930008099300082A
:1000900009930008099300080993000809930008D0
:1000A00009930008099300080993000809930008C0
:1000B00009930008000000000000000009930008F8
:1000C000099300084D3C00080993000809930008B3
:1000D0000993000809930008E54300080993000804
:1000E000753C0008893C000800000000000000008A
:1000F0000000000000000000000000000000000000
:1001000000000000099300080000000009930008A7
:100110000000000000000000099300080993000897
:10012000099300080993000809930008099300083F
:10013000099300080000000000000000000000001B
:1001400009930008099300080993000800000000C3
:10015000099300080993000809930008099300080F
:1001600009930008099300080993000800000000A3
:100170000993000809930008000000000000000037
:100180000993000809930008099300080000000083
:1001900008B518B1064B02689A4207D0054B064ACB
:1001A0001B69064900209847002008BD012008BDB2
:1001B0000FB037138800002094030108AC03010836
:1001C00008B518B1064B02689A4207D0054B064A9B
:1001D0001B69064900209847002008BD012008BD82
:1001E0000EB0371388000020B4030108CC030108C7
:1001F000B1F804C093680A899A80BCF1000C18BF5A
:100200004FF0010CCA7983F800C091F806C083F85A
:1002100001C09A709860704703460068D3F8E810F0
:100220004268C3F8F0101047D0E90F23816B0069D2
:10023000184700BF0068C368184700BF704700BF79
:1002400010B1024B9B681847704700BF8800002020
:1002500000688368184700BF2DE9F0410446002874
:1002600059D0374FD0F80080B8450E461AD0354DDA
:10027000354A2B693549002098472368BB4255D041
:100280002B69314A3149002098472D4B22689A4208
:100290003BD02B692C4A2D49002098479FED2C0A12
:1002A000BDE8F081032918D801EB810300EB83033B
:1002B0005A8998888B00991904EB8101DFED257A22
:1002C0000B89013B13FB02039BB200EE103AB8EE20
:1002D000400A20EE270ABDE8F0811A4D1E4A2B691C
:1002E0001A490020984723684345C9D12B691A4A07
:1002F000164900209847124B22689A42C9D12B69AF
:10030000154A124900209847C8E7032EF7D8002263
:100310001046B300CFE70B4D0B4A2B690B499847AA
:10032000094A0A492B6920469847B2E7032EDDD8CF
:1003300006EB860204EB8202B30090880022BAE743
:100340000FB037138800002094030108AC030108A4
:10035000000000000AD7233BD4030108B5EEC00A11
:10036000DFED0D7A9FED0D7AF1EE10FA54BF30EE0D
:10037000270A37EEC00ADFED087A70EE277AFCEE26
:10038000E77AF8EE677A30EE670A20EE070AFCEEAD
:10039000C07A17EE900A7047BD37063500247449BD
:1003A00090F824C0BCF1010F3CD070B590F825C086
:1003B0000124A44580F824405FFA8CFE04D0002379
:1003C00080F82430022070BD022580F82550046892
:1003D0000025C5632668456C26F00106266005F0F9
:1003E0001C05066C0EFA05F5756063608368102BBA
:1003F000036B0BBFA260A160E160E2604BB12368B8
:1004000043F00E032360236843F0010300202360C0
:1004100070BD236823F004032360236843F00A03BC
:100420002360F0E7022070472DE9F0417A4C002369
:10043000237694F87D30012B0D46616A08D0B1F522
:10044000827F64D1D8B2A36A002B60D104285ED128
:10045000002D5CD092B2002A59D094F87C30012B48
:1004600055D094F87D30266AA565042B1CBF052362
:1004700084F87D3001210023C4F8803084F87C109A
:10048000A4F85E20A4F86620C4E91B337368A4F8BE
:100490005C2023F4C0432566A4F864207360E36AFB
:1004A000A06FB3F5E06F34D8636F99697368B1F5E5
:1004B000806F43F48053736000F082808369B3F5EA
:1004C000806F69D094F87D30544A042B544B18BF88
:1004D0001346544A0363544B4363544B18BF1346AB
:1004E000C362B4F866304FF00008C0F838809BB2A1
:1004F00006F10C012A46FFF753FF074670B1D4F806
:10050000803084F87C8043F01003C4F88030BDE86C
:10051000F081736823F480537360D3E77368606F6E
:1005200043F001037360B4F85E300A46C0E90B770C
:10053000C0E90D7729469BB2FFF732FF00284CD166
:1005400033685B0623D5002384F87C30736843F05E
:1005500020037360736843F002037360D4F884204F
:10056000237E002BD3D141F2873109E072B6237E7E
:1005700003B930BF62B6BFF36F8F237E002BC6D1A5
:10058000D4F884309B1A8B42F0D9BDE8F0813368EF
:1005900043F040033360D6E7736823F480537360FD
:1005A000B4F8663013F0010F73681FD123F40053C1
:1005B0007360B4F86630C3F34E03A4F8663081E785
:1005C000D20773681DD423F480437360B4F85E309F
:1005D000C3F34E03A4F85E3070E7D4F8803084F89B
:1005E0007C7043F01003C4F8803090E743F400536C
:1005F0007360B4F86630C3F34E030133A4F8663079
:1006000060E743F480437360B4F85E30C3F34E0395
:100610000133A4F85E3051E788000020E9070008A4
:10062000E50700084D160008ED0700089D150008B5
:1006300070B4436C066C056831682C6803F01C03C9
:1006400004229A400A420ED014F0040F0BD02B68FB
:100650009B0603D42B6823F004032B60036B7260AA
:10066000CBB170BC184702229A400A4215D014F050
:10067000020F12D02B68990606D42B6823F00A03C8
:100680002B60012380F82530C36A7260002180F856
:100690002410002BE5D170BC704708229A400A4212
:1006A000F9D02207F7D52A68416B22F00E022A60A2
:1006B000012202FA03F300247360C26380F824402D
:1006C00080F825200029E6D070BC0847434A03681B
:1006D00030B4D468A40707D0D46804F003049C4263
:1006E0004AD0012030BC7047022B56D0032B4DD08E
:1006F000012BF6D112689207F3D5384CE26822F04C
:10070000730213434268013A43EA0213E360334C35
:10071000334A236823F080632360D2F8845004E0D6
:10072000D2F884305B1B022B3BD823681B01F7D423
:1007300083681B02002936D12169C56821F0784100
:1007400021F4FE4143EAC5630B43236123490B684F
:1007500043F080630B60D2F8844004E0D2F8843028
:100760001B1B022B1DD80B681B01F7D582690B6977
:10077000134300200B61B5E7002CB2D0D368426868
:10078000C3F3021301339342ABD1C0E71468A4034F
:10079000B3D412685203A4D5AFE712685505A0D5AB
:1007A000ABE703209EE7012921690BD021F0C0614E
:1007B00021F4FE41194343695B08013B41EA43616F
:1007C0002161C3E721F4C00121F4FE410B4301691B
:1007D0004908013943EA41532361B7E70010024059
:1007E00088000020704700BF704700BF836A196807
:1007F0004A6822F003024A601A6E4FF0010C42F080
:1008000010021A6683F85DC0704700BF836A002239
:10081000A3F85A20A3F85220704700BF08B518B1BA
:10082000074B02689A4207D0064B074A1B690749E3
:1008300000209847012008BD90F8620008BD00BF65
:100840000FB037138800002094030108AC0301089F
:100850002DE9F0472DED068B0546F0EE409AFFF7A7
:10086000DDFF002864D09FED3D9ADFED3D8ADFED8E
:100870003DAADFF804819FED3CAA82462E46002463
:100880002CE02B68434535D0DFF8F090374AD9F893
:1008900010303749002098472B6843453ED0D9F89F
:1008A0001030324A324900209847B0EE6A8A394601
:1008B0002846FFF7D1FCB4EE688AF1EE10FAB4EEE8
:1008C000490A48BFF0EE488A0134F1EE10FAC8BF79
:1008D000B0EE409AA24506F114062DD0E7B2002DE5
:1008E000CFD1DFF89890214AD9F810302049284616
:1008F0009847D4E7032C13D9DFF880901D4AD9F824
:1009000010301B49002098472B684345C7D1D9F8C0
:100910001030184A164900209847C6E7032CF6D82D
:10092000B38808EE103AB8EE488A28EE0A8ABEE785
:100930009FED0A9ADFED0A8AF4EEE89AF1EE10FADA
:100940000AD4F4EEC99AF1EE10FACCBF01200020CF
:10095000BDEC068BBDE8F0870120F9E700007AC402
:1009600000007A44000000000AD7233B94030108EA
:10097000AC030108D40301080FB03713880000202E
:1009800008B518B10D4B02689A4207D00C4B0D4ABE
:100990001B690D4900209847002008BD032906D98E
:1009A000074B0A4A1B69084900209847F4E701EB06
:1009B000810100EB8100406808BD00BF0FB0371314
:1009C0008800002094030108AC030108D403010847
:1009D00010B520B10C4B02689A42044607D00B4B6D
:1009E0000B4A1B690B49BDE81040002018474068BE
:1009F00018B1C36898470023636000232360204632
:100A0000BDE810401CE400BF0DB037138800002083
:100A1000EC0301080804010810B50446FFF7D0FBF9
:100A200000B910BD20690023236008B1FFF708FC5E
:100A30002046BDE8104003E42DE9F047D0F80080DF
:100A40000546B8F1000F1ED0D8F898700FB3124EBB
:100A500007F148044FF00009583754F8040F18B153
:100A6000B3689847C4F80090A742F6D1D8F8980028
:100A7000B36800B19847B36840469847B3682846C2
:100A8000BDE8F0471847044E2846B368BDE8F04774
:100A90001847014EEFE700BF88000020F8B5054673
:100AA0000088002A1C460CBF4FF400534FF48053BB
:100AB000B0F59C6F0E460ED300F151077F008342C4
:100AC000BFB235D21C4B1D4A1B691D4900209847F7
:100AD0004FF0000C03E040F662274FF0010C19497B
:100AE000194AC4E9011202F11912E26002F1191265
:100AF00022612346002262805122A28223F8167BC3
:100B000029686A68A868EF68C4F816105A60986087
:100B1000DF602969A8696A699861196196E803002C
:100B20005A61AA8B9A83343484E803006046F8BD86
:100B30004FF0010CD3E700BF880000201404010827
:100B4000340401080100020003001B0010B50C4C26
:100B500094F88810012982B00FD90A49246912F447
:100B6000006F0346084818BF0846C2F30A01CDE9E2
:100B70000001064A06490220A04702B010BD00BF8E
:100B800088000020480401085004010858040108A6
:100B90006C04010810B50A4C94F888C0BCF1010F30
:100BA00082B00AD92C3989B2034610462469054A15
:100BB000CDE9001004490220A04702B010BD00BFDB
:100BC00088000020800401086C04010830B5084941
:100BD00091F88840012C83B008D902F00F040D6908
:100BE000044A0549009403460220A84703B030BDDB
:100BF00088000020A80401086C04010810B50A4C04
:100C000094F888C0BCF1010F82B00AD97D3989B24D
:100C1000034610462469054ACDE900100449022024
:100C2000A04702B010BD00BF88000020C804010822
:100C30006C04010810B5A1F1620C134C1CF0010FFB
:100C4000034694F888E084B01FFA8CF00DD1BEF111
:100C5000010F08D9400824690292CDE900010B4A2E
:100C60000B490220A04704B010BDBEF1010FFAD914
:100C7000400824690292CDE90001064A0449022095
:100C8000A04704B010BD00BF88000020F804010890
:100C90006C0401083005010810B50A4C94F888C0AE
:100CA000BCF1010F84B00BD90346A1F58C7080B262
:100CB00024690090CDE901120220034A0349A047AC
:100CC00004B010BD88000020680501086C0401080C
:100CD0002DE9F04F1F4EDFF888B0804615460FCE45
:100CE00091B002AC0FC40FCE0FC40FCE0FC49BF84F
:100CF00088C096E80300BCF1010F84E8030007D91F
:100D0000DBF81040144A1549009543460220A047DD
:100D1000DFF850A0DFF8449002AC10AE02E00834D7
:100D2000B44213D0A3881D42F9D09BF88820012A31
:100D30004346524649464FF00200F0D927680097D3
:100D4000DBF810700834B847B442EBD111B0BDE8FD
:100D5000F08F00BF40C40008900501086C04010832
:100D600088000020AC0501082DE9F04782B0BDF8ED
:100D700028400B9F03EBC4056B88002B44D06E68A2
:100D8000844601EB0208043E4FF0000E56F8044F73
:100D9000620092B28A4233D3424531DAC4F3017021
:100DA000012817D002283AD090BB521A93B2C4F34C
:100DB0004459012202FA09F2974249D33349013AD0
:100DC0000C6901923249334A0097A047002002B0D3
:100DD000BDE8F087521A92B20CEB42093CF81200BF
:100DE000B9F8023043EA004323F00F0317B1C4F30C
:100DF00003442343180C2CF81200A9F802306B8826
:100E00000EF1010E7345C1D8012002B0BDE8F08794
:100E10001E4B214A1B691E4900209847D6E7521AEB
:100E200092B20CEB42003CF81290438843EA09432B
:100E300023F00F0317B9C4F3034423431C0C2CF80D
:100E4000124043806B880EF1010E73459ED8DBE79C
:100E5000C4F3044A0CEB43043CF813006288C9F164
:100E6000200942EA00424FF0FF3020FA09F000FA70
:100E70000AF022EA000207FA0AFA42EA0A02100C11
:100E80002CF8130062806B88BAE700BF880000204E
:100E9000F8050108C005010804060108002870B41F
:100EA00046DB0029034639DB88420A464BDA002537
:100EB000012429461B04B3FBF2F343F62842934274
:100EC0005AD946F2D632934260D948F6720293421A
:100ED0005ED94AF6494293425CD94DF2A30293424D
:100EE0005AD94FF24B72934298BF052045D94FF221
:100EF0004C7648F233224CF2A3409B1B02FB03F3D7
:100F000000EB134014B1C0F5C9301F3015B1C0F566
:100F100049303F30C1B1404270BC7047494209B2CC
:100F2000884217DA002501240A4603462146C1E714
:100F3000404202B20029104614DB91420B4605DD07
:100F400091BB1C4800E048BB70BC704700240125E1
:100F50002146AFE70028DED000250B4602462C468E
:100F60000121A7E7494209B28A424FF00105DADBC5
:100F70000B46002429469DE700200F4A02EBC006DD
:100F800002EB8002D6E90E60126FB6E70120F4E7AB
:100F90000220F2E70320F0E70420EEE700250B46ED
:100FA00002462C46294685E701251A462C4603466B
:100FB00000217FE72092010040C400082DE9F0479E
:100FC0000646804602EB42008CB0154606EB8000D8
:100FD000002289460DF10C0A014617464FEA870E9A
:100FE00054469FED767AB31A75B103EB020CF444C4
:100FF000DCED007A9C46DCED006A0C3367EEA67AE5
:101000008B4237EE277AF0D10EF1040EBEF10C0FB1
:10101000A4EC017AE5D10137032F0AF1100AA2F1FD
:10102000040201F10401D9D19DED045ADDED055A08
:10103000DDED086A6A4606F10C01DFED607A434691
:101040003DB11C4694ED007A0C33834277EE877AEB
:10105000F7D108F104088845E2EC017A00F10400B8
:10106000EBD19DED037AF0EEC77AF4EE677AF1EEFC
:1010700010FA12D69FED526AF4EE467AF1EE10FAAB
:101080000BDC9FED506AF4EEC67AF1EE10FA04DA4A
:10109000B5EE407AF1EE10FA7DD0F7EE007A87EEE9
:1010A000872A9DED073A9DED0B7A65EE023A25EE13
:1010B000824A65EE237A65EEA34A33EE673A25EE5F
:1010C000846AF0EEC32A65EE047AF4EE622AF1EE49
:1010D00010FA76EEE44A76EEE77A37EE466A06D6FE
:1010E0009FED377AF4EE472AF1EE10FA47DDB7EEBE
:1010F000007AC7EE032ADDED006A9DED017A9DEDD1
:10110000023A63EEA63A67EEA27A37EE637A64EEAD
:10111000A73A67EE877A36EE636A24EE264AF0EE47
:10112000C63A73EE677AF4EE633AF1EE10FA77EEB0
:10113000C47A06D69FED224AF4EE443AF1EE10FA54
:101140002FDD87EE864A0120002364EE844A65EE97
:10115000845A77EE647A89ED024A67EEA27A25EE28
:10116000275AC9ED017A76EEC57A77EEE57A67EE11
:10117000827AC9ED007A33600CB0BDE8F0879FED4C
:10118000117AF4EEC72AF1EE10FAB0DAB5EE403A71
:10119000F1EE10FAABD10020002333600CB0BDE8B3
:1011A000F0879FED084AF4EEC43AF1EE10FAC8DA7F
:1011B000B5EE406AF1EE10FAEDD0C2E70000000093
:1011C000FFFF7F7F000080002DE9F047C36D876936
:1011D000056900247C8081461C7000F14806A04609
:1011E00056F8043FFBB1B3F838C0B3F89400B3F835
:1011F0009610B3F8DC2005EB400005EB410105EB50
:10120000420205EB4C0CC3E91301C3F8A820C3F854
:1012100014C03C701868D3F8E020416883F8E88077
:10122000C3F8E42088470134E4B2042CD8D1D9F8BB
:101230000000BDE8F0474368184700BF70B504469A
:10124000806978B1E36943B10F4B93F8882022B1EC
:101250001B690E4A0E49012098472068BDE870407E
:1012600083681847084D0B4A2B6909499847E36979
:101270003BB195F8883023B12B69044A0449012019
:101280009847002070BD00BF880000202806010894
:10129000380601084806010830B40269B0F8423047
:1012A00090F8381032F81330032908BF83F4004354
:1012B00040F2E51101FB03F31B0C816C8446A3F59E
:1012C00089700880BCF83C10DCF84C0032F8111032
:1012D00039B1BCF8401032F81110012994BF002137
:1012E00001210170BCF83E00BCF83A10DCF8505007
:1012F00032F8111032F81020DCF8544040F2E510BA
:1013000000FB02F2A3EB12431BB2002BBCF94420FA
:10131000DCF80000B8BF5B421BB29A42A1F10102A7
:10132000B2FA82F2ACBF0023012352092A70237063
:1013300030BC4368184700BF0068C368184700BF47
:10134000836910B50446BBB10D4B93F888204AB9A8
:1013500063697BB10A4B0B4A1B690B490020984714
:10136000002010BD1B69094A07490120984763699D
:10137000002BEFD1012010BDC369002BE4D1E7E7BA
:10138000880000209C060108800601086406010808
:101390002DE9F04F9B461B68C2F51E66B34294BF11
:1013A0009EB2B6B2884674084FEA520183B017461F
:1013B0004FEA81010CD0144B08EB840419444346D6
:1013C00051F8042B5A80120C1A800433A342F7D12F
:1013D0000E4C851E04F1E20A04F1E40914F8013B05
:1013E00035F8022F3946CDE9003240464B463246A9
:1013F000FFF7BAFCA24501D00028EFD1CBF800607E
:1014000003B0BDE8F08F00BF70D80008CCC400085E
:101410000068C368184700BF00688368184700BFAA
:10142000F0B482B02F4E056800238DF80330D6F853
:101430008430D6F88470C3F164031A442A4B1B68C5
:1014400003EB8303C3EBC3031B0D02FB03F3019305
:10145000AB6819420AD135E0019C019B013B019325
:10146000AB68002C08BF002219422BD0B1F5C06F29
:1014700005D12B7BDBB28DF803309DF80330D6F815
:101480008430DB1B9342E7D36B68426823F0E003B0
:10149000B2F5827F6B6019D0836AB3F5005F07D124
:1014A0002B6823F400532B602B6843F400532B600C
:1014B0000122002380F85D2080F85C30032002B018
:1014C000F0BC7047002002B0F0BC70478368B3F5F1
:1014D000004F02D0B3F5806FDED12B6823F04003BC
:1014E0002B60D9E7880000200000002070B4294D4F
:1014F000294BD5F884201B680468D5F88460C2F1B4
:101500006402114483B0C3F3CB3301FB03F30193B3
:10151000A3681A062DD509E0019A019B013B0193AE
:10152000A368002A08BF00211B0622D5D5F8843005
:101530009B1B8B42F0D36368426823F0E003B2F553
:10154000827F636019D0836AB3F5005F07D1236897
:1015500023F400532360236843F4005323600122E3
:10156000002380F85D2080F85C30032003B070BC5D
:101570007047002003B070BC70478368B3F5004F1C
:1015800002D0B3F5806FDED1236823F040032360DF
:10159000D9E700BF880000200000002038B52A4AA3
:1015A0000368D2F884501B689B061BD4846A2368A6
:1015B000A2685868616820F0200058609AB15868A5
:1015C000B1F5827F20F00100586022D029462046E4
:1015D000FFF78CFFB0B901230022A4F8462084F85D
:1015E0005D30236E38BD5A68B1F5827F0CBF22F0A2
:1015F000030222F001025A6029462046FFF776FFD7
:101600000028E8D0236E43F02003236620232366BE
:10161000E1E7B2F5004F12D11A6822F040022946E4
:101620001A602046FFF762FF0028EBD12A464FF4EC
:10163000C0612046FFF7F4FE0028CCD0E2E7B2F507
:10164000806FE9D0C2E700BF88000020F8B51C4DCC
:101650000368D5F884701B68846A9B062CD42668BE
:10166000736823F0200373603A464FF4C05120465C
:10167000FFF7D6FE58B939462046FFF737FF30B995
:101680003A464FF4C0612046FFF7CAFE38B1236ED8
:1016900043F020032366236E43F020032366736820
:1016A00023F00303736000220123E287A4F846209D
:1016B00084F85D30236E0BB901232B76F8BD00BF93
:1016C0008800002030B4124D124C00F1BC0C0021F7
:1016D00043680B44024640F8043F12689A1AAA4233
:1016E00009DD50F8042CA3F5C9237E3BA1F5C921DF
:1016F00003607E399A1AA24206DA03F5C92301F57E
:10170000C9217E3303607E318445E1D130BC70470E
:101710003F240300C1DBFCFF2DE9F04FBFB00DF10A
:1017200038090D469046019300F1020B3EAFCA46C0
:10173000002440F6B73631E025B335F8141001F037
:101740001F0E4FEA912C0EF1300E00FB0EF0C1F38C
:101750004411ACF1200C02FB0CFC002801F130011B
:1017600002FB01F1B8BF3F30BCF1000FB8BF0CF174
:101770001F0C8011002900EB6C10B8BF3F3100B284
:1017800041F38F110134182C08BF0024FFF786FBAA
:101790004AF8040BBA450BF1040B0ED0BBF900203C
:1017A0003BF9020C02FB02FC00FB00CCB4451146E5
:1017B000C2DC00203FB0BDE8F08F0DAC0DF106019A
:1017C00009F15C05224652F8043F002BB8BF0F33E5
:1017D00002311B1195420B80F5D14846FFF772FF8D
:1017E000002254F8043F216EA542A3EB01031A44E2
:1017F000F7D1124B83FB0213D217C2EBA31404F5EB
:10180000994330334CF662129342D2D802AE354639
:101810000FCD4D4508F1100806F1100648F8100CE0
:1018200048F80C1C48F8082C48F8043CEFD1019B00
:1018300001201C803FB0BDE8F08F00BFABAAAA2AF0
:101840002DE9F04F87B04FF0000E164600EB41092E
:101850000290821ECDE90316A9F1120935464FF018
:10186000010BF246F4467046CDF804E005931EE005
:1018700040F2EE218B4240DC634500DD9C464FF098
:10188000000BBEF1000F0ABF4FF0000B70460120A5
:10189000CAF100084345019BB8BFA4EB060ABB424E
:1018A00038BF3B469145019305F102052BD0568A7E
:1018B00032F8024F331B03F50048B8F5803F274646
:1018C000D6D240F2EE218B422B8007DD178868B913
:1018D000634515DD9C464FF0010ED9E75149178845
:1018E0009C45B8BF9C468B42D2DACAE7634500DD0F
:1018F0009C4686464FF0000BCAE74FF0000BE6E728
:101900004FF0010EC4E71946DDE90346059BBBF124
:10191000000F03D1002007B0BDE8F08FBEF1000F2B
:10192000F8D00028F6D0CDE9031C0027A4F11C094B
:10193000B84606F112043D463E46BE46D34634F94B
:10194000021F019601EB810C01EB4C010A22A24619
:10195000A4463CF9026D02FB06113AF9026F02FB44
:101960000611013AF5D1019EA942C4BFF0460D46C9
:101970008E42C8BF77460EF1010EC8BF0E46F14534
:10198000DDD14CF25034A542DDE9031CDA46C1DD5D
:10199000254CA642BEDABCF1000FBBD0BBF1000F54
:1019A000B8D0029C119D2488C900E4004DB18C423E
:1019B00005D2ACEB0402013A0A44B2FBFCF2119DE1
:1019C0002A60109A002AA6D0002BA4D0029A08F10F
:1019D0000E0532F81520B4EBC20F4FEAC20606D24C
:1019E000ACEB0404013C3444B4FBFCF42D1B029A20
:1019F0000E3732F81720B1EBC20F4FEAC20405D9F7
:101A00004A1E5244121BB2FBFAF2BF1A55EA0702F1
:101A100080D4BD423FF77EAF109A7F1B17601D60D8
:101A200079E700BF12FDFFFFB03CFFFF2DE9F04F4B
:101A3000204C93469A46851E8A1E04F1E2074FF019
:101A400000084FF41E6604F1E40935F8021F32F86D
:101A5000023F994222D0217809EBC1014B8833B370
:101A60004968002001EB830347F6FF7E51F804CB61
:101A70001FFA8CFCE64528BFE646604538BF604645
:101A80008B42F3D1400080B24FEA4E0E80451FFAE0
:101A90008EFE38BF8046764528BF76460134BC426C
:101AA000D3D1ABF80060AAF80080BDE8F08F4FF604
:101AB000FE7EF0E7CCC400081249D1F88C20D06833
:101AC00010F0400001D0002070474FF0FF3310B4F9
:101AD000D360D1F88440D3685B0610D4032803D1C7
:101AE0000DE0D368580609D4D1F884301B1BB3F538
:101AF0007A7FF6D9032081F8AD00ECE700205DF88D
:101B0000044B7047880000200A4A0B4BD2F88C1017
:101B1000CB60D2F8840005E0D2F884301B1AB3F50C
:101B20007A7F04D8CB689B06F6D500207047032047
:101B3000704700BF880000205FFF030008B5114B0D
:101B4000DA6822F08002DA609A68920603D4FFF71E
:101B5000DBFF88B908BD9A6822F020029A60FFF77F
:101B6000D3FF18B1084B032083F8AD00054A9368F2
:101B700043F02003936008BD034B032083F8AD00BE
:101B800008BD00BF0028004088000020F0B5634C6D
:101B900094F8AC30012B00F0BF80D4F88C100223F5
:101BA000012284F8AC2084F8AD308B6813F0400C2F
:101BB00018BF90F803C003780CBF80F803C04FEA49
:101BC0008C5C092B09D900220A3BDBB2092B02F1FC
:101BD0000102F9D843EA0213DBB21A044378092B55
:101BE00009D900250A3BDBB2092B05F10105F9D81B
:101BF00043EA0513DBB28678092E4FEA032309D99D
:101C000000250A3EF6B2092E05F10105F9D846EA8B
:101C10000515EEB290F824E0BEF1090F0DD90025AC
:101C2000AEF10A0E5FFA8EFEBEF1090F05F1010555
:101C3000F6D84EEA05155FFA85FE4569076A3D4309
:101C400045EA0C052A4313433343456843EA0E62D1
:101C5000C3691D43836ACA20486253204862B3F5B2
:101C6000807F8B6839D023F400738B60CB68DBB244
:101C700063F42073CB60D4F8840005E0D4F884309A
:101C80001B1AB3F57A7F1ED8CB689B07F6D50A627C
:101C90008D648B6843F400738B608B6843F400534E
:101CA0008B601F4B1A68002042F4802284F8AC003D
:101CB0001A609A6842F480229A60FF2201234A62E5
:101CC00084F8AD30F0BDFF2203234A6284F8AD30C2
:101CD000002384F8AC300320F0BD23F480738B60C4
:101CE000CB68DBB263F4C073CB60D4F8840005E04A
:101CF000D4F884301B1AB3F57A7FE4D8CB68DE07BA
:101D0000F6D5CA614D648B6843F480738B608B6831
:101D100043F480538B60C4E70220F0BD88000020AC
:101D20000004014060B138B5056904461DB128467C
:101D3000FEF72EFA28B92046BDE8384009F05EBD0E
:101D4000704700232B602846FEF77AFAF3E700BFBE
:101D50002DE9F04F2DED108B9BB090F85E401D46A5
:101D600090F85C300893042CB0F858300393804608
:101D7000894616461AD8D0ED147AF5EEC07AF1EEFF
:101D800010FA00F1F58190F86630002B00F0918296
:101D900090F85B30002B00F08C82024C024A0594D4
:101DA00007E000BF8800002008070108C64CC74AAA
:101DB00005942369C64900209847D8ED157AD4F8D0
:101DC000B030009307EE103AF5EEC07AF1EE10FA5B
:101DD000B8EE478A40F3D081C8EE278AF6EE007A43
:101DE00078EEA78A039B002B00F0A68198F85E305E
:101DF000049398F85A30002B40F0A58198F86020A1
:101E0000022A41F0298198F85E40012C00F0E1831C
:101E10000024224634990C71A6F8AC21002B00F066
:101E2000978198F85F30012B00F00484022B00F0BA
:101E3000EB83002B40F0DD8301231A46F3843285C7
:101E400098F86030012B00F0CD83022B00F0C9839D
:101E5000002B00F00784059B9E4A1B699C490020CB
:101E60009847B9F1000F00F0778100230093B9F88B
:101E7000E410B9F808307180B9F8E610B180B9F80B
:101E8000E2103180B9F8E810F180B9F80210318120
:101E90009B00B9F8041071819BB2B9F80610B181AA
:101EA00003F13002B9F80A10F18192B2B9F82010AA
:101EB00031825F2AB9F82210718240F2EE818649A0
:101EC000A1FB0201890901EB4101A2EB411189B299
:101ED00000201A4604460B460121F2820322B382F7
:101EE00072830023009A7384B483F0833183318436
:101EF0006B800123C5F80A30002A00F054870027C0
:101F0000CDE9017706F13E039FED749A9FED74AA27
:101F1000DFED779ACDE90696B34605F10E0A444601
:101F20001E46049AFBB29A4200F229810023AAF8C5
:101F30000030AAF8083033800137042F0AF1020A72
:101F400006F102060BF1560B04F11404E9D1039BD0
:101F5000AA89DDF804E012FB03F26B8992B2134404
:101F60009BB2DDE90696591C012089B20090B6F8B3
:101F7000AC01012804D1DDE9020404FB00F0029069
:101F8000029FB8F8640098F863C098F862B04FF602
:101F9000FF74A74228BF27464408A4F1030A98F813
:101FA0006640A6F89EB18CF0010C0338A6F8A6C1D5
:101FB000A6F8A471A6F8A0E1A6F8A801A6F8AAA11F
:101FC000AA81AB80E980002C00F02781413399B2CF
:101FD0004024012329802C81A6F8C031B9F1000FDB
:101FE00003D0B9F80C30A6F8C231009B002B40F0AA
:101FF0003E81349A98ED145A00231360089BA6F88A
:10200000B231039B012B40F22F81B8F85830023BCC
:1020100001229BB29FED336ADFED335A98F85A10D4
:10202000F1EE007AC8EE066A68EE277A68EE255A65
:1020300087EE867AC5EE867AB6EE006A76EE866A16
:1020400037EE067AFCEEE66AB5EE405AD8ED155A40
:10205000A6F8AE31F1EE10FA16EE903A77EE867AE7
:10206000BCEEC77AA6F8B02114BF01220022FCEE14
:10207000E77A328798F85B20A6F8B43117EE103A69
:10208000A6F8B63117EE903AF5EE405AA6F8B831F8
:10209000009BF1EE10FA14BF01200020002B40F04D
:1020A000BE8031867286708598F861300F4A00983C
:1020B000C6F8BA210121B184A6F8BE311BB0BDEC2F
:1020C000108BBDE8F08F00BF88000020C406010817
:1020D000E006010804080108ABAAAAAA2549123E95
:1020E0008FC2753D0024744900009643FF07010824
:1020F00000000000B5EEC07AF1EE10FA00F107839F
:1021000098F85A20002A00F00583B5EE407AF1EEE7
:1021100010FA05D1F5EE407AF1EE10FA40F0BB83EB
:102120005FED0D8A059B724A1B6972490020984732
:10213000039B002B7FF45AAE039B049398F85A300C
:10214000002B3FF45BAE349A00231371A6F8AC3138
:10215000B9F1000F7FF489AE0123A5F802906B81DD
:10216000CE4602214A46CDF80890CDF80090FEE612
:10217000614C624A05941CE6DFED618A32E6012378
:10218000338098F85C90228940F2FF3340F2FF11CF
:10219000B9F1000F18BF0B4642B39A4226D8A27B72
:1021A000237C3AB1022B05D1059B564A1B69DDE918
:1021B000069620E0E07B002840F03E82012B00F0F4
:1021C000AB80059B504A1B694A490090DDE90696A1
:1021D0009847DDF804E0039BAA8912FB03F26B89A0
:1021E00092B213449BB2591C89B2C0E6059B474A80
:1021F0001B69DDE906963F4900209847039BAA89A1
:10220000DDF804E012FB03F26B8992B213449BB237
:10221000591C002089B20090A9E62346DAE6B5EE03
:10222000405AF1EE10FA0AD0C8EE057A77EE867AB7
:10223000FCEEE77A17EE903AB3871B0C7387002306
:1022400061F30F03F5EE405A62F31F43F1EE10FA0B
:10225000708533633FF428AFFCEEE87A17EE903ACE
:102260001A0CB285F3851FE700221346D2E698F8D0
:102270005D30072B15D8264A9FED219A134493F819
:102280000439A6F8A231349B83ED009A049B002BFD
:1022900040F0438298ED145AB0E603200124002157
:1022A0001BE6349A98ED145A002313600023009320
:1022B000A4E6012C40F2E28198F80F104246012377
:1022C00003E00133A34200F0D981084692F82310BD
:1022D000814202F11402F4D2074F0E4A3C690549CB
:1022E00005970020A047D8ED157AD7F8B03068E5FB
:1022F00068070108E006010888000020F4060108CC
:1023000000000000340801086008010824080108E2
:1023100040C40008340701086FF00B030993E288FA
:10232000A3880A92182A009340F2968202EB820355
:1023300003EB031303EB032302EB4303C3F3CC02CE
:1023400042EA43339BB240F6AA22934200F2D7827C
:10235000AF4B0A9AA3FB02231B090E93013B9BB2CE
:1023600015935C230D9318230B930098002840F0DD
:10237000D684059BA74A1B69A7499847B9F1000F66
:1023800000F0C0844FF000090222009B099913FB62
:1023900002F292B20092226811440A460C910A9904
:1023A000013B01FB0323099302F5C34328334CF29D
:1023B0005032934207D9059B984A1B6996490020E1
:1023C00098474FF00009099B03F5C34328334CF2AB
:1023D0005032934207D9059B914A1B698E490020D0
:1023E00098474FF000090C9A002AC0F23D838D48AF
:1023F00080FB0230D217C2EBA00000B2099B002B79
:10240000C0F22683874981FB0331099BDB17C3EBAD
:10241000A101119309B280B2091A0C9B0F90814857
:1024200080FB03C0C2EBA00288B209B20E9B1091E0
:10243000B0FBF3F0411C0A901FFA81FE0B981821A3
:10244000B1FBF0F30E930C9B02EB4202B3EBC20222
:1024500000F1F78213B2139393B20C93099A714867
:10246000119B0B9980FB020CC3EBAC0303EB430CF9
:102470000C9BB3FBF1F001FB103081B2B2EBCC034B
:10248000099100F1FB821AB219929BB20E9A0B9835
:10249000511E099A89B21891BEF1010F11FB00215A
:1024A00089B200F0F182099A0C98824240F0FF82D2
:1024B000994200F04F840023012213931692149343
:1024C00012920E930C9B9A00099BABF882209B0002
:1024D000ABF88430B9F1000F40F0F5826C2317930C
:1024E00036230C937D223D234FF00009ABF87C305E
:1024F0000F9BABF87A200C9A1099C3F1290313446F
:102500001AB21192521A9BB2292A0F9307DC059B2B
:10251000454A1B694049002098474FF00009119B2C
:10252000179A934207DB059B404A1B693A490020F2
:1025300098474FF000090D9B2C2B00F20F821E2BA9
:1025400040F2E3831E3B0F229BB20D92ABF89A3010
:10255000159B0C99ABF89430139BABF87E10ABF83D
:102560008E300F990A9BABF880100D99ABF896103E
:10257000ABF89820002B40F0CF81149B002B0E9BD2
:1025800008BF00230E93129B002B00F0D783099AFB
:10259000199B9B1A0B9A93FBF2F39BB2169AABF81A
:1025A0009220ABF88C300E9AABF888200023ABF861
:1025B0009030ABF88A300A9BABF88630B9F1000F47
:1025C00040F0BC82CDF80090DDF804E0DDE906962D
:1025D00001E698F81020013A012A7FF619AC22464C
:1025E00018E400237363B9F1000F41D00123009375
:1025F0003DE4059B0E4A1B69074900209847B9F145
:10260000000F7FF432ACA7E500231A4616E400BFA2
:10261000ABAAAAAAAC080108E0060108F80801085C
:102620000C090108ABAAAA2A40090108600901089F
:10263000E4070108002201E4013B042B00F2348589
:1026400001A252F823F000BF192300088F280008C8
:102650005D260008872800085D2600086FF00C033F
:1026600009935CE64FF001137363B9F1000FBDD11C
:1026700000236B800123C5F80A3040E4B94B98ED84
:10268000157A0593D3F8B030009306EE903AB5EE84
:10269000C07AF1EE10FAB8EE668A7FF72BADC8EE7D
:1026A000078AF6EE007A78EEA78A18EE900A07F00D
:1026B000CBFF51B1059BAC4A1B69AC490020984740
:1026C000039B002B7FF492AB37E598F85A20002A41
:1026D0007FF428AD039B98F85F10002B98F86030CA
:1026E00014BF204600209942049007D9059BA04AB8
:1026F0001B699E4900209847FFF77BBB022B00F027
:10270000B584349B1A71A6F8AC21FFF78ABBDFEDC4
:10271000998ACFE7DFED978ADCE7B6F8AC31B6F8F7
:10272000A421012B00F0CD8007EE902ADFED929AD4
:10273000B8EE67AAB7EE089AF2EE02DA059B9FEDB3
:102740008F0AD3F8B030019307EE903AB8EE67FAEB
:1027500080EE0F0A06F036FE98F86030022B2FEE5E
:1027600000FA00F22181864A98F85E1002EB83009D
:1027700090ED00EAD0ED03FA002900F02681009BDD
:10278000DFED7CEA9FED7FBA9FED7FDADFED7FCA58
:102790009FED7FCADFED7FBADFED7FAADDF81490F1
:1027A00044460025227C052A00F29280022A40F24B
:1027B0009A804FF0300A0827E27B052A00F26984EC
:1027C000DFE802F03E413B034744F0EE4B7A8FEEE8
:1027D000276A228998F85E1002FB077702377F008C
:1027E000BFB2A288013514349FED6C7AC6EE076A39
:1027F00007EE90AAF8EE677A87EEA66A07EE907A5F
:10280000F8EE677A87EEA67A07EE902AF8EE677AF6
:10281000EAB267EE277A914277EE867A77EEA97A66
:1028200077EE897A7EEEA7EABCD898ED145A002B91
:1028300040F0CF800093FFF7E1BBF0EE6A7AC6E785
:10284000F0EE6C7AC3E7F0EE4D7AC0E7F0EE4C7A2A
:10285000BDE7F0EE6B7ABAE70A9A002A4FD0182348
:10286000B3FBF2F302FB03F3C3F118039BB215931E
:10287000002B44D10A9A0B92531E9B009BB20D93DE
:1028800001230E9371E56FF00F03099347E56FF095
:102890000603099343E598F85F2098F860309A4260
:1028A0007FF43EAC039B349ADFED328A002B14BFD9
:1028B00023460023049300231371A6F8AC31FFF7DD
:1028C000B0BAF0EE499AF0EE49DAB0EE49AA35E72F
:1028D000D9F81030324A2549002098474FF0180A9D
:1028E0000427002368E7012A05D0022AF0D14FF01F
:1028F0003C0A0A2760E74FF0480A0C275CE7059B73
:10290000284A1B6919490020984700230122CDE974
:102910000D3215930B9231E5149B002B0E9B08BFD3
:1029200000230E93129B33B1099A199B9B1A0B9AA1
:1029300093FBF2F39BB2ABF88C300A9B169AABF880
:102940009220013B0E9AABF888209BB2189A0A930A
:102950000123ABF88A20ABF890302CE600230D93CE
:102960001A46F3E58800002054070108E006010834
:1029700094070108000000009A999D41F902154F43
:102980004CCD0008000090430000204300000043AD
:102990000000F0430000C04300004043002474499D
:1029A0008808010898080108059BBE4A1B69BE49B2
:1029B0000020984798F85E30002B00F0EF81DFEDA3
:1029C000BBFA0023B0EE6FEADAE698ED145ADFEDB9
:1029D000B7EA9FEDB77ADFEDB76A349BCFEE077A9F
:1029E000B1EE0C7AC7EEA65A2AEE07AA7FEE8EFA4F
:1029F000CAEE257A9FEDB07A77EEAD7AB0EE006A36
:102A000077EEAE7A77EEAF7A27EE877A37EE067AF0
:102A100077EE277A86EEA77AB4EEC57AF1EE10FA51
:102A200083ED007A7FF5EAAA059BA44A1C699E49BA
:102A3000FDEEC77A002017EE903AA04700230093DE
:102A400028E402F1180083B20C9303B2139305E556
:102A500009999B4BC943A3FB0131099B6FEA1111F3
:102A6000DB1709B21193D6E40C9A954BD043A3FB24
:102A700000306FEA101000B2D217BFE403F1180063
:102A800002B283B2199201E50C98824200F05F8194
:102A900000220A9216921292139A9B1A0B9A93FB97
:102AA000F2F39BB20E930123CDE913330AE5994269
:102AB00000F05A810A9B013B9BB20A9301231693B3
:102AC00012930B46E8E7E37B052B00F21183DFE866
:102AD00003F01A130C032B214FF486731793D6239C
:102AE0000C9340F21D128D2300E5AC23179376233F
:102AF0000C93BD225D23F9E48C23179356230C938A
:102B00009D224D23F2E46C23179336230C937D22F0
:102B10003D23EBE44FF4E67317934FF4CB730C9320
:102B200040F2DD12ED23E1E44FF4B67317934FF456
:102B30009B730C9340F27D12BD23D7E4A37A172B2D
:102B400000F2FE80092B00F21B81C3F109039AB247
:102B50001523ABF84630069BABF84820002B00F05D
:102B60005B8203EB42029389ABF84A30237C013B42
:102B7000042B00F29F82DFE803F0BA7603A98400F9
:102B80004FF000094FF400724FF4C063CDE9092300
:102B90004FF0C00E02204FF0040C08214A464B466D
:102BA000ABF86E000A98ABF856000998ABF870C005
:102BB000ABF85800ABF84E10ABF85010ABF852E041
:102BC000ABF854E098F85D10B9F1000F00F0068101
:102BD000002B00F00381022900F27881394B0B446D
:102BE00093F80039ABF85A30069B002B00F019819E
:102BF0000023ABF85E300123ABF86A30069B00215E
:102C0000D3E932ECD3F8C4900B460EEB1140A0EBA5
:102C100009009042614480F22C8201330F2BF4D1E1
:102C2000069AABF86030D2E936E303EB83020EEB91
:102C30001242F92A00F3EC81062003FB00F0052183
:102C400003E0BCF1FA0C40F1D7810A46013189B2A8
:102C500014290EEB104C1844F3D1059B1A4A1B693A
:102C6000DDE9069637E100214FF40073CDE9091341
:102C70004FF0400E03204FF0020C08219622FA2359
:102C80008EE74FF000094FF4F0504FF47853CDE940
:102C900009034FF4F86E02204FF00B0C08214A464E
:102CA0004B467DE704080108E0060108000000002B
:102CB00000002043002474490AD7233CDC090108A2
:102CC000ABAAAAAA40C40008B00901084FF0000945
:102CD0004FF4C06C4FF46063CDE909C34FF4E07E5C
:102CE00002204FF0060C08214A464B4658E7069B47
:102CF0009B8C0422082BCBF86E205BD9DDE906966D
:102D0000FFF77CBA0422FFF740BB0D9B0F2B30D995
:102D1000A3F10F020F230D9392B2002316E4B9F131
:102D2000000F2AD1237B002B33D0059BC44A1B699B
:102D3000C449484698470422FFF727BB0A9B2DE465
:102D4000059BC14A1B69DDE90696FFF754BA994213
:102D50007FF49EAE0023CDE91333CDF828E016931F
:102D600012930E93FFF7AEBB0023169312930B46FC
:102D700092E600221346FFF7E9BB0222FFF705BBEC
:102D8000102B94BFC3F11E03C3F117039BB20022A3
:102D9000DFE64FF001090422FFF7F7BA98ED145A65
:102DA0000093FFF72BB90098029086460221024655
:102DB000FFF7DDB8ABF84E30ABF8503040230022BF
:102DC000ABF85230ABF854304FF40073ABF85630D8
:102DD000ABF8582098F85D1013469146072975D82E
:102DE0009A48014491F80419ABF85A100699C1B1F8
:102DF0000021ABF85E10B9F1000F40F08380ABF812
:102E00006A90ABF86090ABF85C90ABF86290ABF86E
:102E10006890ABF864904A460023ABF86620ABF8A4
:102E20006C302389E27AABF87620012B67D0023B25
:102E30009BB20121ABF87230A37BABF84C3083F02E
:102E40000103ABF87410ABF878300099AB89AAF89D
:102E500000300B44AAF80810AB81A388217C06EE51
:102E6000903A2389012907EE103ABBF86E302AD038
:102E7000022914BFF0EE695AF0EE4A5A01339BB2B0
:102E800007EE903AF8EE677AB1EE006AF8EE666AFD
:102E900067EE867AB8EE477A67EEA67A0198029BCB
:102EA00067EE877A014667EEA57A002808BF1146CB
:102EB00067EE897A0191FCEEE77A17EE902A1344C7
:102EC0000293FFF739B8DFED625AD7E7059B614AF5
:102ED0001B69DDE906965B4900209847039BAA8998
:102EE000DDF804E012FB03F26B8913FA82F39BB264
:102EF000591C002092B289B20090FFF738B8002325
:102F0000194697E70121ABF86A10002B7FF476AEE3
:102F1000ABF8603019461A46ABF85C200022ABF8DB
:102F20006220ABF868204BBBABF864301A4602EB6A
:102F30000109069AD2E92FE1CE451DDA08460022A2
:102F400002F1010C09921FFA8CF2162A3FF485AEA9
:102F50000EEB104CBCEB090C0844F1D4002B7FF4B1
:102F60005BAF099800FB01F10EEB1143A9EB0303E2
:102F70009C45C8BF02464FE700224DE7069BD3E9B8
:102F8000349C894546DA134662469E4601339BB21D
:102F9000162B3FF462AE09EB1240401A6244F4D49F
:102FA0000CFB0EF209EB12428A1A9042D8BF9E46E1
:102FB0000699BBF86020D1F8CC30BBF85C000990D2
:102FC00002FB03F3D1F8C820ABF864E002EB134234
:102FD0000B46D1F8C410521AD3E936303FF53DAE56
:102FE00009990CFB0EFE00FB01F103EB114309EB09
:102FF0001E401918FA239AE702FB03F30EEB134362
:10300000C3F1FA039C45D8BF0A46FA210B4683E771
:103010000522FAE79646CBE7069BABF84A30237CBD
:10302000013B042B46D801A252F823F07730000868
:10303000672C0008812B0008CD2C0008832C000889
:10304000C0080108E00601087809010840C400082A
:10305000CDCC4C3E90090108349A1371A6F8AC31DE
:10306000B9F1000F7EF401AFFFF776B80123FEF748
:10307000CCBE9BB2D4E54FF000094FF40073CDE90C
:1030800009934FF0400E0420CC4602214A464B469D
:1030900086E5D9F810301A4A1A4900209847DFED22
:1030A0001A7A0023FFF793BB059B184A1B69DDE9D9
:1030B000069610E7059B154A1B6912490020DDE9B9
:1030C00006969847AA89039BDDF804E012FB03F2F9
:1030D0006B89562113FA82F301FB076100209BB232
:1030E000C1F86E00591C92B2009089B2FEF73FBF42
:1030F000059B034A1B69034900209847FFF7EEB977
:1031000034090108E00601080000004388080108AE
:1031100070B5FEB04FF4E27204460D460DA80021D2
:1031200003AE07F039FC00960DAA05AB002120463E
:10313000FEF70EFE08B97EB070BD94F85B202B46FA
:10314000314605A8FDF7AAFCF5E700BF38B50569CB
:103150003349344A344B04464FF07E50606021605E
:10316000A260E3602846FDF713F808B12F4BAB656A
:1031700025692846FDF70CF810B12023A5F85C302E
:1031800025692846FDF704F810B1022385F862305E
:1031900025692846FCF7FCFF08B128236B602569E8
:1031A0002846FCF7F5FF08B108236B8125692846FE
:1031B000FCF7EEFF08B10E232B8125692846FCF7AA
:1031C000E7FF08B101232B7525692846FCF7E0FFCE
:1031D00008B10423AB8125692846FCF7D9FF08B163
:1031E0009623AB6125692846FCF7D2FF08B10C2372
:1031F000EB8325692846FCF7CBFF08B11723AB8387
:1032000025692846FCF7C4FF10B1032385F8283050
:1032100024692046FCF7BCFF08B10823238438BD8D
:103220009A99193E9A99993E040005000000A04021
:1032300010B41F4C94F8AC30012B35D0D4F88C105E
:103240000220CA2384F8AD0001224B6253234B6253
:1032500084F8AC208B6823F480738B608B6823F434
:1032600080538B60D4F8840005E0D4F88420121ACF
:10327000B2F57A7F0ED8CB6813F00103F5D00020A9
:10328000FF2201234A6284F8AC0084F8AD305DF877
:10329000044B70470320FF224A6284F8AC3084F864
:1032A000AD005DF8044B704702205DF8044B704799
:1032B00088000020F8B516460D464FF4E27201462C
:1032C00018461C4608F074FAB6F8581021B196F862
:1032D0005E30191E18BF0121012396F85B2084F887
:1032E000C6312B4684F8C52133F8262B84F8C41147
:1032F000A4F8C82105F1560104F5E5721F685E685F
:103300009868D3F80CC0C2F80CC010338B42176019
:103310005660906002F11002F0D1B5F85630A4F872
:10332000FA3105F1580604F5FE7E05F18807B4462A
:10333000BCE80F00BC450EF1100E06F110064EF869
:10334000100C4EF80C1C4EF8082C4EF8043CEED134
:10335000B5F88830A4F82C3205F18A0304F22E2443
:10336000BA35186859689A68DE68E6601033AB426F
:1033700020606160A26004F11004F2D1F8BD00BFCA
:103380002DE9F0411C46164BDDF8188015464FF428
:1033900080520F469A62064603F048F917B1384644
:1033A000FDF73AFB16B13046FDF712FB15B1284682
:1033B00008F024FAB8F1000F02D04046FEF7B2FC44
:1033C00064B1206808B108F019FAA06808B108F0E3
:1033D00015FA2046BDE8F04108F010BABDE8F081CA
:1033E00000040048F8B595692B7802EB43030F46BB
:1033F000B3F84460536901466888144603EB400003
:10340000720008F0A9F96B88E26D1E4413786E8093
:1034100003B93B791370F8BD2DE9F04F2DED048B06
:10342000038F8DB00546002B00F01581B0F84030B9
:10343000428F0469B0F850E007925B000293838FDB
:10344000C28F34F913300B92BEF1000F00F00381EC
:103450001B010893D0E91223D718B0F85200B5F831
:103460004230DFED8A8ADFF830B20193FE434FF03D
:103470000008F6EE009A0990C1460496CDF828E0BF
:10348000834B83FB0710F917C1EBA00101EB41004F
:10349000A7EBC00000281FFA89F886B2C0F2EB80C3
:1034A000002FC0F2F180089B09B2090481FB0301DF
:1034B000002906DA4FF6FF7C10EB0C0C604641F158
:1034C0000001079B000C40EA0140991934F91110E2
:1034D000A0EB011007EE900AB8EEE79A29EE289AC1
:1034E000B0EE490A06F08EF9B0EE408AB0EE490A15
:1034F00005F02EFF019B002B00F0A2800B9BB5F87E
:1035000044A01E4404EB46030020CDE90597039335
:103510000646009059E095F838C0BCF1000F4BD03A
:1035200007EE101A07EE903AF8EEC76AF8EEE77A5F
:1035300026EE806A27EE887A66EE886A37EE467A4B
:1035400067EE807AB5EEC07A77EEA67AF1EE10FAE1
:103550004CBF37EE697A37EE297AF5EEC07AF1EE94
:1035600010FABDEEC77A4CBF77EEE97A77EEA97A0A
:1035700017EE103AFDEEE77A5B4517EE901A47F624
:10358000FF70B8BF5B468342D5F85490A8BF03468E
:103590005945B8BF594699F800E08142A8BF014695
:1035A000BEF1000F04D117EE100A98425BD0E64638
:1035B00089F800E01BB209B2A352009B7980534402
:1035C0000093019B01369E4238D0009B95F839C08C
:1035D00008EB5302029B92B203EB8202A718A35E90
:1035E000B7F90210BCF1000F95D00398B0F800C0F5
:1035F0000CF01F0E0EF1300E03FB0EFE4FEA9C2363
:10360000203BCCF3441C01FB03F3BEF1000F0CF193
:10361000300C01FB0CFCB8BF0EF13F0E002BB8BF05
:103620001F334FEAAE1EBCF1000F0EEB6313B8BFA1
:103630000CF13F0C1BB24CF38F116CE7DDE90597E1
:10364000099B049A1F44D31A04930A9B09F10109A8
:1036500099457FF415AF286843680DB0BDEC048B25
:10366000BDE8F04F184717EE900AB0EB010E18BFF7
:103670004FF0010E9CE71836B6B2049B054AA2FB38
:1036800003016FEA11110EE70026F6E7000080370C
:10369000ABAAAA2AABAAAAAA0080FFFF2DE9F04193
:1036A000364B374DDA6C42F0020286B0DA64DA6CDF
:1036B00002F002020392039ADA6C42F08002DA64AA
:1036C000DA6C02F080020492049ADA6C42F0010291
:1036D000DA64DB6C4FF0904603F00103002405939D
:1036E00041F201274FF01008059BAF622846C6F84B
:1036F00028800223CDE900444FF48812082103F00A
:10370000C3F82246CDE900441E480223092103F0F4
:10371000BBF83046CDE9004402234FF444124FF485
:10372000006103F0B1F83946032723462846019487
:103730000097012203F0A8F80223284622461946E2
:10374000CDE9007403F0A0F802234146304601227F
:10375000CDE9007403F098F82146092002F018FF23
:10376000094D4FF400732B602820214602F010FF12
:103770004FF480736B6006B0BDE8F081001002402A
:1037800000040048001C004800E100E070B5114E44
:10379000114A3368A2FB03239B09013BB3F1807FED
:1037A00001D3012070BD4FF0E0220C495361F0239A
:1037B00081F82330002507230F2895610446136103
:1037C000EFD801464FF0FF3002F0E2FE7460284669
:1037D00070BD00BF00000020D34D621000ED00E07E
:1037E0000CB4F0B5ADB032AB06AE53F8042B059374
:1037F00004460D463046962108F0AEF89528C4BF21
:103800001C4BCDF8AA301C4B1C49D3F88470A1FB8B
:1038100007311B4BA3FB0723980B1A4BA3FB072372
:103820004FEA931C184B4FF47A7202FB1C77A3FBF0
:1038300000E25209042CC2EB0212A0EB8202A3FBAD
:103840000CE398BF114800974FEA531394BF005DF3
:103850003F20C3EB03130190CDE90256490DACEBB9
:1038600083030B4808F052F82DB0BDE8F04002B0D9
:10387000704700BF2E2E2E0088000020B17C2195BD
:1038800073B2E745D34D621089888888200A010801
:10389000FC090108002800F0D7802DE9F04F2DED3C
:1038A000028BD0F8108083B00446B8F1000F3DD0F1
:1038B000D0ED007A9FED8B7AF4EEC77AF1EE10FA34
:1038C00000F19B8090ED017AF4EEC77AF1EE10FAE8
:1038D00000F39C8090ED027AB5EEC07AF1EE10FA1A
:1038E00000F19D80F1EE007AB4EEE77AF1EE10FA85
:1038F00022DD7D4B7D4A1B68D868B7EE006ADFED9C
:103900007C7ADFED7C6A7C4947EE067ABCEEE77A8A
:10391000B8EE476A17EE103A77EEC67A67EEA67AE7
:10392000FCEEE77ACDED007A07F0E2F8002003B074
:10393000BDEC028BBDE8F08F8289511E09297CD82D
:10394000C289511E092971D84046FCF767FF01253D
:1039500007460AE0FDF714F8294606464046FDF7FB
:103960000FF8864272DA0135EDB2691EAF42C9B274
:103970004046EFD8FCF752FFDFF8B0A1DFF8BC916A
:103980000025471E27E04046FCF766FC05F1010BC9
:103990004046B0EE408A5FFA8BF6FCF7F9FB38B18F
:1039A000032E05D9DAF8103054494A4600209847CA
:1039B00031464046FCF7E4FF80B207EE900A9FEDE7
:1039C000507AF8EE677A67EE877AB4EEE78AF1EE1E
:1039D00010FA44DA3546BD422946D4D30021404688
:1039E000FCF7CEFF1F2843DC3F4B46481B682D22C7
:1039F000DB68012107F056FF98E73B4B42481B6804
:103A00003222DB68012107F04DFF8FE7364B3F483C
:103A10001B682B22DB68012107F044FF86E7324B4D
:103A20003B4A1B68BFEE006AD86868E72E4B3949ED
:103A30001B68D86807F05CF878E72B4B36491B68A1
:103A4000D86807F055F871E700207047264B3348D7
:103A50001B685822DB68012107F024FF66E7224B30
:103A60002F491A685B46D0682A4607F041F85DE79F
:103A700094ED000A4046FCF7EBFE40B11A4B294892
:103A80001B682822DB68012107F00CFF4EE794ED4C
:103A9000010A4046FCF7DCFE90B9234AD8F8001032
:103AA000914216D0214B224A1B69144998470E4B6C
:103AB00020481B682C22DB68012107F0F3FE35E764
:103AC000094B1D481B682622DB68012107F0EAFE2E
:103AD0002CE7B8F85C30032B88BF01203FF627AFF6
:103AE000E5E700BF0AD7A33D2800002054170108CE
:103AF000BD37063500247449880A0108AC03010863
:103B00000AD7233B4C0B0108280A01085C0A01086C
:103B1000EC0C01080C0B0108C80A0108380C01085C
:103B2000000C01087C0B01080FB03713880000203F
:103B300094030108D00B0108A80B0108D403010865
:103B400070B5094E736805469847044628B12A4661
:103B5000002106F021FF204670BD3369034A044965
:103B60009847204670BD00BF88000020940C0108D3
:103B7000A40C0108BFF34F8F0549064BCA6802F435
:103B8000E0621343CB60BFF34F8F00BFFDE700BF80
:103B900000ED00E00400FA05FEE700BFFEE700BF0D
:103BA000FEE700BFFEE700BFFEE700BF704700BFB3
:103BB000704700BF704700BF034AD2F8843001331A
:103BC000C2F88430704700BF880000200C4B0D49BC
:103BD000D3F88C204FF480104861D168490503D494
:103BE000012283F8AD207047D168C9B261F49061B9
:103BF000D1600120012283F8B40083F8AD20704722
:103C00008800002000040140034B5A69120744BF9A
:103C100008225A61704700BF000401400148FCF7C8
:103C200007BD00BF400100200148FCF701BD00BFF7
:103C3000880100200148FCF7FBBC00BFD001002038
:103C40000148FCF7F5BC00BF18020020084810B47A
:103C5000D0F8D831D0F80C4299691A682CB12346B3
:103C600000F5EC705DF8044B18475DF8044B7047A5
:103C700088000020034B5A69120544BF4FF40062CC
:103C80005A6170470004014010B5194C194AD4F824
:103C90008C304FF4802151619A68D20402D5DA68E1
:103CA000D00509D49A68910402D5DA68920513D434
:103CB000012384F8AD3010BDDA68D2B262F4C0726C
:103CC0000121DA6084F82C12FFF7B2FA68B9D4F84F
:103CD0008C3084F82C02E5E7DA68D2B262F4207204
:103CE000DA60012384F8AD3010BDFFF743FF00BF59
:103CF0008800002000040140034AD2F8883043F4D1
:103D00007003C2F88830704700ED00E0244A9368E1
:103D1000D26813F00C0305D00C2B34D0042B38D10F
:103D2000204870471E4A1168090754BFD2F8941002
:103D300011681D4A54BFC1F30321C1F3031102EB03
:103D40008102D2F82409002BEBD0154BDB6803F07D
:103D50000303022B22D0154A032B08BF1046104B39
:103D6000D968DA68DB68C3F34163C2F30622C1F3A2
:103D70000211013300FB02F201315B00B2FBF1F2F0
:103D8000B2FBF3F0704702F00302012ACAD0002010
:103D9000DBE7082B054818BF002070470148DEE725
:103DA000001002400024F40040C4000800127A0011
:103DB000064A074B92680749C2F302221344086877
:103DC00093F8543903F01F03D840704700100240A5
:103DD00040C4000800000020064A074B92680749CB
:103DE000C2F3C2221344086893F8543903F01F0346
:103DF000D84070470010024040C400080000002076
:103E0000F0B504680546200583B000F1F580002672
:103E1000A10351D5A74B9A6DD20040F1F88000273D
:103E2000A549A64A0B6843F480730B60D2F884005E
:103E300005E0D2F884301B1A022B00F201810B68D6
:103E4000DB05F6D5AEBB9B49A86DD1F8903013F4D5
:103E5000407326D0834224D0D1F890C0D1F890305E
:103E600043F48033C1F89030D1F8903023F480339C
:103E7000C1F890301CF0010F2CF44073C1F8903061
:103E80000FD0D2F884E041F2883C06E0D2F88430CA
:103E9000A3EB0E03634500F2D380D1F890309B076B
:103EA000F4D5844AD2F8903023F440730343C2F827
:103EB0009030002F40F0DC80E10708D57D4A296A68
:103EC000D2F8883023F003030B43C2F88830A207EE
:103ED00008D5784A696AD2F8883023F00C030B437E
:103EE000C2F88830630708D5724AA96AD2F88830C8
:103EF00023F030030B43C2F88830A70608D56D4A7B
:103F0000E96AD2F8883023F440630B43C2F8883062
:103F1000A00508D5674AE96BD2F8883023F440231E
:103F20000B43C2F88830610508D5624A296CD2F883
:103F3000883023F440130B43C2F88830620608D55A
:103F40005C4A296BD2F8883023F440530B43C2F803
:103F50008830230608D5574A696BD2F8883023F495
:103F600040430B43C2F88830E70508D5514AA96B96
:103F7000D2F8883023F440330B43C2F88830200352
:103F800023D4374661030FD54A4AE96CD2F888300A
:103F900023F040630B43B1F1006FC2F8883000F0AA
:103FA0008380B1F1806F77D03E4662044DD43046B5
:103FB000230408D53F4A696DD2F8883023F0804346
:103FC0000B43C2F8883003B0F0BD3A4AA96CD2F86E
:103FD000883023F040630B43B1F1006FC2F88830A2
:103FE0004CD0B1F1806FCCD10121281DFCF76EFBC4
:103FF00007460028C5D0C5E76F6CB7F5000F11D094
:10400000B7F5400F13D0002F3DD0012600E79A6D81
:1040100042F080529A659B6D03F080530193019B9F
:104020000127FDE6234AD36843F48033D360214A55
:10403000D2F8883023F440033B43C2F88830E6E6E8
:104040000326002F3FF438AF12E01A492A6DD1F849
:10405000883023F040531343B2F1805FC1F88830B9
:10406000A5D10221281DFCF731FB00289FD09FE736
:10407000104A936D23F0805393651DE7D36843F492
:104080008013D3607DE73946281DFCF71FFB0646E9
:1040900000287FF4BDAECAE70121281DFCF716FBFE
:1040A0000646002880D080E7D36843F48013D360AD
:1040B0007AE700BF00100240007000408800002036
:1040C0002DE9F043A3B0764C2C220021684606F07F
:1040D00063FC744A94F8AD000023C4E92323C4E9C7
:1040E0002733C4E929331F2140F2E733C4E92513FC
:1040F000002846D0022384F8AD30D368DB066AD5A9
:1041000094F8AC300125AB4284F8AD5037D0D4F8E8
:104110008C3084F8AC504FF00209CA27532684F83B
:10412000AD905F625E62FDF7C7FCD4F88C3008BBCF
:104130009A6818609A6822F480229A609A689A6055
:10414000FDF7FCFCD4F88C304FF0FF08C3F8248056
:1041500090B984F8AD5084F8AD905F625E6284F8E7
:10416000AC50FDF7A9FC00286BD0D4F88C30C3F814
:10417000248001E0FF225A62002384F8AC30FFF76C
:10418000F9FC00F0FF0154220CA884F8AC104FF4A5
:10419000007606F001FC4FF400330BA80B93219638
:1041A000FFF72EFE05460028E9D13F4AD2F89030AD
:1041B00043F400430146C2F89030032002F0E8F9CE
:1041C0003A4F08233B602920294602F0E1F97E603E
:1041D000D4F88C208EE7CA21532351625362FDF735
:1041E0006BFCC8B9D4E923329968D4F89C0021F457
:1041F000E00121F0400199600243D4F8A4009968DD
:1042000002430A43D4F898109A6019611A69D4F8E5
:10421000941042EA01421A61FDF790FCD4F88C3008
:10422000002838D1D96CD4F8A820D4F8A00021F007
:104230000301D964D96C02430A43FF21DA6459624D
:104240005EE7D4F88C3042F201125A60FDF776FC3A
:10425000D4F88C200346C2F8248000288CD14FF477
:1042600080726846CDE90333CDE9073384F8AD5059
:1042700084F8AC30ADF800308DF80230019305932E
:104280008DF824500A92FDF781FC00287FF477AF67
:1042900023B0BDE8F083FF225A62FFF76BFC00BF3A
:1042A00088000020002800400010024000E100E0EB
:1042B000F0B4C56F202D4CD10C4601B112B90120CC
:1042C000F0BC7047194600252123C0F88450C3670D
:1042D00083682B4FA0F85020B3F5805FD7F8846037
:1042E000A0F8522038D0B0F85220036892B2B2B190
:1042F000DA69120604D44A1C1DD1DA691206FCD50B
:104300000CB314F8012B1A85B0F85220013A92B27E
:10431000A0F85220B0F8522092B2002AE8D1DA690F
:10432000520604D44C1C1DD1DA695106FCD5202359
:10433000C3670020C4E7D7F88420921B914219D3A9
:10434000C1B11A68D4E735F8022BC2F308021A8506
:10435000DAE70220F0BC70470369002BC3D1254681
:104360001C46C0E7D7F88420921B914202D309B1C2
:104370001A68D4E72023C367F0BC0320704700BF4E
:1043800088000020026852E8003F23F4907342E85E
:1043900000310029F7D102F1080353E8003F23F070
:1043A000010302F1080C4CE800310029F3D1036E3F
:1043B000012B06D000232022C0F8802083660366EC
:1043C000704752E8003F23F0100342E80031002913
:1043D000F0D052E8003F23F0100342E800310029FA
:1043E000EFD1E7E770B5AE4CD4F83052EB692A68EC
:1043F000A96840F60F00034240F08780980602D576
:10440000960600F1F380D4F89002012816D0D80265
:1044100002D5490200F1F4801E0605D4590602D5E2
:10442000530600F1258170BD1006F7D5D4F89C32F3
:10443000002BF8D0BDE870409A481847DE06E6D554
:10444000D006E4D510232B62AB68B4F888225B0653
:1044500040F14281D4F8A43219684B689BB2002B1A
:1044600000F09681934280F09381A4F88A320B6821
:104470009E0644D455E8003F23F4807345E800329B
:104480004AB1D4F8302252E8003F23F4807342E866
:1044900000310029F5D1D4F8302202F1080353E8A5
:1044A000003F23F00103083242E800310029F2D135
:1044B000D4F8302202F1080353E8003F23F0400310
:1044C000083242E800310029F2D12023C4F8B0328A
:1044D000C4F89012D4F8302252E8003F23F01003C1
:1044E00042E800310029F5D1D4F8A43293F8252010
:1044F000022A00F054810422DA6383F82410022394
:10450000C4F89432B4F88A3270BD11F0010640F05C
:104510009E80654802423FF476AFD8070FD5D1059B
:1045200040F1D68001212962D4F8B41241F0010192
:10453000C4F8B41299076BD5002E40F08C80580750
:104540007DD51E0700F1C1801E050AD5500108D592
:104550004FF400612962D4F8B41241F02001C4F88C
:10456000B412D4F8B41200293FF45DAF990602D515
:10457000920600F1A080D4F8B422AB6802F02802C1
:1045800003F04003134300F000814648FFF7FAFEB2
:10459000AB685B067FF547AF05F1080353E8003FC2
:1045A00023F0400305F1080141E8003262B1D4F87C
:1045B000302202F1080353E8003F23F040030832A1
:1045C00042E800310029F2D1D4F8A40200283FF4D7
:1045D0002AAF90F82530354A8263022B00F0BB8069
:1045E0000423BDE87040C363FCF710B9D4F89832D7
:1045F000002B3FF418AF04F50C70BDE8704018476D
:104600004FF480132B6270BDD1058BD4980722D450
:10461000590714D5002E94D004212962D4F8B4127D
:10462000180741F00201C4F8B4128DD5082129629F
:10463000D4F8B41241F00801C4F8B41284E71907A1
:1046400082D502F0200131433FF47EAFEEE7D80778
:10465000DAD499072CD502212962D4F8B4125E0766
:1046600041F00401C4F8B412D6D41907DED46BE7C4
:1046700055E8003F23F0400345E800324AB1D4F842
:10468000302252E8003F23F0400342E80031002985
:10469000F5D120220023C4F8AC22C4F89C3270BDAE
:1046A00088000020B8020020200100040D08000846
:1046B0005E07B1D4D9E7D4F89832002B3FF45BAF52
:1046C00042489847D4F8305255E79006AED43BE7BD
:1046D00098073FF534AF9BE7B4F88A12B4F88A32F2
:1046E0009BB289B2002B3FF49EAE91423FF49BAE49
:1046F00055E8003F23F4907345E800324AB1D4F8FE
:10470000302252E8003F23F4907342E80031002940
:10471000F5D1D4F8302202F1080353E8003F23F02A
:104720000103083242E800310029F2D12023C4F805
:10473000B032C4F89812C4F89012D4F8302252E87B
:10474000003F23F0100342E800310029F5D1022395
:10475000C4F8943270BD0268436C116821F00E01F8
:104760001160116821F0010111600124026C03F055
:104770001C0304FA03F35360002380F8254080F8FB
:104780002430BDE87040FCF741B8C4F8B43270BDC5
:1047900093427FF448AE0B689D06D8D470BD1A686A
:1047A0001D6C106820F00E001060106820F00100F1
:1047B00010605A6C012002F01C0200FA02F26A60DA
:1047C00083F8250083F8241099E600BFB802002082
:1047D0002DE9F041174F1D467B6913B1BDE8F0414B
:1047E0001847FB684FEA4208002AF7D08F1EA8F14D
:1047F000020406468E460C443A4632F802CF9CFA32
:104800009CFCA242A2F800C0F7D142467146304655
:1048100098470DB9BDE8F08137F8023F5BBAA7426F
:104820003B80F7D037F8023F5BBAA7423B80F3D119
:10483000F0E700BF8800002000B583B041F4A0413C
:10484000012394464FEA124EADF80010ADF8023045
:10485000042200236946ADF804E0ADF806C0FFF776
:10486000B7FF03B05DF804FB2DE9F04FA5B0044697
:10487000FBF7A6FC10B925B0BDE8F08FDFF8048186
:10488000A56898F88830012B05D9D8F81030374A38
:104890003749022098477822364906A806F088FF53
:1048A000D8F81430344A0492002B55D004AF0222B9
:1048B000394628469847DFF8D0A00DF1180B00269E
:1048C000BBF80440BBF80690A144A14532DD039734
:1048D00005E0624698470134A4B2A14529DD44F4BD
:1048E000405C0399ADF810C0012328460322ADF8BF
:1048F0001260ADF81460FFF76BFFDBF80830BDF80D
:1049000014C021462846002BE3D198F88820184986
:10491000012A2B4652464FF00200DCD9DBF800702A
:10492000CDE9007C0134D8F81070A4B2B847A14595
:10493000D5DC039F0BF10C0B24AB9B45C0D198F841
:104940008830012B97D9D8F810300C4A084902203A
:1049500025B0BDE8F04F1847094B049304AFD8F8D1
:104960000C300422394628469847A4E7B40C0108C5
:104970006C0401089CCD0008D5100100040D01084D
:1049800010D5000188000020F00C010810B50E4C75
:104990008C461146228803F1020EB2EB4E0F06D26E
:1049A00023690A4A0A49BDE8104000201847013B24
:1049B0004CF4A04C4B802EF00042A1F800C0BDE8A2
:1049C0001040002304E700BF88000020400D0108CC
:1049D000600D0108F0B583B043F21C020092012380
:1049E0000E460024032269460746ADF80440FFF74F
:1049F000EFFEBDF8043013F4006517D141F21B043B
:104A00002B46694638460222009446F40066FFF7BA
:104A1000DFFE38462B4669460222ADF80040ADF86D
:104A20000260FFF7D5FE012003B0F0BD044B054A3C
:104A30001D69054920463B46A847204603B0F0BD06
:104A400088000020740D0108A40D0108F0B50129AB
:104A500083B00546144621D0022909D01B4B1C4ABD
:104A60001C691C4903460020A047002003B0F0BD8C
:104A700043F2460384270026ADF800302846012380
:104A800003226946ADF80260ADF80460FFF7A0FEAE
:104A9000BDF8040030B164B90120E7E743F24503F3
:104AA0008327E8E7094B0C4A1C690A492B46A047B3
:104AB000DBE747F480573346694628460222ADF8C3
:104AC0000070ADF80260FFF783FEE5E78800002084
:104AD000BC0D0108A40D0108D80D0108F0B501298D
:104AE00085B00646154631D0022924D143F232035F
:104AF00001240027ADF808300322012302A9304623
:104B0000ADF80A70ADF80C70FFF762FEBDF80C301E
:104B10006B8003F00702012A2A8027D013F00600D9
:104B200018D11649164A0C6916490096A047002468
:104B3000204605B0F0BD114B134A1C6911490346CC
:104B40000020A0474FF440530024D2E743F2330340
:104B50000C46CEE7023A012AEAD9084A00961469BF
:104B600008490A4A3846A0472F80E0E70349084A27
:104B70000C69044900963846A047D8E78800002011
:104B80000C0E0108A40D0108BC0D0108700E0108EF
:104B90003C0E010810B582B001AA01210446FFF7BE
:104BA0009DFF002201212046FFF750FFBDF8043091
:104BB000022B08D00549064A0C6906490020A04787
:104BC000002002B010BD012002B010BD88000020FE
:104BD000A40E0108EC0E01082DE9F04383B01D4638
:104BE00043F440534FF00008BDF82840ADF80030C2
:104BF0008946164669460123032245F48055074637
:104C0000ADF80280ADF80480FFF7E2FDADF800508A
:104C1000BDF9045004FA09F46C4004EA0602554058
:104C20004346694638460222ADF80250FFF7D0FDF0
:104C300003B0BDE8F08300BF30B583B0002529463E
:104C400000957B23FF220446FFF7C6FF0121009158
:104C500020468B230222FFF7BFFF8B238022009583
:104C600007212046FFF7B8FF03B030BD70B582B012
:104C700043F2370200230092ADF8043003220123EF
:104C800069460546FFF7A4FDBDF8043013F0C00FD8
:104C900019D143F21C020123009200246946032229
:104CA0002846ADF80440FFF793FDBDF804301B051E
:104CB00015D50E4B0E4A1E690E4920462B46B047AD
:104CC000204602B070BD094B93F88820002AE0D03E
:104CD0001C69094A07492B460120A047D9E7284605
:104CE000FFF7AAFF012002B070BD00BF88000020BE
:104CF000380F0108A40D01080C0F01082DE9F04F31
:104D0000264C87B00026CDE90466B4F800808946B9
:104D1000002B3DD04FEA5808CDE90102A8F1040864
:104D20000D461F464FF4004BB246039325E0029B0D
:104D3000A5F800B033446B80631EAB80A5F806A0D5
:104D40006200002105F1080005F026FE29460198C1
:104D50000123221DFFF73CFD04AA134603CA264483
:104D60006960286009EB460559F81600696803C3B5
:104D7000039B9E42A7EB04070AD2B845444628BFCE
:104D80003C46B845D3D200E0013CE307FCD4CEE773
:104D900009F1080007B0BDE8F08F00BF88000020CF
:104DA0002DE9F04F9846174BDFF85CB01F8883B0B1
:104DB000043A043F52087F0897420C9E01908946AE
:104DC00028BF174601F1040A0025741BBC4228BF06
:104DD0003C4645EA0B02631E08EB4501A9F800209A
:104DE000A9F802306200504606F0E2FC2544019822
:104DF0000023A21C4946FFF7EBFCAE42E5D803B006
:104E0000BDE8F08F8800002000C0FFFF2DE9F04FC3
:104E1000ADF6240DDFF87CA2029008910392069370
:104E20004FF0020B974B4FF480541D469C6201F0EB
:104E3000FDFBAC6101F0FAFB029B5BB9DAF81030C4
:104E4000914A924900209847BBF1010F32D04FF0B0
:104E5000010BE7E71B688E4A9342EFD1039B002BBF
:104E6000F2D0DDF8089099F80D30D9F808400A2BF7
:104E700014D8DFE813F025007804F2037103F3027D
:104E8000DD012501B1007B000B0025002046FFF766
:104E900081FE002840F0AC85029B5B7B7D4E7E4A04
:104EA00034697E490020A047029A0023BBF1010F1C
:104EB0005373CCD1002630460DF6240DBDE8F08F9B
:104EC0004CAEEC220021304605F066FD714B049398
:104ED000D3F8B030DFED725ADFED726A059307EE5A
:104EE000903AF8EE677AB6EE006A85EEA77AF4EEAD
:104EF000E67A37EE067AF1EE10FABCEEC77A17EED4
:104F0000103A9DB200F3AC849FED677AF4EEC77A55
:104F1000F1EE10FA00F1A484A5F110039BB2EF2B7F
:104F200040F2CF849FED617ADFED616A049E77EEF7
:104F3000877A37EE877ABCEEC77AB8EE477A37EED3
:104F4000C77AFCEEE77A27EE267A17EE904AFCEE57
:104F5000C77A17EE907ACDE90047564B3469564A26
:104F600056490020A047029B5B7B98E72046FFF74D
:104F700011FE002890D00399602300222046FFF7FD
:104F8000BDFE0DF5C3730DF5AB7200210546FCF7B0
:104F9000C3FB002880D028466EAB62AA0DF5DD71F8
:104FA000FCF7BAFB00283FF477AF204640F27C4183
:104FB000FFF710FD00283FF46FAF092589F80D5069
:104FC00001F010FB00283FF43FAFD9F80030304A21
:104FD00093427FF433AF46E72046FFF7DBFD00281E
:104FE0003FF45AAF4CAE1023039900222046FFF73E
:104FF00085FEB6F88A3003F01F08C3F3441E9B0AEF
:105000000746203B00250493BB1C099508F1300896
:105010000EF1300E0795AC46284605930CE0079B31
:105020009A42604640F2CD849C46ABB20792099307
:105030000135082D00F09D84059A37F9253032F9A5
:105040002520049908FB03F302FB01F1002BB8BFF4
:105050003F33002902FB0EF2B8BF1F319B11002A1B
:1050600003EB6113B8BF3F321BB242F38F1203FB55
:1050700003F302FB02328242DAD96245CFD81046EE
:10508000D6E700BF00040048B4030108CC030108C0
:105090000EB0371388000020A80F0108CC0F0108BC
:1050A000F902154F8096984C8096984BBD3706357F
:1050B0000024744954170108680F0108940F01086F
:1050C0002046FFF767FD0D9000283FF4E5AE524BF8
:1050D000524A0493D3F8B030BDF81012A2FB032358
:1050E0009A0901FB02F24FF44073079203990022E0
:1050F0002046FFF703FE88AB4CAE0C9005930DF5F0
:105100000778871C0DF61C05B7F9001037F9020C5B
:10511000FBF7C4FE48F8040F454507F10407F3D137
:105120000DF1D00820220021404605F035FC3C4B13
:105130000993079B0E9403EB4303DB000A93059B43
:105140000F9603F15C054FF6FF734FF0000E33AA84
:105150000B932B467446754616461F46A7F15C0016
:10516000FCF7B0FA4FF0000CA7F1600050F8043FD4
:10517000026E8742A3EB02039C44F7D1BCF1000FFF
:10518000C0F2E18340F694534FEA9C1003FB00F019
:10519000079B400D03FB00F00A9B03EB102070609F
:1051A0001DB13368834240F2F98456F8043F099AEE
:1051B000A3F16673A3F54A33203B002BB8BF5B42D3
:1051C000934202D20D9C09930B95691C8DB2082D58
:1051D00007F1C007C2D1A646DDE90E46BEF1000FB9
:1051E00000F0DC840B9B738400930E4B0E49372236
:1051F00083F8242020460D4A0C2301F0C1FA2046F2
:1052000040F21741FFF7E6FB002840F07D85029B46
:10521000049E5B7B43E600BF88000020D34D6210F4
:1052200040420F000000002030EC000814CE0008BF
:105230002046FFF7AFFC00283FF42EAE4FF440733A
:1052400000220399BE4DBF4E2046FFF757FD00F5E3
:10525000C06213AB0A9200220492CDE90C4388AAE3
:1052600005921CAACDE90EB907930DF1D0080B9257
:105270004BAF81460B9CCB46BBF902103BF9040BAC
:10528000FBF70CFE44F8040B4445F5D133AA144651
:10529000CB460992BBF96210BBF96000FBF7FEFD3B
:1052A00044F8040FBC420BF1040BF3D1DDE9041305
:1052B000099A58180DF16C0E002152F8043F5EF85F
:1052C000044F1B1BAB4240F3F982A3F5C9237E3B7D
:1052D000AB42FADC002BB8BF5B429942B8BF19461B
:1052E000BA4240F8043BE8D1079B491043F8041F39
:1052F0000793049B603304930A9B09F1C009994505
:10530000B8D1DDE90C43DDE90EB9002108460A46B3
:1053100053F8045F8542C8BF114602F10102C8BFBD
:105320002846082AF4D114AB0DF1CF0253F82150CE
:10533000059B01EB410103EB41110DF1E70051F831
:10534000043BAB42ACBF0023012302F8013F904273
:105350001376F4D100200123024618F8011F6AB920
:1053600081B118F8011C69B91A4601200133302BAC
:105370003FF492AD18F8011F002AF1D0002900F087
:10538000D28201300133302BE7D1A0F10C03082B7E
:105390003FF682AD02EB5002172A02D9183A172ABB
:1053A000FCD892B2910089B201F13005ADB25F2D07
:1053B000ADF8382140F25584634BA3FB05239B09CC
:1053C00003EB4303A5EB431300270D46B84699B200
:1053D00001265E4A009121235D49204601F0D0F963
:1053E0005A4A5B4900952223204601F0C9F903255A
:1053F000564A574900960123204601F0C1F9534A05
:10540000534900950223204601F0BAF94F4A50490A
:10541000CDF800802B46204601F0B2F94B4A4C49AA
:1054200000970423204601F0ABF9484A484900960A
:105430000523204601F0A4F90023454900932046A6
:10544000424A062301F09CF9204640F2ED31FFF775
:10545000C1FA00283FF420AD0625AFE52046FFF74E
:1054600099FB00283FF418AD0399002250232046F1
:10547000FFF744FC0DF59D72871E3021CDF810B06A
:105480000A948C4638469346CDF814903149CDF8AD
:105490001CC0002447F6FF7605464FF6E473A64687
:1054A000A1460F46B046CDF824B009E0B24204F15F
:1054B0000104BCBFDE4616460833082C9BB21CD044
:1054C00035F9022F0FFA83FB5CB135F802CCA2EB61
:1054D0000C0C0FFA8CFCE045A8BFE0466745B8BF4E
:1054E0006746002AE2DA8A4204F10104C4BFD946C1
:1054F00011460833082C9BB2E2D1A7F51C57103F88
:10550000BFB244F620639F42DDF81CC0DDF824B032
:1055100011D8B8F1000F0ED111F5004F47F6FF7307
:1055200000F045839E4200F0EA85AEEB090EBEF125
:10553000080F00F01E86DDE904B30293ACE400BF5F
:105540003F240300C1DBFCFFABAAAAAA14CE0008CB
:1055500030EC00080080FFFF2046FFF71BFB00280F
:105560003FF49AAC0399002220232046FFF7C6FBA4
:10557000B0F9002006460746012115460020944652
:1055800037F9022F02F54873A3EB0C039BB2B3F576
:10559000C86F3FF681ACAA42A8BF084601F10101DD
:1055A000A8BF15462029EAD1072840F260831728B2
:1055B000A0F1070340F2D985D3F1200240F05A83CD
:1055C00088AB05930DF1D00805984146FBF7F6FC32
:1055D00000283FF461AC98ED006AB5EE406AF1EE48
:1055E00010FA3FF459AC98ED017AB5EE407AF1EE3D
:1055F00010FA3FF451ACD8ED026AF1EE666AC6EEDD
:10560000877AF5EEC07AF1EE10FAFFF645ACB1EE0E
:10561000477AC7EE066AF5EEC06AF1EE10FA7FF53A
:105620003BACB7EE007A77EE877AFCEEE77A17EEBE
:10563000903A9AB23F2AC3F34E033FF62DAC83F063
:105640001003204640F21531ADF83631FFF7C2F9AC
:1056500000283FF421AC0425B0E42046FFF79AFA75
:10566000079000283FF418AC0399412300222046FC
:10567000FFF744FB0023028C05920146A0F1020CC7
:10568000984604934FF6FF7E5A1E02FB02F2C2EBCD
:10569000C202500000F51676C83A3CF9020F002B02
:1056A00000F047813CF9027C00F57A75C01B9042FE
:1056B000FFF6F2ABB0423FF7EFAB85EAE572A2EB43
:1056C000E57292B2724506D24FEA83089646079A6F
:1056D00004921FFA88F80133102BD5D1049A002ABE
:1056E0003FF4DAAB88F03000B1F88020B1F82280C6
:1056F0000990A2EB0802B2F5FA6F4CAEB080FFF64B
:10570000CBABB1480A961204A0FB0202520900205A
:105710002031079205464FF6FF77A64631F8022F53
:10572000059EA2EB060CBCF1000FB8BFCCF1000C3B
:105730001FFA8CFCBC4508EB104438BF674604F5E3
:10574000487C38BF1D46944503F1010602F54872B6
:1057500080F0BE83079AB3B2402B10443FF49CAB59
:1057600000220492DAE72046FFF714FA00283FF4FB
:1057700093AB88AA154643F2320300262946889344
:10578000032201232046ADF82462FFF721F8039994
:10579000AD88122332462046FFF7B0FA0146B0F832
:1057A00000C047883346304604314FF6FF7645FA4D
:1057B00003F2D2070AD531F81320D21B002AB8BF52
:1057C000524292B2964284BF98B216460133102BD1
:1057D000EDD1431E0D2B3FF65FAB00F10043013BC3
:1057E00001EB430631F81320738841F28731D21A56
:1057F0008A427FF751AB4FF6FF7295423FF44CABB4
:10580000B2889B1A8B427FF747AB40F2E51303FB4C
:105810000CF31B0CA3F5897313F1140F1AB2C0F229
:10582000FC852C2A40F3F6854F2ACCBF04230323A2
:1058300066490090ADF83201ADF854312046644A13
:10584000ADF830C1252300F09BFF204640F2332104
:10585000FFF7C0F800283FF41FAB0225FFF7AEBBEF
:105860009FED5C7ADFED5C6A049E5C4B5C4A5D49AF
:1058700077EE877AA84637EE877A0020BCEEC77AA3
:10588000B8EE477A37EEC77AFCEEE77A27EE267A4B
:10589000CDED007A17EE904AFCEEC77ACDED017A95
:1058A000356917EE907AA847A8F11005EF2D3FF65D
:1058B00052ABFFF758BB03F5C9237E33B342FADB83
:1058C00008E577EEC77ADFED486A9FED487A67EE24
:1058D000A67A3F2D77EE877AFCEEE77A17EE902ACC
:1058E000A6F8E82040F2B7810123BF2DA6F8E230E8
:1058F00096BFA5F14003EB08C3F3CF03A6F8E4304D
:1059000005F00703A6F8E630049FA6F8E05020460D
:105910003D88FFF7ABF9002840F03183029B3E46FB
:105920005B7BFFF7BCBA0B283FF62FAD08460A4653
:105930001CE500F57A73002BB8BF5B429BB2734540
:1059400010D30123A0E6CCF1000040F69453800967
:1059500003FB00F0079B400D03FB00F00A9BA3EB49
:1059600010201CE49E46079B04934FF0000801237F
:105970008AE6079BB0EB530FBFF48EAA099B3384D2
:10598000134A1249009320460B2300F0F9FE00232E
:105990000F4A0E4900932046092300F0F1FE7E23B2
:1059A0000A49009320460A4A0A2300F0E9FE2046ED
:1059B00040F25341FFF70EF800287FF4FFAAFFF7EB
:1059C0006BBA9446FFF734BBABAAAAAA30EC000826
:1059D00014CE0008BD370635002474495417010859
:1059E000680F0108940F0108E8385BB500007C429D
:1059F00003994FF49C6300222046FFF77FF914AB14
:105A000000931CAB059334AB00251F4688AB1A46A8
:105A10000493019512AB90218146129514951C9523
:105A20003495FBF70DFF00283FF436AADDE9046347
:105A3000019500973246F02109F59070FBF700FFC1
:105A400000283FF429AA12AB0093019514993A68F3
:105A50009A4B9B4C521A02FB03F304FB01F11B0C03
:105A6000C3EB5133129904FB01F104FB02F2490B21
:105A70004CA8CDE97B3207907D9111AB324640F2C4
:105A80001F1109F20230FBF7DBFE00283FF404AAE5
:105A9000059B019314AB0093049A10AB4FF49071E3
:105AA00009F5A860FBF7CCFE00283FF4F5A9CDE985
:105AB0000057049A2B4609F5F0604FF49071FBF7FC
:105AC000BFFE00283FF4E8A9109B059A11981268C0
:105AD000129E1499B846C01A04FB03FCD8F8003093
