:020000040800F2
:1000000000000120B9A30008658E0008698E000871
:100010006D8E0008718E0008758E000800000000CB
:10002000000000000000000000000000798E0008C1
:100030007D8E000800000000818E0008858E00087B
:1000400009A4000809A4000809A40008998E000862
:1000500009A4000809A4000809A4000809A40008CC
:1000600009A40008D58E000809A4000809A4000806
:10007000E98E0008F58E000809A4000809A400080C
:10008000018F00080D8F000809A4000809A40008CA
:1000900009A4000809A4000809A4000809A400088C
:1000A00009A4000809A4000809A4000809A400087C
:1000B00009A40008000000000000000009A40008D6
:1000C00009A40008198F000809A4000809A4000861
:1000D00009A4000809A40008418F000809A4000829
:1000E000F99200080D9300080000000000000000D5
:1000F0000000000000000000000000000000000000
:100100000000000009A400080000000009A4000885
:10011000000000000000000009A4000809A4000875
:1001200009A4000809A4000809A4000809A40008FB
:1001300009A400080000000000000000000000000A
:1001400009A4000809A4000809A400080000000090
:1001500009A4000809A4000809A4000809A40008CB
:1001600009A4000809A4000809A400080000000070
:1001700009A4000809A40008000000000000000015
:1001800009A4000809A4000809A400080000000050
:10019000BFF34F8F0549064BCA6802F4E062134370
:1001A000CB60BFF34F8F00BFFDE700BF00ED00E065
:1001B0000400FA0530B4214B1A68D36813F0080321
:1001C000FBD1946A156911685268C1F3015000EBC4
:1001D000800001F07F32C1F3034111EB400118BFF1
:1001E000174B22F0FE4218BF4B43C2F3023101EB22
:1001F0008101C2F3032010EB41001CBF4EF66021C9
:1002000001FB0033C2F3021101EB810102F00F0286
:1002100012EB4102C5F30E0518BF4FF47A71A5EB3E
:10022000040018BF01FB02334FF47A72013502FB60
:1002300000F0B0FBF5F030BC184470478800002097
:1002400080EE3600B0F1904F84B017D0234B984227
:1002500004D0234B98422CD004B0704711B303F163
:10026000784303F50333DA6C42F00202DA64DB6CA4
:1002700003F002030293029B04B0704759B1194B7B
:10028000DA6C42F00102DA64DB6C03F001030193E3
:10029000019B04B07047134AD36C23F00103D3646D
:1002A00004B070470F4AD36C23F00203D36404B048
:1002B000704769B103F1784303F5FA33DA6C42F021
:1002C0008002DA64DB6C03F080030393039BC3E7D3
:1002D000044AD36C23F08003D364BDE700040048D4
:1002E000001C00480010024090F824C0BCF1010F2F
:1002F0003CD070B590F825C00124A44580F8244076
:100300005FFA8CFE04D0002380F82430022070BDF8
:10031000022580F8255004680025C5632668456CD1
:1003200026F00106266005F01C05066C0EFA05F5A0
:10033000756063608368102B036B0BBFA260A160C4
:10034000E160E2604BB1236843F00E032360236851
:1003500043F001030020236070BD236823F00403F1
:100360002360236843F00A032360F0E7022070470C
:100370002DE9F0417D4C002384F8243094F8853039
:10038000012B0D46E16A08D0B1F5827F65D1D8B264
:10039000236B002B61D104285FD1002D5DD092B278
:1003A000002A5AD094F88430012B56D094F8853026
:1003B000A66A2566042B1CBF052384F8853001211D
:1003C0000023C4F8883084F88410A4F86620A4F8C8
:1003D0006E20C4E91D337368A4F8642023F4C0437D
:1003E000A566A4F86C207360636BD4F88000B3F545
:1003F000E06F34D8E36F99697368B1F5806F43F4A7
:100400008053736000F085808369B3F5806F6CD092
:1004100094F88530564A042B564B18BF1346564A5B
:100420000363564B4363564B18BF1346C362B4F87D
:100430006E304FF00008C0F838809BB206F10C0116
:100440002A46FFF751FF074670B1D4F8883084F888
:10045000848043F01003C4F88830BDE8F0817368ED
:1004600023F480537360D3E77368E06F43F00103B4
:100470007360B4F866300A46C0E90B77C0E90D77BF
:1004800029469BB2FFF730FF00284FD133685B0647
:1004900026D5002384F88430736843F0200373600A
:1004A000736843F002037360D4F88C2094F824300E
:1004B000002BD2D141F287310BE072B694F8243090
:1004C00003B930BF62B6BFF36F8F94F82430002BAE
:1004D000C3D1D4F88C309B1A8B42EED9BDE8F081A1
:1004E000336843F040033360D3E7736823F48053E9
:1004F0007360B4F86E3013F0010F73681FD123F4EA
:1005000000537360B4F86E30C3F34E03A4F86E303A
:100510007EE7D20773681DD423F480437360B4F878
:100520006630C3F34E03A4F866306DE7D4F8883024
:1005300084F8847043F01003C4F888308DE743F4E6
:1005400000537360B4F86E30C3F34E030133A4F864
:100550006E305DE743F480437360B4F86630C3F3F4
:100560004E030133A4F866304EE700BF8800002038
:10057000ED150008E9150008352E0008F1150008F2
:10058000852D000890F82520022A03D00422C2639A
:10059000012070470168426C10B50C6824F00E040D
:1005A0000C600C6824F001040C6002F01C02046C66
:1005B000012101FA02F26260826B80F825100024AA
:1005C00080F8244002B19047002010BD70B4436C05
:1005D000066C056831682C6803F01C0304229A40FD
:1005E0000A420ED014F0040F0BD02B689B0603D4E4
:1005F0002B6823F004032B60036B7260CBB170BCDB
:10060000184702229A400A4215D014F0020F12D065
:100610002B68990606D42B6823F00A032B6001236C
:1006200080F82530C36A7260002180F82410002B06
:10063000E5D170BC704708229A400A42F9D02207DF
:10064000F7D52A68416B22F00E022A60012202FAD5
:1006500003F300247360C26380F8244080F82520EF
:100660000029E6D070BC08472DE9F04F00233E4E2C
:100670004FF00F094FF0030A4DE03C4FB84265D0F0
:100680003B4FB84266D03B4FB84268D0DFF8E8B085
:1006900058450CBF4FF0040B4FF0070B0BFA04F456
:1006A000A44513D1346824EA0E043460746824EA43
:1006B0000E047460F46824EA0E04F460B46824EA5A
:1006C0000E04B460AC6824EA0804AC6004685D0001
:1006D0000AFA05F54FEAD30C2C4300EB8C0C0460AE
:1006E00003F00704DCF820E0A40009FA04F42EEA81
:1006F0000404CCF82040846824EA0504846044683B
:1007000024EA02024260C26822EA0502C2600133A2
:1007100031FA03F218D001229A4012EA010EF6D003
:1007200023F0030505F1804505F5803503F003044A
:10073000D5F808C0A40009FA04F8B0F1904F08EA0F
:100740000C0C9AD10024ABE7BDE8F08F012707FA23
:1007500004F4A5E74FF0020B0BFA04F4A0E74FF006
:10076000030B0BFA04F49BE700040140000400486B
:1007700000080048000C004800100048002310B496
:1007800080F8423090F84120212A4FF0200118D102
:10079000112280F84110026390F84110046801F0C2
:1007A000280122684363282914BF6FF0F2016FF01B
:1007B00042010A40002322605DF8044B80F840307B
:1007C0007047122280F84110026390F841200168BE
:1007D00002F028020C684363282A14BF6FF0F40269
:1007E0006FF04402224000230A605DF8044B80F859
:1007F0004030704701680B68002280F842205A049C
:100800000CD50B6823F480430B6090F84130292B02
:100810000ED090F841302A2B20D070471B04F4D51D
:100820000B6823F400430B6090F84130292BF0D182
:100830002822212380F84120036390F841300A6880
:1008400003F02803282B14BF6FF0F2036FF042036C
:10085000134000220B6080F840207047282222239A
:1008600080F84120036390F841300A6803F02803C0
:10087000282B14BF6FF0F4036FF0440313400022E1
:100880000B6080F84020704710B400232022174CE2
:10089000C4624363036380F8412080F842304B0711
:1008A000026811D5436A526A1A70436A028D013395
:1008B00043624AB1438D013B9BB24385436C013A8D
:1008C00043F0040302854364036890F8412090F8E4
:1008D00041201A68102422F0FE0200211A60DC6117
:1008E0005DF8044B80F84010704700BF0000FFFF28
:1008F00010B50446514A94F84130002084F8420073
:10090000E2626085626C1143A3F12802022A236827
:1009100061645DD894F8411094F8412001F02801F9
:10092000282902F0280214BFF6214621282A1A6835
:100930000CBFC9436FF0F6010A40282040491A60F5
:1009400084F84100A06B226B616318B1112A11D0A9
:10095000212A0FD0E06B18B1122A20D0222A1ED0F3
:1009600094F84130602B4FF0000360D0236384F88B
:10097000403010BD1A68510454D490F82530012B32
:10098000EED0304A8263002384F84030FFF7FAFD4E
:100990000028EED0A06BBDE81040836B18471A68A2
:1009A000120403D51A6822F400421A6090F8253028
:1009B000012BD5D0234A8263002384F84030FFF70F
:1009C000E1FD0028D5D0E06BBDE81040836B1847EF
:1009D00094F8412094F841201A6822F0FE021A602F
:1009E0009A69920748BF98629A69D10703D49A69B5
:1009F00042F001029A6194F84120602A10D020222E
:100A000084F841209A6992060AD59A69D00605D5DC
:100A10001022DA61626C42F0040262642022DA6120
:100A200000218FE71A6822F480421A60A5E720228D
:100A300084F8412084F84030236310BD0000FFFF9C
:100A4000B5520008A910000830B40368202282B013
:100A5000DA6190F84120212A90F841204AD0222AD8
:100A600056D05A68324C002522405A60314C4563BA
:100A7000CD06C46205D51022DA61426C42F0040250
:100A8000426490F84120602A2DD09A69910744BFB2
:100A900000229A629A69D20703D49A6942F001024D
:100AA0009A61436C90F84120602A0BD053B990F8BA
:100AB0004120212A0AD090F84120222A06D002B0F3
:100AC00030BC7047416C02B030BC11E7202280F886
:100AD0004120036390F8422080F8403080F8423093
:100AE00002B030BC70474C07CFD55A6AD2B20192DF
:100AF000019ACAE702F028021C68282A14BF6FF086
:100B0000F2026FF04202224011241A600463A8E747
:100B100090F841201C6802F02802282A14BF6FF0C8
:100B2000F4026FF04402224012241A60046398E732
:100B300000E800FE0000FFFF38B590F84030012BC0
:100B400000F085800123CD06044680F8403001D5B1
:100B5000D00659D40D063AD550064DD523681A68EB
:100B600022F040021A60628D92B2002A71D0586859
:100B7000628D92B2FF2AC0F3090078D8618DE26AD3
:100B800089B212F5803F218500F082805FFA81FCF6
:100B9000E26A4FEA0C4C42EA0C020243404D5868AC
:100BA00022F00042284002435A60628D521A92B2EB
:100BB000628594F84120222A1A680CBF42F4004250
:100BC00042F480421A60002084F8400038BD4D068F
:100BD00012D5500610D5638D9BB2002B40D12368EF
:100BE0005A689201EFD4E26A12F5803F34D15A6814
:100BF00042F480425A60E6E78B06E4D59306E2D5DC
:100C00002046FFF721FFDEE7236826481022DA613D
:100C1000616C626B41F004018242616425D022491B
:100C20008A4222D021498A4214BF202260221968B8
:100C30000A431A609A69910744BF00229A629A692E
:100C4000D207C0D49A6942F001029A61BBE7022040
:100C500038BD5B689A0103D42046FFF78FFDB2E7E9
:100C600040212046FFF744FEADE76022DFE79A69A6
:100C7000D10306D5012121854FF4803C4FF08072CD
:100C800089E7FF2121854FF47F0C4FF0807282E7C6
:100C90005FFA81FC4FEA0C4C4FF000727BE700BF1B
:100CA000009C00FC390B0008ED530008B10C000853
:100CB00038B590F84030012B00F0D680012380F841
:100CC0004030CB06044602D5D00600F1A9808B0740
:100CD0000BD5900709D52268216D91624FF0FF3343
:100CE0002365002084F8400038BD0B063AD5550630
:100CF00040F18C8094F84120236802F028021968A2
:100D0000282A14BF6FF0F2026FF042020A401A6004
:100D10001A6842F090021A60628D92B2002A00F0C6
:100D2000B880628D92B2FF2A40F2A2809869654D28
:100D3000E16C5A68C0F3004000280CBF4FF47F00FC
:100D40004FF4803002EA0502C1F3090142EA0002D1
:100D500042EA010242F080720CBFFF21012121858D
:100D60005A6040E04B0651D550064FD594F84110DB
:100D7000236855481A6801F02801282914BF6FF02C
:100D8000F2016FF042010A401A601A684F4942F0BE
:100D900090021A6094F841C0628D92B2BCF1220FA9
:100DA00008BF0846FF2A79D99A69C2F30042002A8F
:100DB000E26CC2F309020CBF4FF47F054FF480359B
:100DC00042EA000242EA05025868414D22F0004220
:100DD00000EA050042EA00020CBFFF21012142F0B7
:100DE000807221855A60628D521A92B2628594F89F
:100DF0004120222A1A684FF000000CBF42F4004242
:100E000042F480421A6084F840006DE788067FF55E
:100E100068AF93067FF565AF2046FFF715FE60E7E4
:100E200023682C481022DA61616C626B41F0040186
:100E3000824261641AD028498A4217D027498A42DF
:100E400014BF2022602219680A431A609A69910728
:100E500044BF00229A629A69D2073FF542AF9A696D
:100E600042F001029A613CE7022038BD6022EAE7C5
:100E7000618D144DE26C586889B22840C2F30902B2
:100E8000CDB242EA0542024342F0007221855A6027
:100E9000A9E740212046FFF72BFD22E7618DE26C98
:100EA00089B2CDB2C2F3090242EA05420243084DBB
:100EB0005868218522F000422840024342F0007227
:100EC0005A6090E7009C00FC002000800024008015
:100ED000009800FC390B0008ED530008B10C000825
:100EE00070B5036804460D461968C06A94F841203D
:100EF0002026213ADE61092A0ED8DFE802F06E05CD
:100F00000D0D0D0D0DA16E0594F841201A6822F00B
:100F1000FC021A60222222635A68614E42F40042A7
:100F20005A605A6832405A609A69920744BF002258
:100F30009A629A69D60703D49A6942F001029A61CB
:100F40004A0435D51A6822F480421A60A26B1AB19D
:100F50001268526892B262856A070AD55A6A636A51
:100F60001A70636A01336362238D25F00405002B38
:100F70005FD1638D9BB21BB1636C43F00403636468
:100F8000EB0601D5CE0631D4002384F84230666CDE
:100F90006363002E5FD1E36A424DAB4212D194F8F5
:100FA000413084F84060202384F84130266370BDCE
:100FB0000E04D1D51A6822F400421A60E26B002AAE
:100FC000C6D1C9E72046FFF715FC2023E56284F867
:100FD000406084F84130266370BD94F841201A685F
:100FE00022F0FA021A602122226395E7638D9BB2F8
:100FF000002B3DD194F84130282B48D094F8412063
:101000002368292A4FF01002DA61BDD110F5803F24
:10101000BAD09A69910744BF00229A629A69D207AE
:1010200003D49A6942F001029A612046FFF7E2FB7D
:10103000AAE7013B2385638D013B9BB2638598E75B
:1010400094F8412094F841201A6822F0FE021A60B8
:101050000022226360E7616C2046FFF749FC94F8A8
:101060004130282BA3D129462046BDE870400BE42F
:1010700023681022DA61636C43F00403636430F088
:10108000807381D1616C2046FFF732FC7CE7B0F1C0
:10109000007FB3D129462046FFF7F6FB74E700BF77
:1010A00000E800FE0000FFFF836A9A6B0AB100218E
:1010B0009163DA6B0AB10021916393F84120602AB1
:1010C00009BF00220022202183F841101A63002268
:1010D00083F84020704700BF264A9368D26813F017
:1010E0000C0305D00C2B32D0042B3ED12248704784
:1010F000204A1168090754BFD2F8942012681F498A
:1011000054BFC2F30322C2F3031251F82200002B92
:10111000EDD0184BDB6803F00303022B23D0184AF1
:10112000032B08BF1046134BD968DA68DB68C3F39A
:101130004163C2F30622C1F30211013300FB02F244
:1011400001315B00B2FBF1F2B2FBF3F0704702F049
:101150000302012ACCD0074BDB6803F00303022B08
:101160004FF00000DBD10448DDE7082B044818BF2E
:1011700000207047001002400024F40058C9000805
:1011800000127A0021498B6DDB0082B01CD5204B08
:101190001B6803F4C063B3F5007F29D080282ED8E4
:1011A00031D0A0F17002B2FA82F2520919490B68EB
:1011B00023F0070313430B60086800F00700801A50
:1011C00018BF012002B070478B6D114A43F0805365
:1011D0008B658B6D03F080530193019B13688A6DBF
:1011E00003F4C06322F08052B3F5007F8A65D5D145
:1011F000802806D9A0288CBF02220122D6E703222C
:10120000D4E70022D2E70222D0E700BF001002405C
:101210000070004000200240434A036830B4D468A4
:10122000A40707D0D46804F003049C424AD00120EC
:1012300030BC7047022B56D0032B4DD0012BF6D17A
:1012400012689207F3D5384CE26822F07302134318
:101250004268013A43EA0213E360334C334A23689D
:1012600023F080632360D2F88C5004E0D2F88C30F5
:101270005B1B022B3BD823681B01F7D483681B023E
:10128000002936D12169C56821F0784121F4FE4159
:1012900043EAC5630B43236123490B6843F0806332
:1012A0000B60D2F88C4004E0D2F88C301B1B022B70
:1012B0001DD80B681B01F7D582690B691343002009
:1012C0000B61B5E7002CB2D0D3684268C3F30213B8
:1012D00001339342ABD1C0E71468A403B3D41268BE
:1012E0005203A4D5AFE712685505A0D5ABE703209C
:1012F0009EE7012921690BD021F0C06121F4FE4154
:10130000194343695B08013B41EA43612161C3E73B
:1013100021F4C00121F4FE410B4301694908013960
:1013200043EA41532361B7E70010024088000020E0
:10133000F0B504680546200583B000F1F68000266C
:10134000A10351D5A54B9A6DD20040F1F88000273A
:10135000A349A44A0B6843F480730B60D2F88C0055
:1013600005E0D2F88C301B1A022B00F201810B68C9
:10137000DB05F6D5AEBB9949A86DD1F8903013F4D2
:10138000407326D0834224D0D1F890C0D1F8903059
:1013900043F48033C1F89030D1F8903023F4803397
:1013A000C1F890301CF0010F2CF44073C1F890305C
:1013B0000FD0D2F88CE041F2883C06E0D2F88C30B5
:1013C000A3EB0E03634500F2D380D1F890309B0766
:1013D000F4D5824AD2F8903023F440730343C2F824
:1013E0009030002F40F0C880E10708D57B4A296A79
:1013F000D2F8883023F003030B43C2F88830A207E9
:1014000008D5764A696AD2F8883023F00C030B437A
:10141000C2F88830630708D5704AA96AD2F88830C4
:1014200023F030030B43C2F88830A70608D56B4A77
:10143000E96AD2F8883023F440630B43C2F888305D
:10144000A00508D5654AE96BD2F8883023F440231B
:101450000B43C2F88830610508D5604A296CD2F880
:10146000883023F440130B43C2F88830620608D555
:101470005A4A296BD2F8883023F440530B43C2F800
:101480008830230608D5554A696BD2F8883023F492
:1014900040430B43C2F88830E70508D54F4AA96B93
:1014A000D2F8883023F440330B43C2F8883020034D
:1014B0000ED54A4AA96CD2F8883023F040630B431A
:1014C000B1F1006FC2F888305CD0B1F1806F74D098
:1014D00061030ED5414AE96CD2F8883023F04063AD
:1014E0000B43B1F1006FC2F8883050D0B1F1806F7A
:1014F0006BD062040BD539492A6DD1F8883023F0BE
:1015000040531343B2F1805FC1F888304DD02304BB
:1015100008D5324A696DD2F8883023F080430B43F6
:10152000C2F88830304603B0F0BD6F6CB7F5000FDD
:1015300010D0B7F5400F12D077B3012600E79A6DAF
:1015400042F080529A659B6D03F080530193019B9A
:101550000127FDE6214AD36843F48033D3601F4A54
:10156000D2F8883023F440033B43C2F88830E6E6E3
:101570000326002F3FF438AF184A936D23F08053B1
:10158000936531E7D36843F48013D360A0E7D36851
:1015900043F48013D360ACE73946281DFFF73CFEC7
:1015A000064600287FF4CCAED9E70221281DFFF7BC
:1015B00033FE002818BF0646A9E70121281DFFF7C2
:1015C0002BFE002818BF064682E70121281DFFF7E1
:1015D00023FE002818BF06468BE700BF001002401C
:1015E0000070004088000020704700BF704700BFB7
:1015F000836A19684A6822F003024A601A6E4FF043
:10160000010C42F010021A6683F85DC0704700BFFB
:10161000026852E8003F23F4907342E80031002949
:10162000F7D102F1080353E8003F23F0010302F170
:10163000080C4CE800310029F3D1036E012B06D0D1
:1016400000232022C0F8802083660366704752E89A
:10165000003F23F0100342E800310029F0D052E8A7
:10166000003F23F0100342E800310029EFD1E7E703
:1016700070B50568EC6931EA040405D05E1C06D13A
:10168000EB6931EA0303FBD10023184670BD164C09
:10169000D4F88C40A41AA34218D3BBB12C686407B9
:1016A000E8D58029E6D04029E4D0EC6914F008049C
:1016B0000ED1EE693605DDD54FF400632B62FFF7DE
:1016C000A7FF2023C0F8843080F878400323DCE7AC
:1016D00008242C62FFF79CFF00220123C0F88440FD
:1016E00080F87820D1E700BF880000200368806A76
:1016F0001A6812F0200228D10368A0F85A2053E893
:10170000002F22F4807243E800210029F7D103F171
:10171000080252E8002F22F0010203F1080C4CE805
:1017200000210029F3D103F1080252E8002F22F032
:10173000400203F1080C4CE800210029F3D12022DB
:10174000C0F88020026E012A03D000234366036E96
:10175000704753E8002F22F0100243E800210029CF
:10176000F3D053E8002F22F0100243E800210029B3
:10177000EFD1EAE7836A01225A661B6E704700BF09
:10178000806A0368C16F10B5D0F880409A6812066D
:1017900001D521290BD09B685B0601D5222C1DD0D9
:1017A000D0F8843043F01003C0F8843010BD00221C
:1017B000A0F8522053E8002F22F0C00243E8002195
:1017C000026839B152E8003F23F0C00342E800311B
:1017D0000029F7D12023C3671346DCE70023A0F8D4
:1017E0005A30FFF715FFD0F8843043F01003C0F8EB
:1017F000843010BD836A0022A3F85A20A3F8522037
:10180000704700BFD0F88010B0F85C300268222921
:1018100005D0138B9BB243F0080313837047918C60
:10182000426D0B401370B0F85A30426D013B9BB2D1
:10183000A0F85A30B0F85A3001329BB24265002B02
:1018400045D110B4036853E8002F22F4907243E8A6
:1018500000210029F7D103F1080252E8002F22F0FD
:10186000010203F1080444E800210029F3D1184AD9
:10187000816620249342C0F88040416612D05A68A5
:1018800011020FD553E8002F22F0806243E80021B7
:1018900041B1016851E8002F22F0806241E8002444
:1018A000002CF7D1026E012A0ED10022026653E805
:1018B000002F22F0100243E800210029F7D1DA6955
:1018C000D20601D510221A625DF8044B70477047AA
:1018D00000800040D0F88010B0F85C300268222907
:1018E00005D0138B9BB243F008031383704710B4E9
:1018F000948C416D234021F8023BB0F85A30416589
:10190000013B9BB2A0F85A30B0F85A309BB2002B82
:1019100040D152E8003F23F4907342E8003100299F
:10192000F7D1016801F1080353E8003F23F00103F8
:1019300001F1080C4CE80034002CF3D12023C0F84E
:101940008030164B84669942446611D04B681C0265
:101950000ED551E8003F23F0806341E800343CB1EC
:1019600052E8003F23F0806342E80034002CF7D1B6
:10197000036E012B0ED10023036651E8003F23F0D4
:10198000100341E80032002AF7D1CB69DB0601D50C
:1019900010230B625DF8044B704700BF00800040CD
:1019A00008B518B1074B02689A4208D0064B074A9F
:1019B000D3F8A030064900209847002008BD012038
:1019C00008BD00BF0FB0371388000020740801085D
:1019D0008C080108B1F804C093680A899A80BCF1A8
:1019E000000C18BF4FF0010CCA7983F800C091F8C1
:1019F00006C083F801C09A709860704708B518B1A6
:101A0000074B02689A4208D0064B074AD3F8A03029
:101A1000064900209847002008BD012008BD00BFEE
:101A20000EB037138800002094080108AC080108A4
:101A30002DE9F041184F1D46D7F8A43013B1BDE889
:101A4000F0411847D7F89C304FEA4208002AF6D0F8
:101A50008F1EA8F1020406468E460C443A4632F820
:101A600002CF9CFA9CFCA242A2F800C0F7D14246E9
:101A70007146304698470DB9BDE8F08137F8023F0E
:101A80005BBAA7423B80F7D037F8023F5BBAA74268
:101A90003B80F3D1F0E700BF8800002018B1024B73
:101AA000D3F89830184770478800002010B520B14F
:101AB0000C4B02689A42044608D00B4B0B4AD3F8F1
:101AC000A0300B49BDE8104000201847406818B10D
:101AD000C368984700236360002323602046BDE865
:101AE0001040DBE70DB0371388000020B408010870
:101AF000D008010810B50446FFF780FF00B910BDFB
:101B000020690023236008B1FFF7C8FF2046BDE825
:101B10001040C3E703460068D3F8E8104268C3F8F2
:101B2000F0101047704700BF2DE9F047D0F8008053
:101B30000546B8F1000F22D0D8F8987037B3144E8C
:101B400007F148044FF00009583754F8040F20B14A
:101B5000D6F898309847C4F80090A742F5D1D8F845
:101B60009800D6F8983000B19847D6F8983040469B
:101B70009847D6F898302846BDE8F0471847044EF5
:101B80002846D6F89830BDE8F0471847004EECE7F5
:101B900088000020F8B50688002A1C460CBF4FF4C8
:101BA00000534FF48053B6F59C6F05460F460BD398
:101BB000B34238D21D4B1E4AD3F8A0301D49002035
:101BC00098474FF0000C03E04FF49C664FF0010C77
:101BD00019491A4AC4E9011202F11912E26002F12C
:101BE000191222612346002251366280760051226A
:101BF000A28223F8166B29686A68A868EE68C4F8A0
:101C000016105A609860DE602969A8696A6998614F
:101C1000196197E803005A61AA8B9A83343484E8E7
:101C200003006046F8BD4FF0010CD1E788000020AA
:101C3000DC080108FC0801080100020003001B0089
:101C400000B583B041F4A041012394464FEA124EFF
:101C5000ADF80010ADF80230042200236946ADF85B
:101C600004E0ADF806C0FFF7E3FE03B05DF804FB47
:101C700010B50F4C8C461146B4F8902003F1020EBB
:101C8000B2EB4E0F07D2D4F8A0300A4A0A49BDE899
:101C9000104000201847013B4CF4A04C4B802EF024
:101CA0000042A1F800C0BDE810400023C0E600BF1C
:101CB00088000020100901083009010810B582B021
:101CC0000021ADF8041043F21C04012303226946ED
:101CD0000094FFF7ADFEBDF80400C0F3C02002B0D1
:101CE00010BD00BF30B583B0002201230C46ADF813
:101CF000042043F23705032269460095FFF798FE5A
:101D0000012CBDF8043009D0022C0CBF8022C02267
:101D10001A4214BF0120002003B030BD4022F7E773
:101D2000F0B583B043F21C02009201230E4600245A
:101D3000032269460746ADF80440FFF779FEBDF877
:101D4000043013F4006517D141F21B042B46694699
:101D500038460222009446F40066FFF769FE3846D2
:101D60002B4669460222ADF80040ADF80260FFF74D
:101D70005FFE012003B0F0BD054B064AD3F8A0502A
:101D8000054920463B46A847204603B0F0BD00BFAA
:101D9000880000204409010874090108F0B50129F0
:101DA00083B00546144622D002290AD01C4B1D4A96
:101DB000D3F8A0401C4903460020A047002003B0F0
:101DC000F0BD43F2460384270026ADF800302846D4
:101DD000012303226946ADF80260ADF80460FFF705
:101DE00027FEBDF8040030B16CB90120E7E743F2EB
:101DF00045038327E8E70A4B0C4AD3F8A0400A4979
:101E00002B46A047DAE747F4805733466946284611
:101E10000222ADF80070ADF80260FFF709FEE4E7BA
:101E2000880000208C09010874090108A80901082C
:101E3000F0B5012985B00646154633D0022925D1D3
:101E400043F2320301240027ADF8083003220123B6
:101E500002A93046ADF80A70ADF80C70FFF7E8FD46
:101E6000BDF80C306B8003F00702012A2A802AD0CB
:101E700013F006001AD11849184AD1F8A0401849A1
:101E80000096A0470024204605B0F0BD124B154A2D
:101E9000D3F8A040124903460020A0474FF4405316
:101EA0000024D0E743F233030C46CCE7023A012A80
:101EB000E9D9094A0096D2F8A04009490A4A3846A9
:101EC000A0472F80DEE70449084AD1F8A040044922
:101ED00000963846A047D5E788000020DC090108B5
:101EE000740901088C090108400A01080C0A01085C
:101EF00010B582B001AA01210446FFF799FF002224
:101F000001212046FFF74AFFBDF80430022B09D01B
:101F10000649074AD1F8A04006490020A047002002
:101F200002B010BD012002B010BD00BF880000202B
:101F3000740A0108BC0A010810B582B00021ADF88E
:101F4000041043F231040123032269460094FFF791
:101F50006FFDBDF804004AF6C043C01AB0FA80F025
:101F6000400902B010BD00BF10B50C4C94F8A81089
:101F7000012982B010D90A49D4F8A04012F4006FA8
:101F80000346084818BF0846C2F30A01CDE900011C
:101F9000054A06490220A04702B010BD8800002073
:101FA000DC0A0108E40A0108EC0A0108000B010838
:101FB00010B50A4C94F8A8C0BCF1010F82B00BD93F
:101FC0002C3989B203461046D4F8A040044ACDE922
:101FD000001004490220A04702B010BD8800002074
:101FE000140B0108000B010830B5094991F8A8400D
:101FF000012C83B009D902F00F04D1F8A050054A92
:102000000549009403460220A84703B030BD00BF35
:10201000880000203C0B0108000B010810B50A4C99
:1020200094F8A8C0BCF1010F82B00BD97D3989B2F8
:1020300003461046D4F8A040044ACDE900100449F4
:102040000220A04702B010BD880000205C0B0108F0
:10205000000B010810B5A1F1620C144C1CF0010F2B
:10206000034694F8A8E084B01FFA8CF00ED1BEF1BC
:10207000010F09D94008D4F8A0400292CDE900012F
:102080000B4A0C490220A04704B010BDBEF1010F5D
:10209000FAD94008D4F8A0400292CDE90001064ADE
:1020A00004490220A04704B010BD00BF88000020F2
:1020B0008C0B0108000B0108C40B010810B50B4C78
:1020C00094F8A8C0BCF1010F84B00CD90346A1F567
:1020D0008C7080B2D4F8A0400090CDE901120220AB
:1020E000034A0449A04704B010BD00BF8800002087
:1020F000FC0B0108000B01082DE9F04F1F4EDFF823
:1021000088B0804615460FCE91B002AC0FC40FCEFA
:102110000FC40FCE0FC49BF8A8C096E80300BCF113
:10212000010F84E8030007D9DBF8A040144A1549E1
:10213000009543460220A047DFF850A0DFF8449006
:1021400002AC10AE02E00834B44213D0A3881D42A2
:10215000F9D09BF8A820012A4346524649464FF041
:102160000200F0D927680097DBF8A0700834B84760
:10217000B442EBD111B0BDE8F08F00BF88C90008B0
:10218000240C0108000B010888000020400C010805
:102190002DE9F04782B0BDF828400B9F03EBC40542
:1021A0006B88002B45D06E68844601EB0208043E24
:1021B0004FF0000E56F8044F620092B28A4234D3B8
:1021C000424532DAC4F30170012818D002283CD00D
:1021D00098BB521A93B2C4F34459012202FA09F28D
:1021E00097424BD33449013AD1F8A0400192334988
:1021F000334A0097A047002002B0BDE8F087521A8A
:1022000092B20CEB42093CF81200B9F8023043EAF2
:10221000004323F00F0317B1C4F303442343180C06
:102220002CF81200A9F802306B880EF1010E7345EC
:10223000C0D8012002B0BDE8F0871F4B214AD3F877
:10224000A0301E4900209847D5E7521A92B20CEBF5
:1022500042003CF81290438843EA094323F00F03FD
:1022600017B9C4F3034423431C0C2CF812404380D9
:102270006B880EF1010E73459CD8DAE7C4F3044A6B
:102280000CEB43043CF813006288C9F1200942EAD0
:1022900000424FF0FF3020FA09F000FA0AF022EA7B
:1022A000000207FA0AFA42EA0A02100C2CF813009C
:1022B00062806B88B9E700BF880000208C0C0108A1
:1022C000540C0108980C010810B50F4C82B0D4F8DA
:1022D000A430ADF8062041F48051ADF8041023B1CC
:1022E000022201A9984702B010BD52BAADF80620EB
:1022F00049BA0422ADF80410D4F89C300DEB020169
:10230000984702B010BD00BF880000202DE9F04FB3
:10231000A5B00446FFF772FB10B925B0BDE8F08FF9
:10232000364AA56892F8A830012B05D9D2F8A0301A
:102330003349344A022098473349DFF8D490DFF814
:10234000C080782206A809F04FFB0122D52128463B
:10235000FFF7BAFF0DF1180BBBF80440BBF80620DD
:102360002244944237DA4FF0000A039206E03246E4
:102370009847039B0134A4B29C422CDA44F44056A3
:10238000012304A928460322ADF81060ADF812A07D
:10239000ADF814A0FFF74CFBDBF80830BDF8146073
:1023A00021462846002BE2D1144B93F8A820012A9D
:1023B0002B464A4641464FF00200DAD9DBF800705E
:1023C000CDE900760D4ED6F8A060B0470134039BEE
:1023D000A4B29C42D2DB0BF10C0B24AB5B45BBD10E
:1023E000064A92F8A830012B97D9D2F8A0300449B8
:1023F000064A022025B0BDE8F04F184788000020AB
:10240000000B0108BC0C0108C0C900080C0D010834
:10241000F80C01082DE9F04383B01D4643F4405306
:102420004FF00008BDF82840ADF800308946164648
:1024300069460123032245F480550746ADF8028022
:10244000ADF80480FFF7F4FAADF80050BDF9045080
:1024500004FA09F46C4004EA060255404346694612
:1024600038460222ADF80250FFF7E2FA03B0BDE8A9
:10247000F08300BFF0B583B020B1244B02689A42CC
:10248000044609D0224B234AD3F8A0302249002029
:102490009847002003B0F0BD866803220027009211
:1024A000304640F249130021FFF7B4FF01253046C2
:1024B00040F24913009704220221FFF7ABFF304698
:1024C00040F24913009510220421FFF7A3FF304684
:1024D00040F24913009520220521FFF79BFFFF23BF
:1024E0000093304640F249134FF47F520621FFF724
:1024F00091FF304640F24B1300952A463946FFF7CC
:1025000089FF2846277303B0F0BD00BF0EB0371314
:102510008800002094080108AC08010830B583B099
:102520000025294600957B23FF220446FFF772FF12
:102530000121009120468B230222FFF76BFF8B23A2
:102540008022009507212046FFF764FF03B030BDCD
:1025500070B582B043F2370200230092ADF8043028
:102560000322012369460546FFF762FABDF80430ED
:1025700013F0C00F1AD143F21C0201230092002471
:10258000694603222846ADF80440FFF751FABDF82A
:1025900004301B0517D50F4B0F4AD3F8A0600F4925
:1025A00020462B46B047204602B070BD094B93F839
:1025B000A820002ADFD0D3F8A040094A07492B46BB
:1025C0000120A047D7E72846FFF7A8FF012002B067
:1025D00070BD00BF88000020740D01087409010857
:1025E000480D010870B584B003220446002500920E
:1025F00040F249130E460021FFF70CFF40F2491349
:102600000422022120460095FFF704FF40F24913FF
:102610001022042120460095FFF7FCFE40F24913EA
:102620002022052120460095FFF7F4FE40F24913D1
:102630004FF47F52009506212046FFF7EBFE0EB9BE
:1026400004B070BD044E03962B46022203A9204617
:10265000FFF7EEF904B070BD3110C0AC002870B4C3
:1026600046DB0029034639DB88420A464BDA00255F
:10267000012429461B04B3FBF2F343F6284293429C
:102680005AD946F2D632934261D948F67202934241
:102690005FD94AF6494293425DD94DF2A302934273
:1026A0005BD94FF24B72934298BF052045D94FF248
:1026B0004C7648F233224CF2A3409B1B02FB03F3FF
:1026C00000EB134014B1C0F5C9301F3015B1C0F58F
:1026D00049303F30C1B1404270BC7047494209B2F5
:1026E000884217DA002501240A4603462146C1E73D
:1026F000404202B20029104614DB91420B4605DD30
:1027000099BB1D4800E050BB70BC704700240125F8
:102710002146AFE70028DED000250B4602462C46B6
:102720000121A7E7494209B28A424FF00105DADBED
:102730000B46002429469DE70020104A02EBC00604
:1027400002EB8002D6E93860D2F81821B5E7012003
:10275000F3E70220F1E70320EFE70420EDE700258F
:102760000B4602462C46294684E701251A462C468C
:10277000034600217EE700BF2092010058C90008EF
:102780002DE9F0470646804602EB42008CB0154624
:1027900006EB8000002289460DF10C0A014617461F
:1027A0004FEA870E54469FED767AB31A75B103EB64
:1027B000020CF444DCED007A9C46DCED006A0C333C
:1027C00067EEA67A8B4237EE277AF0D10EF1040E2F
:1027D000BEF10C0FA4EC017AE5D10137032F0AF109
:1027E000100AA2F1040201F10401D9D19DED045AAD
:1027F000DDED055ADDED086A6A4606F10C01DFEDF4
:10280000607A43463DB11C4694ED007A0C33834216
:1028100077EE877AF7D108F104088845E2EC017A6F
:1028200000F10400EBD19DED037AF0EEC77AF4EEEF
:10283000677AF1EE10FA12D69FED526AF4EE467AFC
:10284000F1EE10FA0BDC9FED506AF4EEC67AF1EE71
:1028500010FA04DAB5EE407AF1EE10FA7DD0F7EE18
:10286000007A87EE872A9DED073A9DED0B7A65EE9B
:10287000023A25EE824A65EE237A65EEA34A33EEEC
:10288000673A25EE846AF0EEC32A65EE047AF4EE28
:10289000622AF1EE10FA76EEE44A76EEE77A37EE47
:1028A000466A06D69FED377AF4EE472AF1EE10FA23
:1028B00047DDB7EE007AC7EE032ADDED006A9DED35
:1028C000017A9DED023A63EEA63A67EEA27A37EE00
:1028D000637A64EEA73A67EE877A36EE636A24EE8F
:1028E000264AF0EEC63A73EE677AF4EE633AF1EEFA
:1028F00010FA77EEC47A06D69FED224AF4EE443AF7
:10290000F1EE10FA2FDD87EE864A0120002364EEF7
:10291000844A65EE845A77EE647A89ED024A67EE5E
:10292000A27A25EE275AC9ED017A76EEC57A77EEBE
:10293000E57A67EE827AC9ED007A33600CB0BDE8C3
:10294000F0879FED117AF4EEC72AF1EE10FAB0DAB3
:10295000B5EE403AF1EE10FAABD10020002333601F
:102960000CB0BDE8F0879FED084AF4EEC43AF1EEF2
:1029700010FAC8DAB5EE406AF1EE10FAEDD0C2E70F
:1029800000000000FFFF7F7F000080002DE9F0477E
:10299000C36D8769056900247C8081461C7000F145
:1029A0004806A04656F8043FFBB1B3F838C0B3F868
:1029B0009400B3F89610B3F8DC2005EB400005EB6B
:1029C000410105EB420205EB4C0CC3E91301C3F8CE
:1029D000A820C3F814C03C701868D3F8E020416800
:1029E00083F8E880C3F8E42088470134E4B2042C7B
:1029F000D8D1D9F80000BDE8F0474368184700BFB8
:102A00000068C368184700BF70B50446806980B18C
:102A1000E3694BB1104B93F8A8202AB1D3F8A0304A
:102A20000E4A0F49012098472068BDE8704083682E
:102A30001847094D0B4AD5F8A03009499847E36972
:102A400043B195F8A8302BB1D5F8A030034A04491A
:102A500001209847002070BD88000020A40D0108C7
:102A6000B40D0108C40D010830B40269B0F8423059
:102A700090F8381032F81330032908BF83F400436C
:102A800040F2E51101FB03F31B0C816C8446A3F5B6
:102A900089700880BCF83C10DCF84C0032F811104A
:102AA00039B1BCF8401032F81110012994BF00214F
:102AB00001210170BCF83E00BCF83A10DCF850501F
:102AC00032F8111032F81020DCF8544040F2E510D2
:102AD00000FB02F2A3EB12431BB2002BBCF9442013
:102AE000DCF80000B8BF5B421BB29A42A1F10102C0
:102AF000B2FA82F2ACBF0023012352092A7023707C
:102B000030BC4368184700BF0068C368184700BF5F
:102B100000688368184700BFD0E90F23816B006904
:102B2000184700BF836910B50446CBB10E4B93F82C
:102B3000A82052B963698BB10B4B0C4AD3F8A03073
:102B40000B4900209847002010BDD3F8A030094A57
:102B50000749012098476369002BEDD1012010BD82
:102B6000C369002BE2D1E5E788000020180E0108B8
:102B7000FC0D0108E00D01082DE9F04F9B461B6894
:102B8000C2F51E66B34294BF9EB2B6B288467408C0
:102B90004FEA520183B017464FEA81010CD0144B23
:102BA00008EB84041944434651F8042B5A80120C54
:102BB0001A800433A342F7D10E4C851E04F1E20AB9
:102BC00004F1E40914F8013B35F8022F3946CDE948
:102BD000003240464B463246FFF7DAFAA24501D0B2
:102BE0000028EFD1CBF8006003B0BDE8F08F00BF44
:102BF000E8F300088CCA00080068C368184700BFE3
:102C000000688368184700BFF0B482B02F4E056893
:102C100000238DF80330D6F88C30D6F88C70C3F1D1
:102C200064031A442A4B1B6803EB8303C3EBC303FF
:102C30001B0D02FB03F30193AB6819420AD135E087
:102C4000019C019B013B0193AB68002C08BF002253
:102C500019422BD0B1F5C06F05D12B7BDBB28DF8BB
:102C600003309DF80330D6F88C30DB1B9342E7D35A
:102C70006B68426823F0E003B2F5827F6B6019D085
:102C8000836AB3F5005F07D12B6823F400532B60F0
:102C90002B6843F400532B600122002380F85D2051
:102CA00080F85C30032002B0F0BC7047002002B016
:102CB000F0BC70478368B3F5004F02D0B3F5806F66
:102CC000DED12B6823F040032B60D9E78800002079
:102CD0000000002070B4294D294BD5F88C201B68CA
:102CE0000468D5F88C60C2F16402114483B0C3F368
:102CF000CB3301FB03F30193A3681A062DD509E03A
:102D0000019A019B013B0193A368002A08BF00219F
:102D10001B0622D5D5F88C309B1B8B42F0D3636801
:102D2000426823F0E003B2F5827F636019D0836AC2
:102D3000B3F5005F07D1236823F4005323602368B1
:102D400043F4005323600122002380F85D2080F8C3
:102D50005C30032003B070BC7047002003B070BC2F
:102D600070478368B3F5004F02D0B3F5806FDED1B2
:102D7000236823F040032360D9E700BF88000020C8
:102D80000000002038B52A4A0368D2F88C501B682E
:102D90009B061BD4846A2368A2685868616820F087
:102DA000200058609AB15868B1F5827F20F0010088
:102DB000586022D029462046FFF78CFFB0B9012386
:102DC0000022A4F8462084F85D30236E38BD5A688E
:102DD000B1F5827F0CBF22F0030222F001025A609B
:102DE00029462046FFF776FF0028E8D0236E43F0FF
:102DF0002003236620232366E1E7B2F5004F12D1BA
:102E00001A6822F0400229461A602046FFF762FF46
:102E10000028EBD12A464FF4C0612046FFF7F4FEAC
:102E20000028CCD0E2E7B2F5806FE9D0C2E700BF5E
:102E300088000020F8B51C4D0368D5F88C701B681D
:102E4000846A9B062CD42668736823F02003736081
:102E50003A464FF4C0512046FFF7D6FE58B93946DE
:102E60002046FFF737FF30B93A464FF4C06120469D
:102E7000FFF7CAFE38B1236E43F020032366236EAA
:102E800043F020032366736823F00303736000227A
:102E90000123E287A4F8462084F85D30236E13B93D
:102EA000012385F82430F8BD8800002030B4124D8D
:102EB000124C00F1BC0C002143680B44024640F860
:102EC000043F12689A1AAA4209DD50F8042CA3F5AF
:102ED000C9237E3BA1F5C92103607E399A1AA2421B
:102EE00006DA03F5C92301F5C9217E3303607E317B
:102EF0008445E1D130BC70473F240300C1DBFCFFB7
:102F00002DE9F04FBFB00DF138090D469046019301
:102F100000F1020B3EAFCA46002440F6B73631E05E
:102F200025B335F8141001F01F0E4FEA912C0EF165
:102F3000300E00FB0EF0C1F34411ACF1200C02FB8B
:102F40000CFC002801F1300102FB01F1B8BF3F3059
:102F5000BCF1000FB8BF0CF11F0C8011002900EB71
:102F60006C10B8BF3F3100B241F38F110134182CFF
:102F700008BF0024FFF772FB4AF8040BBA450BF1B7
:102F8000040B0ED0BBF900203BF9020C02FB02FC43
:102F900000FB00CCB4451146C2DC00203FB0BDE8C8
:102FA000F08F0DAC0DF1060109F15C05224652F8D7
:102FB000043F002BB8BF0F3302311B1195420B8029
:102FC000F5D14846FFF772FF002254F8043F216E06
:102FD000A542A3EB01031A44F7D1124B83FB021362
:102FE000D217C2EBA31404F5994330334CF66212A6
:102FF0009342D2D802AE35460FCD4D4508F11008A8
:1030000006F1100648F8100C48F80C1C48F8082C7B
:1030100048F8043CEFD1019B01201C803FB0BDE883
:10302000F08F00BFABAAAA2A2DE9F04F87B04FF06E
:10303000000E164600EB41090290821ECDE90316F0
:10304000A9F1120935464FF0010BF246F4467046DD
:10305000CDF804E005931EE040F2EE218B4240DC07
:10306000634500DD9C464FF0000BBEF1000F0ABF28
:103070004FF0000B70460120CAF100084345019B48
:10308000B8BFA4EB060ABB4238BF3B46914501934B
:1030900005F102052BD0568A32F8024F331B03F597
:1030A0000048B8F5803F2746D6D240F2EE218B4249
:1030B0002B8007DD178868B9634515DD9C464FF006
:1030C000010ED9E7514917889C45B8BF9C468B42F1
:1030D000D2DACAE7634500DD9C4686464FF0000B16
:1030E000CAE74FF0000BE6E74FF0010EC4E71946C0
:1030F000DDE90346059BBBF1000F03D1002007B0BB
:10310000BDE8F08FBEF1000FF8D00028F6D0CDE971
:10311000031C0027A4F11C09B84606F112043D4621
:103120003E46BE46D34634F9021F019601EB810CA0
:1031300001EB4C010A22A246A4463CF9026D02FBB7
:1031400006113AF9026F02FB0611013AF5D1019E10
:10315000A942C4BFF0460D468E42C8BF77460EF165
:10316000010EC8BF0E46F145DDD14CF25034A542E8
:10317000DDE9031CDA46C1DD254CA642BEDABCF10E
:10318000000FBBD0BBF1000FB8D0029C119D24886A
:10319000C900E4004DB18C4205D2ACEB0402013A07
:1031A0000A44B2FBFCF2119D2A60109A002AA6D0B4
:1031B000002BA4D0029A08F10E0532F81520B4EBCA
:1031C000C20F4FEAC20606D2ACEB0404013C344401
:1031D000B4FBFCF42D1B029A0E3732F81720B1EB2A
:1031E000C20F4FEAC20405D94A1E5244121BB2FB59
:1031F000FAF2BF1A55EA070280D4BD423FF77EAF0C
:10320000109A7F1B17601D6079E700BF12FDFFFF5A
:10321000B03CFFFF2DE9F04F204C93469A46851EA7
:103220008A1E04F1E20800264FF41E6704F1E40947
:1032300035F8021F32F8023F994222D0237809EB79
:10324000C303588830B3596847F6FF7E01EB80030B
:10325000002051F804CB1FFA8CFCE64528BFE64657
:10326000604538BF60468B42F3D14FEA4E0E1FFADD
:103270008EFE400080B2774528BF7746864238BF31
:10328000064601344445D3D1ABF80070AAF800607B
:10329000BDE8F08F47F6FF7EE7E700BF8CCA000865
:1032A00012490A68D06810F0400001D00020704731
:1032B0004FF0FF3310B4D360D1F88C40D3685B0675
:1032C00010D4032803D10DE0D368580609D4D1F8EF
:1032D0008C301B1BB3F57A7FF6D9032081F82100CF
:1032E000ECE700205DF8044B704700BF8800002029
:1032F000094A0A4B1168CB60D2F88C0005E0D2F87D
:103300008C301B1AB3F57A7F04D8CB689B06F6D5B0
:103310000020704703207047880000205FFF0300F3
:1033200008B5114BDA6822F08002DA609A689206DA
:1033300003D4FFF7DDFF88B908BD9A6822F02002A8
:103340009A60FFF7D5FF18B1084B032083F82100DE
:10335000054A936843F02003936008BD034B0320A4
:1033600083F8210008BD00BF00280040880000202D
:10337000F0B5634C94F82030012B00F0BE8021683A
:103380000223012284F8202084F821308B6813F076
:10339000400C18BF90F803C003780CBF80F803C03E
:1033A0004FEA8C5C092B09D900220A3BDBB2092BBE
:1033B00002F10102F9D843EA0213DBB21A0443789E
:1033C000092B09D900250A3BDBB2092B05F10105C0
:1033D000F9D843EA0513DBB28678092E4FEA0323B6
:1033E00009D900250A3EF6B2092E05F10105F9D8E2
:1033F00046EA0515EEB290F824E0BEF1090F0DD9AA
:103400000025AEF10A0E5FFA8EFEBEF1090F05F13E
:103410000105F6D84EEA05155FFA85FE4569076A8B
:103420003D4345EA0C052A4313433343456843EAC9
:103430000E62C3691D43836ACA20486253204862F2
:10344000B3F5807F8B6839D023F400738B60CB6831
:10345000DBB263F42073CB60D4F88C0005E0D4F8C1
:103460008C301B1AB3F57A7F1ED8CB689B07F6D534
:103470000A628D648B6843F400738B608B6843F43D
:1034800000538B601F4B1A68002042F4802284F89E
:1034900020001A609A6842F480229A60FF22012379
:1034A0004A6284F82130F0BDFF2203234A6284F887
:1034B0002130002384F820300320F0BD23F48073F2
:1034C0008B60CB68DBB263F4C073CB60D4F88C0044
:1034D00005E0D4F88C301B1AB3F57A7FE4D8CB68BA
:1034E000DE07F6D5CA614D648B6843F480738B6048
:1034F0008B6843F480538B60C4E70220F0BD00BFAB
:1035000088000020000401402B4A034600689042D6
:1035100070B43CD8294A2A492A4C0244A1FB021221
:1035200012099200022183F8251001689D689E69A6
:103530001C6421F4FF4C59695A642CF0700C294327
:1035400041EA0C01314341F08001B5F5804F016043
:1035500014D0596802F01C020F2090409140194A83
:1035600094426FEA00001BD0D2F8A8442040C2F871
:10357000A804D2F8A8040143C2F8A814002001222C
:10358000D86383F8240083F8252070BC70470E4A66
:103590000B490E4C0244A1FB021212099200C1E732
:1035A000D4F8A8200240C4F8A820D4F8A8201143D9
:1035B000C4F8A810E2E700BF07040240F8FFFDBF0F
:1035C000CDCCCCCC00000240F8FBFDBF0004024093
:1035D0002DE9F04F624CE66C85B0002E56D1E36ABF
:1035E000B3F5827F00D0666494F88520A56A002335
:1035F000236502F0FF07002A53D0022384F88530A8
:103600002B68626B23F04003B2F5E06F2B6042D869
:103610004FF4805101D000232365E36A02F4706CFB
:10362000226B03F4827302F404421343A26B02F090
:1036300002021343E26B02F001021343E26D06F053
:10364000100E02F00800D4E9102640EA0E0006F041
:10365000380EA66C40EA0C0006F0800C02F40076EE
:10366000334343EA0E03120C43EA0C0302F0040254
:103670002B6040EA02030B436B6000200123C4F877
:10368000880084F8853005B0BDE8F08F0022002363
:10369000C4E90E23A8E7B2F5706F4FF00001BCD06B
:1036A000B9E7304B84F884709D42A6D103F560439E
:1036B00005211A6E42F480521A661A6E02F4805284
:1036C0000392039ADA6C42F00102DA64DB6C019136
:1036D00003F001030293029B032300934FF09040F9
:1036E0003B460222E02105F0E7FEC4E92D77C4E95C
:1036F00032771D4F1D4B4FF0010B4FF0800A4FF4F6
:1037000080794FF480683846C4E92B3BC4E92FA97F
:10371000C4F8C480FFF7F8FEF8B9154BC4F80C8163
:1037200007F14808C4E94400C4F88070C4F80001F7
:10373000843FC4F8F43040461023C4E941A9C4F8DA
:10374000F8B0C4F8D470C4F8FC30FFF7DDFE20B93F
:10375000C4F87C80C4F81C714FE7FCF719FD00BF6A
:103760008800002000300140340100201C0002408D
:1037700030000240134BDB68C3F30223C3F1070C94
:103780001A1DBCF1040F28BF4FF0040C062A88BF95
:10379000DA1E4FF0FF3303FA0CF398BF002221EA40
:1037A000030393401B01421CDBB206D000F16040D2
:1037B00000F5614080F800337047024A82F82330F8
:1037C000704700BF00ED00E038B5104D104A2B687F
:1037D000A2FB03239B09013BB3F1807F01D30120AE
:1037E00038BD4FF0E0220B495361F02381F82330BC
:1037F000002407230F2894611361F0D801464FF08D
:10380000FF30FFF7B7FF6960204638BD0000002099
:10381000D34D621000ED00E0F0B58D4B02689D685D
:10382000DE680446D00683B005F00C0506F00306FA
:1038300040F13481002D40F0FA80854B1B689907D8
:1038400000F16681824B276A1A68120756BFD3F8C7
:1038500094301B681B0903F0F0039F4200F2E881DB
:103860007B4B1A6842F008021A601A6822F0F002D4
:103870003A431A605A68E16922F47F4242EA01221F
:103880005A60002D00F00B82FDF726FC704B9A6801
:10389000704BC2F3031213446F4A93F8A83903F034
:1038A0001F0320FA03F350681360FFF78DFF002811
:1038B00040F033812268D00700F1F48090071FD5D3
:1038C0000C2D00F0CD81E3686148002B00F084816D
:1038D000036843F480730360604BD3F88C6005E0A9
:1038E000D3F88C10891B022900F24D81016849052B
:1038F000F6D54368216923F0F85343EA0163436036
:10390000160718D563695248002B00F01481D0F8CF
:10391000943043F00103C0F89430504BD3F88C60DE
:1039200005E0D3F88C10891B022900F22C81D0F815
:1039300094108907F5D550073ED5454B996DC900C0
:1039400000F14881996D41F0805199659B6D03F0BC
:1039500080530193019B0120414E3368DF0540F104
:1039600002813E4BA168012900F04781052900F042
:10397000AA81374ED6F8907027F00107C6F89070EC
:10398000D6F8907027F00407C6F89070002940F030
:103990003B81D3F88CC041F2883706E0D3F88C1015
:1039A000A1EB0C01B94200F2EE80D6F89010890725
:1039B000F4D4002840F06D81970618D5636A244935
:1039C000002B00F05181D1F89820244B42F00102E5
:1039D000C1F89820D3F88C0005E0D3F88C20121A97
:1039E000022A00F2D080D1F898209607F5D5A36A74
:1039F000DBB1022B00F075810C2D00F08D80144995
:103A0000164B0A6822F080720A60D3F88C0005E039
:103A1000D3F88C20121A022A00F2B5800A689201AB
:103A2000F6D4CA680F4B1340CB60002075E00C2D14
:103A300000F09580A3690648002B00F0A78001687C
:103A4000064B41F001010160D3F88C7012E000BF19
:103A50000010024058C90008000000208800002023
:103A600000700040FCFFEEFED3F88C10C91B022949
:103A700000F2898001688907F6D5036843F00803DE
:103A800003600368216A23F0F0030B43036043687B
:103A9000E16923F47F4343EA01234360D30722D53E
:103AA000082D3ED00C2D3AD06368B3F5803F7ED010
:103AB000B3F5A02F00F0FA809548016821F4803119
:103AC0000160016821F480210160002B74D1914BC9
:103AD000D3F88C7004E0D3F88C10C91B642952D839
:103AE00001688903F7D497077FF50AAF042D7FF4A7
:103AF000E7AE874B1B68580501D5E36863B184497D
:103B000020694B6823F0F85343EA00634B60F7E603
:103B1000A369002B7FF496AE012003B0F0BD032E05
:103B2000C2D17B4B1B689F037FF5C8AE6368002B37
:103B30007FF4C4AEF0E7D0F8943023F00103C0F86E
:103B40009430744BD3F88C6004E0D3F88C10891B4C
:103B5000022918D8D0F894108F07F6D4EBE6012E7E
:103B60007FF468AF69E6336843F480733360694B70
:103B7000D3F88C703168C9053FF5F4AED3F88C10DA
:103B8000C91B0229F6D9032003B0F0BD0168614BBF
:103B900021F001010160D3F88C7004E0D3F88C109F
:103BA000C91B0229EFD801688907F7D476E758497D
:103BB0000B6843F480330B60564B5548D3F88C7038
:103BC00004E0D3F88C10C91B6429DCD80168890390
:103BD000F7D588E70020BFE6036823F4807303600D
:103BE0004C4BD3F88C6004E0D3F88C10891B02296D
:103BF000C9D801684F05F7D482E6454ED6F8901033
:103C000041F00101C6F89010D3F88CC0404E41F24B
:103C1000883705E0D3F88C10A1EB0C01B942B2D87B
:103C2000D6F890108907F5D500283FF4C5AE30E0EE
:103C30003846FDF7A7FA00287FF46EAF344B1A68B8
:103C400042F008021A601A6822F0F0023A431A6041
:103C50005A68E16922F47F4242EA01225A6013E67F
:103C6000022E7FF430AE44E7D1F89820294B22F0A1
:103C70000102C1F89820D3F88C0005E0D3F88C201D
:103C8000121A022A3FF67FAFD1F898209207F5D496
:103C9000ADE61F498B6D23F080538B658CE638466B
:103CA000FDF770FA00283FF4EFAD35E703F18043EC
:103CB000A3F53C33196841F480211960196841F477
:103CC0008031196078E71249D1F8906046F0040617
:103CD000C1F89060D1F8906046F00106C1F890609C
:103CE00092E70B4AE66AD36803F00301B1424BD076
:103CF0000C2D3FF411AF06490B685F013FF50CAF87
:103D00000A68044B22F080720A60D3F88C0009E044
:103D10000010024088000020D3F88C20121A022ADA
:103D20003FF631AF0A689501F6D4C868354A0240BB
:103D3000606B324342EA0022A06B42EAC062206B11
:103D4000013842EA0012D4E90F506C08013C4008E7
:103D5000013842EA445242EA4062CA600A682A488C
:103D600042F080720A60CA6842F08072CA60D3F87A
:103D70008C1005E0D3F88C20521A022A3FF603AFCC
:103D800002689401F6D550E6216B03F0700001390A
:103D9000B0EB011FACD1606B03F4FE41B1EB002F1F
:103DA000A6D1A06B03F07841B1EBC06FA0D1E16B5D
:103DB0004908013903F4C000B0EB415F98D1216C90
:103DC000490803F0C0630139B3EB416F90D1136828
:103DD00098013FF52AAE11680C4B41F080711160DB
:103DE000D16841F08071D160D3F88C0005E0D3F840
:103DF0008C10091A02293FF6C6AE11688901F6D562
:103E000013E600BF8C809D01001002408800002056
:103E1000514AF8B5136803F007038B420BD21368BD
:103E200023F007030B431360136803F007038B426F
:103E300001D00120F8BD046814F0020E04F0010363
:103E400069D0464E8568B26802F0F002954204D906
:103E5000B26822F0F0022A43B260002B66D04268BA
:103E6000032A5DD03D4B022A1B686BD0002A6ED11D
:103E70009E07DED5394D3A4EAB6823F0030313435A
:103E8000AB60D6F88C70920041F2883C04E0D6F822
:103E90008C30DB1B634558D8AB6803F00C039342AE
:103EA000F5D1BEF1000F40D12B4A136803F0070390
:103EB0008B4209D9136823F007030B43136013687F
:103EC00003F007038B42B4D1620706D5234AC168C9
:103ED000936823F4E0630B439360230707D51F4ADD
:103EE0000169936823F4605343EAC1039360FDF7CB
:103EF000F3F81A491B4A89681B4CC1F303110A44A1
:103F0000034692F8A829606802F01F02D34023609C
:103F1000BDE8F84058E4002BC6D04268032AA1D17E
:103F20000E4B1B689B01A5D483E785680B4A9368F9
:103F300003F0F0039D42B7D2936823F0F0032B43C4
:103F40009360B1E79F0395D473E70320F8BD5D0547
:103F50007FF56FAF8EE700BF0020024000100240E7
:103F60008800002058C90008000000202DE9F04119
:103F7000C16F05689EB00446002947D02423E3673B
:103F80002A68636A22F001022A60002B40F0AD80AB
:103F9000D4E90412A36828680B431343E169A84AD3
:103FA0000B43024013432B606B68E26823F44053D9
:103FB0001343A44A6B609542A369AA6800F0DB80B2
:103FC000206A22F43062034313439F4AAB60954258
:103FD00000F04A819D4B9D4240F00D8103F5E63390
:103FE000D3F8883003F00C030C2B00F26381DFE878
:103FF00013F0D401610161016101110161016101ED
:10400000610171016101610161016A0180F878104B
:104010005C2207A807F0BAF88B4B9D4200F0F081B4
:104020008A4B9D42AAD1022707A80797FDF780F97E
:104030000646002840F01A82854B864D9A6D42F460
:1040400000329A659A6D02F400320492049ADA6C96
:1040500042F00102DA64DB6C03F0010303930722F0
:104060000323CDE90032039903463A464FF09040CE
:104070000F214FF0800805F01FFAC5E95076C5E919
:104080005268C5E95466C5E9566605F59E76724BD9
:10409000C5F83C313046FFF737FA002840F0E6819A
:1040A0006667102305F5C276C5E96408C5E96600B0
:1040B000C5E96800C5F88C313046684BC5F8887191
:1040C000C5F86441C5F88431FFF71EFA014600289F
:1040D00040F0CC8126672620C5F8AC41FFF74AFBAB
:1040E0005F4B40225A60256848E71E0705D56A687D
:1040F000616B22F400420A436A60D80705D56A68FA
:10410000A16A22F400320A436A60990705D56A68F9
:10411000E16A22F480320A436A605A0705D56A6868
:10412000216B22F480220A436A60DF0605D5AA6863
:10413000A16B22F480520A43AA609E0605D5AA68A4
:10414000E16B22F400520A43AA60580609D56A6856
:10415000216C22F480120A43B1F5801F6A6000F0DE
:10416000048119067FF514AF6B68A26C23F4002359
:1041700013436B600CE722F4306213433449AB60A5
:10418000D1F8883003F44063B3F5006F00F0898004
:1041900000F2E580002B00F05981FCF79DFF0646F8
:1041A000002E7FD16A682B49002322F49042C4E993
:1041B0001A336A60AA6822F02A02AA602A6842F0CA
:1041C00001022A60C4F88430D1F88C602B681A0789
:1041D00000F186802B685B0700F19D800023202280
:1041E0001846E26784F87830C4F880202366636656
:1041F0001EB0BDE8F0811B4B9D425BD103F5E4335B
:10420000D3F8883003F03003202B63D059D8002B2B
:1042100000F0C380B1F5004F00F02F81FCF75CFF88
:104220000028BFD0636800EB5300B0FBF3F04FF6FB
:10423000EF73A0F110029A423CD8E860B2E700BFE9
:10424000F369FFEF00800040003801400044004067
:1042500000100240880000206C00024080000240F4
:1042600000E100E00048004002F55842D2F88830F2
:1042700003F00303022B2DD0032B24D0012BC9D034
:10428000864BB1F5004F186800F098809268844B17
:10429000C2F3C222134493F8B83903F01F03D84085
:1042A000BEE7804E626802EB4203B34202D8B6EB2F
:1042B000023F61D90023C4E91A3301201EB0BDE8D2
:1042C000F081302BF6D1B1F5004F00F0D3804FF4E0
:1042D0000040A7E7B1F5004F00F0CA807148A1E7A0
:1042E0006FF07E4332464FF400112046FDF7C0F9CF
:1042F00000283FF46FAF236853E8002F22F08002BC
:1043000043E800210029F7D12023E367002384F844
:1043100078300320D2E76FF07E4332464FF48001BD
:104320002046FDF7A5F900283FF458AF236853E86D
:10433000002F22F4907243E800210029F7D103F105
:10434000080252E8002F22F0010203F1080040E8C1
:1043500000210029F3D12023C4F88030D6E7B3F53B
:10436000406FA7D14FF400469CE76A68616C22F465
:10437000C0020A436A60F4E60023500819464FF46D
:104380008077E6FB070105F0F7F9474BA0F540728F
:104390009A428FD8454BD86004E7B1F5004F6FD0F3
:1043A000434A3F4B92683D49C2F3022213440868D6
:1043B00093F8B83903F01F03D84031E79268384BBF
:1043C000C2F3C222134493F8B83903F01F03D84054
:1043D00000283FF4E7AE4300626803EB5203B3FBEF
:1043E000F2F34FF6EF72A3F1100191423FF662AF84
:1043F00023F00F0292B2C3F342031343EB60D1E602
:10440000012307A80793FCF793FF034670BB284AD4
:10441000116E41F480411166116E01F480410691E4
:104420000699D16C41F00101D164D26C02F0010215
:10443000059207210322CDE90021059802224FF4BD
:10444000C0614FF0904005F037F897E58A68144B4B
:10445000C2F302221344114A93F8B839166803F0E4
:104460001F03DE40002E3FF49DAE1BE7FBF790FEDE
:10447000104BB1E74FF48033AEE7FCF72DFEA7E712
:104480000B4A074B92680549C2F30222134408689D
:1044900093F8B83903F01F03D84099E700000020D3
:1044A00058C900080024F400FFFC0F000080004001
:1044B000001002400048E80170B54A4D95F80D32F1
:1044C000D5F8CC419CB0002B50D0242385F80D3278
:1044D0002268D5F8D03122F0010223F07063226007
:1044E0002361A368D5F8D82123F40043012AA360EF
:1044F000D5F8D43109D043F40443022AA36007D18C
:10450000636843F40063636006E043F40043A36020
:10451000636823F4006363606268D5F8DC3142F0BD
:10452000007242F400426260D5F8E021E168134372
:10453000D5F8E42121F4004143EA0223D5F8E8212B
:10454000E160E360D5F8EC3113432360236843F066
:104550000103236000202023C5F8100285F80D32E6
:10456000C5F8FC0185F80E021CB070BD03F0FF0118
:104570005C2205A885F80C1206F008FE1A4B9C4236
:10458000A3D1802305A80593FCF7D2FE064638BBCD
:10459000164C1748E36C43F00203E364E36C042217
:1045A00003F0020304930192032204990092012371
:1045B00012224FF4406104F07FFFA36D43F48003A7
:1045C000A365A36D03F48003039321203146039B6D
:1045D000FFF7D0F8074B02225A60D5F8CC4174E7B8
:1045E000FBF7D6FD88000020005800400010024074
:1045F0000004004800E100E01049114AD1F88C00A5
:1046000013691B0704D50E4B1869C0F3C00070472F
:10461000D1F88C301B1AB3F57A7FF4D272B61369D5
:104620001B0700D430BF62B6BFF36F8F13691B073F
:10463000EED5034B1869C0F3C00070478800002016
:104640000004004810B5544B93F820200021012AA3
:1046500083F8201200F085801A68CA21022483F8AA
:10466000214001205162532183F82000516291685A
:1046700021F480619160D168C9B261F49061D16028
:10468000D16849066FD51F2151619168434821F0D7
:10469000070141F003019160016841F4801101605C
:1046A000816841F480118160916841F4804191609A
:1046B0009168FF2441F4806101209160546283F885
:1046C000210093F82012002283F8202000295FD1D6
:1046D00072B6BFF34F8FBFF36F8F93F8202202B9EA
:1046E00030BF62B6BFF34F8FBFF36F8F93F82022B6
:1046F000002AEDD093F820200021012A83F820120F
:104700002FD018680224CA2283F821400121426276
:104710005322426283F82010826822F48062826011
:10472000826822F480428260D3F88C4005E0D3F89E
:104730008C10091BB1F57A7F0CD8C26812F0040204
:10474000F5D0FF2401220021446283F8201083F871
:10475000212010BDFF240321446283F8202083F828
:104760002110FBF715FDD3F88C40D16811F004013E
:1047700089D1D3F88C00001BB0F57A7FF5D9FF24DE
:104780000320546283F8201083F82100FBF700FD1A
:1047900083F82022B5E700BF880000200004014014
:1047A000DFF84CC0F8B51D464FF480531746CCF8DF
:1047B000283004460E46FFF745FF17B13846FDF78F
:1047C00099F916B13046FDF771F91CB12046FDF795
:1047D000E7F830B925B12846BDE8F84007F032B90E
:1047E000F8BD002323602046FDF758F9F2E700BF2B
:1047F000000400480CB4F0B5ADB032AB06AE53F8CF
:10480000042B059304460D463046962107F0B0F977
:104810009528C4BF1C4BCDF8AA301C4B1C49D3F8BB
:104820008C70A1FB07311B4BA3FB0723980B1A4B82
:10483000A3FB07234FEA931C184B4FF47A7202FB39
:104840001C77A3FB00E25209042CC2EB0212A0EB7E
:104850008202A3FB0CE398BF114800974FEA531361
:1048600094BF005D3F20C3EB03130190CDE90256D6
:10487000490DACEB83030B4807F046F92DB0BDE8BA
:10488000F04002B0704700BF2E2E2E00880000209E
:10489000B17C219573B2E745D34D62108988888831
:1048A000640E0108400E0108F0B5CA4CD4F8243259
:1048B0008BB0002B00F0D981C74B1A683F21C4F898
:1048C0002812520358BF1A68C34B54BF02F48032F7
:1048D0004FF4A022C4F82C2219685A68186801F015
:1048E0000101C2F30722C4E9901219685A6800F066
:1048F000F00001F48071C4F84802C4F83412D3F80F
:104900009010B648C2F30462C4F838224F0758BF6B
:10491000D3F89020B04B54BF02F001020522D3F827
:104920009410C4F83022D3F8982001F0010102F06D
:104930000102C4F83C12C4F84C221968DA6811F07C
:10494000807F0CBF0121022102F00302C4E994120E
:10495000DA68D968C2F302120132C1F30621C4E950
:104960009621D968DA68C1F34151C2F3416201313D
:10497000013249005200C4E99912D9689A68C90EF7
:1049800002F003020F25C4F86C52C4F86012C4F898
:10499000702299689A6801F0F00102F4E062C4E9BB
:1049A0009D129A68016894F80D0284F88402D20876
:1049B00002F4E06201F00701C4E99F21242284F897
:1049C0000D22D4F8CC2186481168824221F00101E1
:1049D000116000F0EF810023A26AC4F810320221B6
:1049E00084F80D3284F80C32C4F8FC3184F80E32AD
:1049F00084F8851013687B4923F040038A421360D2
:104A000000F0EE810022C4F88820D4F8883284F8BF
:104A100085202421D4F8080384F88420C4F80413E2
:104A20001968C4F8100321F0010119606E491A6079
:104A30008B425A609A6000F0AE816C4A934200F05B
:104A40008F820023D4F81423C4F80C332421C4F833
:104A5000043384F80033C4F80833C4F8E832C4F8E7
:104A6000EC32C4F8901311685F4821F001018242D2
:104A7000116013605360936000F047825B4B9A4271
:104A800000F08A82544A0023C4F89833C4F8903363
:104A9000C4F89433C4F87433C4F87833D06CD16C50
:104AA00084F88C3300F00100C1F34001C4F8B8036E
:104AB000C4F8D813D06CD16C41F00101D164D16C31
:104AC000C0F3C01001F001010491C4F8F803049987
:104AD000D16C41F00201D164D16C01F0020103916B
:104AE0000399D16C41F08001D164D26C4FF0904CAD
:104AF00002F0800202920299DCF80010C4F89C13C4
:104B0000DCF80410C4F8A013DCF80810C4F8A413EF
:104B1000DCF80C10C4F8A813DCF82010C4F8AC13AF
:104B2000DCF82410324AC4F8B0131168C4F8BC137E
:104B30005168C4F8C0139168C4F8C413D168C4F8AC
:104B4000C813106A516AC4F8D01302F5C052C4F8F1
:104B5000CC031168C4F8DC135168C4F8E013916801
:104B6000C4F8E413D168C4F8E813116A089D526AC6
:104B7000099EC4F8EC13C4F8F02301204FF60F711E
:104B80004FF0030E00FA03F20A424FEA430203F128
:104B9000010306D0DCF800700EFA02F23A43CCF8BA
:104BA0000020102BEED1CDE900561148002303223E
:104BB0004EF6F57104F080FCCDE900560D48002357
:104BC00003224FF6F67104F077FC034BDA6C22F007
:104BD000010211E088000020001002400020024085
:104BE00000580040003001400038014000440040BF
:104BF00000040048001C0048DA64DA6C22F002026B
:104C0000DA64DA6C4FF0E02122F08002DA640B699A
:104C100023F002030B61FBF7CDFA94F8FC33054651
:104C20004BBBC049C04A07E062B6BFF34F8FBFF32A
:104C30006F8F94F8FC33F3B972B6BFF34F8FBFF3A5
:104C40006F8F94F8FC33002BEED10B6823F0070331
:104C500043F001030B60136943F00403136130BF99
:104C6000136923F004031361DEE7B0480BB0BDE81D
:104C7000F04006F037BF002384F8FC33FBF79AFAC4
:104C8000401B05D500F1A46000F5CB2000F5806045
:104C9000D4F88C304FF0E0220344C4F88C30136910
:104CA000A34843F002031361FEF7B6FDD4F8801267
:104CB000A048FFF7ADF84FF090400121FBF7C2FA92
:104CC000D4F89C23D4F8B8130260D4F8A02342602F
:104CD000D4F8A4238260D4F8A823C260D4F8AC230B
:104CE0000262D4F8B0234262003918BF0121FBF7F9
:104CF000A9FA00F580600121FBF7A4FAD4F8BC33CF
:104D0000D4F8D8130360D4F8C0334360D4F8C43364
:104D10008360D4F8C833C360D4F8CC33036200395D
:104D2000D4F8D033436218BF0121FBF78BFA00F5AA
:104D3000C0500121FBF786FAD4F8DC33D4F8F8131D
:104D40000360D4F8E0334360D4F8E4338360D4F8EC
:104D5000E833C360D4F8EC330362D4F8F033436231
:104D6000003918BF0121FBF76DFAFFF7A5FB94F896
:104D70008432282B00F0B880FEF72AFC6E48FFF73B
:104D8000F5F8D4F81033222B3CD06C480BB0BDE8BA
:104D9000F040FFF7EBB802F1804202F504324FF425
:104DA000C061136E23F480434FF090401366FBF70D
:104DB0005BFC46E69A6D624822F480029A654FF4E5
:104DC0008061FBF751FC4FF40061FBF74DFC5D4B3C
:104DD0000222C3F88420BFF34F8FBFF36F8FFAE531
:104DE000594A136E23F48053E02113664FF090402C
:104DF000FBF73AFCD4F8800004F05AFCE06F04F0B2
:104E000057FCFFE5D4F8FC02D4F8DC22B4F8E03219
:104E1000D4F80813002800F0DA802029B5D1002A40
:104E2000B3D0002BB1D00021D4F88852C4F8E812D6
:104E300046498D4203D069680E0200F14881002185
:104E4000C4F80C132221C4F8DC22A4F8E032C4F820
:104E500008133F49C1623F4901633F494163002153
:104E6000816305F12401FBF73FFA002840F05281ED
:104E7000D4F8983293B155E8003F43F4807345E885
:104E800000324AB1D4F8882252E8003F43F48073DC
:104E900042E800310029F5D1D4F8885205F1080321
:104EA00053E8003F43F0010305F1080141E80032F7
:104EB00062B1D4F8882202F1080353E8003F43F0BE
:104EC0000103083242E800310029F2D1D4F88822E7
:104ED00002F1080353E8003F43F04003083242E880
:104EE00000310029F2D150E794F80D22202A7FF4F6
:104EF00043AFD4F8CC2184F80D3213681749C4F8B5
:104F0000001243F0B803136036E70F4A136E23F420
:104F100080434FF4C0614FF090401366FBF7A4FB51
:104F2000B0E500BF0070004000ED00E06C0E01082D
:104F3000B0020020F4020020100300209C03002097
:104F40000004004800E100E0001002400080004042
:104F5000ED1600087517000881170008B552000803
:104F600002F5E6320F21936D23F4003393654FF081
:104F70009040FBF779FBD4F8FC0204F099FBD4F8DD
:104F8000F80204F095FB734B4022C3F88420BFF372
:104F90004F8FBFF36F8F54E56F4A936D23F4003347
:104FA00093650F214FF09040FBF75EFBD4F8880328
:104FB00004F07EFBD4F8840304F07AFB654B4022B6
:104FC000C3F88420BFF34F8FBFF36F8F5AE52029BA
:104FD0007FF4DBAE002A3FF4D8AE002B3FF4D5AE11
:104FE000D4F88812C4F8E8025C48814215D04868B9
:104FF000000212D551E8000F40F0806041E8000542
:105000004DB1D4F8880250E8001F41F0806140E8BB
:105010000015002DF5D1D4F88812D4F89052C4F8B8
:10502000DC220020B5F5805FA4F8E032A4F8E2327B
:10503000C4F8F00200F08580002D78D1D4F89832C1
:10504000002B0CBFFF207F2000222223C4F80C235A
:10505000A4F8E402C4F8083301F1080353E8003F60
:1050600043F00103083141E8003262B1D4F88822EC
:1050700002F1080353E8003F43F00103083242E81D
:1050800000310029F2D1D4F89022D4F89832B2F548
:10509000805F46D0324AC4F8F0226BB1D4F888223F
:1050A00052E8003F43F4907342E800310029F5D103
:1050B0006BE62C4BC4F8F032D4F8882252E8003F5B
:1050C00043F0200342E800310029F5D15DE655E8C0
:1050D000001F41F0806145E8001048B1D4F8880213
:1050E00050E8001F41F0806140E80015002DF5D127
:1050F0000021D4F8FC02C4F80C132221D4F8885201
:10510000C4F8DC22A4F8E032C4F8081300283FF405
:10511000AFAE9EE610222023C4F80C23C4F8083357
:1051200033E6002BC5D00E4BC4F8F032B6E7B5F12C
:10513000805F89D1D4F89832002B0CBF7F203F20AC
:1051400082E7D4F89832002B40F2FF1018BFFF20FE
:105150007AE700BF00E100E000100240008000405C
:1051600005180008D518000810B41F4C94F820301A
:10517000012B34D021680220CA2384F821000122A7
:105180004B6253234B6284F820208B6823F4807396
:105190008B608B6823F480538B60D4F88C0005E01F
:1051A000D4F88C20121AB2F57A7F0ED8CB6813F09F
:1051B0000103F5D00020FF2201234A6284F8200079
:1051C00084F821305DF8044B70470320FF224A62C7
:1051D00084F8203084F821005DF8044B70470220E9
:1051E0005DF8044B704700BF8800002030B52B4DA0
:1051F0008DB02C22002101A805F0C8FFD5F824426B
:10520000002C42D0FAF7D6FF254BE96803910444FD
:10521000A3FB0423234A5B0D02FB1344224AA2FB97
:105220000402920B4EF6602505FB12448DF8052012
:105230001E4A1F48A2FB0352120902EB4202A3EBD3
:10524000C2038DF80430A0FB04239B094FF47A724B
:1052500002FB134401FB0444A0FB04048DF8063058
:10526000A1EB94114FF480704FF000424FF0606357
:1052700002910B9006920893FFF776FF18B901A8E8
:10528000FEF776F838B1FAF783FFFFF76DFF0028D5
:10529000F9D185F8FC030DB030BD00BF88000020B7
:1052A000B17C219580EE360073B2E745ABAAAAAA7D
:1052B000D34D621038B590F840C0C56ABCF1010FFB
:1052C00067D04FF0010C11F0200F04460B4680F818
:1052D00040C002D012F0200F51D1D80615D5D1060A
:1052E00013D5628D92B2002A55D194F84120282A14
:1052F00074D094F841202368292A4FF01002DA6113
:105300005CD0002084F8400038BD590719D4190733
:1053100001D5100739D49907F3D59307F1D5638DDB
:105320009BB2002B46D0616A236811F8012B9A6268
:10533000638D228D6162013B9BB2013A63852285B8
:10534000DFE75007E3D5638D9BB26BB12268636AD8
:10535000526A1A70638D616A228D013B0131013AF4
:105360009BB2616222856385638D9BB2002BC8D19D
:1053700015F5803FC5D02046FBF73CFAC1E7FBF7A7
:10538000AFFD002084F84000BEE7204604F062F83C
:10539000B7E7022038BD23681022DA61636C43F05E
:1053A0000403636435F08073ABD1616C2046FBF776
:1053B0009FFAA6E735F08073A3D1DCE715F5803FAF
:1053C0009FD09A69950744BF00229A629A69D007D4
:1053D000D1D49A6942F001029A61CCE7B5F1007F1D
:1053E00087D119462046FBF74FFA8AE738B590F87F
:1053F00040C0C56ABCF1010F46D04FF0010C11F05E
:10540000200F04460B4680F840C002D012F0200F57
:1054100030D1D90626D5D00624D55104C2F3803028
:1054200034D5E16B09B1120435D4A26B1AB11268FC
:105430005268002A37D023681022DA61636C43F087
:105440000403636494F8413035F08072DBB20DD10F
:10545000213B092B4CD8DFE803F049504B4B4B4B19
:105460004B4B4950190701D5130709D4002084F884
:10547000400038BDFBF734FD002084F84000F8E719
:10548000204603F0E7FFF1E7022038BD110429D5DB
:10549000E16B0029CFD00A685268002A30D1A26B94
:1054A0000AB100283AD194F84120282A2ED094F845
:1054B00041202368292A4FF01002DA61D6D115F570
:1054C000803FD3D09A69950744BF00229A629A69B7
:1054D000D00703D49A6942F001029A612046FBF793
:1054E00089F9C3E723681022DA61BFE72123236328
:1054F000616C2046FBF7FCF9B8E722232363F7E74A
:10550000A26B002A97D0002895D090E7B5F1007FD4
:10551000CDD119462046FBF7B7F9A7E712685268C4
:10552000C1E700BFF8B516460D464FF4E2720146DA
:1055300018461C4606F058FAB6F8581021B196F8ED
:105540005E30191E18BF0121012396F85B2084F8F4
:10555000C6312B4684F8C52133F8262B84F8C411B4
:10556000A4F8C82105F1560104F5E5721F685E68CC
:105570009868D3F80CC0C2F80CC010338B42176087
:105580005660906002F11002F0D1B5F85630A4F8E0
:10559000FA3105F1580604F5FE7E05F18807B44698
:1055A000BCE80F00BC450EF1100E06F110064EF8D7
:1055B000100C4EF80C1C4EF8082C4EF8043CEED1A2
:1055C000B5F88830A4F82C3205F18A0304F22E24B1
:1055D000BA35186859689A68DE68E6601033AB42DD
:1055E00020606160A26004F11004F2D1F8BD00BF38
:1055F0002DE9F04F9846184BDFF860B0B3F8907083
:1056000083B0043A043F52087F0897420C9E0190F1
:10561000894628BF174601F1040A0025741BBC42C5
:1056200028BF3C4645EA0B02631E08EB4501A9F87A
:105630000020A9F802306200504606F0D5F9254452
:1056400001980023A21C4946FCF7F2F9AE42E5D8C6
:1056500003B0BDE8F08F00BF8800002000C0FFFF4E
:105660002DE9F04F2DED0C8B99B090F85E409B46E4
:1056700090F85C300893042CB0F8583003938146BE
:105680008846924615D890ED145AB5EEC05AF1EE00
:1056900010FA00F1F38190F86630002B00F08F8251
:1056A00090F85B30002B00F08A82D64CD64A0594E5
:1056B00002E0D44CD54A0594D4F8A030D449002057
:1056C0009847D9ED157AD4F80034019307EE103AD3
:1056D000F5EEC07AF1EE10FAB8EE478A40F3D281C7
:1056E000C8EE278AF6EE007A78EEA78A039B002B95
:1056F00000F0C18199F85E30049399F85A30002B7C
:1057000040F0C38199F86020022A41F04E8099F858
:105710005E40012C00F0CA83002422462E990C71B1
:10572000AAF8AC21002B00F0B58199F85F30012B6D
:1057300000F0DC83022B00F0D683002B40F0C783FF
:1057400001231A46AAF82630AAF8282099F86030D2
:10575000012B00F0B483022B00F0B083002B00F08B
:10576000EB83059BAB4AD3F8A030A94900209847AA
:10577000B8F1000F00F0928100230193B8F8E41013
:10578000B8F80830AAF80210B8F8E610AAF8041021
:10579000B8F8E210AAF80010B8F8E810AAF8061055
:1057A000B8F80210AAF808109B00B8F80410AAF87C
:1057B0000A109BB2B8F80610AAF80C1003F13002D8
:1057C000B8F80A10AAF80E1092B2B8F82010AAF889
:1057D00010105F2AB8F82210AAF8121040F2EB81DC
:1057E0006020B2FBF0F100FB112189B200201A46C3
:1057F00004460B460121AAF81430AAF8162000230B
:105800000322AAF82230AAF81C40AAF81E00AAF81F
:105810001810AAF82010AAF81A20ABF802300123B9
:10582000CBF80A30019B002B00F07B860024CDE9E9
:1058300001440AF13E039FED789A9FED78AADFEDCF
:105840007B9ACDE9068A0AF14E060BF10E074D460A
:105850009A46049AE3B29A4200F2298100233B80DF
:105860003B81AAF800300134042C07F102070AF149
:10587000020A05F1140506F15606EAD1DDE9068AA9
:105880000124BAF8AC31012B04D1DDE9023202FB6C
:1058900003F30293BBF80C20039B029DB9F864004C
:1058A00099F863C099F8667099F862E012FB03F208
:1058B000BBF80A30AAF89EE192B24FF6FF7113448A
:1058C0008D429BB228BF0D464608591CAAF8A45128
:1058D0008CF0010C019DAAF8A6C10338033E89B2E1
:1058E000AAF8A051AAF8A801AAF8AA61ABF80C205E
:1058F000ABF80430ABF80610002F00F014814133F0
:1059000099B240250123ABF80010ABF80850AAF873
:10591000C031B8F1000F03D0B8F80C30AAF8C2318A
:10592000002C40F031812E9A0023136099ED145A17
:105930000024089BAAF8B231039B012B40F221817D
:10594000B9F85830023B01229BB29FED356ADFED7A
:10595000355A99F85A10F1EE007AC8EE066A68EEE8
:10596000277A68EE255A87EE867AC5EE867AB6EEF5
:10597000006A76EE866A37EE067AFCEEE66AB5EEE7
:10598000405AD9ED155AAAF8AE31F1EE10FA16EEDA
:10599000903A77EE867ABCEEC77AAAF8B02114BFA7
:1059A00001220022FCEEE77AAAF8382099F85B2061
:1059B000AAF8B43117EE103AF5EE405AAAF8B6310B
:1059C00017EE903AF1EE10FAAAF8B83114BF0120A0
:1059D0000020002C40F0AA80AAF83010AAF832204B
:1059E000AAF82A0099F861300F4ACAF8BA210121B1
:1059F0002046AAF82410AAF8BE3119B0BDEC0C8BD1
:105A0000BDE8F08F88000020040F0108C00E0108D7
:105A1000DC0E0108001001082549123E8FC2753DB9
:105A20000024744900009643FF07010800000000AD
:105A3000F5EEC07AF1EE10FA00F1D78299F85A30FB
:105A4000002B00F0D582F5EE407AF1EE10FA05D188
:105A5000B5EE405AF1EE10FA40F084835FED0D8A06
:105A6000059B674AD3F8A030664900209847039BFE
:105A7000002B7FF43FAE039B04933EE6624C634AE7
:105A8000059419E6DFED628A30E62E9A0023137141
:105A9000AAF8AC31B8F1000F7FF46EAE0123CDE966
:105AA0000188ABF80280CBF80A304446E9E60123CE
:105AB000AAF8003099F85C802A8940F2FF3340F25E
:105AC000FF11B8F1000F18BF0B460AB39A421FD856
:105AD000AA7B2B7C62B1022B0AD1059B4D4AD3F8DD
