:020000040800F2
:100000000000012009830008F56B0008F96B000867
:10001000FD6B0008016C0008056C00080000000082
:10002000000000000000000000000000096C000853
:100030000D6C000800000000116C0008156C000831
:10004000598300085983000859830008256C00086B
:100050005983000859830008598300085983000810
:1000600059830008616C000859830008598300080F
:10007000756C0008816C00085983000859830008DA
:100080008D6C0008996C000859830008598300089A
:1000900059830008598300085983000859830008D0
:1000A00059830008598300085983000859830008C0
:1000B0005983000800000000000000005983000878
:1000C00059830008A56C000859830008598300086B
:1000D0005983000859830008CD6C00085983000833
:1000E000B9700008CD70000800000000000000009A
:1000F0000000000000000000000000000000000000
:100100000000000059830008000000005983000827
:100110000000000000000000598300085983000817
:10012000598300085983000859830008598300083F
:1001300059830008000000000000000000000000DB
:100140005983000859830008598300080000000003
:10015000598300085983000859830008598300080F
:1001600059830008598300085983000800000000E3
:1001700059830008598300080000000000000000B7
:1001800059830008598300085983000800000000C3
:10019000BFF34F8F0549064BCA6802F4E062134370
:1001A000CB60BFF34F8F00BFFDE700BF00ED00E065
:1001B0000400FA0590F824C0BCF1010F3CD070B5E2
:1001C00090F825C00124A44580F824405FFA8CFEF5
:1001D00004D0002380F82430022070BD022580F86E
:1001E000255004680025C5632668456C26F0010685
:1001F000266005F01C05066C0EFA05F57560636057
:100200008368102B036B0BBFA260A160E160E2600A
:100210004BB1236843F00E032360236843F00103CE
:100220000020236070BD236823F00403236023684B
:1002300043F00A032360F0E7022070472DE9F04104
:10024000764C0023237094F86530012B0D46E1684D
:1002500008D0B1F5827F60D1D8B22369002B5CD180
:1002600004285AD1002D58D092B2002A55D094F8C3
:100270006430012B51D094F86530A6682564042BB6
:100280001CBF052384F8653001210023A36684F890
:100290006410A4F84620A4F84E20C4E9153373680E
:1002A000A4F8442023F4C043A564A4F84C20736050
:1002B0006369206EB3F5E06F31D8E36D99697368B7
:1002C000B1F5806F43F4805373607DD08369B3F5DB
:1002D000806F65D094F86530514A042B514B18BF9C
:1002E0001346514A0363514B4363514B18BF1346A6
:1002F000C362B4F84E304FF00008C0F838809BB2AB
:1003000006F10C012A46FFF755FF074660B1A36EC0
:1003100084F8648043F01003A366BDE8F08173683D
:1003200023F480537360D5E77368E06D43F00103F5
:100330007360B4F846300A46C0E90B77C0E90D7720
:1003400029469BB2FFF736FF00284AD133685B0687
:1003500021D5002384F86430736843F02003736070
:10036000736843F002037360E26E2378002BD4D1EC
:1003700041F2873109E072B6237803B930BF62B623
:10038000BFF36F8F2378002BC7D1E36E9B1A8B428C
:10039000F1D9BDE8F081336843F040033360D8E71A
:1003A000736823F480537360B4F84E3013F0010F78
:1003B00073681DD123F400537360B4F84E30C3F357
:1003C0004E03A4F84E3085E7D20773681BD423F49C
:1003D00080437360B4F84630C3F34E03A4F846304C
:1003E00074E7A36E84F8647043F01003A36694E787
:1003F00043F400537360B4F84E30C3F34E0301333B
:10040000A4F84E3066E743F480437360B4F8463096
:10041000C3F34E030133A4F8463057E788000020A9
:100420008D09000889090008A91D00089109000824
:10043000FD1C000870B4436C066C056831682C68BC
:1004400003F01C0304229A400A420ED014F0040F59
:100450000BD02B689B0603D42B6823F004032B607E
:10046000036B7260CBB170BC184702229A400A42FB
:1004700015D014F0020F12D02B68990606D42B6801
:1004800023F00A032B60012380F82530C36A7260D1
:10049000002180F82410002BE5D170BC70470822A1
:1004A0009A400A42F9D02207F7D52A68416B22F018
:1004B0000E022A60012202FA03F300247360C26371
:1004C00080F8244080F825200029E6D070BC084739
:1004D000234A9368D26813F00C0305D00C2B32D05A
:1004E000042B36D11F4870471D4A1168090754BFB5
:1004F000D2F8942012681C4954BFC2F30322C2F3FD
:10050000031251F82200002BEDD0154BDB6803F0ED
:100510000303022B22D0154A032B08BF1046104BB1
:10052000D968DA68DB68C3F34163C2F30622C1F31A
:100530000211013300FB02F201315B00B2FBF1F268
:10054000B2FBF3F0704702F00302012ACCD0002086
:10055000DBE7082B054818BF002070470148DEE79D
:10056000001002400024F400A8B1000800127A0034
:10057000064A074B92680749C2F3022213440868EF
:1005800093F8303003F01F03D8407047001002404A
:10059000A8B1000800000020064A074B92680749EE
:1005A000C2F3C2221344086893F8303003F01F03EB
:1005B000D840704700100240A8B100080000002099
:1005C000414A036830B4D468A40707D0D46804F063
:1005D00003049C4246D0012030BC7047022B52D00D
:1005E000032B49D0012BF6D112689207F3D5364C74
:1005F000E26822F0730213434268013A43EA0213AD
:10060000E360314C314A236823F080632360D56E68
:1006100003E0D36E5B1B022B39D823681B01F8D48F
:1006200083681B02002934D12169C56821F0784113
:1006300021F4FE4143EAC5630B43236122490B6861
:1006400043F080630B60D46E03E0D36E1B1B022B60
:100650001DD80B681B01F8D582690B691343002074
:100660000B61B9E7002CB6D0D3684268C3F302131C
:1006700001339342AFD1C4E71468A403B7D412681E
:100680005203A8D5B3E712685505A4D5AFE70320F8
:10069000A2E7012921690BD021F0C06121F4FE41BC
:1006A000194343695B08013B41EA43612161C5E7A6
:1006B00021F4C00121F4FE410B43016949080139CD
:1006C00043EA41532361B9E700100240880000204B
:1006D000F0B504680546200583B000F1F2800026DD
:1006E000A1034ED5A54B9A6DD20040F1F5800027AD
:1006F000A349A44A0B6843F480730B60D06E04E0F6
:10070000D36E1B1A022B00F200810B68DB05F7D5B4
:10071000A6BB9A49A86DD1F8903013F4407325D048
:10072000834223D0D1F890C0D1F8903043F4803385
:10073000C1F89030D1F8903023F48033C1F8903074
:100740001CF0010F2CF44073C1F890300ED0D2F899
:100750006CE041F2883C05E0D36EA3EB0E036345E9
:1007600000F2D380D1F890309B07F5D5834AD2F8B8
:10077000903023F440730343C2F89030002F40F0D0
:10078000DC80E10708D57D4A296AD2F8883023F059
:1007900003030B43C2F88830A20708D5774A696A79
:1007A000D2F8883023F00C030B43C2F8883063077B
:1007B00008D5724AA96AD2F8883023F030030B4377
:1007C000C2F88830A70608D56C4AE96AD2F88830A2
:1007D00023F440630B43C2F88830A00508D5674A6C
:1007E000E96BD2F8883023F440230B43C2F88830F9
:1007F000610508D5614A296CD2F8883023F440138A
:100800000B43C2F88830620608D55C4A296BD2F8DF
:10081000883023F440530B43C2F88830230608D5B0
:10082000564A696BD2F8883023F440430B43C2F830
:100830008830E70508D5514AA96BD2F8883023F4EF
:1008400040330B43C2F88830200323D4374661037A
:100850000FD54A4AE96CD2F8883023F040630B4345
:10086000B1F1006FC2F8883000F08380B1F1806F81
:1008700077D03E4662044DD43046230408D53F4A23
:10088000696DD2F8883023F080430B43C2F888307A
:1008900003B0F0BD394AA96CD2F8883023F0406328
:1008A0000B43B1F1006FC2F888304CD0B1F1806FCA
:1008B000CCD10121281DFFF783FE07460028C5D0B3
:1008C000C5E76F6CB7F5000F11D0B7F5400F13D027
:1008D000002F3DD0012603E79A6D42F080529A65C1
:1008E0009B6D03F080530193019B012700E7234A8E
:1008F000D36843F48033D360204AD2F8883023F49D
:1009000040033B43C2F88830E9E60326002F3FF45A
:1009100038AF12E019492A6DD1F8883023F04053DE
:100920001343B2F1805FC1F88830A5D10221281DA0
:10093000FFF746FE00289FD09FE7104A936D23F0F3
:10094000805393651DE7D36843F48013D3607DE73C
:100950003946281DFFF734FE064600287FF4C0AE56
:10096000CAE70121281DFFF72BFE0646002880D08C
:1009700080E7D36843F48013D3607AE70010024025
:100980000070004088000020704700BF704700BF23
:10099000836A19684A6822F003024A601A6E4FF0AF
:1009A000010C42F010021A6683F85DC0704700BF68
:1009B000026852E8003F23F4907342E800310029B6
:1009C000F7D102F1080353E8003F23F0010302F1DD
:1009D000080C4CE800310029F3D1036E012B06D03E
:1009E00000232022C0F8802083660366704752E807
:1009F000003F23F0100342E800310029F0D052E814
:100A0000003F23F0100342E800310029EFD1E7E76F
:100A100070B50568EC6931EA040405D05E1C06D1A6
:100A2000EB6931EA0303FBD10023184670BD154C76
:100A3000E46EA41AA34218D3BBB12C686407E9D5AD
:100A40008029E7D04029E5D0EC6914F008040ED1E4
:100A5000EE693605DED54FF400632B62FFF7A8FF81
:100A60002023C0F8843080F878400323DDE7082491
:100A70002C62FFF79DFF00220123C0F8844080F81C
:100A80007820D2E788000020836A0022A3F85A2049
:100A9000A3F85220704700BF08B518B1074B026891
:100AA0009A4208D0064B074AD3F880300649002006
:100AB0009847002008BD012008BD00BF0FB03713C4
:100AC00088000020DCF00008F4F00008B1F804C051
:100AD00093680A899A80BCF1000C18BF4FF0010C92
:100AE000CA7983F800C091F806C083F801C09A70F3
:100AF0009860704708B518B1074B02689A4208D051
:100B0000064B074AD3F8803006490020984700205A
:100B100008BD012008BD00BF0EB0371388000020BB
:100B2000FCF0000814F100082DE9F041174F1D46B4
:100B3000D7F8843013B1BDE8F0411847FB6F4FEA96
:100B40004208002AF7D08F1EA8F1020406468E46FE
:100B50000C443A4632F802CF9CFA9CFCA242A2F81E
:100B600000C0F7D142467146304698470DB9BDE8FE
:100B7000F08137F8023F5BBAA7423B80F7D037F8E5
:100B8000023F5BBAA7423B80F3D1F0E78800002028
:100B900010B1024B9B6F1847704700BF88000020C0
:100BA00010B520B10C4B02689A42044608D00B4B9A
:100BB0000B4AD3F880300B49BDE81040002018479D
:100BC000406818B1C368984700236360002323601E
:100BD0002046BDE81040DBE70DB037138800002049
:100BE0001CF1000838F1000810B50446FFF782FF39
:100BF00000B910BD20690023236008B1FFF7C8FFCA
:100C00002046BDE81040C3E703460068D3F8E8106B
:100C10004268C3F8F0101047704700BF2DE9F04755
:100C2000D0F800800546B8F1000F1ED0D8F89870B3
:100C30000FB3124E07F148044FF00009583754F82B
:100C4000040F18B1B36F9847C4F80090A742F6D1CB
:100C5000D8F89800B36F00B19847B36F40469847F3
:100C6000B36F2846BDE8F0471847044E2846B36FD7
:100C7000BDE8F0471847014EEFE700BF88000020AD
:100C8000F8B50688002A1C460CBF4FF400534FF4F9
:100C90008053B6F59C6F05460F460BD3B34238D24E
:100CA0001D4B1E4AD3F880301D49002098474FF055
:100CB000000C03E04FF49C664FF0010C19491A4AEE
:100CC000C4E9011202F11912E26002F11912226163
:100CD000234600225136628076005122A28223F8F8
:100CE000166B29686A68A868EE68C4F816105A601E
:100CF0009860DE602969A8696A699861196197E856
:100D000003005A61AA8B9A83343484E80300604656
:100D1000F8BD4FF0010CD1E78800002044F1000835
:100D200064F100080100020003001B0000B583B05D
:100D300041F4A041012394464FEA124EADF8001051
:100D4000ADF80230042200236946ADF804E0ADF8A6
:100D500006C0FFF7E9FE03B05DF804FB10B50F4CC9
:100D60008C461146B4F8702003F1020EB2EB4E0F20
:100D700007D2D4F880300A4A0A49BDE81040002062
:100D80001847013B4CF4A04C4B802EF00042A1F8D8
:100D900000C0BDE810400023C6E600BF8800002068
:100DA00078F1000898F1000810B582B00021ADF884
:100DB000041043F21C040123032269460094FFF748
:100DC000B3FEBDF80400C0F3C02002B010BD00BFE8
:100DD00030B583B0002201230C46ADF8042043F265
:100DE0003705032269460095FFF79EFE012CBDF8EA
:100DF000043009D0022C0CBF8022C0221A4214BF3A
:100E00000120002003B030BD4022F7E7F0B583B0E9
:100E100043F21C02009201230E460024032269467D
:100E20000746ADF80440FFF77FFEBDF8043013F429
:100E3000006517D141F21B042B4669463846022251
:100E4000009446F40066FFF76FFE38462B4669466D
:100E50000222ADF80040ADF80260FFF765FE012008
:100E600003B0F0BD054B064AD3F880500549204633
:100E70003B46A847204603B0F0BD00BF88000020D5
:100E8000ACF10008DCF10008F0B5012983B005469B
:100E9000144622D002290AD01C4B1D4AD3F88040A8
:100EA0001C4903460020A047002003B0F0BD43F2D8
:100EB000460384270026ADF800302846012303228C
:100EC0006946ADF80260ADF80460FFF72DFEBDF88D
:100ED000040030B16CB90120E7E743F245038327F2
:100EE000E8E70A4B0C4AD3F880400A492B46A04752
:100EF000DAE747F480573346694628460222ADF8C0
:100F00000070ADF80260FFF70FFEE4E788000020F4
:100F1000F4F10008DCF1000810F20008F0B5012936
:100F200085B00646154633D0022925D143F2320357
:100F300001240027ADF808300322012302A930461E
:100F4000ADF80A70ADF80C70FFF7EEFDBDF80C308F
:100F50006B8003F00702012A2A802AD013F00600D2
:100F60001AD11849184AD1F8804018490096A0476C
:100F70000024204605B0F0BD124B154AD3F880403E
:100F8000124903460020A0474FF440530024D0E705
:100F900043F233030C46CCE7023A012AE9D9094A65
:100FA0000096D2F8804009490A4A3846A0472F8067
:100FB000DEE70449084AD1F88040044900963846E3
:100FC000A047D5E78800002044F20008DCF10008C3
:100FD000F4F10008A8F2000874F2000810B582B01D
:100FE00001AA01210446FFF799FF002201212046B2
:100FF000FFF74AFFBDF80430022B09D00649074A23
:10100000D1F8804006490020A047002002B010BD62
:10101000012002B010BD00BF88000020DCF20008F3
:1010200024F3000810B582B00021ADF8041043F29B
:1010300031040123032269460094FFF775FDBDF8D2
:1010400004004AF6C043C01AB0FA80F0400902B06A
:1010500010BD00BF10B50C4C94F88810012982B067
:1010600010D90A49D4F8804012F4006F03460848AA
:1010700018BF0846C2F30A01CDE90001054A064936
:101080000220A04702B010BD8800002044F30008F1
:101090004CF3000854F3000868F3000810B50A4C3C
:1010A00094F888C0BCF1010F82B00BD92C3989B2F9
:1010B00003461046D4F88040044ACDE900100449A4
:1010C0000220A04702B010BD880000207CF3000879
:1010D00068F3000830B5094991F88840012C83B0C5
:1010E00009D902F00F04D1F88050054A054900944F
:1010F00003460220A84703B030BD00BF880000208F
:10110000A4F3000868F3000810B50A4C94F888C0EE
:10111000BCF1010F82B00BD97D3989B2034610466C
:10112000D4F88040044ACDE9001004490220A047C9
:1011300002B010BD88000020C4F3000868F3000866
:1011400010B5A1F1620C144C1CF0010F034694F889
:1011500088E084B01FFA8CF00ED1BEF1010F09D9DE
:101160004008D4F880400292CDE900010B4A0C49B6
:101170000220A04704B010BDBEF1010FFAD940080B
:10118000D4F880400292CDE90001064A04490220C9
:10119000A04704B010BD00BF88000020F4F3000891
:1011A00068F300082CF4000810B50B4C94F888C0C4
:1011B000BCF1010F84B00CD90346A1F58C7080B24C
:1011C000D4F880400090CDE901120220034A04497E
:1011D000A04704B010BD00BF8800002064F40008E0
:1011E00068F300082DE9F04F1F4EDFF888B0804605
:1011F00015460FCE91B002AC0FC40FCE0FC40FCE68
:101200000FC49BF888C096E80300BCF1010F84E886
:10121000030007D9DBF88040144A1549009543467E
:101220000220A047DFF850A0DFF8449002AC10AED7
:1012300002E00834B44213D0A3881D42F9D09BF8D1
:101240008820012A4346524649464FF00200F0D911
:1012500027680097DBF880700834B847B442EBD1B8
:1012600011B0BDE8F08F00BFE0B100088CF40008B9
:1012700068F3000888000020A8F400082DE9F04F6A
:10128000384A92F88830012BA3B0054605D9D2F828
:1012900080303549354A022098473549DFF8DC90DF
:1012A000DFF8C480782204A808F078FF314A02925F
:1012B0000023022202A92846FFF736FC0DF1100B8D
:1012C0000026BBF80440BBF806A0A244A24506DCF9
:1012D00032E0624698470134A4B2A2452CDD44F4C2
:1012E000405C012302A928460322ADF808C0ADF8EE
:1012F0000A60ADF80C60FFF717FCDBF80830BDF8AA
:101300000CC021462846002BE3D1164F97F88820C1
:10131000012A2B464A4641464FF00200DBD9CDF860
:1013200004C0DBF8007000970E4F0134D7F88070CE
:10133000A4B2B847A245D2DC0BF10C0B22AB5B4543
:10134000BFD1084A92F88830012B08D9D2F88030F2
:101350000549094A022023B0BDE8F04F184723B0E1
:10136000BDE8F08F8800002068F30008BCF4000896
:1013700018B20008D51001000CF50008F8F40008B8
:101380002DE9F04782B0BDF828400B9F03EBC40560
:101390006B88002B45D06E68844601EB0208043E42
:1013A0004FF0000E56F8044F620092B28A4234D3D6
:1013B000424532DAC4F30170012818D002283CD02B
:1013C00098BB521A93B2C4F34459012202FA09F2AB
:1013D00097424BD33449013AD1F8804001923349C6
:1013E000334A0097A047002002B0BDE8F087521AA8
:1013F00092B20CEB42093CF81200B9F8023043EA11
:10140000004323F00F0317B1C4F303442343180C24
:101410002CF81200A9F802306B880EF1010E73450A
:10142000C0D8012002B0BDE8F0871F4B214AD3F895
:1014300080301E4900209847D5E7521A92B20CEB33
:1014400042003CF81290438843EA094323F00F031B
:1014500017B9C4F3034423431C0C2CF812404380F7
:101460006B880EF1010E73459CD8DAE7C4F3044A89
:101470000CEB43043CF813006288C9F1200942EAEE
:1014800000424FF0FF3020FA09F000FA0AF022EA99
:10149000000207FA0AFA42EA0A02100C2CF81300BA
:1014A00062806B88B9E700BF8800002080F50008E3
:1014B00048F500088CF500082DE9F04383B01D467F
:1014C00043F440534FF00008BDF82840ADF8003019
:1014D0008946164669460123032245F4805507468E
:1014E000ADF80280ADF80480FFF71EFBADF80050A8
:1014F000BDF9045004FA09F46C4004EA06025540B0
:101500004346694638460222ADF80250FFF70CFB0D
:1015100003B0BDE8F08300BF30B583B00025294695
:1015200000957B23FF220446FFF7C6FF01210091AF
:1015300020468B230222FFF7BFFF8B2380220095DA
:1015400007212046FFF7B8FF03B030BD70B582B069
:1015500043F2370200230092ADF804300322012346
:1015600069460546FFF7E0FABDF8043013F0C00FF6
:101570001AD143F21C02012300920024694603227F
:101580002846ADF80440FFF7CFFABDF804301B053C
:1015900017D50F4B0F4AD3F880600F4920462B46D2
:1015A000B047204602B070BD094B93F88820002A4E
:1015B000DFD0D3F88040094A07492B460120A047D5
:1015C000D7E72846FFF7A8FF012002B070BD00BF93
:1015D00088000020DCF50008DCF10008B0F5000808
:1015E000002870B446DB0029034639DB88420A46EE
:1015F0004BDA0025012429461B04B3FBF2F343F622
:10160000284293425AD946F2D632934261D948F6DB
:10161000720293425FD94AF6494293425DD94DF234
:10162000A30293425BD94FF24B72934298BF0520BD
:1016300045D94FF24C7648F233224CF2A3409B1B23
:1016400002FB03F300EB134014B1C0F5C9301F30A7
:1016500015B1C0F549303F30C1B1404270BC704750
:10166000494209B2884217DA002501240A46034696
:101670002146C1E7404202B20029104614DB9142E4
:101680000B4605DD99BB1D4800E050BB70BC7047A0
:10169000002401252146AFE70028DED000250B46B7
:1016A00002462C460121A7E7494209B28A424FF07F
:1016B0000105DADB0B46002429469DE70020104A8D
:1016C00002EBC00602EB8002D6E93A60D2F8202194
:1016D000B5E70120F3E70220F1E70320EFE704205C
:1016E000EDE700250B4602462C46294684E70125F6
:1016F0001A462C46034600217EE700BF20920100D7
:10170000A8B100082DE9F0470646804602EB4200EA
:101710008CB0154606EB8000002289460DF10C0ABC
:10172000014617464FEA870E54469FED767AB31A64
:1017300075B103EB020CF444DCED007A9C46DCED61
:10174000006A0C3367EEA67A8B4237EE277AF0D127
:101750000EF1040EBEF10C0FA4EC017AE5D10137B5
:10176000032F0AF1100AA2F1040201F10401D9D1F8
:101770009DED045ADDED055ADDED086A6A4606F175
:101780000C01DFED607A43463DB11C4694ED007AD2
:101790000C33834277EE877AF7D108F10408884545
:1017A000E2EC017A00F10400EBD19DED037AF0EE5A
:1017B000C77AF4EE677AF1EE10FA12D69FED526A0C
:1017C000F4EE467AF1EE10FA0BDC9FED506AF4EE7F
:1017D000C67AF1EE10FA04DAB5EE407AF1EE10FABC
:1017E0007DD0F7EE007A87EE872A9DED073A9DEDD2
:1017F0000B7A65EE023A25EE824A65EE237A65EEB3
:10180000A34A33EE673A25EE846AF0EEC32A65EE0A
:10181000047AF4EE622AF1EE10FA76EEE44A76EEFD
:10182000E77A37EE466A06D69FED377AF4EE472A16
:10183000F1EE10FA47DDB7EE007AC7EE032ADDEDD0
:10184000006A9DED017A9DED023A63EEA63A67EEDD
:10185000A27A37EE637A64EEA73A67EE877A36EEBD
:10186000636A24EE264AF0EEC63A73EE677AF4EE27
:10187000633AF1EE10FA77EEC47A06D69FED224A6B
:10188000F4EE443AF1EE10FA2FDD87EE864A01209D
:10189000002364EE844A65EE845A77EE647A89ED1B
:1018A000024A67EEA27A25EE275AC9ED017A76EE52
:1018B000C57A77EEE57A67EE827AC9ED007A336011
:1018C0000CB0BDE8F0879FED117AF4EEC72AF1EE77
:1018D00010FAB0DAB5EE403AF1EE10FAABD10020D2
:1018E000002333600CB0BDE8F0879FED084AF4EEAA
:1018F000C43AF1EE10FAC8DAB5EE406AF1EE10FA29
:10190000EDD0C2E700000000FFFF7F7F00008000F5
:101910002DE9F047C36D8769056900247C80814605
:101920001C7000F14806A04656F8043FFBB1B3F81E
:1019300038C0B3F89400B3F89610B3F8DC2005EB88
:10194000400005EB410105EB420205EB4C0CC3E9FD
:101950001301C3F8A820C3F814C03C701868D3F86A
:10196000E020416883F8E880C3F8E4208847013428
:10197000E4B2042CD8D1D9F80000BDE8F0474368A0
:10198000184700BF0068C368184700BF70B5044619
:10199000806980B1E3694BB1104B93F888202AB17C
:1019A000D3F880300E4A0F49012098472068BDE8DF
:1019B000704083681847094D0B4AD5F880300949B3
:1019C0009847E36943B195F888302BB1D5F880305A
:1019D000034A044901209847002070BD8800002078
:1019E0000CF600081CF600082CF6000830B402695A
:1019F000B0F8423090F8381032F81330032908BF9D
:101A000083F4004340F2E51101FB03F31B0C816CEE
:101A10008446A3F589700880BCF83C10DCF84C00C3
:101A200032F8111039B1BCF8401032F81110012908
:101A300094BF002101210170BCF83E00BCF83A10AF
:101A4000DCF8505032F8111032F81020DCF8544015
:101A500040F2E51000FB02F2A3EB12431BB2002B95
:101A6000BCF94420DCF80000B8BF5B421BB29A42CC
:101A7000A1F10102B2FA82F2ACBF002301235209A4
:101A80002A70237030BC4368184700BF0068C368E1
:101A9000184700BF00688368184700BFD0E90F23CC
:101AA000816B0069184700BF836910B50446CBB14C
:101AB0000E4B93F8882052B963698BB10B4B0C4ADB
:101AC000D3F880300B4900209847002010BDD3F890
:101AD0008030094A0749012098476369002BEDD1FE
:101AE000012010BDC369002BE2D1E5E7880000208A
:101AF00080F6000864F6000848F600082DE9F04F6B
:101B00009B461B68C2F51E66B34294BF9EB2B6B236
:101B1000884674084FEA520183B017464FEA8101A4
:101B20000CD0144B08EB84041944434651F8042BA1
:101B30005A80120C1A800433A342F7D10E4C851E32
:101B400004F1E20A04F1E40914F8013B35F8022F2C
:101B50003946CDE9003240464B463246FFF710FC8D
:101B6000A24501D00028EFD1CBF8006003B0BDE85A
:101B7000F08F00BFB8C50008E4B200080068C36871
:101B8000184700BF00688368184700BFF0B482B0F0
:101B90002E4E056800238DF80330F36EF76EC3F107
:101BA00064031A442A4B1B6803EB8303C3EBC30390
:101BB0001B0D02FB03F30193AB6819420AD134E019
:101BC000019C019B013B0193AB68002C08BF0022E4
:101BD00019422AD0B1F5C06F05D12B7BDBB28DF84D
:101BE00003309DF80330F36EDB1B9342E8D36B6840
:101BF000426823F0E003B2F5827F6B6019D0836AFC
:101C0000B3F5005F07D12B6823F400532B602B68DA
:101C100043F400532B600122002380F85D2080F8FC
:101C20005C30032002B0F0BC7047002002B0F0BC72
:101C300070478368B3F5004F02D0B3F5806FDED1F3
:101C40002B6823F040032B60D9E700BF88000020F9
:101C50000000002070B4274D274BEA6E1B68046813
:101C6000EE6EC2F16402114483B0C3F3CB3301FBC7
:101C700003F30193A3681A062CD509E0019A019B8E
:101C8000013B0193A368002A08BF00211B0621D550
:101C9000EB6E9B1B8B42F1D36368426823F0E00339
:101CA000B2F5827F636019D0836AB3F5005F07D114
:101CB000236823F400532360236843F40053236014
:101CC0000122002380F85D2080F85C30032003B0FF
:101CD00070BC7047002003B070BC70478368B3F5D8
:101CE000004F02D0B3F5806FDED1236823F04003AC
:101CF0002360D9E7880000200000002038B5294A79
:101D00000368D56E1B689B061BD4846A2368A2688F
:101D10005868616820F0200058609AB15868B1F5A1
:101D2000827F20F00100586022D029462046FFF72C
:101D300091FFB0B901230022A4F8462084F85D3059
:101D4000236E38BD5A68B1F5827F0CBF22F00302C2
:101D500022F001025A6029462046FFF77BFF002847
:101D6000E8D0236E43F02003236620232366E1E7B7
:101D7000B2F5004F12D11A6822F0400229461A60CB
:101D80002046FFF767FF0028EBD12A464FF4C061D9
:101D90002046FFF7FBFE0028CCD0E2E7B2F5806FCB
:101DA000E9D0C2E788000020F8B51B4D0368EF6E4C
:101DB0001B68846A9B062CD42668736823F0200372
:101DC00073603A464FF4C0512046FFF7DFFE58B922
:101DD00039462046FFF73EFF30B93A464FF4C0611E
:101DE0002046FFF7D3FE38B1236E43F0200323666D
:101DF000236E43F020032366736823F003037360AC
:101E000000220123E287A4F8462084F85D30236E87
:101E10000BB901232B70F8BD8800002030B4124D9F
:101E2000124C00F1BC0C002143680B44024640F800
:101E3000043F12689A1AAA4209DD50F8042CA3F54F
:101E4000C9237E3BA1F5C92103607E399A1AA242BB
:101E500006DA03F5C92301F5C9217E3303607E311B
:101E60008445E1D130BC70473F240300C1DBFCFF57
:101E70002DE9F04FBFB00DF138090D4690460193A2
:101E800000F1020B3EAFCA46002440F6B73631E0FF
:101E900025B335F8141001F01F0E4FEA912C0EF106
:101EA000300E00FB0EF0C1F34411ACF1200C02FB2C
:101EB0000CFC002801F1300102FB01F1B8BF3F30FA
:101EC000BCF1000FB8BF0CF11F0C8011002900EB12
:101ED0006C10B8BF3F3100B241F38F110134182CA0
:101EE00008BF0024FFF77CFB4AF8040BBA450BF14E
:101EF000040B0ED0BBF900203BF9020C02FB02FCE4
:101F000000FB00CCB4451146C2DC00203FB0BDE868
:101F1000F08F0DAC0DF1060109F15C05224652F877
:101F2000043F002BB8BF0F3302311B1195420B80C9
:101F3000F5D14846FFF772FF002254F8043F216EA6
:101F4000A542A3EB01031A44F7D1124B83FB021302
:101F5000D217C2EBA31404F5994330334CF6621246
:101F60009342D2D802AE35460FCD4D4508F1100848
:101F700006F1100648F8100C48F80C1C48F8082C1C
:101F800048F8043CEFD1019B01201C803FB0BDE824
:101F9000F08F00BFABAAAA2A2DE9F04FADF2146D65
:101FA0000446914603938D1C03AE0DF20C67B5F900
:101FB000001035F9020CFFF713FB46F8040FB74287
:101FC00005F10405F3D100214846202207F070F9FD
:101FD0000DF16C0A4FF6FF73002104EB44060293E7
:101FE000304DDFF8C48001915346F600A9F1040991
:101FF00040F694578A469B46ABF15C00FFF70EFF14
:10200000ABF160004FF0000C50F8043F026E5845F1
:10201000A3EB02039C44F7D1BCF1000F31DB4FEA84
:102020009C1007FB00F0400D04FB00F006EB1020B5
:10203000C9F80400BAF1000F03D0D9F80030834288
:102040002AD959F8043F4344002BB8BF5B42AB4246
:1020500004D21D460123CDF808A001930AF1010224
:102060001FFA82FABAF1080F0BF1C00BC4D1019923
:1020700011B1DDE902231A8008460DF2146DBDE8A6
:10208000F08FCCF10000800907FB00F0400D04FB4D
:1020900000F0A6EB1020CBE7002108460DF2146DEE
:1020A000BDE8F08F40420F00E0D764FC2DE9F04F0F
:1020B00087B04FF0000E164600EB41090290821ED9
:1020C000CDE90316A9F1120935464FF0010BF2468E
:1020D000F4467046CDF804E005931EE040F2EE2190
:1020E0008B4240DC634500DD9C464FF0000BBEF1A7
:1020F000000F0ABF4FF0000B70460120CAF1000824
:102100004345019BB8BFA4EB060ABB4238BF3B4620
:102110009145019305F102052BD0568A32F8024F02
:10212000331B03F50048B8F5803F2746D6D240F26E
:10213000EE218B422B8007DD178868B9634515DDDA
:102140009C464FF0010ED9E7514917889C45B8BF0E
:102150009C468B42D2DACAE7634500DD9C46864640
:102160004FF0000BCAE74FF0000BE6E74FF0010E0F
:10217000C4E71946DDE90346059BBBF1000F03D117
:10218000002007B0BDE8F08FBEF1000FF8D00028A6
:10219000F6D0CDE9031C0027A4F11C09B84606F1CE
:1021A00012043D463E46BE46D34634F9021F019610
:1021B00001EB810C01EB4C010A22A246A4463CF93A
:1021C000026D02FB06113AF9026F02FB0611013A99
:1021D000F5D1019EA942C4BFF0460D468E42C8BF4C
:1021E00077460EF1010EC8BF0E46F145DDD14CF227
:1021F0005034A542DDE9031CDA46C1DD254CA64278
:10220000BEDABCF1000FBBD0BBF1000FB8D0029C0E
:10221000119D2488C900E4004DB18C4205D2ACEB7D
:102220000402013A0A44B2FBFCF2119D2A60109AA2
:10223000002AA6D0002BA4D0029A08F10E0532F88D
:102240001520B4EBC20F4FEAC20606D2ACEB040471
:10225000013C3444B4FBFCF42D1B029A0E3732F8D7
:102260001720B1EBC20F4FEAC20405D94A1E5244EF
:10227000121BB2FBFAF2BF1A55EA070280D4BD4224
:102280003FF77EAF109A7F1B17601D6079E700BF94
:1022900012FDFFFFB03CFFFF2DE9F04F204C9346AD
:1022A0009A46851E8A1E04F1E20800264FF41E6736
:1022B00004F1E40935F8021F32F8023F994222D0B6
:1022C000237809EBC303588830B3596847F6FF7E7B
:1022D00001EB8003002051F804CB1FFA8CFCE6458B
:1022E00028BFE646604538BF60468B42F3D14FEACF
:1022F0004E0E1FFA8EFE400080B2774528BF77460B
:10230000864238BF064601344445D3D1ABF800704D
:10231000AAF80060BDE8F08F47F6FF7EE7E700BF50
:10232000E4B200081149D1F88C20D06810F04000C8
:1023300001D0002070474FF0FF3310B4D360CC6E53
:10234000D3685B060FD4032803D10CE0D36858068A
:1023500008D4CB6E1B1BB3F57A7FF7D9032081F825
:10236000AD00EDE700205DF8044B704788000020C9
:10237000094A0A4BD2F88C10CB60D06E04E0D36EC1
:102380001B1AB3F57A7F04D8CB689B06F7D50020DB
:1023900070470320704700BF880000205FFF0300E4
:1023A00008B5114BDA6822F08002DA609A6892066A
:1023B00003D4FFF7DDFF88B908BD9A6822F0200238
:1023C0009A60FFF7D5FF18B1084B032083F8AD00E2
:1023D000054A936843F02003936008BD034B032034
:1023E00083F8AD0008BD00BF002800408800002031
:1023F000F0B5614C94F8AC30012B00F0BB80D4F800
:102400008C100223012284F8AC2084F8AD308B6854
:1024100013F0400C18BF90F803C003780CBF80F88D
:1024200003C04FEA8C5C092B09D900220A3BDBB2BE
:10243000092B02F10102F9D843EA0213DBB21A04B4
:102440004378092B09D900250A3BDBB2092B05F19A
:102450000105F9D843EA0513DBB28678092E4FEA65
:10246000032309D900250A3EF6B2092E05F101051C
:10247000F9D846EA0515EEB290F824E0BEF1090F4E
:102480000DD90025AEF10A0E5FFA8EFEBEF1090FDE
:1024900005F10105F6D84EEA05155FFA85FE456996
:1024A000076A3D4345EA0C052A4313433343456815
:1024B00043EA0E62C3691D43836ACA2048625320FF
:1024C0004862B3F5807F8B6837D023F400738B604C
:1024D000CB68DBB263F42073CB60E06E04E0E36EA4
:1024E0001B1AB3F57A7F1ED8CB689B07F7D50A6213
:1024F0008D648B6843F400738B608B6843F40053E6
:102500008B601E4B1A68002042F4802284F8AC00D5
:102510001A609A6842F480229A60FF2201234A627C
:1025200084F8AD30F0BDFF2203234A6284F8AD3059
:10253000002384F8AC300320F0BD23F480738B605B
:10254000CB68DBB263F4C073CB60E06E04E0E36E93
:102550001B1AB3F57A7FE6D8CB68DE07F7D5CA61D8
:102560004D648B6843F480738B608B6843F48053B5
:102570008B60C6E70220F0BD880000200004014007
:102580002A4A03460068904270B43BD8284A294C36
:1025900014210244B2FBF1F29200022183F82510CB
:1025A00001689D689E691C6421F4FF4C59695A6456
:1025B0002CF0700C294341EA0C01314341F08001B9
:1025C000B5F5804F016014D0596802F01C020F204D
:1025D00090409140174A94426FEA00001AD0D2F816
:1025E000A8442040C2F8A804D2F8A8040143C2F8C5
:1025F000A81400200122D86383F8240083F8252042
:1026000070BC70470C4A0D4C02441421B2FBF1F22D
:102610009200C2E7D4F8A8200240C4F8A820D4F859
:10262000A8201143C4F8A810E3E700BF0704024044
:10263000F8FFFDBF00000240F8FBFDBF00040240B0
:10264000134BDB68C3F30223C3F1070C1A1DBCF163
:10265000040F28BF4FF0040C062A88BFDA1E4FF083
:10266000FF3303FA0CF398BF002221EA03039340DF
:102670001B01421CDBB206D000F1604000F5614056
:1026800080F800337047024A82F82330704700BF59
:1026900000ED00E038B5104D104A2B68A2FB032373
:1026A0009B09013BB3F1807F01D3012038BD4FF07E
:1026B000E0220B495361F02381F8233000240723E3
:1026C0000F2894611361F0D801464FF0FF30FFF7F7
:1026D000B7FF6960204638BD00000020D34D62106E
:1026E00000ED00E010B5504B93F8AC200021012A1A
:1026F00083F8B01000F08480D3F88C20CA21022423
:1027000083F8AD4001205162532183F8AC0051623F
:10271000916821F480619160D168C9B261F49061DF
:10272000D160D16849066DD51F21516191683F483C
:1027300021F0070141F003019160016841F480112B
:102740000160816841F480118160916841F48041A9
:1027500091609168FF2441F480610120916054628E
:1027600083F8AD0093F8B020002183F8AC108AB94B
:1027700072B6BFF34F8FBFF36F8F93F8B02002B9DB
:1027800030BF62B6BFF34F8FBFF36F8F93F8B020A7
:10279000002AEDD093F8AC200021012A83F8B01074
:1027A0002ED0D3F88C000224CA2283F8AD40012138
:1027B00042625322426283F8AC10826822F4806243
:1027C0008260826822F480428260DC6E04E0D96E0E
:1027D000091BB1F57A7F0CD8C26812F00402F6D05A
:1027E000FF2401220021446283F8AC1083F8AD205D
:1027F00010BDFF240321446283F8AC2083F8AD10A0
:10280000FDF7C6FCDC6ED16811F004018CD1D86EE6
:10281000001BB0F57A7FF6D9FF240320546283F8B9
:10282000AC1083F8AD00EBE7880000200004014005
:102830002DE9F04F89B00493002900F0898002F05F
:1028400003077D1EC2F300130295DFF8B0B1694C97
:10285000059302F4403500234FF00108039592469A
:10286000019708FA03FC1CEA01066DD0029F5A008A
:1028700003259540012F6FEA05056CD9019F032FB1
:1028800040F0AC80D0F800C0019F0CEA050C07FABC
:1028900002F242EA0C020260039A002A54D0DBF8EA
:1028A000602042F00102CBF86020DBF8602002F0EB
:1028B00001020792079A23F0030202F1804202F517
:1028C000803203F0030CD2F808E04FEA8C0C0F259D
:1028D00005FA0CF5B0F1904F2EEA050E11D0464DD9
:1028E000A84277D005F58065A84275D005F58065CA
:1028F000A8426DD005F58065A84214BF07250425C0
:1029000000E0002505FA0CF545EA0E059560A26881
:10291000F5431AF4801F0CBF2A403243A260E268DC
:102920001AF4001F0CBF2A403243E26062681AF4B6
:10293000003F0CBF2A403243626022681AF4803F95
:102940000CBF2A4032432260013331FA03F288D1AE
:1029500009B0BDE8F08FD0F80890129F09EA050988
:1029600007FA02FE4EEA090EC0F808E0D0F804E0CB
:10297000059F2EEA0C0E07FA03FC4CEA0E0CC0F879
:1029800004C0049FD0F80CE007FA02FC019F0EEA95
:10299000050E4CEA0E0C022FC0F80CC07FF472AF8B
:1029A0004FEAD30900EB890903F0070CD9F820702E
:1029B0004FEA8C0C4FF00F0E0EFA0CFE27EA0E0EAB
:1029C000139F07FA0CFC4CEA0E0CC9F820C059E71B
:1029D000032597E7012595E7022593E7D0F80CE05A
:1029E000049F0EEA050E07FA02FC4CEA0E0CC0F832
:1029F0000CC047E7000401400004004800100240FA
:102A00002DE9F041C16F05689EB0044600295FD0F2
:102A100025682423E3672A68636A22F001022A609A
:102A2000002B40F0C380D4E90402A3682968034363
:102A30001343E0699E4A03430A4013432B606B68CB
:102A4000E26823F4405313439A4A6B609542A369AA
:102A5000AA6800F0F180216A22F430620B4313432C
:102A6000954AAB6095421BD0944B9D4240F0158136
:102A700003F5E633D3F8883003F00C030C2B00F297
:102A80000F81DFE813F0E0010D010D010D0172016E
:102A90000D010D010D012B010D010D010D01620153
:102AA000874BD3F8883003F00303022B00F0168124
:102AB000032B00F04A81012B00F05781B0F5004F45
:102AC00000F0CA81FDF768FD002800F018810AE1D6
:102AD00080F878105C2207A806F0EAFB764B9D424E
:102AE00000F0BF81754B9D4292D1022707A807973E
:102AF000FDF7EEFD0646002840F0DF81704B714D7A
:102B00009A6D42F400329A659A6D02F40032049292
:102B1000049ADA6C42F00102DA64DB6C03F0010320
:102B2000039307220323CDE90032039903463A4673
:102B30004FF090400F214FF08008FFF779FEC5E974
:102B40002E76C5E93068C5E93266C5E9346605F117
:102B5000B4065D4BC5F8B4303046FFF711FD0028D0
:102B600040F0AB816667102305F1FC06C5E9420819
:102B7000C5E94400C5E94600C5F804313046534B69
:102B8000C5F80071C5F8DC40C5F8FC30FFF7F8FC6B
:102B90000146002840F0918126672620C5F824418F
:102BA000FFF74EFD4A4B40225A6031E71E0705D51C
:102BB0006A68616B22F400420A436A60D80705D54F
:102BC0006A68A16A22F400320A436A60990705D54F
:102BD0006A68E16A22F480320A436A605A0705D5BE
:102BE0006A68216B22F480220A436A60DF0605D5F9
:102BF000AA68A16B22F480520A43AA609E0605D5FA
:102C0000AA68E16B22F400520A43AA60580609D56B
:102C10006A68216C22F480120A43B1F5801F6A6051
:102C200000F00A8119067FF5FEAE6B68A26C23F4F2
:102C3000002313436B60F6E622F43062134320490D
:102C4000AB60D1F8883003F44063B3F5006F00F057
:102C5000F18000F2E880002B00F02981FDF738FCBC
:102C600000284CD0626802EB4203834218D8B0EBD4
:102C7000023F15D8510800230F464FF480761946BD
:102C8000E0FB0671384604F023FB124BA0F54072BE
:102C90009A4205D8074BD86031E00F4B9D425AD07D
:102CA0000023C4E91A3301201EB0BDE8F08100BF43
:102CB000F369FFEF0080004000380140004400400D
:102CC00000100240880000206C000240800002409A
:102CD00000E100E0FFFC0F0000480040B0F5004FAD
:102CE000794800F08B80636800EB5300B0FBF3F091
:102CF0004FF6EF73A0F110029A42D1D8E8606A68EB
:102D00007249002322F49042C4E91A336A60AA6827
:102D100022F02A02AA602A6842F001022A60C4F85E
:102D20008430CE6E2B681A0727D42B685B073ED4FD
:102D300000232022E26784F87830C4F88020184607
:102D400023666366B0E7302BAAD1B0F5004F55D0AB
:102D50004FF40040C7E75E4BD3F8883003F03003F0
:102D6000202BBBD0EFD8002B6DD0B0F5004F41D059
:102D7000FDF7AEFB0028C2D0B5E76FF07E433246C8
:102D80004FF400112046FDF743FE0028CDD0236804
:102D900053E8002F22F0800243E800210029F7D1F8
:102DA0002023E367002384F8783003207CE76FF06A
:102DB0007E4332464FF480012046FDF729FE00286D
:102DC000B6D0236853E8002F22F4907243E8002124
:102DD0000029F7D103F1080252E8002F22F0010286
:102DE00003F1080040E800210029F3D12023C4F8B2
:102DF0008030D7E7FDF76CFB002880D0626853086D
:102E000003EB40034FF6EF71B3FBF2F3A3F11002B3
:102E10008A423FF645AF23F00F0292B2C3F342035A
:102E20001343EB606BE7B3F5406F7FF439AF4FF4BA
:102E3000004017E7244815E76A68616C22F4C00275
:102E40000A436A60EEE6B0F5004F38D0FDF790FB1C
:102E500000283FF454AF46E7FDF79EFB0028CDD194
:102E60004DE7012307A80793FDF732FC034620BB7B
:102E7000174A116E41F480411166116E01F48041D0
:102E800006910699D16C41F00101D164D26C072002
:102E900002F00102032105920190009102224FF4F9
:102EA000C0614FF09040059DFFF7C2FCB0E5FDF713
:102EB0005FFB00283FF423AFD4E6FDF769F9FDF787
:102EC00057FB00289AD11AE70024F400880000205C
:102ED000001002400E490F4A10B4CC6E13691B0754
:102EE00006D50C4B5DF8044B1869C0F3C000704761
:102EF000CB6E1B1B8342F4D272B613691B0700D43E
:102F000030BF62B6BFF36F8F13691B07E9D4EFE7D9
:102F1000880000200004004838B50446406818B115
:102F2000FDF762FE00236360206918B107F064F9C1
:102F30000023236125682DB12846FDF7ADFD78B942
:102F400000232360E06818B1FDF72AFE0023E36048
:102F5000064B4FF480529A62BDE83840FFF7C2BB7F
:102F600000232B602846FDF713FEE9E70004004824
:102F700010B41E4C94F8AC30012B33D0D4F88C1024
:102F80000220CA2384F8AD0001224B6253234B6216
:102F900084F8AC208B6823F480738B608B6823F4F7
:102FA00080538B60E06E04E0E26E121AB2F57A7F15
:102FB0000ED8CB6813F00103F6D00020FF220123C6
:102FC0004A6284F8AC0084F8AD305DF8044B704779
:102FD0000320FF224A6284F8AC3084F8AD005DF82B
:102FE000044B704702205DF8044B704788000020B6
:102FF0000CB4F0B5ADB032AB06AE53F8042B05936C
:1030000004460D463046962107F0DAF99528C4BFEC
:103010001B4BCDF8AA301B4B1B49DF6EA1FB0731C0
:103020001A4BA3FB0723980B194BA3FB07234FEA6B
:10303000931C184B4FF47A7202FB1C77A3FB00E23F
:103040005209042CC2EB0212A0EB8202A3FB0CE398
:1030500098BF114800974FEA531394BF005D3F207B
:10306000C3EB03130190CDE90256490DACEB83038A
:103070000A4807F07FF92DB0BDE8F04002B0704774
:103080002E2E2E0088000020B17C219573B2E745DA
:10309000D34D621089888888CCF60008A8F600080D
:1030A00070B5094E736F05469847044628B12A4605
:1030B000002106F0FDF8204670BDD6F88030034AA6
:1030C00003499847204670BD88000020D4F60008C8
:1030D000E4F600082DE9F04F02EBC30787B07B88C8
:1030E000DDF84090F3B18246884600264D467B6865
:1030F00053F82640C4F30170012816D0022830D0BE
:1031000028BBC4F34459012303FA09F39D4231D388
:103110002F4A3049D2F880602F4A013BCDE9005355
:10312000A3B2B04707B0BDE8F08FA3B2194658F874
:10313000232022F00F0215B1C4F30344224350466A
:10314000FDF7F4FD7B8801369E42D0D3EAE7204BA1
:10315000224AD3F880301F49002007B0BDE8F04F65
:103160001847A3B2194658F8232022F00F02002D69
:10317000E5D1E1E71FFA84FB4FF00103ADF80E3013
:103180004BF42043ADF81000CDF81200ADF80C3030
:1031900003A9504601230522FDF7C6FCC9F1200909
:1031A000BDF81220BDF814304FF0FF30C4F30444D2
:1031B00020FA09F0A04043EA024323EA000305FA9B
:1031C00004F4594643EA04025046FDF7AFFDB9E75F
:1031D0008800002080F50008F4F600082CF70008AD
:1031E000F8B516460D464FF4E272014618461C46E5
:1031F00006F0D4FFB6F8581021B196F85E30191ECB
:1032000018BF0121012396F85B2084F8C6312B46B4
:1032100084F8C52133F8262B84F8C411A4F8C821FA
:1032200005F1560104F5E5721F685E689868D3F8E9
:103230000CC0C2F80CC010338B421760566090600F
:1032400002F11002F0D1B5F85630A4F8FA3105F1C8
:10325000580604F5FE7E05F18807B446BCE80F0069
:10326000BC450EF1100E06F110064EF8100C4EF88B
:103270000C1C4EF8082C4EF8043CEED1B5F8883002
:10328000A4F82C3205F18A0304F22E24BA3518680A
:1032900059689A68DE68E6601033AB42206061606E
:1032A000A26004F11004F2D1F8BD00BF2DE9F04F87
:1032B0009846184BDFF860B0B3F8707083B0043AEA
:1032C000043F52087F0897420C9E0190894628BF10
:1032D000174601F1040A0025741BBC4228BF3C4676
:1032E00045EA0B02631E08EB4501A9F80020A9F886
:1032F00002306200504606F051FF25440198002339
:10330000A21C4946FDF710FCAE42E5D803B0BDE86B
:10331000F08F00BF8800002000C0FFFF2DE9F04FB4
:10332000264C87B00026CDE90466B4F87080894643
:10333000002B3DD04FEA5808CDE90102A8F104085E
:103340000D461F464FF4004BB246039325E0029B07
:10335000A5F800B033446B80631EAB80A5F806A0CF
:103360006200002105F1080005F0A2FF294601983E
:103370000123221DFDF7D8FB04AA134603CA2644E5
:103380006960286009EB460559F81600696803C3AF
:10339000039B9E42A7EB04070AD2B845444628BFC8
:1033A0003C46B845D3D200E0013CE307FCD4CEE76D
:1033B00009F1080007B0BDE8F08F00BF88000020C9
:1033C0002DE9F04F2DED028B1C461B78ADF21C4D04
:1033D00005460F4691460A2B12D8DFE813F021006C
:1033E0000B007200F7007C010002AB02D203240440
:1033F00055042100FDF7F2FD002840F00A852378EE
:10340000C84ED6F88050C84AC8490020A8470020B6
:10341000064626700DF21C4DBDEC028BBDE8F08F08
:10342000C04EDDF84804EC22002105F041FFD6ED46
:10343000517ADFEDBF5ADFEDBF6AF8EE677AB6EE7C
:10344000006A85EEA77AF4EEE67A37EE067AF1EEB8
:1034500010FABCEEC77A17EE103A1FFA83F800F3A1
:1034600033849FEDB57AF4EEC77AF1EE10FA00F1ED
:103470002B84A8F1100292B2EF2A40F2AD869FEDA4
:10348000AF7ADFEDAF6AD6F8805077EE877A37EE05
:10349000877ABCEEE78ABCEEC77AB8EE477A77EE59
:1034A000C77A67EEA67AFCEEE77A17EE907AA54B1C
:1034B000A54AA64901978DED008A0020A8472378E8
:1034C0009FE7FDF78BFD0490002898D04123002250
:1034D00039462846FFF722FF0023028C0292A0F112
:1034E000020A039398464FF6FF7B5A1E02FB02F234
:1034F000C2EBC202510001F5167CC83A3AF9021F2C
:10350000002B00F073843AF902EC01F57A76A1EB16
:103510000E019142FFF673AF61453FF770AF86EA47
:10352000E672A2EBE67292B25A4505D2990089B2D0
:10353000DDF81080039193460133102BD5D1B8F1FB
:10354000000F3FF45CAF039A82F0300ADDF84824A4
:10355000A2F804A0B0F822B0B0F88020A2EB0B02D1
:10356000B2F5FA6FFFF64BAF7949CDF810A012040F
:10357000A1FB021252094FF0000C20300392664664
:103580004FF6FF7E0AE0514538BF4FF00008013387
:10359000039A9BB2402B944400F05D8730F8021FE1
:1035A000029A8A1A002AB8BF524292B272450BEBB5
:1035B0001C4A38BF96460AF5487238BF1E468A42F2
:1035C00001F54871DFD24FF00008E0E7FDF706FD96
:1035D00000283FF414AF3946002220232846FFF785
:1035E0009DFEB0F9002007468446164601210020C2
:1035F00096463CF9022F02F54873A3EB0E039BB2EB
:10360000B3F5C86F3FF6FBAEB242A8BF084601F162
:103610000101A8BF16462029EAD1072840F2B58645
:103620001728A0F1070340F24B87D3F1200240F0A6
:10363000AF8646AB039303982EA9FEF763F80028E4
:103640003FF4DDAE9DED2E6AB5EE406AF1EE10FA64
:103650003FF4D5AE9DED2F7AB5EE407AF1EE10FA3B
:103660003FF4CDAEDDED306AF1EE666AC6EE877AE4
:10367000F5EEC07AF1EE10FAFFF6C1AEB1EE477A80
:10368000C7EE066AF5EEC06AF1EE10FA7FF5B7AE46
:10369000B7EE007A77EE877AFCEEE77A17EE903A8B
:1036A0009AB23F2AC3F34E033FF6A9AEDDF8482491
:1036B00083F01003D38040F215312846FDF7A6FBB6
:1036C0000426002800F0E58226700DF21C4DBDECAA
:1036D000028BBDE8F08FFDF781FC00283FF48FAE30
:1036E0005023394600222846FFF718FEDDF84834FB
:1036F000CDF81890CDE9045703F10A013023A0F169
:10370000020B9C460846A246124B002447F6FF7661
:10371000CDE9020B5D464FF6E472A646A1461F4670
:10372000B04623E08800002094F70008B8F70008AE
:10373000F902154F8096984C8096984BBD37063508
:103740000024744980FC000854F7000880F7000842
:10375000ABAAAAAA0080FFFF8E4204F10104C4BFF5
:10376000DE460E460832082C92B21AD035F9021FF6
:103770000FFA82FB4CB135F8020C081A00B28045F2
:10378000A8BF80468742B8BF07460029E4DA8B42CB
:1037900004F10104BCBFD9460B460832082C92B292
:1037A000E4D1A7F51C57103FBFB244F62062974200
:1037B000DDE9020B11D8B8F1000F0ED113F5004F5F
:1037C00000F0DB8547F6FF72964200F03F86AEEBD5
:1037D000090EBEF1080F00F0AD8254460FE6FDF76A
:1037E000FDFB00283FF40BAE4FF4407339462846EA
:1037F0000022FFF793FD0DF1340B00F5C063CDE916
:1038000004B30023029346AB0393484E484F0994F8
:1038100016ABCDE907B50DF1B80906930DF58A7819
:103820000546069CAA46BAF902103AF9040BFDF7C0
:10383000D7FE44F8040B4C45F5D12DACA346AA465F
:10384000BAF96210BAF96000FDF7CAFE4BF8040F2E
:10385000C3450AF1040AF3D1DDE902230DF1540E48
:103860009818002154F8043F5EF8042F9B1AB342C5
:1038700040F35782A3F5C9237E3BB342FADC002B09
:10388000B8BF5B429942B8BF1946A04540F8043B17
:10389000E8D1049B491043F8041F0493029B603352
:1038A0000293059BC0359D42BBD1DDE907B50021E0
:1038B000099C0A460B465BF8040F9042C8BF1946A4
:1038C00003F10103C8BF0246082BF4D10EAB0DF182
:1038D000B70253F82160039B01EB410103EB411157
:1038E0000DF1CF0051F8043BB342ACBF00230123DC
:1038F00002F8013F82421376F4D1002001230246F0
:103900000AE029B119F8011C002904BF1A46012058
:103910000133302B00F0F48319F8011F002AF0D096
:10392000002900F001820130F2E700BF3F240300CC
:10393000C1DBFCFF4FF6FF73ADF83830FDF74EFBEF
:1039400000283FF45CADD54ED54AD6F84431A2FBF1
:103950000328DDF84834B3F8E0304FEA98183946C8
:1039600003FB08F800224FF440732846FFF7D6FC0B
:1039700046AB07461A46039340460EAB3946FEF760
:103980000BFBC84B372283F82420002800F08281EB
:10399000DDF84824BDF838305384C34900932846E5
:1039A000C24A0C23FFF796FB284640F21741FDF769
:1039B0002DFA002800F06E819FEDBD7AF7EE007AB7
:1039C0003D4607F1C00007F5D86E0DF1B80CA0F127
:1039D000C0034FF00008B3F9022002FB02F1B3F973
:1039E0000020043302FB021298429044F3D106EE09
:1039F000908AB8EEE66AC030C6EE076A8645B1EE38
:103A0000E66AC7EE866AECEC016AE0D1DDF848347C
:103A1000DFEDA81ADFEDA80A9FEDA81A03F18809C7
:103A200016AB60370DF1D8089A46039B2EA92A469B
:103A3000B2F90000F1EC016A07EE100AB8EEC77A9D
:103A4000B2F9020027EE267A414567EE077A02F1C5
:103A5000C002C3ED007A07EE900AF8EEE77A32F979
:103A6000600C67EEA67A03F10C0327EE277A67EE67
:103A7000A77A03ED027A07EE100AB8EEC77A43ED93
:103A8000017A27EE267A32F95E0C67EE077AC3EDEB
:103A9000157A07EE900AF8EEE77A67EEA67A27EE37
:103AA000277A67EEA77A83ED167AC3ED177ABFD12E
:103AB000039810225146FDF725FE002800F0EA8009
:103AC000DAED006A9AED017AF1EEE67AB1EE006A7B
:103AD00066EE866A9AED026A67EE075A66EE866AB5
:103AE000B6EE006A76EEE56AF6EE085AB1EEE64A00
:103AF000C6EE276A77EEE57A26EE877A67EEA17A38
:103B000066EE846AF7EE004A77EE867A37EE247A1C
:103B100076EEE56AB3EE0F5A27EE207A66EEA16ADA
:103B2000F4EEC57AF1EE10FA37EE067A76EE866A92
:103B300000F37184F5EEC07AF1EE10FA00F188849A
:103B4000FCEEE77A17EE903A1BB2B4EEC17AF1EED2
:103B500010FA40F351846FEA83536FEA9353F3EE04
:103B60000F7AF4EEE76AF1EE10FA40F3368443F48C
:103B700078730435AF4229F8023F7FF456AF072629
:103B800047E4FDF72BFA00283FF439AC10233946FF
:103B900000222846FFF7C2FBDDF84834B3F88A302C
:103BA0000026844603F01F09C3F344189B0A09F159
:103BB000300908F13008A3F120000296B246B6465B
:103BC00037460CF1020B0BE05345774640F26E820C
:103BD000D6469A46B3B202930136082E00F06882A8
:103BE0003CF926303BF9262009FB03F302FB00F1E8
:103BF000002BB8BF3F33002902FB08F2B8BF1F31CA
:103C00009B11002A03EB6113B8BF3F321BB242F392
:103C10008F1203FB03F302FB0233BB42DCD9734573
:103C2000D2D81F46D8E7FDF7D9F900283FF4E7AB13
:103C30006023394600222846FFF770FBDDF8483440
:103C4000DDF848245633263200210646FEF710F9E7
:103C500000283FF4D4ABDDF84834DDF84824DDF823
:103C600048148833304658328A31FEF701F900286B
:103C70003FF4C5AB40F27C412846FDF7C7F8092662
:103C800000287FF421AD04E0FDF7A8F9002840F0FA
:103C90004781024E2378FFF7B4BB00BF88000020A5
:103CA000D34D62100000002078D9000858BB0008EE
:103CB00000004042000080420000004200007C42C0
:103CC000BD370635002474491FED037A5FED036AA2
:103CD000D6F880508B4B8C4A8C4977EE877A00203F
:103CE00037EE877ABCEEE78ABCEEC77A8DED008AA4
:103CF000B8EE477AA8F1100877EEC77A67EEA67A91
:103D0000FCEEE77ACDED017A17EE907AA847B8F18C
:103D1000EF0FBFD9D6F88050FFF7C9BB03F5C92311
:103D20007E33BB42FADBAAE50B2800F2E9810846A4
:103D30000A46EDE5F61ADB0093FBF6F3A9EB030365
:103D40000FFA83FEBEF1000FC0F26883BEF11F0FB1
:103D50003FF743AD1FFA8EFE6D4B83F815C00CF193
:103D6000010C5FFA8CFCBCF13A0F20F802EF0BF16A
:103D7000100B7FF4C9ACDDE90457DDF818908023FF
:103D80004A46394600932846624BFFF78FFADDF822
:103D90004834DDF848149B890093CE885E4A5F4919
:103DA00007232846FFF796F95B4A5C4900960823EB
:103DB0002846FFF78FF90323574A584900932846AE
:103DC0000923FFF787F90623534A544900932846ED
:103DD0000A23FFF77FF940F2D6312846FDF716F89F
:103DE0005446052600287FF46FAC52E701F57A733C
:103DF000002BB8BF5B429BB29B4502D80123FFF763
:103E000074BB00229B46DDF8108003920123FFF76C
:103E10006CBB43F232034FF00008469303220123A8
:103E200046A92846ADF81C81FCF77EFE39461223D0
:103E300042462846BDF81C61FFF770FA0146B0F80B
:103E400000E0B0F802C04346043140464FF6FF7729
:103E500046FA03F2D2070BD531F81320A2EB0C027D
:103E6000002AB8BF524292B2974284BF98B2174616
:103E70000133102BECD1431E0D2B3FF6C0AA00F1ED
:103E80000043013B01EB430731F813207B8841F2EB
:103E90008731D21A8A427FF7B2AA4FF6FF72964252
:103EA0003FF4ADAABA889B1A8B427FF7A8AA40F2CA
:103EB000E51303FB0EF31B0CA3F5897313F1140F29
:103EC0001AB2C0F201832C2A40F3FC824F2ACCBFE5
:103ED00004230323DDF848241049A2F800E05080B1
:103EE00093840D4A009025232846FFF7F3F840F20B
:103EF00033212846FCF78AFF022600287FF4E4AB32
:103F0000C7E600BF80FC000854F7000880F70008EF
:103F10000000002098BC000858BB000878D90008B1
:103F200039464FF49C6300222846FFF7F7F90DF15C
:103F3000340A0EAF0DF1580B2EAE4FF00008CDF83D
:103F400004805346CAF8008046AA00979021C7F81B
:103F50000080CBF80080C6F800808146FEF7A6F806
:103F600000283FF496AECDE900685B4646AAF021F2
:103F700009F59070FEF79AF800283FF48AAECDE973
:103F800000A839683268CC4BCC4D521A02FB03F3BF
:103F900005FB01F11B0CC3EB5133DDF84814C1F8EC
:103FA000BC30DAF8003005FB03F305FB02F25B0BD3
:103FB000C1F8C020C1F8C43046AA0CAB40F21F11B2
:103FC00009F20230FEF772F800283FF462AECDE944
:103FD000007B0BAB46AA4FF4907109F5A860FEF781
:103FE00065F800283FF455AECDE90086434646AA61
:103FF00009F5F0604FF49071FEF758F800283FF48F
:1040000048AEDAF800203F68DDF82CE0DDF830C07B
:104010003368DBF80010BE1A05FB02F7A84AACEBC8
:104020000E0C02FB0CF25B1A05FB01F805FB0EFE01
:10403000DDF84814120CC2EB5E32C1F8C82005FB53
:104040000CF2C1F8CC209F4A06FB02F2120CC2EB24
:104050005732C1F8D0209C4A05FB06F603FB05F554
:1040600002FB03F31B0CC3EB5833C1F8DC50974D34
:10407000C1F8D460C1F8D8304E1E01F1EB074FF003
:10408000FF3316F8012F0821534043F300022A4062
:10409000013982EA5303F8D1B742F2D1DDF848245E
:1040A000DB43C2F8EC300A26FFF7B3B99E4693E52E
:1040B000B7EB5A0FBFF4A3A9DDF84824029B138481
:1040C0008349844A009328460B23FFF703F8002313
:1040D000804A7F49009328460923FEF7FBFF7E2391
:1040E0007B49009328467B4A0A23FEF7F3FF40F200
:1040F00053412846FCF78AFE00287FF4E5AAC8E56C
:10410000A0F10C03082B3FF67AA902EB5002172A04
:1041100002D9183A172AFCD892B2910089B201F15B
:104120003006DDF84834B6B25F2E1A8140F2C28103
:10413000694BA3FB06239B0903EB4303A6EB431345
:104140004FF000080E46C14699B20127614A00911E
:1041500021235F492846FEF7BDFF5E4A5C49009671
:1041600022232846FEF7B6FF03265A4A58490097ED
:1041700001232846FEF7AEFF564A55490096022312
:104180002846FEF7A7FF3346524A5149CDF8009022
:104190002846FEF79FFF4F4A4D49CDF80080042383
:1041A0002846FEF797FF4B4A4949009705232846C2
:1041B000FEF790FF0023474A45490093284606230F
:1041C000FEF788FF40F2ED312846FCF71FFE062679
:1041D00000287FF479AA5CE577EEC77ADFED3F6AC5
:1041E0009FED3F7A67EEA67AB8F13F0F77EE877AB8
:1041F000FCEEE77A17EE903A9BB200F21A810021AA
:10420000B8F12F0F88BF42468C46DDF84804A0F86D
:10421000E080A0F8E830A0F8E210A0F8E420A0F8D0
:10422000E6C02846B6F87080FDF790F900283FF404
:1042300031AD4FEA590C4FEA5808C44528BFC4466F
:10424000ACF1020CCDE903452CF0010C3B1D40F60E
:104250004C3A02931FFA8CFB4FF00008E146C8F578
:1042600034630C33994594BF5D4655464FEA580474
:1042700068084FEA84010CD0154B07EB8000194405
:104280003B4651F8042BDA80120C9A8004338342A7
:10429000F7D1DDF848340298B3F8E23001931C23DB
:1042A00000932A460B4B4146FDF76AF8D0B9039CB0
:1042B0002378FFF7A6B800BFA82A0400AA0A0100C5
:1042C00054150200A64A07004E750B002083B8ED76
:1042D00078D9000858BB0008ABAAAAAAE8385BB591
:1042E00000007C42DDF848340298B3F8E4300193D2
:1042F0001A2300932A46754B4146FDF741F80028E2
:10430000D5D0DDF848340298B3F8E63001931B238A
:1043100000932A466D4B4146FDF732F80028C6D07F
:10432000DDF848340298B3F8E8300193192300937C
:104330002A46664B4146FDF723F80028B7D02B46A6
:10434000049821463A46D844FCF708FD1FFA88F83D
:1043500040F64B33AAEB0B0A98451FFA8AFA7FF610
:104360007EAFDDE903454FF4AE712846FCF74EFD04
:10437000012600287FF4A8A98BE447F6FF739E422C
:104380007FF4E0AC5446FFF73AB800F1080200238E
:1043900046A9981807EB4000039107EB430707EE87
:1043A000903A37F9026BF8EE677AB842C1ED027ABB
:1043B00007EE906AF8EEE77A03FB03F6C1ED007AA8
:1043C00007EE906AF8EE677A03F10103C1ED017A16
:1043D00001F10C01E3D1FFF72EB9F5EEC06AF1EE61
:1043E00010FA3FF5C6ABFCEEE66A16EE902A43EAF9
:1043F00042131BB2FFF7BDBBB5EEC07AF1EE10FA67
:104400003FF5ADABBCEEC77A17EE102A43EA822324
:104410001BB2FFF7A4BB1F23FFF797BBCEF1000E23
:104420001FFA8EFEBEF11F0F3FF6D7A94EF0200EE9
:1044300092E4B8F1BF0F96BFA8F140024FEAD8024C
:10444000C2F3CF0208F0070C0121DEE6CE4679E484
:104450000023FFF77ABBDDF810A0B8F1000F3EF49F
:10446000CEAFDDF848345E81012300934FF47E53D4
:104470004A463946ADF81831284646ABFEF716FFD6
:10448000124A1349009626232846FEF723FE0F4AB8
:104490000F49CDF800A024232846FEF71BFE40F26A
:1044A000C6212846FCF7B2FC032600287FF40CA99D
:1044B000FFF7EFBB4FF003084FF00109002745E677
:1044C0000F2265E7022305E5012303E558BB000839
:1044D00078D900082DE9F04F2DED0C8B99B090F8AC
:1044E0005E409B4690F85C300893042CB0F858303E
:1044F000039381468846924615D890ED145AB5EE3E
:10450000C05AF1EE10FA00F1F38190F86630002BFA
:1045100000F08F8290F85B30002B00F08A82D64C3E
:10452000D64A059402E0D44CD54A0594D4F880309C
:10453000D44900209847D9ED157AD4F84431019335
:1045400007EE103AF5EEC07AF1EE10FAB8EE478AAF
:1045500040F3D281C8EE278AF6EE007A78EEA78A79
:10456000039B002B00F0C18199F85E30049399F809
:104570005A30002B40F0C38199F86020022A41F0A4
:104580004E8099F85E40012C00F0CA830024224638
:104590002E990C71AAF8AC21002B00F0B58199F886
:1045A0005F30012B00F0DC83022B00F0D683002B60
:1045B00040F0C78301231A46AAF82630AAF828201B
:1045C00099F86030012B00F0B483022B00F0B08327
:1045D000002B00F0EB83059BAB4AD3F88030A94950
:1045E00000209847B8F1000F00F09281002301935A
:1045F000B8F8E410B8F80830AAF80210B8F8E610D5
:10460000AAF80410B8F8E210AAF80010B8F8E810F8
:10461000AAF80610B8F80210AAF808109B00B8F81B
:104620000410AAF80A109BB2B8F80610AAF80C10E9
:1046300003F13002B8F80A10AAF80E1092B2B8F8D6
:104640002010AAF810105F2AB8F82210AAF8121049
:1046500040F2EB816020B2FBF0F100FB112189B246
:1046600000201A4604460B460121AAF81430AAF885
:10467000162000230322AAF82230AAF81C40AAF828
:104680001E00AAF81810AAF82010AAF81A20ABF8F1
:1046900002300123CBF80A30019B002B00F07B860F
:1046A0000024CDE901440AF13E039FED789A9FED85
:1046B00078AADFED7B9ACDE9068A0AF14E060BF166
:1046C0000E074D469A46049AE3B29A4200F22981B7
:1046D00000233B803B81AAF800300134042C07F111
:1046E00002070AF1020A05F1140506F15606EAD19D
:1046F000DDE9068A0124BAF8AC31012B04D1DDE9E9
:10470000023202FB03F30293BBF80C20039B029DD1
:10471000B9F8640099F863C099F8667099F862E096
:1047200012FB03F2BBF80A30AAF89EE192B24FF6F0
:10473000FF7113448D429BB228BF0D464608591C99
:10474000AAF8A4518CF0010C019DAAF8A6C1033867
:10475000033E89B2AAF8A051AAF8A801AAF8AA6152
:10476000ABF80C20ABF80430ABF80610002F00F0CB
:104770001481413399B240250123ABF80010ABF806
:104780000850AAF8C031B8F1000F03D0B8F80C30C7
:10479000AAF8C231002C40F031812E9A0023136018
:1047A00099ED145A0024089BAAF8B231039B012BFF
:1047B00040F22181B9F85830023B01229BB29FEDB3
:1047C000356ADFED355A99F85A10F1EE007AC8EEE5
:1047D000066A68EE277A68EE255A87EE867AC5EE75
:1047E000867AB6EE006A76EE866A37EE067AFCEED8
:1047F000E66AB5EE405AD9ED155AAAF8AE31F1EE97
:1048000010FA16EE903A77EE867ABCEEC77AAAF8DE
:10481000B02114BF01220022FCEEE77AAAF838206A
:1048200099F85B20AAF8B43117EE103AF5EE405A29
:10483000AAF8B63117EE903AF1EE10FAAAF8B831AC
:1048400014BF01200020002C40F0AA80AAF83010EC
:10485000AAF83220AAF82A0099F861300F4ACAF85B
:10486000BA2101212046AAF82410AAF8BE3119B0B5
:10487000BDEC0C8BBDE8F08F8800002010F800081C
:10488000CCF70008E8F700080CF900082549123EAB
:104890008FC2753D0024744900009643FF0701084C
:1048A00000000000F5EEC07AF1EE10FA00F1D782B8
:1048B00099F85A30002B00F0D582F5EE407AF1EEEF
:1048C00010FA05D1B5EE405AF1EE10FA40F08483AB
:1048D0005FED0D8A059B674AD3F88030664900205A
:1048E0009847039B002B7FF43FAE039B04933EE667
:1048F000624C634A059419E6DFED628A30E62E9A2F
:1049000000231371AAF8AC31B8F1000F7FF46EAE3A
:104910000123CDE90188ABF80280CBF80A30444688
:10492000E9E60123AAF8003099F85C802A8940F270
:10493000FF3340F2FF11B8F1000F18BF0B460AB366
:104940009A421FD8AA7B2B7C62B1022B0AD1059B0D
:104950004D4AD3F8803048490020DDE9068A00241A
:104960009847C8E6E87B002840F0FC81012B00F066
:104970009580059B454AD3F880303F49DDE9068A9A
:10498000984708E0059B424AD3F880303A49002016
:10499000DDE9068A98470024ADE63D463B46ECE655
:1049A000B5EE405AF1EE10FA0CD0C8EE057A77EE6B
:1049B000867AFCEEE77A17EE903AAAF83C301B0CA8
:1049C000AAF83A30002361F30F03F5EE405A62F380
:1049D0001F43F1EE10FAAAF82A00CAF830303FF46B
:1049E0003BAFFCEEE87A17EE903A1A0CAAF82C20AE
:1049F000AAF82E3030E700221346E0E699F85D3041
:104A0000072B3FF6CAAE234A9FED1E9A134493F834
:104A1000F43BAAF8A2312E9B83ED009A049B002B55
:104A200040F0238299ED145ABDE6032001240021B1
:104A30001BE6012C40F2C88199F80F104A46012369
:104A400003E00133A34200F0BF81084692F823102F
:104A5000814202F11402F4D2084D0F4AD5F8804089
:104A6000054905950020A047D9ED157AD5F84431C0
:104A700065E500BF70F80008E8F70008880000202E
:104A8000FCF70008000000003CF9000868F9000885
:104A90002CF90008A8B100083CF800086FF00B03DF
:104AA0000B93EB88AA880E93182B099240F2798217
:104AB0001822B3FBF2F102FB11339BB2002B40F042
:104AC000F5828BB20D930A92099B002B40F02E8445
:104AD000059BAF4AD3F88030AE4909989847B8F1A2
:104AE000000F00F018844FF000080223099A0B9978
:104AF00012FB03F39BB209932B6819440B460C91EC
:104B00000E99013A01FB023203F5C3430B9228339D
:104B10004CF25032934208D9059B9F4AD3F880301B
:104B20009C49002098474FF000080B9B03F5C343B6
:104B300028334CF25032934208D9059B974AD3F858
:104B400080309449002098474FF000080C9B002BC0
:104B5000C0F20183182293FBF2F212B20B990029E2
:104B6000C0F2F182182391FBF3F31BB292B29B1AAD
:104B700099B21BB20D981293B1FBF0F14B1C13913B
:104B80000C99119218221FFA83FE91FBF2F302FB9B
:104B90001313002BB8BF18331BB20F930A990A9B4B
:104BA000B2FBF1F2BDF83C10B1FBF3F003FB1010C7
:104BB00083B20C930B9B4FF0180C93FBFCF00CFB97
:104BC00010300028B8BF183003B2013A10930C9887
:104BD00093B20A9A179313FB0200BEF1010FBDF8BE
:104BE000402080B200F0CD82131A18BF01230E932B
:104BF0000C9B994200F0BA820E9B139A1493D21A1E
:104C000092B20B9202460F9BD31A0A9A93FBF2F3CD
:104C10009BB21593012316930C9B89009B00B186D0
:104C2000F386B8F1000F40F0588380230F934FF0C4
:104C300000080F99119B1298A1F14A0292B2C3F198
:104C40002903134411924A08033AF2851AB21392C7
:104C50009BB2121A1293292AA1F10303B38508DC2F
:104C6000059B4F4AD3F880304A49002098474FF0BF
:104C700000080F9B139A143B9A4208DB059B494A94
:104C8000D3F880304349002098474FF000080A9B32
:104C9000013B9B009BB22C2B00F244821E2B40F266
:104CA00054831E3B99B20F231A46A6F84830149B32
:104CB000A6F844300D9BA6F84C100B99A6F84A2094
:104CC000013B169AA6F846300B1E18BF0123119817
:104CD0003086002A1298A6F84230159B708608BFCD
:104CE0000023A6F840207387002900F0EA810E9B7C
:104CF00033B10C9A109B9B1A0A9A93FBF2F39BB266
:104D0000F3870B9B179AB287013B9BB20B930B9BCC
:104D10003387B8F1000F40F03D82DDE9068A3AE6BC
:104D200099F81020013A012A7FF630AC22462FE490
:104D30000023CAF83430B8F1000F3ED001230193AC
:104D400056E4059B184AD3F8803012490020984752
:104D5000B8F1000F7FF44AACDAE500231A462BE4E1
:104D6000002229E4013B042B00F2778401A252F8CF
:104D700023F000BF9D4A0008D14F0008894D00086C
:104D8000C94F0008894D00086FF00C030B9388E6AB
:104D9000B4F90008E8F7000800FA000814FA00085F
:104DA00048FA000868FA0008ECF800084FF0011310
:104DB000CAF83430B8F1000FC0D10023ABF802308C
:104DC0000123CBF80A306BE4C24BD9ED157A059379
:104DD000D3F84431019307EE103AF5EEC07AF1EEC4
:104DE00010FAB8EE478A7FF75DADC8EE278AF6EE77
:104DF000007A78EEA78A18EE900A06F049F859B1C1
:104E0000059BB54AD3F88030B44900209847039BEE
:104E1000002B7FF4A9AB69E599F85A30002B7FF499
:104E200059AD039A99F85F10002A99F8602014BFD1
:104E3000204600209142049008D9059BA84AD3F847
:104E40008030A64900209847FFF791BB022A00F066
:104E5000E3832E9A1371AAF8AC31FFF7A0BBDFED04
:104E6000B08ACDE7DFEDAE8ADBE7BAF8AC31BAF84D
:104E7000A421012B00F0C68007EE902ADFED999A5D
:104E8000B8EE67AAB7EE089AB2EE02BA059B9FED9C
:104E9000960AD3F84431019307EE903AF8EE67CAC8
:104EA00080EE2C0A03F0B6FA99F86030022B6CEE13
:104EB00080CA00F23B818D4A02EB8301D1ED00AA4A
:104EC000D1ED03BA20469FED96CA9FED89DADFF84F
:104ED0004CB2824E059D01944FF0000899F85E3067
:104EE0005FFA88F4A34240F2A580142303FB0493E5
:104EF0001B7C052B00F28D80022B40F29380022751
:104F0000142303FB0493DB7B052B00F29C83DFE877
:104F100003F03F3C39034542DFED767AF8EE677ADD
:104F200014228CEEA77A02FB04927B0007EB470762
:104F3000BF00118918370433BFB201FB03330233BA
:104F40005B009BB207EE907A87EE0D6A08F10108CC
:104F5000F8EE677A87EE867A07EE903AF8EE677A8F
:104F60009388C7EE865A06EE903AF8EE666AF0EE3F
:104F7000477A45EEA67A77EEA97A77EE897A3CEE03
:104F800027CAABE7DFED5C7AC8E7DFED5C7AC5E7FF
:104F9000DFED5B7AC2E7DFED5B7ABFE7DFED5A7AE0
:104FA000BCE70E9A002A00F081801823B3FBF2F3CD
:104FB00002FB03F3C3F118039BB2002B76D10E9BC7
:104FC0000A9301230D937FE56FF00F030B9368E5C0
:104FD0006FF006030B9364E599F85F2099F8603051
:104FE0009A427FF475AC039B2E9ADFED4D8A002B1D
:104FF00014BF23460023049300231371AAF8AC3195
:10500000FFF7CDBAF0EE499AB0EE49BAB0EE49AA30
:105010003CE70020D5F880305A46314600279847B3
:1050200038466DE7012B03D0022BF2D1032767E747
:10503000042765E7019C00283FF4B2AB9FED337A6B
:10504000DFED2B6A9FED326A99ED145A2E9BCCEE60
:10505000877AB1EE0C7AC7EEA65A2AEE07AA7AEE44
:10506000ABAACAEE257AB0EE007A77EE8B7A77EEAD
:105070008C7A77EEAA7A07EE867A77EE277A86EE32
:10508000A77AB4EEC57AF1EE10FA83ED007A7FF5D7
:105090008AAB059B1F4AD3F880401049FDEEC77AC2
:1050A000002017EE903AA047FFF77ABB059B1A4AFB
:1050B000D3F8803009490020984701230A930D93C3
:1050C0000DE50E9B002B40F029810B9BF3870023FD
:1050D000B3871CE6880000205CF80008E8F70008A9
:1050E0009CF800089A999D41F902154FA4BD00084B
:1050F0000024744920010000C0000000A00000004E
:1051000080000000E001000080010000000020435A
:105110000AD7233CE4FA0008A0F9000890F9000837
:105120000000000000231A461946BEE5059B5FED0E
:1051300004BAD3F880309A4A9A4900209847F0EE92
:105140006BAA0020BFE60B9B1821DB43B3FBF1F3F6
:10515000DB431BB20AE50C9BDA431823B2FBF3F2E4
:10516000D24312B2FAE4824210D10E930E9BAEEB00
:10517000030E1FFA8EF20B920022CDE91432169222
:105180004AE50C9B99424FF00003ECD014930B932B
:105190000E9338E5AB7A172B00F2DE80092B00F274
:1051A000EC80C3F109039AB2152326F8083C069B4C
:1051B00026F8062C002B00F01B8203EB4202938999
:1051C00026F8043C2B7C013B042B00F26B82DFE8C9
:1051D00003F07D626D58030000214FF002080B20A0
:1051E0004FF0050C08228E460B467084A6F82080EE
:1051F00042EA02424FF001080CF1FF30326008FA37
:1052000000F008FA0CF2013A013892B240027081C3
:105210009001520280B23281002260F30F0260F3EB
:105220001F42726099F85D20002B00F0C380BEF130
:10523000000F00F0BF80022A00F222815A4B134473
:1052400093F8F03BB381069B002B00F0C98000234C
:10525000A6F81C803382069B0B91D3E9328C002286
:10526000D3F8C4300A9313460A9908EB1240401A47
:105270000B998842624480F2468101330F2BF3D1AF
:1052800042E100214FF0020806204FF0030C0822F3
:105290008E460B46A9E74FF0010C4FF003080220A1
:1052A000082296214FF0FA0E63469EE7022304215E
:1052B0009C460822082A718433843FF62EAD4FF0B5
:1052C000000E42EA02427146734693E7069B0021B4
:1052D0009A8C4FF0010C0423ECE7EB7B052B00F2DA
:1052E000C781DFE803F00D0A070314104FF4907331
:1052F0000F939EE4C0230F939BE4A0230F9398E4A5
:1053000080230F9395E44FF4F0730F9391E44FF4DF
:10531000C0730F938DE40423FFF7E8BB0C9A109B36
:105320009B1A0A9A93FBF2F39BB2CFE6B8F1000FF7
:105330001DD12B7B53B3059B1C4AD3F880301949F0
:10534000404698470423FFF7D1BB0F2B12D90F3BE0
:105350009AB200210F23A8E4059B154AD3F88030A8
:1053600010490020DDE9068A9847FFF714BB0223A5
:10537000FFF7BCBB0022114697E4102B94BFC3F18A
:105380001E03C3F117039BB200220EE74FF0010882
:105390000423FFF7ABBB019B02931C46FFF7ABB99D
:1053A0000CF90008E8F70008A8B10008C8F90008DF
:1053B00080FA0008072A63D8B248024492F8F42B16
:1053C000B281069A62B100223282002B66D1B38389
:1053D0007382F381B3827383F38233830023F38375
:1053E0002B89EA7A3285012B55D0023B9BB20121F1
:1053F000B384AB7B26F8023C83F00103F184738510
:105400000999BBF80C303B800B443981ABF80C3068
:10541000AB88297C06EE903A2B89012907EE103AD9
:10542000338C2AD0022914BFF0EE695AF0EE4A5AA2
:1054300001339BB207EE903AF8EE677AB1EE006A5C
:10544000F8EE666A67EE867AB8EE477A67EEA67A75
:105450000198029B67EE877A014667EEA57A0028DD
:1054600008BF114667EE897A0191FCEEE77A17EEE4
:10547000902A13440293FFF730B9DFED835AD7E740
:10548000059B824AD3F8803081490020DDE9068AF5
:105490009847FFF780BA00231946A9E70123B38391
:1054A000BEF1000F7FF4D7AEA6F812E07246714647
:1054B0000023F181B3827383002A4CD1F282134618
:1054C0009E44069BD3E92F81F04542DA084600232B
:1054D00003F1010C0A931FFA8CF3162B2ED008EB64
:1054E000104CBCEB0E0C0844F2D4002A7FF475AFCC
:1054F0000A9800FB01F108EB1148AEEB0802944555
:10550000C8BF034669E79BB2069A7382D2E9368325
:1055100003EB830208EB1242F92A65DC062003FB49
:1055200000F0052202E0BCF1FA0C52D5114601321E
:1055300092B2142A08EB104C1844F4D1059B554A3A
:10554000D3F8803052490020DDE9068A9847FFF7FA
:1055500022BA002341E7069AD2E9340C704545DAB5
:105560006246984601339BB2162BE7D000EB1241FE
:10557000B1EB0E016244F4D40CFB08F200EB1242D2
:10558000AEEB02029142D8BF98460699728AD1F8D2
:10559000CC30A6F8168003FB02F2D1F8C83003EB3A
:1055A00012430A46D1F8C4100B91F1890A910B9964
:1055B0005B1AD2E9362EC1D40A990CFB08F80EFB0F
:1055C00001F102EB114200EB184002EB000EFA224F
:1055D00076E701FB03F308EB1343C3F1FA039C45A1
:1055E000D8BF1146FA2263E70521FBE79846CCE7CE
:1055F000069B26F8043C2B7C013B042B52D801A2CD
:1056000052F823F03356000897520008AD520008B4
:1056100083520008D95100080123FEF7B4BF2E9A27
:105620001371AAF8AC31B8F1000F7EF4DFAFFFF7C9
:105630006FB900204FF004084FF0010C0222014620
:1056400086460346D1E50020D5F88030124A10493D
:105650009847DFED127A002060E4059B104AD3F8EA
:1056600080300B490020DDE9068A9847FFF793B99F
:10567000059B094AD3F88030054900209847FFF779
:10568000D4BA00BFA8B10008CDCC4C3E98FA0008AF
:10569000E8F70008B8FA00083CFA000880000000AB
:1056A00090F90008059B084AD3F880300749DDE9E6
:1056B000068A00209847562303FB04A30022C3F860
:1056C0006E20FFF768B900BF90F90008E8F70008FE
:1056D0002DE9F04FADF5117D0C46154600214FF434
:1056E000E27206460DF118081FA81F4603F0E0FD00
:1056F000CDF8008008AB1FAA29462046FEF7EAFE37
:1057000030B94FF0000840460DF5117DBDE8F08F2F
:1057100094F85B20414608A810ABFBF7B1FA0028CB
:10572000EFD09C9ABDF8523013809D9ABDF8563048
:10573000DFF8ACB013803046BBF87080FBF706FF93
:1057400058B34FEA570A4FEA5808C24528BFC24625
:105750009A9B0397AAF1020A2AF0010A2A46043307
:1057600055464FF00009A0461F4692464A4605ABF3
:1057700039461FA80595FCF7C1F94FEA5901A9441C
:10578000059B9A9A04461FFA89F93046FBF7E6FA18
:10579000B9F51E6F08D2002CE8D1DBF880300D4A35
:1057A0000D4900209847ACE74346A046039F1C469E
:1057B000B8F1000FF1D080239A9900933A46304611
:1057C000064BFDF773FD9B9B224651461FA8FDF734
:1057D00007FD98E704FB000864F1000898BC000886
:1057E000880000202DE9F04FADF5117D06460C46EE
:1057F000154600214FF4E2721FA89B4603F058FDA6
:105800003C22002110A803F053FD9B9B93F8C57127
:105810006FB15F4B5F4AD3F880305F4900209847F3
:105820004FF0000840460DF5117DBDE8F08F0DF1F9
:105830001808CDF8008008AB1FAA29462046FEF7BD
:1058400049FE0028ECD0414694F85B2008A810AB34
:10585000FBF716FA814680460028E1D09C9ABDF8F5
:10586000523013809D9ABDF8563013809B9805AB3B
:105870000DF112021FA9FCF70FFDBDF81420BDF8B1
:1058800012309A4206D29B9B224629461FA8FDF75A
:10589000A7FCC7E739463046FBF79AFA20B93046ED
:1058A000FBF7C0FB002864D005AB9B980DF11202FA
:1058B0001FA9FCF7F1FCBDF812A0BDF814309A4501
:1058C0000ED9334AD2F8843034490591002B44D0A4
:1058D00005A9304602229847B9F1000FA0D0D2E7BF
:1058E0002B4ACDF80880B2F8701003954FEA5B0B95
:1058F00049088B4528BF8B46981CA0EB0A00ABF1EA
:10590000020B2BF0010B80B29A99834528BF834686
:105910000431A14698465C460D46934604E0A244F5
:105920001FFA8AFAC24511D805AB524629461FA86C
:105930000594FCF7E3F807460028F0D0059B9A9AF7
:105940004FEA5A013046FBF709FAE8E74C46DDF822
:105950000880039DB9465A46B4E7D36F104A0592B2
:10596000304605A904229847B9F1000F3FF458AF1B
:1059700089E7074B93F88820002A3FF451AFD3F80A
:105980008040084A084933460120A04748E700BF45
:105990008800002018FB000864F100088010010056
:1059A0001080000158FB00087CFB000870B5FEB0B9
:1059B0004FF4E27204460D460DA8002103AE03F039
:1059C00077FC00960DAA05AB00212046FEF782FD6C
:1059D00008B97EB070BD94F85B202B46314605A80F
:1059E000FBF74EF9F5E700BFF8B595692B7802EBA8
:1059F00043030F46B3F84460536901466888144670
:105A000003EB4000720004F09DFB6B88E26D1E44C6
:105A100013786E8003B93B791370F8BD2DE9F04F10
:105A20002DED048B038F8DB00546002B00F0158102
:105A3000B0F84030428F0469B0F850E007925B0044
:105A40000293838FC28F34F913300B92BEF1000F93
:105A500000F003811B010893D0E91223D718B0F896
:105A60005200B5F84230DFED8A8ADFF830B2019398
:105A7000FE434FF00008F6EE009A0990C1460496E6
:105A8000CDF828E0834B83FB0710F917C1EBA00189
:105A900001EB4100A7EBC00000281FFA89F886B28D
:105AA000C0F2EB80002FC0F2F180089B09B209041C
:105AB00081FB0301002906DA4FF6FF7C10EB0C0C8A
:105AC000604641F10001079B000C40EA0140991932
:105AD00034F91110A0EB011007EE900AB8EEE79A26
