:020000040800F2
:100000000000012085A20008092F00080D2F00081C
:10001000112F0008152F0008192F000800000000FC
:100020000000000000000000000000001D2F00087C
:10003000212F000800000000252F0008292F0008AC
:10004000D5A20008D5A20008D5A20008392F0008C3
:10005000D5A20008D5A20008D5A20008D5A20008A4
:10006000D5A20008752F0008D5A20008D5A2000867
:10007000892F0008952F0008D5A20008D5A20008F6
:10008000A12F0008AD2F0008D5A20008D5A20008B6
:10009000D5A20008D5A20008D5A20008D5A2000864
:1000A000D5A20008D5A20008D5A20008D5A2000854
:1000B000D5A200080000000000000000D5A2000842
:1000C000D5A20008B92F0008D5A20008D5A20008C3
:1000D000D5A20008D5A20008E12F0008D5A200088B
:1000E00099330008193500080000000000000000E6
:1000F0000000000000000000000000000000000000
:1001000000000000D5A2000800000000D5A20008F1
:100110000000000000000000D5A20008D5A20008E1
:10012000D5A20008D5A20008D5A20008D5A20008D3
:10013000D5A2000800000000000000000000000040
:10014000D5A20008D5A20008D5A200080000000032
:10015000D5A20008D5A20008D5A20008D5A20008A3
:10016000D5A20008D5A20008D5A200080000000012
:10017000D5A20008D5A20008000000000000000081
:10018000D5A20008D5A20008D5A2000800000000F2
:10019000BFF34F8F0549064BCA6802F4E062134370
:1001A000CB60BFF34F8F00BFFDE700BF00ED00E065
:1001B0000400FA0590F82520022A03D00422C26325
:1001C000012070470168426C10B50C6824F00E04E1
:1001D0000C600C6824F001040C6002F01C02046C3A
:1001E000012101FA02F26260826B80F8251000247E
:1001F00080F8244002B19047002010BD70B4436CD9
:10020000066C056831682C6803F01C0304229A40D0
:100210000A420ED014F0040F0BD02B689B0603D4B7
:100220002B6823F004032B60036B7260CBB170BCAE
:10023000184702229A400A4215D014F0020F12D039
:100240002B68990606D42B6823F00A032B60012340
:1002500080F82530C36A7260002180F82410002BDA
:10026000E5D170BC704708229A400A42F9D02207B3
:10027000F7D52A68416B22F00E022A60012202FAA9
:1002800003F300247360C26380F8244080F82520C3
:100290000029E6D070BC0847002310B480F8423033
:1002A00090F84120212A4FF0200118D1112280F826
:1002B0004110026390F84110046801F0280122689F
:1002C0004363282914BF6FF0F2016FF042010A4026
:1002D000002322605DF8044B80F840307047122202
:1002E00080F84110026390F84120016802F0280272
:1002F0000C684363282A14BF6FF0F4026FF04402C5
:10030000224000230A605DF8044B80F840307047BB
:1003100001680B68002280F842205A040CD50B6853
:1003200023F480430B6090F84130292B0ED090F8D5
:1003300041302A2B20D070471B04F4D50B6823F4DE
:1003400000430B6090F84130292BF0D12822212363
:1003500080F84120036390F841300A6803F02803D5
:10036000282B14BF6FF0F2036FF0420313400022FA
:100370000B6080F8402070472822222380F841201B
:10038000036390F841300A6803F02803282B14BF58
:100390006FF0F4036FF04403134000220B6080F809
:1003A0004020704710B400232022174CC4624363DE
:1003B000036380F8412080F842304B07026811D572
:1003C000436A526A1A70436A028D013343624AB12A
:1003D000438D013B9BB24385436C013A43F00403D8
:1003E00002854364036890F8412090F841201A6820
:1003F000102422F0FE0200211A60DC615DF8044B3B
:1004000080F84010704700BF0000FFFF10B50446A1
:10041000514A94F84130002084F84200E26260853D
:10042000626C1143A3F12802022A236861645DD83B
:1004300094F8411094F8412001F02801282902F095
:10044000280214BFF6214621282A1A680CBFC94386
:100450006FF0F6010A40282040491A6084F84100F4
:10046000A06B226B616318B1112A11D0212A0FD021
:10047000E06B18B1122A20D0222A1ED094F8413005
:10048000602B4FF0000360D0236384F8403010BD30
:100490001A68510454D490F82530012BEED0304A1C
:1004A0008263002384F84030FFF784FE0028EED0FA
:1004B000A06BBDE81040836B18471A68120403D57F
:1004C0001A6822F400421A6090F82530012BD5D02A
:1004D000234A8263002384F84030FFF76BFE002834
:1004E000D5D0E06BBDE81040836B184794F84120ED
:1004F00094F841201A6822F0FE021A609A69920765
:1005000048BF98629A69D10703D49A6942F0010200
:100510009A6194F84120602A10D0202284F841206A
:100520009A6992060AD59A69D00605D51022DA6131
:10053000626C42F0040262642022DA6100218FE7DB
:100540001A6822F480421A60A5E7202284F841202C
:1005500084F84030236310BD0000FFFF61290008CC
:10056000C50B000830B40368202282B0DA6190F82D
:100570004120212A90F841204AD0222A56D05A6898
:10058000324C002522405A60314C4563CD06C4628E
:1005900005D51022DA61426C42F00402426490F800
:1005A0004120602A2DD09A69910744BF00229A62A7
:1005B0009A69D20703D49A6942F001029A61436CA6
:1005C00090F84120602A0BD053B990F84120212A9D
:1005D0000AD090F84120222A06D002B030BC7047E1
:1005E000416C02B030BC11E7202280F84120036347
:1005F00090F8422080F8403080F8423002B030BCA1
:1006000070474C07CFD55A6AD2B20192019ACAE715
:1006100002F028021C68282A14BF6FF0F2026FF063
:100620004202224011241A600463A8E790F8412096
:100630001C6802F02802282A14BF6FF0F4026FF041
:100640004402224012241A60046398E700E800FE86
:100650000000FFFF38B590F84030012B00F0858096
:100660000123CD06044680F8403001D5D00659D488
:100670000D063AD550064DD523681A6822F040027F
:100680001A60628D92B2002A71D05868628D92B25F
:10069000FF2AC0F3090078D8618DE26A89B212F5A9
:1006A000803F218500F082805FFA81FCE26A4FEA98
:1006B0000C4C42EA0C020243404D586822F00042C2
:1006C000284002435A60628D521A92B2628594F8B1
:1006D0004120222A1A680CBF42F4004242F48042B0
:1006E0001A60002084F8400038BD4D0612D550062F
:1006F00010D5638D9BB2002B40D123685A689201BC
:10070000EFD4E26A12F5803F34D15A6842F4804255
:100710005A60E6E78B06E4D59306E2D52046FFF75C
:1007200021FFDEE7236826481022DA61616C626BE4
:1007300041F004018242616425D022498A4222D0DC
:1007400021498A4214BF2022602219680A431A6094
:100750009A69910744BF00229A629A69D207C0D46D
:100760009A6942F001029A61BBE7022038BD5B68DA
:100770009A0103D42046FFF78FFDB2E740212046BF
:10078000FFF744FEADE76022DFE79A69D10306D5A3
:10079000012121854FF4803C4FF0807289E7FF21D1
:1007A00021854FF47F0C4FF0807282E75FFA81FC65
:1007B0004FEA0C4C4FF000727BE700BF009C00FC3E
:1007C00055060008992A0008CD07000838B590F8AA
:1007D0004030012B00F0D680012380F84030CB065A
:1007E000044602D5D00600F1A9808B070BD59007EF
:1007F00009D52268216D91624FF0FF3323650020F7
:1008000084F8400038BD0B063AD5550640F18C807F
:1008100094F84120236802F028021968282A14BF9E
:100820006FF0F2026FF042020A401A601A6842F05A
:1008300090021A60628D92B2002A00F0B880628D38
:1008400092B2FF2A40F2A2809869654DE16C5A6825
:10085000C0F3004000280CBF4FF47F004FF48030FD
:1008600002EA0502C1F3090142EA000242EA01027A
:1008700042F080720CBFFF21012121855A6040E0C7
:100880004B0651D550064FD594F841102368554872
:100890001A6801F02801282914BF6FF0F2016FF0E7
:1008A00042010A401A601A684F4942F090021A60E9
:1008B00094F841C0628D92B2BCF1220F08BF084685
:1008C000FF2A79D99A69C2F30042002AE26CC2F386
:1008D00009020CBF4FF47F054FF4803542EA000255
:1008E00042EA05025868414D22F0004200EA050044
:1008F00042EA00020CBFFF21012142F080722185F3
:100900005A60628D521A92B2628594F84120222A6E
:100910001A684FF000000CBF42F4004242F48042DB
:100920001A6084F840006DE788067FF568AF93068B
:100930007FF565AF2046FFF715FE60E723682C487A
:100940001022DA61616C626B41F0040182426164E1
:100950001AD028498A4217D027498A4214BF202238
:10096000602219680A431A609A69910744BF0022FD
:100970009A629A69D2073FF542AF9A6942F0010242
:100980009A613CE7022038BD6022EAE7618D144D90
:10099000E26C586889B22840C2F30902CDB242EA3B
:1009A0000542024342F0007221855A60A9E74021C6
:1009B0002046FFF72BFD22E7618DE26C89B2CDB2B4
:1009C000C2F3090242EA05420243084D58682185F4
:1009D00022F000422840024342F000725A6090E741
:1009E000009C00FC0020008000240080009800FC97
:1009F00055060008992A0008CD07000870B503685D
:100A000004460D461968C06A94F841202026213A10
:100A1000DE61092A0ED8DFE802F06E050D0D0D0D1E
:100A20000DA16E0594F841201A6822F0FC021A60AC
:100A3000222222635A68614E42F400425A605A6888
:100A400032405A609A69920744BF00229A629A69BA
:100A5000D60703D49A6942F001029A614A0435D557
:100A60001A6822F480421A60A26B1AB112685268A6
:100A700092B262856A070AD55A6A636A1A70636A13
:100A800001336362238D25F00405002B5FD1638D54
:100A90009BB21BB1636C43F004036364EB0601D5A6
:100AA000CE0631D4002384F84230666C6363002E96
:100AB0005FD1E36A424DAB4212D194F8413084F8E1
:100AC0004060202384F84130266370BD0E04D1D5E8
:100AD0001A6822F400421A60E26B002AC6D1C9E704
:100AE0002046FFF715FC2023E56284F8406084F877
:100AF0004130266370BD94F841201A6822F0FA0252
:100B00001A602122226395E7638D9BB2002B3DD1B1
:100B100094F84130282B48D094F841202368292AA2
:100B20004FF01002DA61BDD110F5803FBAD09A695A
:100B3000910744BF00229A629A69D20703D49A6946
:100B400042F001029A612046FFF7E2FBAAE7013B6F
:100B50002385638D013B9BB2638598E794F8412020
:100B600094F841201A6822F0FE021A6000222263E3
:100B700060E7616C2046FFF749FC94F84130282B70
:100B8000A3D129462046BDE870400BE4236810221B
:100B9000DA61636C43F00403636430F0807381D1E5
:100BA000616C2046FFF732FC7CE7B0F1007FB3D1E7
:100BB00029462046FFF7F6FB74E700BF00E800FE79
:100BC0000000FFFF836A9A6B0AB100219163DA6B20
:100BD0000AB10021916393F84120602A09BF0022E5
:100BE0000022202183F841101A63002283F840205C
:100BF000704700BF264A9368D26813F00C0305D0F3
:100C00000C2B32D0042B3ED122487047204A116869
:100C1000090754BFD2F8942012681F4954BFC2F389
:100C20000322C2F3031251F82200002BEDD0184B1F
:100C3000DB6803F00303022B23D0184A032B08BF01
:100C40001046134BD968DA68DB68C3F34163C2F31B
:100C50000622C1F30211013300FB02F201315B00F5
:100C6000B2FBF1F2B2FBF3F0704702F00302012A8B
:100C7000CCD0074BDB6803F00303022B4FF00000DE
:100C8000DBD10448DDE7082B044818BF002070477B
:100C9000001002400024F40020C8000800127A006E
:100CA00021498B6DDB0082B01CD5204B1B6803F4FF
:100CB000C063B3F5007F29D080282ED831D0A0F1B1
:100CC0007002B2FA82F2520919490B6823F0070345
:100CD00013430B60086800F00700801A18BF01205A
:100CE00002B070478B6D114A43F080538B658B6D5A
:100CF00003F080530193019B13688A6D03F4C06372
:100D000022F08052B3F5007F8A65D5D1802806D9BC
:100D1000A0288CBF02220122D6E70322D4E70022BA
:100D2000D2E70222D0E700BF00100240007000406E
:100D300000200240414A036830B4D468A40707D0B9
:100D4000D46804F003049C4246D0012030BC7047B4
:100D5000022B52D0032B49D0012BF6D112689207F7
:100D6000F3D5364CE26822F0730213434268013A2D
:100D700043EA0213E360314C314A236823F0806375
:100D80002360156803E013685B1B022B39D82368C6
:100D90001B01F8D483681B02002934D12169C5687E
:100DA00021F0784121F4FE4143EAC5630B432361FE
:100DB00022490B6843F080630B60146803E01368FA
:100DC0001B1B022B1DD80B681B01F8D582690B6910
:100DD000134300200B61B9E7002CB6D0D3684268FA
:100DE000C3F3021301339342AFD1C4E71468A403E1
:100DF000B7D412685203A8D5B3E712685505A4D535
:100E0000AFE70320A2E7012921690BD021F0C061DF
:100E100021F4FE41194343695B08013B41EA436108
:100E20002161C5E721F4C00121F4FE410B430169B2
:100E30004908013943EA41532361B9E700100240F0
:100E400088000020F0B504680546200583B000F155
:100E5000F3800026A1034ED5A34B9A6DD20040F13A
:100E6000F5800027A149A24A0B6843F480730B6008
:100E7000106804E013681B1A022B00F200810B6853
:100E8000DB05F7D5A6BB9849A86DD1F8903013F4CF
:100E9000407325D0834223D0D1F890C0D1F8903050
:100EA00043F48033C1F89030D1F8903023F480338C
:100EB000C1F890301CF0010F2CF44073C1F8903051
:100EC0000ED0D2F800E041F2883C05E01368A3EBB5
:100ED0000E03634500F2D380D1F890309B07F5D51F
:100EE000814AD2F8903023F440730343C2F8903023
:100EF000002F40F0C880E10708D57B4A296AD2F864
:100F0000883023F003030B43C2F88830A20708D5CA
:100F1000754A696AD2F8883023F00C030B43C2F893
:100F20008830630708D5704AA96AD2F8883023F060
:100F300030030B43C2F88830A70608D56A4AE96A2D
:100F4000D2F8883023F440630B43C2F88830A00500
:100F500008D5654AE96BD2F8883023F440230B4367
:100F6000C2F88830610508D55F4A296CD2F888300C
:100F700023F440130B43C2F88830620608D55A4A5E
:100F8000296BD2F8883023F440530B43C2F88830E1
:100F9000230608D5544A696BD2F8883023F44043BD
:100FA0000B43C2F88830E70508D54F4AA96BD2F841
:100FB000883023F440330B43C2F8883020030ED529
:100FC000494AA96CD2F8883023F040630B43B1F151
:100FD000006FC2F888305CD0B1F1806F74D06103CB
:100FE0000ED5414AE96CD2F8883023F040630B43B8
:100FF000B1F1006FC2F8883050D0B1F1806F6BD082
:1010000062040BD538492A6DD1F8883023F040535B
:101010001343B2F1805FC1F888304DD0230408D566
:10102000314A696DD2F8883023F080430B43C2F80F
:101030008830304603B0F0BD6F6CB7F5000F10D0AC
:10104000B7F5400F12D077B3012603E79A6D42F04F
:1010500080529A659B6D03F080530193019B012799
:1010600000E7214AD36843F48033D3601E4AD2F8A4
:10107000883023F440033B43C2F88830E9E6032676
:10108000002F3FF438AF184A936D23F080539365D7
:1010900031E7D36843F48013D360A0E7D36843F407
:1010A0008013D360ACE73946281DFFF743FE0646A0
:1010B00000287FF4CFAED9E70221281DFFF73AFEC2
:1010C000002818BF0646A9E70121281DFFF732FEB8
:1010D000002818BF064682E70121281DFFF72AFED7
:1010E000002818BF06468BE7001002400070004041
:1010F00088000020704700BF704700BF836A1968EE
:101100004A6822F003024A601A6E4FF0010C42F066
:1011100010021A6683F85DC0704700BF026852E88B
:10112000003F23F4907342E800310029F7D102F127
:10113000080353E8003F23F0010302F1080C4CE8D8
:1011400000310029F3D1036E012B06D000232022A9
:10115000C0F8802083660366704752E8003F23F0A2
:10116000100342E800310029F0D052E8003F23F09C
:10117000100342E800310029EFD1E7E770B50568B8
:10118000EC6931EA040405D05E1C06D1EB6931EA52
:101190000303FBD10023184670BD154C2468A41A24
:1011A000A34218D3BBB12C686407E9D58029E7D0E6
:1011B0004029E5D0EC6914F008040ED1EE6936053B
:1011C000DED54FF400632B62FFF7A8FF2023C0F8A1
:1011D000843080F878400323DDE708242C62FFF791
:1011E0009DFF00220123C0F8844080F87820D2E7D8
:1011F000880000200368806A1A6812F0200228D153
:101200000368A0F85A2053E8002F22F4807243E8C4
:1012100000210029F7D103F1080252E8002F22F043
:10122000010203F1080C4CE800210029F3D103F17D
:10123000080252E8002F22F0400203F1080C4CE8AB
:1012400000210029F3D12022C0F88020026E012A5B
:1012500003D000234366036E704753E8002F22F04B
:10126000100243E800210029F3D053E8002F22F0B8
:10127000100243E800210029EFD1EAE7836A012246
:101280005A661B6E704700BF806A0368C16F10B555
:10129000D0F880409A68120601D521290BD09B68AE
:1012A0005B0601D5222C1DD0D0F8843043F010030A
:1012B000C0F8843010BD0022A0F8522053E8002F5F
:1012C00022F0C00243E80021026839B152E8003F31
:1012D00023F0C00342E800310029F7D12023C3677F
:1012E0001346DCE70023A0F85A30FFF717FFD0F8C9
:1012F000843043F01003C0F8843010BD836A0022AC
:10130000A3F85A20A3F85220704700BFD0F88010ED
:10131000B0F85C300268222905D0138B9BB243F0F1
:10132000080313837047918C426D0B401370B0F823
:101330005A30426D013B9BB2A0F85A30B0F85A3097
:1013400001329BB24265002B45D110B4036853E8CB
:10135000002F22F4907243E800210029F7D103F115
:10136000080252E8002F22F0010203F1080444E8C9
:1013700000210029F3D1184A816620249342C0F845
:101380008040416612D05A6811020FD553E8002FF1
:1013900022F0806243E8002141B1016851E8002F4A
:1013A00022F0806241E80024002CF7D1026E012A6D
:1013B0000ED10022026653E8002F22F0100243E80B
:1013C00000210029F7D1DA69D20601D510221A626C
:1013D0005DF8044B7047704700800040D0F88010E3
:1013E000B0F85C300268222905D0138B9BB243F021
:1013F00008031383704710B4948C416D234021F887
:10140000023BB0F85A304165013B9BB2A0F85A301C
:10141000B0F85A309BB2002B40D152E8003F23F481
:10142000907342E800310029F7D1016801F1080307
:1014300053E8003F23F0010301F1080C4CE80034AD
:10144000002CF3D12023C0F88030164B84669942DB
:10145000446611D04B681C020ED551E8003F23F0C2
:10146000806341E800343CB152E8003F23F08063E0
:1014700042E80034002CF7D1036E012B0ED100237B
:10148000036651E8003F23F0100341E80032002AD0
:10149000F7D1CB69DB0601D510230B625DF8044B55
:1014A000704700BF00800040B1F804C093680A890B
:1014B0009A80BCF1000C18BF4FF0010CCA7983F878
:1014C00000C091F806C083F801C09A709860704718
:1014D00008B518B1064B02689A4207D0054B064A78
:1014E0005B69064900209847002008BD012008BD1F
:1014F0000EB0371388000020440701085C0701087C
:1015000003460068D3F8E8104268C3F8F0101047AB
:101510002DE9F047D0F800800546B8F1000F1ED045
:10152000D8F898700FB3124E07F148044FF0000935
:10153000583754F8040F18B1F3689847C4F800906E
:10154000A742F6D1D8F89800F36800B19847F3683D
:1015500040469847F3682846BDE8F0471847044ED0
:101560002846F368BDE8F0471847014EEFE700BF93
:101570008800002010B50B4C217F012982B00FD9C3
:101580000949646912F4006F0346084818BF084609
:10159000C2F30A01CDE90001054A06490220A0472D
:1015A00002B010BD88000020640701086C07010824
:1015B000740701088807010810B50A4C94F81CC08C
:1015C000BCF1010F82B00AD92C3989B2034610460A
:1015D0006469054ACDE9001004490220A04702B021
:1015E00010BD00BF880000209C0701088807010883
:1015F00030B508490C7F012C83B008D902F00F04E4
:101600004D69054A0549009403460220A84703B0E6
:1016100030BD00BF88000020C4070108880701080A
:1016200010B50A4C94F81CC0BCF1010F82B00AD965
:101630007D3989B2034610466469054ACDE9001038
:1016400004490220A04702B010BD00BF880000205E
:10165000E40701088807010810B5A1F1620C134CDA
:101660001CF0010F034694F81CE084B01FFA8CF0C4
:101670000DD1BEF1010F08D9400864690292CDE98D
:1016800000010B4A0B490220A04704B010BDBEF177
:10169000010FFAD9400864690292CDE90001064AB7
:1016A00004490220A04704B010BD00BF88000020FC
:1016B00014080108880701084C08010810B50A4CF5
:1016C00094F81CC0BCF1010F84B00BD90346A1F5FE
:1016D0008C7080B264690090CDE901120220034A47
:1016E0000349A04704B010BD880000208408010809
:1016F000880701082DE9F04F1F4EDFF888B08046BB
:1017000015460FCE91B002AC0FC40FCE0FC40FCE52
:101710000FC49BF81CC096E80300BCF1010F84E8DD
:10172000030007D9DBF81440144A154900954346D5
:101730000220A047DFF850A0DFF8449002AC10AEC2
:1017400002E00834B44213D0A3881D42F9D09BF8BC
:101750001C20012A4346524649464FF00200F0D968
:1017600027680097DBF814700834B847B442EBD10F
:1017700011B0BDE8F08F00BF50C80008AC080108E8
:101780008807010888000020C80801082DE9F047F3
:1017900082B0BDF828400B9F03EBC4056B88002B7B
:1017A00044D06E68844601EB0208043E4FF0000E00
:1017B00056F8044F620092B28A4233D3424531DA7E
:1017C000C4F30170012817D002283AD090BB521AF6
:1017D00093B2C4F34459012202FA09F2974249D361
:1017E0003349013A4C6901923249334A0097A04784
:1017F000002002B0BDE8F087521A92B20CEB420909
:101800003CF81200B9F8023043EA004323F00F031A
:1018100017B1C4F303442343180C2CF81200A9F8A1
:1018200002306B880EF1010E7345C1D8012002B061
:10183000BDE8F0871E4B214A5B691E49002098478E
:10184000D6E7521A92B20CEB42003CF81290438851
:1018500043EA094323F00F0317B9C4F303442343B6
:101860001C0C2CF8124043806B880EF1010E73455E
:101870009ED8DBE7C4F3044A0CEB43043CF81300A6
:101880006288C9F1200942EA00424FF0FF3020FA95
:1018900009F000FA0AF022EA000207FA0AFA42EA1C
:1018A0000A02100C2CF8130062806B88BAE700BFA4
:1018B0008800002014090108DC080108200901083B
:1018C000002870B446DB0029034639DB88420A460B
:1018D0004BDA0025012429461B04B3FBF2F343F63F
:1018E000284293425AD946F2D632934261D948F6F9
:1018F000720293425FD94AF6494293425DD94DF252
:10190000A30293425BD94FF24B72934298BF0520DA
:1019100045D94FF24C7648F233224CF2A3409B1B40
:1019200002FB03F300EB134014B1C0F5C9301F30C4
:1019300015B1C0F549303F30C1B1404270BC70476D
:10194000494209B2884217DA002501240A460346B3
:101950002146C1E7404202B20029104614DB914201
:101960000B4605DD99BB1D4800E050BB70BC7047BD
:10197000002401252146AFE70028DED000250B46D4
:1019800002462C460121A7E7494209B28A424FF09C
:101990000105DADB0B46002429469DE70020104AAA
:1019A00002EBC00602EB8002D6E91A60D2F8A02052
:1019B000B5E70120F3E70220F1E70320EFE7042079
:1019C000EDE700250B4602462C46294684E7012513
:1019D0001A462C46034600217EE700BF20920100F4
:1019E00020C800082DE9F0470646804602EB420079
:1019F0008CB0154606EB8000002289460DF10C0ADA
:101A0000014617464FEA870E54469FED767AB31A81
:101A100075B103EB020CF444DCED007A9C46DCED7E
:101A2000006A0C3367EEA67A8B4237EE277AF0D144
:101A30000EF1040EBEF10C0FA4EC017AE5D10137D2
:101A4000032F0AF1100AA2F1040201F10401D9D115
:101A50009DED045ADDED055ADDED086A6A4606F192
:101A60000C01DFED607A43463DB11C4694ED007AEF
:101A70000C33834277EE877AF7D108F10408884562
:101A8000E2EC017A00F10400EBD19DED037AF0EE77
:101A9000C77AF4EE677AF1EE10FA12D69FED526A29
:101AA000F4EE467AF1EE10FA0BDC9FED506AF4EE9C
:101AB000C67AF1EE10FA04DAB5EE407AF1EE10FAD9
:101AC0007DD0F7EE007A87EE872A9DED073A9DEDEF
:101AD0000B7A65EE023A25EE824A65EE237A65EED0
:101AE000A34A33EE673A25EE846AF0EEC32A65EE28
:101AF000047AF4EE622AF1EE10FA76EEE44A76EE1B
:101B0000E77A37EE466A06D69FED377AF4EE472A33
:101B1000F1EE10FA47DDB7EE007AC7EE032ADDEDED
:101B2000006A9DED017A9DED023A63EEA63A67EEFA
:101B3000A27A37EE637A64EEA73A67EE877A36EEDA
:101B4000636A24EE264AF0EEC63A73EE677AF4EE44
:101B5000633AF1EE10FA77EEC47A06D69FED224A88
:101B6000F4EE443AF1EE10FA2FDD87EE864A0120BA
:101B7000002364EE844A65EE845A77EE647A89ED38
:101B8000024A67EEA27A25EE275AC9ED017A76EE6F
:101B9000C57A77EEE57A67EE827AC9ED007A33602E
:101BA0000CB0BDE8F0879FED117AF4EEC72AF1EE94
:101BB00010FAB0DAB5EE403AF1EE10FAABD10020EF
:101BC000002333600CB0BDE8F0879FED084AF4EEC7
:101BD000C43AF1EE10FAC8DAB5EE406AF1EE10FA46
:101BE000EDD0C2E700000000FFFF7F7F0000800013
:101BF0002DE9F047C36D8769056900247C80814623
:101C00001C7000F14806A04656F8043FFBB1B3F83B
:101C100038C0B3F89400B3F89610B3F8DC2005EBA5
:101C2000400005EB410105EB420205EB4C0CC3E91A
:101C30001301C3F8A820C3F814C03C701868D3F887
:101C4000E020416883F8E880C3F8E4208847013445
:101C5000E4B2042CD8D1D9F80000BDE8F0474368BD
:101C6000184700BF0068C368184700BF70B5044636
:101C7000806970B1E3693BB10E4B1A7F22B15B6999
:101C80000D4A0E49012098472068BDE870408368DE
:101C90001847084D0A4A6B6908499847E36933B108
:101CA0002B7F23B16B69044A044901209847002027
:101CB00070BD00BF880000204409010854090108D4
:101CC0006409010830B40269B0F8423090F8381065
:101CD00032F81330032908BF83F4004340F2E511C2
:101CE00001FB03F31B0C816C8446A3F5897008800B
:101CF000BCF83C10DCF84C0032F8111039B1BCF8DB
:101D0000401032F81110012994BF00210121017007
:101D1000BCF83E00BCF83A10DCF8505032F8111014
:101D200032F81020DCF8544040F2E51000FB02F2DB
:101D3000A3EB12431BB2002BBCF94420DCF80000DB
:101D4000B8BF5B421BB29A42A1F10102B2FA82F221
:101D5000ACBF0023012352092A70237030BC4368B2
:101D6000184700BF0068C368184700BF0068836851
:101D7000184700BFD0E90F23816B0069184700BFE7
:101D8000836910B50446B3B10D4B1A7F4AB9636934
:101D90007BB10B4B0B4A5B690B4900209847002035
:101DA00010BD5B69094A0849012098476369002B07
:101DB000EFD1012010BDC369002BE5D1E7E700BFDB
:101DC00088000020B80901089C0901088009010861
:101DD0000068C368184700BF00688368184700BFE1
:101DE000F0B482B02E4E056800238DF803303368BE
:101DF0003768C3F164031A442A4B1B6803EB83035F
:101E0000C3EBC3031B0D02FB03F30193AB68194241
:101E10000AD134E0019C019B013B0193AB68002C8B
:101E200008BF002219422AD0B1F5C06F05D12B7B23
:101E3000DBB28DF803309DF803303368DB1B93422F
:101E4000E8D36B68426823F0E003B2F5827F6B60F1
:101E500019D0836AB3F5005F07D12B6823F40053D0
:101E60002B602B6843F400532B600122002380F881
:101E70005D2080F85C30032002B0F0BC7047002089
:101E800002B0F0BC70478368B3F5004F02D0B3F5E1
:101E9000806FDED12B6823F040032B60D9E700BFB1
:101EA000880000200000002070B4274D274B2A68CE
:101EB0001B6804682E68C2F16402114483B0C3F346
:101EC000CB3301FB03F30193A3681A062CD509E079
:101ED000019A019B013B0193A368002A08BF0021DE
:101EE0001B0621D52B689B1B8B42F1D3636842688C
:101EF00023F0E003B2F5827F636019D0836AB3F503
:101F0000005F07D1236823F400532360236843F460
:101F1000005323600122002380F85D2080F85C30AC
:101F2000032003B070BC7047002003B070BC704742
:101F30008368B3F5004F02D0B3F5806FDED123681C
:101F400023F040032360D9E7880000200000002030
:101F500038B5294A036815681B689B061BD4846A38
:101F60002368A2685868616820F0200058609AB120
:101F70005868B1F5827F20F00100586022D02946D0
:101F80002046FFF791FFB0B901230022A4F84620B4
:101F900084F85D30236E38BD5A68B1F5827F0CBF7E
:101FA00022F0030222F001025A6029462046FFF780
:101FB0007BFF0028E8D0236E43F020032366202314
:101FC0002366E1E7B2F5004F12D11A6822F0400211
:101FD00029461A602046FFF767FF0028EBD12A4602
:101FE0004FF4C0612046FFF7FBFE0028CCD0E2E7AB
:101FF000B2F5806FE9D0C2E788000020F8B51B4D2C
:1020000003682F681B68846A9B062CD42668736853
:1020100023F0200373603A464FF4C0512046FFF787
:10202000DFFE58B939462046FFF73EFF30B93A4641
:102030004FF4C0612046FFF7D3FE38B1236E43F062
:1020400020032366236E43F020032366736823F086
:102050000303736000220123E287A4F8462084F87A
:102060005D30236E0BB901236B77F8BD880000202B
:1020700030B4124D124C00F1BC0C002143680B44EB
:10208000024640F8043F12689A1AAA4209DD50F845
:10209000042CA3F5C9237E3BA1F5C92103607E3939
:1020A0009A1AA24206DA03F5C92301F5C9217E3343
:1020B00003607E318445E1D130BC70473F2403008A
:1020C000C1DBFCFF2DE9F04FBFB00DF138090D4623
:1020D0009046019300F1020B3EAFCA46002440F641
:1020E000B73631E025B335F8141001F01F0E4FEA72
:1020F000912C0EF1300E00FB0EF0C1F34411ACF147
:10210000200C02FB0CFC002801F1300102FB01F164
:10211000B8BF3F30BCF1000FB8BF0CF11F0C8011ED
:10212000002900EB6C10B8BF3F3100B241F38F11B2
:102130000134182C08BF0024FFF7C2FB4AF8040B37
:10214000BA450BF1040B0ED0BBF900203BF9020C91
:1021500002FB02FC00FB00CCB4451146C2DC0020AF
:102160003FB0BDE8F08F0DAC0DF1060109F15C0543
:10217000224652F8043F002BB8BF0F3302311B1127
:1021800095420B80F5D14846FFF772FF002254F8C4
:10219000043F216EA542A3EB01031A44F7D1124B71
:1021A00083FB0213D217C2EBA31404F59943303317
:1021B0004CF662129342D2D802AE35460FCD4D4551
:1021C00008F1100806F1100648F8100C48F80C1C2D
:1021D00048F8082C48F8043CEFD1019B01201C80F2
:1021E0003FB0BDE8F08F00BFABAAAA2A2DE9F04F9F
:1021F000ADF2146D0446914603938D1C03AE0DF2AF
:102200000C67B5F9001035F9020CFFF759FB46F8D9
:10221000040FB74205F10405F3D1002148462022FE
:1022200008F01AFF0DF16C0A4FF6FF73002104EB62
:1022300044060293304DDFF8C48001915346F60006
:10224000A9F1040940F694578A469B46ABF15C001D
:10225000FFF70EFFABF160004FF0000C50F8043FA9
:10226000026E5845A3EB02039C44F7D1BCF1000F6A
:1022700031DB4FEA9C1007FB00F0400D04FB00F03F
:1022800006EB1020C9F80400BAF1000F03D0D9F80A
:10229000003083422AD959F8043F4344002BB8BF89
:1022A0005B42AB4204D21D460123CDF808A0019346
:1022B0000AF101021FFA82FABAF1080F0BF1C00B02
:1022C000C4D1019911B1DDE902231A8008460DF24B
:1022D000146DBDE8F08FCCF10000800907FB00F021
:1022E000400D04FB00F0A6EB1020CBE700210846D0
:1022F0000DF2146DBDE8F08F40420F00E0D764FC92
:102300002DE9F04F87B04FF0000E164600EB410963
:102310000290821ECDE90316A9F1120935464FF04D
:10232000010BF246F4467046CDF804E005931EE03A
:1023300040F2EE218B4240DC634500DD9C464FF0CD
:10234000000BBEF1000F0ABF4FF0000B70460120DA
:10235000CAF100084345019BB8BFA4EB060ABB4283
:1023600038BF3B469145019305F102052BD0568AB3
:1023700032F8024F331B03F50048B8F5803F27467B
:10238000D6D240F2EE218B422B8007DD178868B948
:10239000634515DD9C464FF0010ED9E7514917887A
:1023A0009C45B8BF9C468B42D2DACAE7634500DD44
:1023B0009C4686464FF0000BCAE74FF0000BE6E75D
:1023C0004FF0010EC4E71946DDE90346059BBBF15A
:1023D000000F03D1002007B0BDE8F08FBEF1000F61
:1023E000F8D00028F6D0CDE9031C0027A4F11C0981
:1023F000B84606F112043D463E46BE46D34634F981
:10240000021F019601EB810C01EB4C010A22A2464E
:10241000A4463CF9026D02FB06113AF9026F02FB79
:102420000611013AF5D1019EA942C4BFF0460D46FE
:102430008E42C8BF77460EF1010EC8BF0E46F14569
:10244000DDD14CF25034A542DDE9031CDA46C1DD92
:10245000254CA642BEDABCF1000FBBD0BBF1000F89
:10246000B8D0029C119D2488C900E4004DB18C4273
:1024700005D2ACEB0402013A0A44B2FBFCF2119D16
:102480002A60109A002AA6D0002BA4D0029A08F144
:102490000E0532F81520B4EBC20F4FEAC20606D281
:1024A000ACEB0404013C3444B4FBFCF42D1B029A55
:1024B0000E3732F81720B1EBC20F4FEAC20405D92C
:1024C0004A1E5244121BB2FBFAF2BF1A55EA070227
:1024D00080D4BD423FF77EAF109A7F1B17601D600E
:1024E00079E700BF12FDFFFFB03CFFFF11490A6A08
:1024F000D06810F0400001D0002070474FF0FF334B
:1025000010B4D3600C68D3685B060FD4032803D1E2
:102510000CE0D368580608D40B681B1BB3F57A7F10
:10252000F7D9032081F84100EDE700205DF8044B66
:10253000704700BF88000020084A094B116ACB6031
:10254000106804E013681B1AB3F57A7F04D8CB68CF
:102550009B06F7D5002070470320704788000020B5
:102560005FFF030008B5114BDA6822F08002DA60E1
:102570009A68920603D4FFF7DFFF88B908BD9A680E
:1025800022F020029A60FFF7D7FF18B1084B032012
:1025900083F84100054A936843F02003936008BD27
:1025A000034B032083F8410008BD00BF0028004012
:1025B00088000020F0B5614C94F84030012B00F009
:1025C000BA80216A0223012284F8402084F8413035
:1025D0008B6813F0400C18BF90F803C003780CBF51
:1025E00080F803C04FEA8C5C092B09D900220A3B12
:1025F000DBB2092B02F10102F9D843EA0213DBB284
:102600001A044378092B09D900250A3BDBB2092BB0
:1026100005F10105F9D843EA0513DBB28678092EE6
:102620004FEA032309D900250A3EF6B2092E05F127
:102630000105F9D846EA0515EEB290F824E0BEF19E
:10264000090F0DD90025AEF10A0E5FFA8EFEBEF11C
:10265000090F05F10105F6D84EEA05155FFA85FE6A
:102660004569076A3D4345EA0C052A431343334352
:10267000456843EA0E62C3691D43836ACA20486203
:1026800053204862B3F5807F8B6837D023F4007302
:102690008B60CB68DBB263F42073CB60206804E00E
:1026A00023681B1AB3F57A7F1ED8CB689B07F7D532
:1026B0000A628D648B6843F400738B608B6843F40B
:1026C00000538B601E4B1A68002042F4802284F86D
:1026D00040001A609A6842F480229A60FF22012327
:1026E0004A6284F84130F0BDFF2203234A6284F835
:1026F0004130002384F840300320F0BD23F4807380
:102700008B60CB68DBB263F4C073CB60206804E0FD
:1027100023681B1AB3F57A7FE6D8CB68DE07F7D5B6
:10272000CA614D648B6843F480738B608B6843F49B
:1027300080538B60C6E70220F0BD00BF88000020F8
:10274000000401402B4A03460068904270B43CD814
:10275000294A2A492A4C0244A1FB0212120992007A
:10276000022183F8251001689D689E691C6421F48C
:10277000FF4C59695A642CF0700C294341EA0C0152
:10278000314341F08001B5F5804F016014D05968A4
:1027900002F01C020F2090409140194A94426FEAC7
:1027A00000001BD0D2F8A8442040C2F8A804D2F8F8
:1027B000A8040143C2F8A81400200122D86383F8BA
:1027C000240083F8252070BC70470E4A0B490E4C3C
:1027D0000244A1FB021212099200C1E7D4F8A8201A
:1027E0000240C4F8A820D4F8A8201143C4F8A810C7
:1027F000E2E700BF07040240F8FFFDBFCDCCCCCC20
:1028000000000240F8FBFDBF00040240134BDB68F0
:10281000C3F30223C3F1070C1A1DBCF1040F28BF38
:102820004FF0040C062A88BFDA1E4FF0FF3303FA7C
:102830000CF398BF002221EA030393401B01421CC2
:10284000DBB206D000F1604000F5614080F8003353
:102850007047024A82F82330704700BF00ED00E065
:1028600038B5104D104A2B68A2FB03239B09013B8E
:10287000B3F1807F01D3012038BD4FF0E0220B4936
:102880005361F02381F82330002407230F2894613B
:102890001361F0D801464FF0FF30FFF7B7FF6960D2
:1028A000204638BD00000020D34D621000ED00E04E
:1028B0000CB4F0B5ADB032AB06AE53F8042B0593B3
:1028C00004460D463046962109F0B8F89528C4BF55
:1028D0001B4BCDF8AA301B4B1B491F68A1FB0731CE
:1028E0001A4BA3FB0723980B194BA3FB07234FEAB3
:1028F000931C184B4FF47A7202FB1C77A3FB00E287
:102900005209042CC2EB0212A0EB8202A3FB0CE3DF
:1029100098BF114800974FEA531394BF005D3F20C2
:10292000C3EB03130190CDE90256490DACEB8303D1
:102930000A4809F04FF82DB0BDE8F04002B07047EA
:102940002E2E2E0088000020B17C219573B2E74521
:10295000D34D621089888888040A0108E0090108BB
:1029600038B590F840C0C56ABCF1010F67D04FF090
:10297000010C11F0200F04460B4680F840C002D035
:1029800012F0200F51D1D80615D5D10613D5628D7E
:1029900092B2002A55D194F84120282A74D094F894
:1029A00041202368292A4FF01002DA615CD0002010
:1029B00084F8400038BD590719D4190701D510070C
:1029C00039D49907F3D59307F1D5638D9BB2002BCA
:1029D00046D0616A236811F8012B9A62638D228DBB
:1029E0006162013B9BB2013A63852285DFE75007B4
:1029F000E3D5638D9BB26BB12268636A526A1A7029
:102A0000638D616A228D013B0131013A9BB26162A3
:102A100022856385638D9BB2002BC8D115F5803F5D
:102A2000C5D02046FDF774FCC1E7FDF7E7FF0020A5
:102A300084F84000BEE7204606F0C6FDB7E7022056
:102A400038BD23681022DA61636C43F004036364C9
:102A500035F08073ABD1616C2046FDF7D7FCA6E75B
:102A600035F08073A3D1DCE715F5803F9FD09A69DC
:102A7000950744BF00229A629A69D007D1D49A6917
:102A800042F001029A61CCE7B5F1007F87D1194687
:102A90002046FDF787FC8AE738B590F840C0C56A44
:102AA000BCF1010F46D04FF0010C11F0200F04468D
:102AB0000B4680F840C002D012F0200F30D1D9066A
:102AC00026D5D00624D55104C2F3803034D5E16B2D
:102AD00009B1120435D4A26B1AB112685268002AE7
:102AE00037D023681022DA61636C43F00403636417
:102AF00094F8413035F08072DBB20DD1213B092BC7
:102B00004CD8DFE803F049504B4B4B4B4B4B4950F3
:102B1000190701D5130709D4002084F8400038BDF7
:102B2000FDF76CFF002084F84000F8E7204606F02F
:102B30004BFDF1E7022038BD110429D5E16B0029D6
:102B4000CFD00A685268002A30D1A26B0AB100289F
:102B50003AD194F84120282A2ED094F841202368B5
:102B6000292A4FF01002DA61D6D115F5803FD3D073
:102B70009A69950744BF00229A629A69D00703D4E4
:102B80009A6942F001029A612046FDF7C1FBC3E752
:102B900023681022DA61BFE721232363616C20469A
:102BA000FDF734FCB8E722232363F7E7A26B002A82
:102BB00097D0002895D090E7B5F1007FCDD1194688
:102BC0002046FDF7EFFBA7E712685268C1E700BF98
:102BD00010B41E4C94F84030012B32D0216A0220F0
:102BE000CA2384F8410001224B6253234B6284F8CC
:102BF00040208B6823F480738B608B6823F48053B0
:102C00008B60206804E02268121AB2F57A7F0ED831
:102C1000CB6813F00103F6D00020FF2201234A62A3
:102C200084F8400084F841305DF8044B704703207D
:102C3000FF224A6284F8403084F841005DF8044B7A
:102C4000704702205DF8044B704700BF88000020E9
:102C5000F8B595692B7802EB43030F46B3F844604F
:102C6000536901466888144603EB4000720008F07F
:102C7000F5FD6B88E26D1E4413786E8003B93B79D5
:102C80001370F8BD2DE9F04F2DED048B038F8DB03F
:102C90000546002B00F01581B0F84030428F0469E2
:102CA000B0F850E007925B000293838FC28F34F933
:102CB00013300B92BEF1000F00F003811B0108934B
:102CC000D0E91223D718B0F85200B5F84230DFED42
:102CD0008A8ADFF830B20193FE434FF00008F6EE27
:102CE000009A0990C1460496CDF828E0834B83FBF7
:102CF0000710F917C1EBA00101EB4100A7EBC000E1
:102D000000281FFA89F886B2C0F2EB80002FC0F2CB
:102D1000F180089B09B2090481FB0301002906DA4E
:102D20004FF6FF7C10EB0C0C604641F10001079B55
:102D3000000C40EA0140991934F91110A0EB011080
:102D400007EE900AB8EEE79A29EE289AB0EE490A03
:102D500007F03EFDB0EE408AB0EE490A07F0DEFA19
:102D6000019B002B00F0A2800B9BB5F844A01E44F1
:102D700004EB46030020CDE9059703930646009037
:102D800059E095F838C0BCF1000F4BD007EE101A8F
:102D900007EE903AF8EEC76AF8EEE77A26EE806A18
:102DA00027EE887A66EE886A37EE467A67EE807A92
:102DB000B5EEC07A77EEA67AF1EE10FA4CBF37EE98
:102DC000697A37EE297AF5EEC07AF1EE10FABDEEA7
:102DD000C77A4CBF77EEE97A77EEA97A17EE103A08
:102DE000FDEEE77A5B4517EE901A47F6FF70B8BF25
:102DF0005B468342D5F85490A8BF03465945B8BFF7
:102E0000594699F800E08142A8BF0146BEF1000F83
:102E100004D117EE100A98425BD0E64689F800E02C
:102E20001BB209B2A352009B798053440093019BCB
:102E300001369E4238D0009B95F839C008EB53020A
:102E4000029B92B203EB8202A718A35EB7F90210AD
:102E5000BCF1000F95D00398B0F800C00CF01F0E25
:102E60000EF1300E03FB0EFE4FEA9C23203BCCF309
:102E7000441C01FB03F3BEF1000F0CF1300C01FB0D
:102E80000CFCB8BF0EF13F0E002BB8BF1F334FEA4A
:102E9000AE1EBCF1000F0EEB6313B8BF0CF13F0C7C
:102EA0001BB24CF38F116CE7DDE90597099B049A7F
:102EB0001F44D31A04930A9B09F1010999457FF431
:102EC00015AF286843680DB0BDEC048BBDE8F04F2A
:102ED000184717EE900AB0EB010E18BF4FF0010E25
:102EE0009CE71836B6B2049B054AA2FB03016FEAC1
:102EF00011110EE70026F6E700008037ABAAAA2AD8
:102F0000ABAAAAAA0080FFFFFEE700BFFEE700BF52
:102F1000FEE700BFFEE700BFFEE700BF704700BF4F
:102F2000704700BF704700BF024A13680133136047
:102F3000704700BF880000200C4B0D491A6A4FF4FF
:102F400080104861D168490503D4012283F84120EB
:102F50007047D168C9B261F49061D160012001224B
:102F600083F8440083F84120704700BF88000020A8
:102F700000040140034B5A69120744BF08225A61FA
:102F8000704700BF000401400148FDF737B900BF9A
:102F9000D00000200148FDF731B900BF1801002022
:102FA0000148FDF72BB900BF600100200148FDF783
:102FB00025B900BFA8010020084810B4D0F8683136
:102FC000D0F89C4199691A682CB1234600F5B47079
:102FD0005DF8044B18475DF8044B704788000020EB
:102FE00070B5AE4CD4F8BC51EB692A68A96840F6BC
:102FF0000F00034240F08780980602D5960600F144
:10300000F380D4F81C02012816D0D80202D5490258
:1030100000F1F4801E0605D4590602D5530600F1CE
:10302000258170BD1006F7D5D4F82832002BF8D0D2
:10303000BDE870409A481847DE06E6D5D006E4D5CC
:1030400010232B62AB68B4F814225B0640F1428176
:10305000D4F8303219684B689BB2002B00F07C81A9
:10306000934280F07981A4F816320B689E0644D40E
:1030700055E8003F23F4807345E800324AB1D4F8A4
:10308000BC2152E8003F23F4807342E8003100295C
:10309000F5D1D4F8BC2102F1080353E8003F23F036
:1030A0000103083242E800310029F2D1D4F8BC21F2
:1030B00002F1080353E8003F23F04003083242E8DE
:1030C00000310029F2D12023C4F83C32C4F81C128C
:1030D000D4F8BC2152E8003F23F0100342E800314D
:1030E0000029F5D1D4F8303293F82520022A00F0D7
:1030F0003A810422DA6383F824100223C4F82032D0
:10310000B4F8163270BD11F0010640F09E8065489B
:1031100002423FF476AFD8070FD5D10540F1D680F3
:1031200001212962D4F8401241F00101C4F8401293
:1031300099076BD5002E40F08C8058077DD51E076F
:1031400000F1C1801E050AD5500108D54FF4006179
:103150002962D4F8401241F02001C4F84012D4F89A
:10316000401200293FF45DAF990602D5920600F1A6
:10317000A080D4F84022AB6802F0280203F040039C
:10318000134300F0E6804648FDF7C8FFAB685B06D6
:103190007FF547AF05F1080353E8003F23F04003F4
:1031A00005F1080141E8003262B1D4F8BC2102F116
:1031B000080353E8003F23F04003083242E800319F
:1031C0000029F2D1D4F8300200283FF42AAF364B60
:1031D0008363FCF7EFFF00283FF423AFD4F83002FD
:1031E000BDE87040836B1847D4F82432002B3FF4BD
:1031F00018AF04F5DE70BDE8704018474FF4801337
:103200002B6270BDD1058BD4980722D4590714D5F1
:10321000002E94D004212962D4F84012180741F0FE
:103220000201C4F840128DD508212962D4F8401259
:1032300041F00801C4F8401284E7190782D502F072
:10324000200131433FF47EAFEEE7D807DAD4990787
:103250002CD502212962D4F840125E0741F0040106
:10326000C4F84012D6D41907DED46BE755E8003F06
:1032700023F0400345E800324AB1D4F8BC2152E8BB
:10328000003F23F0400342E800310029F5D120221D
:103290000023C4F83822C4F8283270BD880000200A
:1032A0004402002020010004FD1200085E07B1D492
:1032B000D9E7D4F82432002B3FF45BAF3548984768
:1032C000D4F8BC5155E79006AED43BE798073FF5DC
:1032D00034AF9BE7B4F81612B4F816329BB289B239
:1032E000002B3FF49EAE91423FF49BAE55E8003F69
:1032F00023F4907345E800324AB1D4F8BC2152E877
:10330000003F23F4907342E800310029F5D1D4F84E
:10331000BC2102F1080353E8003F23F00103083207
:1033200042E800310029F2D12023C4F83C32C4F82D
:103330002412C4F81C12D4F8BC2152E8003F23F038
:10334000100342E800310029F5D10223C4F82032ED
:1033500070BDC4F8403270BD93427FF462AE0B681A
:103360009D06F2D470BD1A681D6C106820F00E0026
:103370001060106820F0010010605A6C012002F00B
:103380001C0200FA02F26A6083F8250083F8241018
:10339000B3E600BF44020020034B5A69120544BF44
:1033A0004FF400625A61704700040140034AD2F8AA
:1033B000883043F47003C2F88830704700ED00E0B5
:1033C00030B4214B1A6AD36813F00803FBD1946A16
:1033D000156911685268C1F3015000EB800001F0DB
:1033E0007F32C1F3034111EB400118BF174B22F0AC
:1033F000FE4218BF4B43C2F3023101EB8101C2F31D
:10340000032010EB41001CBF4EF6602101FB00338E
:10341000C2F3021101EB810102F00F0212EB410233
:10342000C5F30E0518BF4FF47A71A5EB040018BF61
:1034300001FB02334FF47A72013502FB00F0B0FB5E
:10344000F5F030BC184470478800002080EE36004C
:1034500030B52B4D8DB02C22002101A807F0FCFDCA
:10346000D5F84442002C42D0FFF7AAFF254BE96A69
:1034700003910444A3FB0423234A5B0D02FB134482
:10348000224AA2FB0402920B4EF6602505FB124471
:103490008DF805201E4A1F48A2FB0352120902EBB9
:1034A0004202A3EBC2038DF80430A0FB04239B0966
:1034B0004FF47A7202FB134401FB0444A0FB0404A2
:1034C0008DF80630A1EB94114FF480704FF000425C
:1034D0004FF0606302910B9006920893FFF778FB20
:1034E00018B901A8FFF766F838B1FCF751FEFFF7ED
:1034F0006FFB0028F9D185F848020DB030BD00BF40
:1035000088000020B17C219580EE360073B2E7453B
:10351000ABAAAAAAD34D621010B5154C154A236A5E
:103520004FF4802151619A68D20402D5DA68D0053F
:1035300012D49A68910402D5DA68920503D4012363
:1035400084F8413010BDDA68D2B262F42072DA60D9
:10355000012384F8413010BDDA68D2B262F4C0723F
:10356000DA60012184F84812FFF772FF236AE0E76E
:103570008800002000040140B0F1904F84B017D0C3
:10358000234B984204D0234B98422CD004B0704770
:1035900011B303F1784303F50333DA6C42F002020E
:1035A000DA64DB6C03F002030293029B04B0704701
:1035B00059B1194BDA6C42F00102DA64DB6C03F0AA
:1035C00001030193019B04B07047134AD36C23F0AD
:1035D0000103D36404B070470F4AD36C23F0020395
:1035E000D36404B0704769B103F1784303F5FA334B
:1035F000DA6C42F08002DA64DB6C03F08003039340
:10360000039BC3E7044AD36C23F08003D364BDE774
:1036100000040048001C00480010024090F824C03C
:10362000BCF1010F3CD070B590F825C00124A44531
:1036300080F824405FFA8CFE04D0002380F8243008
:10364000022070BD022580F8255004680025C5635E
:103650002668456C26F00106266005F01C05066C00
:103660000EFA05F5756063608368102B036B0BBF62
:10367000A260A160E160E2604BB1236843F00E03F9
:103680002360236843F001030020236070BD23689A
:1036900023F004032360236843F00A032360F0E768
:1036A000022070472DE9F0417E4C0023637794F8A7
:1036B000AD32012B0D46D4F8541209D0B1F5827FFA
:1036C0006BD1D8B2D4F85832002B66D1042864D11B
:1036D000002D62D092B2002A5FD094F8AC32012B58
:1036E0005BD094F8AD32D4F85062C4F88852042B01
:1036F0001CBF052384F8AD3201210023C4F8B03289
:1037000084F8AC12A4F88E22A4F89622C4E9A73358
:103710007368A4F88C2223F4C043C4F89052A4F830
:1037200094227360D4F85C32D4F8A802B3F5E06F49
:1037300035D8D4F8A43299697368B1F5806F43F431
:103740008053736000F081808369B3F5806F68D027
:1037500094F8AD32544A042B544B18BF1346544AC4
:103760000363544B4363544B18BF1346C362B4F80E
:1037700096324FF00008C0F838809BB206F10C0179
:103780002A46FFF74BFF074670B1D4F8B03284F8F1
:10379000AC8243F01003C4F8B032BDE8F081736826
:1037A00023F480537360D3E77368D4F8A40243F022
:1037B00001037360B4F88E320A46C0E90B77C0E9A2
:1037C0000D7729469BB2FFF729FF00284AD13368BD
:1037D0005B0621D5002384F8AC32736843F02003E4
:1037E0007360736843F0020373602268637F002B89
:1037F000D3D141F2873109E072B6637F03B930BF9C
:1038000062B6BFF36F8F637F002BC6D123689B1A0C
:103810008B42F1D9BDE8F081336843F04003336057
:10382000D8E7736823F480537360B4F8963213F0CA
:10383000010F73681FD123F400537360B4F89632FC
:10384000C3F34E03A4F8963282E7D20773681DD4FF
:1038500023F480437360B4F88E32C3F34E03A4F8AC
:103860008E3271E7D4F8B03284F8AC7243F01003B2
:10387000C4F8B03291E743F400537360B4F8963261
:10388000C3F34E030133A4F8963261E743F4804357
:103890007360B4F88E32C3F34E030133A4F88E3252
:1038A00052E700BF88000020F9100008F51000085A
:1038B000FD1F0008FD100008511F00082DE9F04F02
:1038C00000233E4E4FF00F094FF0030A4DE03C4FEE
:1038D000B84265D03B4FB84266D03B4FB84268D043
:1038E000DFF8E8B058450CBF4FF0040B4FF0070B62
:1038F0000BFA04F4A44513D1346824EA0E043460AE
:10390000746824EA0E047460F46824EA0E04F46017
:10391000B46824EA0E04B460AC6824EA0804AC601D
:1039200004685D000AFA05F54FEAD30C2C4300EB5E
:103930008C0C046003F00704DCF820E0A40009FA12
:1039400004F42EEA0404CCF82040846824EA050438
:103950008460446824EA02024260C26822EA0502E6
:10396000C260013331FA03F218D001229A4012EA00
:10397000010EF6D023F0030505F1804505F58035ED
:1039800003F00304D5F808C0A40009FA04F8B0F164
:10399000904F08EA0C0C9AD10024ABE7BDE8F08FF9
:1039A000012707FA04F4A5E74FF0020B0BFA04F421
:1039B000A0E74FF0030B0BFA04F49BE7000401406F
:1039C0000004004800080048000C004800100048AF
:1039D000F0B5884B02689D68DE680446D00683B067
:1039E00005F00C0506F0030640F12981002D40F09A
:1039F000F180804B1B68990700F159817D4B276A44
:103A00001A68120756BFD3F894301B681B0903F0DD
:103A1000F0039F4200F2D081764B1A6842F0080210
:103A20001A601A6822F0F0023A431A605A68E16993
:103A300022F47F4242EA01225A60002D00F0F08118
:103A4000FDF7D8F86B4B9A686B4BC2F30312134423
:103A50006A4A93F8BC3003F01F0320FA03F350685E
:103A60001360FEF7FDFE002840F026812268D00793
:103A700000F1E98090071DD50C2D00F0B581E368B9
:103A80005C48002B00F06F81036843F4807303608F
:103A90005B4B1E6804E01968891B022900F23E8115
:103AA00001684905F7D54368216923F0F85343EAD3
:103AB00001634360160716D563694E48002B00F07A
:103AC0000981D0F8943043F00103C0F894304C4B96
:103AD0001E6804E01968891B022900F21F81D0F8D2
:103AE00094108907F6D550073DD5424B996DC90012
:103AF00000F13781996D41F0805199659B6D03F01C
:103B000080530193019B01203E4E3368DF0540F155
:103B1000F7803B4BA168012900F03481052900F0B2
:103B20009381344ED6F8907027F00107C6F8907054
:103B3000D6F8907027F00407C6F89070002940F07E
:103B40002881D3F800C041F2883705E01968A1EB5D
:103B50000C01B94200F2E280D6F890108907F5D442
:103B6000002840F05781970616D5636A2149002B3B
:103B700000F03E81D1F89820214B42F00102C1F8BB
:103B80009820186804E01A68121A022A00F2C68007
:103B9000D1F898209607F6D5A36ACBB1022B00F096
:103BA00061810C2D00F087801249154B0A6822F0C4
:103BB00080720A60186804E01A68121A022A00F279
:103BC000AD800A689201F7D4CA680F4B1340CB60EE
:103BD000002071E00C2D00F08F80A3690548002BB8
:103BE00000F09F800168064B41F0010101601F68F1
:103BF00011E000BF0010024020C8000800000020B3
:103C00008800002000700040FCFFEEFE1968C91B10
:103C1000022900F2838001688907F7D5036843F021
:103C2000080303600368216A23F0F0030B43036079
:103C30004368E16923F47F4343EA01234360D307E8
:103C400020D5082D3CD00C2D38D06368B3F5803FCB
:103C500076D0B3F5A02F00F0EA808D48016821F4FA
:103C600080310160016821F480210160002B6CD15A
:103C7000884B1F6803E01968C91B64294ED8016886
:103C80008903F8D497077FF515AF042D7FF4F4AEC0
:103C90007F4B1B68580501D5E36863B17C492069F7
:103CA0004B6823F0F85343EA00634B6002E7A369D3
:103CB000002B7FF4A3AE012003B0F0BD032EC4D1CE
:103CC000734B1B689F037FF5D5AE6368002B7FF4B1
:103CD000D1AEF0E7D0F8943023F00103C0F894306F
:103CE0006C4B1E6803E01968891B022916D8D0F8AE
:103CF00094108F07F7D4F6E6012E7FF46EAF78E6C6
:103D0000336843F480733360624B1F683168C905C0
:103D10003FF500AF1968C91B0229F7D9032003B08A
:103D2000F0BD01685B4B21F0010101601F6803E0F9
:103D30001968C91B0229F1D801688907F8D47EE700
:103D400053490B6843F480330B60524B50481F6853
:103D500003E01968C91B6429E0D801688903F8D514
:103D600090E70020D0E6036823F480730360494B9A
:103D70001E6803E01968891B0229CFD801684F0526
:103D8000F8D497E6424ED6F8901041F00101C6F8FB
:103D90009010D3F800C03E4E41F2883704E0196815
:103DA000A1EB0C01B942B9D8D6F890108907F6D525
:103DB00000283FF4D8AE2DE03846FCF771FF00280C
:103DC0007FF479AF324B1A6842F008021A601A6821
:103DD00022F0F0023A431A605A68E16922F47F4205
:103DE00042EA01225A602BE6022E7FF448AE4FE7EA
:103DF000D1F89820274B22F00102C1F898201868CA
:103E000003E01A68121A022A88D8D1F8982092077B
:103E1000F7D4C1E61E498B6D23F080538B65A2E673
:103E20003846FCF73DFF00283FF40AAE43E703F1B4
:103E30008043A3F53C33196841F480211960196867
:103E400041F48031196080E71149D1F8906046F063
:103E50000406C1F89060D1F8906046F00106C1F800
:103E6000906096E70A4AE66AD36803F00301B1421C
:103E700047D00C2D3FF41FAF05490B685F013FF59C
:103E80001AAF0A68034B22F080720A60186808E0D3
:103E900000100240880000201A68121A022A3FF619
:103EA0003DAF0A689501F7D4C868334A0240606B99
:103EB000324342EA0022A06B42EAC062206B013822
:103EC00042EA0012D4E90F506C08013C4008013866
:103ED00042EA445242EA4062CA600A68274842F015
:103EE00080720A60CA6842F08072CA60196804E091
:103EF0001A68521A022A3FF611AF02689401F7D5E8
:103F000066E6216B03F070000139B0EB011FB0D100
:103F1000606B03F4FE41B1EB002FAAD1A06B03F05C
:103F20007841B1EBC06FA4D1E16B4908013903F4CA
:103F3000C000B0EB415F9CD1216C490803F0C06325
:103F40000139B3EB416F94D1136898013FF540AE4E
:103F500011680B4B41F080711160D16841F08071A4
:103F6000D160186804E01968091A02293FF6D6AE34
:103F700011688901F7D52BE68C809D010010024065
:103F800088000020504AF8B5136803F007038B42FD
:103F90000BD2136823F007030B431360136803F07D
:103FA00007038B4201D00120F8BD046814F0020E13
:103FB00004F0010368D0454E8568B26802F0F00253
:103FC000954204D9B26822F0F0022A43B260002B75
:103FD00065D04268032A5CD03C4B022A1B686AD039
:103FE000002A6DD19E07DED5384D394EAB6823F0DF
:103FF00003031343AB603768920041F2883C03E04F
:104000003368DB1B634559D8AB6803F00C0393425C
:10401000F6D1BEF1000F41D12B4A136803F007031C
:104020008B4209D9136823F007030B43136013680D
:1040300003F007038B42B6D1620706D5234AC16855
:10404000936823F4E0630B439360230707D51F4A6B
:104050000169936823F4605343EAC1039360FCF75A
:10406000C9FD1A491B4A89681B4CC1F303110A4454
:10407000034692F8BC20606802F01F02D340236020
:10408000BDE8F840FEF7ECBB002BC5D04268032A20
:10409000A2D10E4B1B689B01A6D484E785680B4A0E
:1040A000936803F0F0039D42B6D2936823F0F003C7
:1040B0002B439360B0E79F0396D474E70320F8BDC9
:1040C0005D057FF570AF8FE70020024000100240D1
:1040D0008800002020C80008000000202DE9F041E1
:1040E000C16F05689EB00446002947D02423E367CA
:1040F0002A68636A22F001022A60002B40F0AD803A
:10410000D4E90412A36828680B431343E169A74A62
:104110000B43024013432B606B68E26823F4405367
:104120001343A34A6B609542A369AA6800F0DB8041
:10413000206A22F43062034313439E4AAB609542E7
:1041400000F048819C4B9D4240F00C8103F5E63322
:10415000D3F8883003F00C030C2B00F26181DFE808
:1041600013F0D2015F015F015F0110015F015F0188
:104170005F016F015F015F015F01680180F87810E6
:104180005C2207A806F068FF8A4B9D4200F0EE8192
:10419000894B9D42AAD1022707A80797FCF752FE38
:1041A0000646002840F01882844B854D9A6D42F4F3
:1041B00000329A659A6D02F400320492049ADA6C25
:1041C00042F00102DA64DB6C03F00103039307227F
:1041D0000323CDE90032039903463A464FF090405D
:1041E0000F214FF0800803F02BFDC5E93776C5E9B4
:1041F0003968C5E93B66C5E93D6605F1D806714BEE
:10420000C5F8D8303046FEF79DFA002840F0E4812A
:104210006667102305F59076C5E94B08C5E94D00A2
:10422000C5E94F00C5F828313046674BC5F8247101
:10423000C5F80041C5F82031FEF784FA0146002890
:1042400040F0CA8126672620C5F84841FEF7DEFA0D
:104250005E4B40225A60256848E71E0705D56A680C
:10426000616B22F400420A436A60D80705D56A6888
:10427000A16A22F400320A436A60990705D56A6888
:10428000E16A22F480320A436A605A0705D56A68F7
:10429000216B22F480220A436A60DF0605D5AA68F2
:1042A000A16B22F480520A43AA609E0605D5AA6833
:1042B000E16B22F400520A43AA60580609D56A68E5
:1042C000216C22F480120A43B1F5801F6A6000F06D
:1042D000028119067FF514AF6B68A26C23F40023EA
:1042E00013436B600CE722F4306213433349AB6035
:1042F000D1F8883003F44063B3F5006F00F0878095
:1043000000F2E380002B00F05781FCF773FC0646B7
:10431000002E7DD16A682A49002322F49042C4E924
:104320001A336A60AA6822F02A02AA602A6842F058
:1043300001022A60C4F884300E682B681A0700F165
:1043400085802B685B0700F19C80002320221846A3
:10435000E26784F87830C4F88020236663661EB074
:10436000BDE8F0811A4B9D425AD103F5E433D3F8EE
:10437000883003F03003202B62D058D8002B00F097
:10438000C280B1F5004F00F02E81FCF733FC00280D
:10439000C0D0636800EB5300B0FBF3F04FF6EF734F
:1043A000A0F110029A423BD8E860B3E7F369FFEF4F
:1043B00000800040003801400044004000100240EE
:1043C000880000206C0002408000024000E100E014
:1043D0000048004002F55842D2F8883003F0030349
:1043E000022B2DD0032B24D0012BCAD0864BB1F544
:1043F000004F186800F098809268844BC2F3C22284
:10440000134493F8CC3003F01F03D840BFE7804E2D
:10441000626802EB4203B34202D8B6EB023F61D9B5
:104420000023C4E91A3301201EB0BDE8F081302B0F
:10443000F6D1B1F5004F00F0D3804FF40040A8E76B
:10444000B1F5004F00F0CA807148A2E76FF07E43DB
:1044500032464FF400112046FCF790FE00283FF44E
:1044600070AF236853E8002F22F0800243E8002158
:104470000029F7D12023E367002384F87830032054
:10448000D2E76FF07E4332464FF480012046FCF7BE
:1044900075FE00283FF459AF236853E8002F22F43B
:1044A000907243E800210029F7D103F1080252E895
:1044B000002F22F0010203F1080040E8002100294A
:1044C000F3D12023C4F88030D6E7B3F5406FA7D1ED
:1044D0004FF400469CE76A68616C22F4C0020A430C
:1044E0006A60F6E60023500819464FF48077E6FB31
:1044F000070105F0A3F8474BA0F540729A428FD808
:10450000454BD86006E7B1F5004F6FD0434A3F4BAB
:1045100092683D49C2F302221344086893F8CC30F4
:1045200003F01F03D84032E79268384BC2F3C2222F
:10453000134493F8CC3003F01F03D84000283FF415
:10454000E9AE4300626803EB5203B3FBF2F34FF6AC
:10455000EF72A3F1100191423FF662AF23F00F0218
:1045600092B2C3F342031343EB60D3E6012307A8DF
:104570000793FCF767FC034670BB284A116E41F4B1
:1045800080411166116E01F4804106910699D16C4B
:1045900041F00101D164D26C02F0010205920721C1
:1045A0000322CDE90021059802224FF4C0614FF0AB
:1045B000904003F045FB99E58A68144BC2F3022250
:1045C0001344114A93F8CC30166803F01F03DE4001
:1045D000002E3FF49FAE1BE7FBF7DAFD104BB1E76F
:1045E0004FF48033AEE7FCF705FBA7E70B4A074B18
:1045F00092680549C2F302221344086893F8CC304C
:1046000003F01F03D84099E70000002020C80008ED
:104610000024F400FFFC0F00008000400010024066
:104620000048E801F0B4C56F202D4AD10C4601B115
:1046300012B90120F0BC7047194600252123C0F8AB
:104640008450C3678368294FA0F85020B3F5805F7A
:104650003E68A0F8522037D0B0F85220036892B2DA
:10466000B2B1DA69120604D44A1C1DD1DA69120605
:10467000FCD504B314F8012B1A85B0F85220013A86
:1046800092B2A0F85220B0F8522092B2002AE8D19B
:10469000DA69520604D44C1C1CD1DA695106FCD5E7
:1046A0002023C3670020C5E73A68921B914218D3C4
:1046B000B9B11A68D5E735F8022BC2F308021A859A
:1046C000DBE70220F0BC70470369002BC4D125460C
:1046D0001C46C1E73A68921B914202D309B11A689D
:1046E000D6E72023C367F0BC032070478800002072
:1046F00008B518B1064B02689A4207D0054B064A26
:104700005B69064900209847002008BD012008BDCC
:104710000FB03713880000200C0A0108240A010892
:104720002DE9F041174F1D46BB6913B1BDE8F041BB
:1047300018473B694FEA4208002AF7D08F1EA8F1BC
:10474000020406468E460C443A4632F802CF9CFAE2
:104750009CFCA242A2F800C0F7D142467146304606
:1047600098470DB9BDE8F08137F8023F5BBAA74220
:104770003B80F7D037F8023F5BBAA7423B80F3D1CA
:10478000F0E700BF880000202DE9F04FA5B00446F7
:10479000FCF79EFE10B925B0BDE8F08FDFF804816C
:1047A000A56898F81C30012B05D9D8F81430374A81
:1047B0003749022098477822364906A807F07AF848
:1047C000D8F81830344A0492002B55D004AF022296
:1047D000394628469847DFF8D0A00DF1180B00267F
:1047E000BBF80440BBF80690A144A14532DD039715
:1047F00005E0624698470134A4B2A14529DD44F49E
:10480000405C0399ADF810C0012328460322ADF89F
:104810001260ADF81460FFF783FFDBF80830BDF8D5
:1048200014C021462846002BE3D198F81C201849D3
:10483000012A2B4652464FF00200DCD9DBF800700B
:10484000CDE9007C0134D8F81470A4B2B847A14572
:10485000D5DC039F0BF10C0B24AB9B45C0D198F822
:104860001C30012B97D9D8F814300C4A0849022083
:1048700025B0BDE8F04F1847094B049304AFD8F8B2
:1048800010300422394628469847A4E72C0A01082C
:1048900088070108F4C80008D51001007C0A010847
:1048A00010D5000188000020680A010800B583B017
:1048B00041F4A041012394464FEA124EADF8001096
:1048C000ADF80230042200236946ADF804E0ADF8EB
:1048D00006C0FFF725FF03B05DF804FB2DE9F04F9C
:1048E00002EBC30787B07B88DDF84090EBB18246CE
:1048F000884600264D467B6853F82640C4F3017075
:10490000012815D002282ED020BBC4F3445901231E
:1049100003FA09F39D422FD32E4A2F4956692F4A95
:10492000013BCDE90053A3B2B04707B0BDE8F08F1B
:10493000A3B2194658F8232022F00F0215B1C4F390
:10494000034422435046FFF7B1FF7B8801369E4265
:10495000D1D3EAE71F4B224A5B691F49002007B009
:10496000BDE8F04F1847A3B2194658F8232022F0AB
:104970000F02002DE6D1E2E71FFA84FB4FF001039E
:10498000ADF80E304BF42043ADF81000CDF8120016
:10499000ADF80C3003A9504601230522FFF7C0FEF5
:1049A000C9F12009BDF81220BDF814304FF0FF30D6
:1049B000C4F3044420FA09F0A04043EA024323EA86
:1049C000000305FA04F4594643EA04025046FFF78F
:1049D0006DFFBAE78800002014090108B80A010831
:1049E000F00A010810B1024BDB681847704700BF9E
:1049F0008800002010B520B10C4B02689A42044692
:104A000007D00B4B0B4A5B690B49BDE810400020F7
:104A10001847406818B1C3689847002363600023B3
:104A200023602046BDE81040DCE700BF0DB037131F
:104A300088000020180B0108340B010810B504464B
:104A4000FCF746FD00B910BD20690023236008B1C2
:104A5000FFF7C8FF2046BDE81040C3E7704700BF1E
:104A6000F8B505460088002A1C460CBF4FF40053D9
:104A70004FF48053B0F59C6F0E460ED300F15107F2
:104A80007F008342BFB235D21C4B1D4A5B691D4972
:104A9000002098474FF0000C03E040F662274FF0EB
:104AA000010C1949194AC4E9011202F11912E26014
:104AB00002F1191222612346002262805122A28251
:104AC00023F8167B29686A68A868EF68C4F816108E
:104AD0005A609860DF602969A8696A6998611961FC
:104AE00096E803005A61AA8B9A83343484E8030061
:104AF0006046F8BD4FF0010CD3E700BF88000020EE
:104B0000400B0108600B01080100020003001B00BC
:104B1000F8B516460D464FF4E272014618461C469B
:104B200006F0C8FEB6F8581021B196F85E30191E8E
:104B300018BF0121012396F85B2084F8C6312B466B
:104B400084F8C52133F8262B84F8C411A4F8C821B1
:104B500005F1560104F5E5721F685E689868D3F8A0
:104B60000CC0C2F80CC010338B42176056609060C6
:104B700002F11002F0D1B5F85630A4F8FA3105F17F
:104B8000580604F5FE7E05F18807B446BCE80F0020
:104B9000BC450EF1100E06F110064EF8100C4EF842
:104BA0000C1C4EF8082C4EF8043CEED1B5F88830B9
:104BB000A4F82C3205F18A0304F22E24BA351868C1
:104BC00059689A68DE68E6601033AB422060616025
:104BD000A26004F11004F2D1F8BD00BF10B50E4C74
:104BE0008C461146A28803F1020EB2EB4E0F06D29C
:104BF00063690A4A0A49BDE8104000201847013B92
:104C00004CF4A04C4B802EF00042A1F800C0BDE84F
:104C10001040002384E500BF88000020740B0108C9
:104C2000940B0108F0B583B043F21C0200920123FB
:104C30000E460024032269460746ADF80440FFF7FC
:104C40006FFDBDF8043013F4006517D141F21B0469
:104C50002B46694638460222009446F40066FFF768
:104C60005FFD38462B4669460222ADF80040ADF89C
:104C70000260FFF755FD012003B0F0BD044B054A6B
:104C80005D69054920463B46A847204603B0F0BD74
:104C900088000020A80B0108D80B0108F0B50129F5
:104CA00083B00546144621D0022909D01B4B1C4A6B
:104CB0005C691C4903460020A047002003B0F0BDFA
:104CC00043F2460384270026ADF80030284601232E
:104CD00003226946ADF80260ADF80460FFF720FDDD
:104CE000BDF8040030B164B90120E7E743F24503A1
:104CF0008327E8E7094B0C4A5C690A492B46A04721
:104D0000DBE747F480573346694628460222ADF870
:104D10000070ADF80260FFF703FDE5E788000020B2
:104D2000F00B0108D80B01080C0C0108F0B50129A3
:104D300085B00646154631D0022924D143F232030C
:104D400001240027ADF808300322012302A93046D0
:104D5000ADF80A70ADF80C70FFF7E2FCBDF80C304E
:104D60006B8003F00702012A2A8027D013F0060087
:104D700018D11649164A4C6916490096A0470024D6
:104D8000204605B0F0BD114B134A5C69114903463A
:104D90000020A0474FF440530024D2E743F23303EE
:104DA0000C46CEE7023A012AEAD9084A009654692D
:104DB00008490A4A3846A0472F80E0E70349084AD5
:104DC0004C69044900963846A047D8E7880000207F
:104DD000400C0108D80B0108F00B0108A40C0108D5
:104DE000700C010810B582B001AA01210446FFF73A
:104DF0009DFF002201212046FFF750FFBDF804303F
:104E0000022B08D00549064A4C6906490020A047F4
:104E1000002002B010BD012002B010BD88000020AB
:104E2000D80C0108200D01082DE9F04F2DED108B55
:104E30009BB090F85E401D4690F85C300893042CBF
:104E4000B0F8583003938046894616461AD8D0EDFC
:104E5000147AF5EEC07AF1EE10FA00F1F58190F8CF
:104E60006630002B00F0918290F85B30002B00F050
:104E70008C82024C024A059407E000BF88000020A3
:104E8000840D0108C64CC74A05946369C6490020D1
:104E90009847D8ED157AD4F8B432009307EE103A5B
:104EA000F5EEC07AF1EE10FAB8EE478A40F3D08101
:104EB000C8EE278AF6EE007A78EEA78A039B002BCD
:104EC00000F0A68198F85E30049398F85A30002BD1
:104ED00040F0A58198F86020022A41F0278198F8D7
:104EE0005E40012C00F0E1830024224634990C71CD
:104EF000A6F8AC21002B00F0978198F85F30012BC9
:104F000000F00484022B00F0EB83002B40F0DD83E3
:104F100001231A46F384328598F86030012B00F0A3
:104F2000CD83022B00F0C983002B00F00784059B82
:104F30009E4A5B699C4900209847B9F1000F00F038
:104F4000778100230093B9F8E410B9F80830718034
:104F5000B9F8E610B180B9F8E2103180B9F8E8107C
:104F6000F180B9F8021031819B00B9F80410718109
:104F70009BB2B9F80610B18103F13002B9F80A10FA
:104F8000F18192B2B9F8201031825F2AB9F822106B
:104F9000718240F2EE818649A1FB0201890901EB91
:104FA0004101A2EB411189B200201A4604460B468A
:104FB0000121F2820322B38272830023009A738458
:104FC000B483F083318331846B800123C5F80A30C8
:104FD000002A00F052870027CDE9017706F13E0351
:104FE0009FED749A9FED74AADFED779ACDE906964E
:104FF000B34605F10E0A44461E46049AFBB29A4295
:1050000000F229810023AAF80030AAF80830338082
:105010000137042F0AF1020A06F102060BF1560BC2
:1050200004F11404E9D1039BAA89DDF804E012FB22
:1050300003F26B8992B213449BB2DDE90696591CC8
:10504000012089B20090B6F8AC01012804D1DDE955
:10505000020404FB00F00290029FB8F8640098F884
:1050600063C098F862B04FF6FF74A74228BF274686
:105070004408A4F1030A98F86640A6F89EB18CF0A3
:10508000010C0338A6F8A6C1A6F8A471A6F8A0E101
:10509000A6F8A801A6F8AAA1AA81AB80E980002CF5
:1050A00000F02781413399B24024012329802C81CB
:1050B000A6F8C031B9F1000F03D0B9F80C30A6F84A
:1050C000C231009B002B40F03E81349A98ED145A77
:1050D00000231360089BA6F8B231039B012B40F21A
:1050E0002F81B8F85830023B01229BB29FED336A02
:1050F000DFED335A98F85A10F1EE007AC8EE066ADE
:1051000068EE277A68EE255A87EE867AC5EE867AAB
:10511000B6EE006A76EE866A37EE067AFCEEE66A4E
:10512000B5EE405AD8ED155AA6F8AE31F1EE10FAA8
:1051300016EE903A77EE867ABCEEC77AA6F8B021E2
:1051400014BF01220022FCEEE77A328798F85B2038
:10515000A6F8B43117EE103AA6F8B63117EE903A29
:10516000F5EE405AA6F8B831009BF1EE10FA14BFE4
:1051700001200020002B40F0BE80318672867085B1
:1051800098F861300F4A0098C6F8BA210121B1841D
:10519000A6F8BE311BB0BDEC108BBDE8F08F00BF90
:1051A00088000020400D01085C0D0108800E0108F8
:1051B000ABAAAAAA2549123E8FC2753D00247449A4
:1051C00000009643FF07010800000000B5EEC07A1A
:1051D000F1EE10FA00F1078398F85A20002A00F047
:1051E0000583B5EE407AF1EE10FA05D1F5EE407A7E
:1051F000F1EE10FA40F0BA835FED0D8A059B724A1A
:105200005B69724900209847039B002B7FF45AAEDC
:10521000039B049398F85A30002B3FF45BAE349A0A
:1052200000231371A6F8AC31B9F1000F7FF489AEF9
:105230000123A5F802906B81CE4602214A46CDF8A3
:105240000890CDF80090FEE6614C624A05941CE699
:10525000DFED618A32E60123338098F85C90228981
:1052600040F2FF3340F2FF11B9F1000F18BF0B46B7
:1052700042B39A4226D8A27B237C3AB1022B05D1B5
:10528000059B564A5B69DDE9069620E0E07B002835
:1052900040F03E82012B00F0AB80059B504A5B69D9
:1052A0004A490090DDE906969847DDF804E0039B43
:1052B000AA8912FB03F26B8992B213449BB2591C68
:1052C00089B2C0E6059B474A5B69DDE906963F491E
:1052D00000209847039BAA89DDF804E012FB03F243
:1052E0006B8992B213449BB2591C002089B2009082
:1052F000A9E62346DAE6B5EE405AF1EE10FA0AD0F6
:10530000C8EE057A77EE867AFCEEE77A17EE903AE9
:10531000B3871B0C7387002361F30F03F5EE405A2C
:1053200062F31F43F1EE10FA708533633FF428AF48
:10533000FCEEE87A17EE903A1A0CB285F3851FE777
:1053400000221346D2E698F85D30072B15D8264C7C
:105350009FED219A234493F85031A6F8A231349B53
:1053600083ED009A049B002B40F0438298ED145A81
:10537000B0E60320012400211BE6349A98ED145A6C
:105380000023136000230093A4E6012C40F2E28185
:1053900098F80F104246012303E00133A34200F0C6
:1053A000D981084692F82310814202F11402F4D206
:1053B000074F0E4A7C69054905970020A047D8EDA4
:1053C000157AD7F8B43268E5E40D01085C0D0108E0
:1053D00088000020700D010800000000B00E0108D8
:1053E000DC0E0108A00E010820C80008B00D01085D
:1053F0006FF00B030993E288A3880A92182A00939E
:1054000040F2958202EB820303EB031303EB0323C9
:1054100002EB4303C3F3CC0242EA43339BB240F6B0
:10542000AA22934200F2D682AF4B0A9AA3FB022330
:105430001B090E93013B9BB215935C230D9318231C
:105440000B930098002840F0D484059BA74A5B6921
:10545000A7499847B9F1000F00F0BE844FF000094A
:105460000222009B099913FB02F292B20092226879
:1054700011440A460C910A99013B01FB032309934D
:1054800002F5C34328334CF25032934207D9059BAF
:10549000984A5B699649002098474FF00009099B9C
:1054A00003F5C34328334CF25032934207D9059B8E
:1054B000914A5B698E49002098474FF000090C9A89
:1054C000002AC0F23B838D4880FB0230D217C2EB2A
:1054D000A00000B2099B002BC0F22483874981FB06
:1054E0000331099BDB17C3EBA101119309B280B211
:1054F000091A0C9B0F90814880FB03C0C2EBA002ED
:1055000088B209B20E9B1091B0FBF3F0411C0A90D7
:105510001FFA81FE0B981821B1FBF0F30E930C9B40
:1055200002EB4202B3EBC20200F1F58213B2139315
:1055300093B20C93099A7148119B0B9980FB020C52
:10554000C3EBAC0303EB430C0C9BB3FBF1F001FB8F
:10555000103081B2B2EBCC03099100F1F9821AB29A
:1055600019929BB20E9A0B98511E099A89B2189102
:10557000BEF1010F11FB002189B200F0EF82099A00
:105580000C98824240F0FD82994200F04D84002345
:10559000012213931692149312920E930C9B9A006D
:1055A000099BABF882209B00ABF88430B9F1000F67
:1055B00040F0F3826C23179336230C937D223D2316
:1055C0004FF00009ABF87C300F9BABF87A200C9AB7
:1055D0001099C3F1290313441AB21192521A9BB2C3
:1055E000292A0F9307DC059B454A5B694049002047
:1055F00098474FF00009119B179A934207DB059BD0
:10560000404A5B693A49002098474FF000090D9BDA
:105610002C2B00F20E821E2B40F2E1831E3B0F2248
:105620009BB20D92ABF89A30159B0C99ABF8943065
:10563000139BABF87E10ABF88E300F990A9BABF83A
:1056400080100D99ABF89610ABF89820002B40F025
:10565000CE81149B002B0E9B08BF00230E93129B40
:10566000002B00F0D583099A199B9B1A0B9A93FB88
:10567000F2F39BB2169AABF89220ABF88C300E9AEC
:10568000ABF888200023ABF89030ABF88A300A9B47
:10569000ABF88630B9F1000F40F0BA82CDF8009037
:1056A000DDF804E0DDE9069601E698F81020013AFD
:1056B000012A7FF619AC224618E400237363B9F17E
:1056C000000F41D0012300933DE4059B0E4A5B6926
:1056D000074900209847B9F1000F7FF432ACA7E5E5
:1056E00000231A4616E400BFABAAAAAA280F010895
:1056F0005C0D0108740F0108880F0108ABAAAA2AE3
:10570000BC0F0108DC0F0108600E0108002201E453
:10571000013B042B00F2328501A252F823F000BFB6
:10572000F153000865590008355700085D59000815
:10573000355700086FF00C0309935CE64FF0011336
:105740007363B9F1000FBDD100236B800123C5F84D
:105750000A3040E4B94B98ED157A0593D3F8B4328A
:10576000009306EE903AB5EEC07AF1EE10FAB8EE7C
:10577000668A7FF72BADC8EE078AF6EE007A78EEE0
:10578000A78A18EE900A06F0C1FE51B1059BAC4AFB
:105790005B69AC4900209847039B002B7FF492ABD8
:1057A00037E598F85A20002A7FF428AD039B98F833
:1057B0005F10002B98F8603014BF204600209942FB
:1057C000049007D9059BA04A5B699E490020984731
:1057D000FFF77BBB022B00F0B384349B1A71A6F851
:1057E000AC21FFF78ABBDFED998ACFE7DFED978A1F
:1057F000DCE7B6F8AC31B6F8A421012B00F0CC8080
:1058000007EE902ADFED929AB8EE67AAB7EE089AF3
:10581000F2EE02DA059B9FED8F0AD3F8B4320193C2
:1058200007EE903AB8EE67FA80EE0F0A04F0B0FD8A
:1058300098F86030022B2FEE00FA00F21F8104EB83
:10584000830498F85E3094ED56EAD4ED59FA002BB3
:1058500000F02581009BDFED7DEA9FED7FBA9FED93
:105860007FDADFED7FCA9FED7FCADFED7FBADFED24
:105870007FAADDF8149044460025227C052A00F218
:105880009280022A40F29A804FF0300A0827E27B89
:10589000052A00F26884DFE802F03E413B034744FA
:1058A000F0EE4B7A8FEE276A228998F85E1002FBA1
:1058B000077702377F00BFB2A288013514349FED0D
:1058C0006C7AC6EE076A07EE90AAF8EE677A87EE62
:1058D000A66A07EE907AF8EE677A87EEA67A07EE68
:1058E000902AF8EE677AEAB267EE277A914277EE6D
:1058F000867A77EEA97A77EE897A7EEEA7EABCD827
:1059000098ED145A002B40F0CE800093FFF7E2BBD5
:10591000F0EE6A7AC6E7F0EE6C7AC3E7F0EE4D7A05
:10592000C0E7F0EE4C7ABDE7F0EE6B7ABAE70A9A80
:10593000002A4FD01823B3FBF2F302FB03F3C3F1A9
:1059400018039BB21593002B44D10A9A0B92531E55
:105950009B009BB20D9301230E9372E56FF00F0332
:10596000099348E56FF00603099344E598F85F2032
:1059700098F860309A427FF43FAC039B349ADFED95
:10598000338A002B14BF2346002304930023137192
:10599000A6F8AC31FFF7B1BAF0EE499AF0EE49DA69
:1059A000B0EE49AA36E7D9F81430324A254900202A
:1059B00098474FF0180A0427002368E7012A05D00A
:1059C000022AF0D14FF03C0A0A2760E74FF0480A5C
:1059D0000C275CE7059B284A5B691A490020984719
:1059E00000230122CDE90D3215930B9232E5149B71
:1059F000002B0E9B08BF00230E93129B33B1099A14
:105A0000199B9B1A0B9A93FBF2F39BB2ABF88C3069
:105A10000A9B169AABF89220013B0E9AABF88820AD
:105A20009BB2189A0A930123ABF88A20ABF8903006
:105A30002DE600230D931A46F4E500BF88000020F0
:105A4000D00D01085C0D0108100E010800000000D7
:105A50009A999D41F902154F0000904300002043A0
:105A6000000000430000F0430000C043000040433A
:105A700000247449040F0108140F0108059BBE4A55
:105A80005B69BE490020984798F85E30002B00F013
:105A9000EF81DFEDBBFA0023B0EE6FEADBE698EDB5
:105AA000145ADFEDB7EA9FEDB77ADFEDB76A349BA2
:105AB000CFEE077AB1EE0C7AC7EEA65A2AEE07AA05
:105AC0007FEE8EFACAEE257A9FEDB07A77EEAD7A48
:105AD000B0EE006A77EEAE7A77EEAF7A27EE877A8D
