:020000040800F2
:10000000000001203DEE00085121000855210008A4
:10001000592100085D21000861210008000000004E
:100020000000000000000000000000006521000842
:1000300069210008000000006D21000871210008FE
:100040008DEE00088DEE00088DEE00088521000879
:100050008DEE00088DEE00088DEE00088DEE000894
:100060008DEE0008C12100088DEE00088DEE00081D
:10007000D5210008E12100088DEE00088DEE000872
:10008000ED210008F92100088DEE00088DEE000832
:100090008DEE00088DEE00088DEE00088DEE000854
:1000A0008DEE00088DEE00088DEE00088DEE000844
:1000B0008DEE000800000000000000008DEE00083A
:1000C0008DEE0008052200088DEE00088DEE000878
:1000D0008DEE00088DEE0008BD4400088DEE00088E
:1000E0002D2200084122000800000000000000004E
:1000F0000000000000000000000000000000000000
:10010000000000008DEE0008000000008DEE0008E9
:1001100000000000000000008DEE00088DEE0008D9
:100120008DEE00088DEE00088DEE00088DEE0008C3
:100130008DEE00080000000000000000000000003C
:100140008DEE00088DEE00088DEE00080000000026
:100150008DEE00088DEE00088DEE00088DEE000893
:100160008DEE00088DEE00088DEE00080000000006
:100170008DEE00088DEE0008000000000000000079
:100180008DEE00088DEE00088DEE000800000000E6
:1001900002230360704700BF4FF48533036070474C
:1001A00072B6BFF34F8FBFF36F8F0E4B00211A68EB
:1001B000196062B6BFF34F8FBFF36F8F02F0010378
:1001C000910748BF43F00203510748BF43F00403BF
:1001D000110748BF43F00803D20648BF43F010039D
:1001E000036070478000002072B6BFF34F8FBFF3EB
:1001F0006F8F044B5B6862B6BFF34F8FBFF36F8F97
:10020000036070478000002072B6BFF34F8FBFF3CA
:100210006F8F044B9B6862B6BFF34F8FBFF36F8F36
:10022000036070478000002072B6BFF34F8FBFF3AA
:100230006F8F0C4A537B117B1BB1002341F00201ED
:10024000537392F84C31B2F94C205B4203F40043F3
:1002500043EA02430B4362B6BFF34F8FBFF36F8F86
:10026000036070478000002072B6BFF34F8FBFF36A
:100270006F8F084BD3ED547A62B6BFF34F8FBFF345
:100280006F8F9FED057A67EE877AFCEEE77AC0ED17
:10029000007A70478000002000007A4472B6BFF3F5
:1002A0004F8FBFF36F8F084BD3ED557A62B6BFF314
:1002B0004F8FBFF36F8F9FED057A67EE877AFCEE65
:1002C000E77AC0ED007A70478000002000007A4491
:1002D00072B6BFF34F8FBFF36F8F084BD3ED567AD3
:1002E00062B6BFF34F8FBFF36F8F9FED057A67EE56
:1002F000877AFCEEE77AC0ED007A70478000002034
:1003000000007A440A4A536910B504461BB10949F2
:100310001868884208D0D2F86C310749074A002093
:1003200098470023236010BDB3F85430236010BDFC
:100330008000002002B13713AC600108946001080E
:100340000A4A536983B110B509491C688C4207D029
:10035000D2F86C310749084A00209847012010BDA7
:10036000A3F85400012010BD1846704780000020FB
:1003700002B13713AC600108946001080A4A53695E
:1003800010B504461BB109491868884208D0D2F854
:100390006C310749074A002098470023236010BDAD
:1003A0001B8A236010BD00BF8000002002B13713FC
:1003B000AC600108946001080A4A53697BB110B52A
:1003C00009491C688C4207D0D2F86C310749084AA9
:1003D00000209847012010BD1882012010BD18464A
:1003E000704700BF8000002002B13713AC600108E5
:1003F000946001080A4A536910B504461BB10949C3
:100400001868884208D0D2F86C310749074A0020A2
:1004100098470023236010BD9B7C236010BD00BF64
:100420008000002002B13713AC600108946001081D
:100430000B4A536993B110B50A491C688C4207D026
:10044000D2F86C310849094A00209847012010BDB4
:10045000003818BF01209874012010BD184670475D
:100460008000002002B13713AC60010894600108DD
:100470000A4A536910B504461BB1094918688842F5
:1004800008D0D2F86C310749074A0020984700236A
:10049000236010BDDB7C236010BD00BF8000002006
:1004A00002B13713AC600108946001080B4A53692C
:1004B00093B110B50A491C688C4207D0D2F86C3150
:1004C0000849094A00209847012010BD003818BF8C
:1004D0000120D874012010BD18467047800000200C
:1004E00002B13713AC600108946001080A4A5369ED
:1004F00010B504461BB109491868884208D0D2F8E3
:100500006C310749074A002098470023236010BD3B
:100510001B7D236010BD00BF8000002002B1371397
:10052000AC600108946001080B4A536993B110B59F
:100530000A491C688C4207D0D2F86C310849094A34
:1005400000209847012010BD003818BF0120187501
:10055000012010BD184670478000002002B13713FB
:10056000AC600108946001080E4A536910B5044656
:100570001BB10D491868884208D0D2F86C310B497C
:100580000B4A002098470023236010BDD3ED177A53
:100590009FED087A67EE877AFCEEE77A17EE903ADD
:1005A000236010BD8000002002B13713AC60010849
:1005B0009460010800007A4400B5114A83B0536981
:1005C0000190C3B10F491868884209D0D2F86C3144
:1005D0000D490E4A00209847012003B05DF804FB46
:1005E000DDED017ADFED0A6AF8EE677A87EEA67A2A
:1005F00083ED177AF0E7184603B05DF804FB00BFFF
:100600008000002002B13713AC600108946001083B
:1006100000007A440E4A536910B504461BB10D49D7
:100620001868884208D0D2F86C310B490B4A002078
:1006300098470023236010BDD3ED067A9FED087A1A
:1006400067EE877AFCEEE77A17EE903A236010BDEA
:100650008000002002B13713AC60010894600108EB
:1006600000007A4400B5114A83B053690190C3B1C8
:100670000F491868884209D0D2F86C310D490E4AEA
:1006800000209847012003B05DF804FBDDED017AFE
:10069000DFED0A6AF8EE677A87EEA67A83ED067ACE
:1006A000F0E7184603B05DF804FB00BF80000020AF
:1006B00002B13713AC6001089460010800007A446D
:1006C0000E4A536910B504461BB10D49186888429B
:1006D00008D0D2F86C310B490B4A00209847002310
:1006E000236010BDD3ED077A9FED087A67EE877A15
:1006F000FCEEE77A17EE903A236010BD80000020F0
:1007000002B13713AC6001089460010800007A441C
:1007100000B5114A83B053690190C3B10F491868FD
:10072000884209D0D2F86C310D490E4A0020984712
:10073000012003B05DF804FBDDED017ADFED0A6A0C
:10074000F8EE677A87EEA67A83ED077AF0E7184627
:1007500003B05DF804FB00BF8000002002B1371336
:10076000AC6001089460010800007A440E4A5369A5
:1007700010B504461BB10D491868884208D0D2F85C
:100780006C310B490B4A002098470023236010BDB1
:10079000D3ED087A9FED087A67EE877AFCEEE77A68
:1007A00017EE903A236010BD8000002002B137138D
:1007B000AC6001089460010800007A4400B5114A59
:1007C00083B053690190C3B10F491868884209D0BA
:1007D000D2F86C310D490E4A00209847012003B031
:1007E0005DF804FBDDED017ADFED0A6AF8EE677A69
:1007F00087EEA67A83ED087AF0E7184603B05DF835
:1008000004FB00BF8000002002B13713AC60010878
:100810009460010800007A440E4A536910B50446FA
:100820001BB10D491868884208D0D2F86C310B49C9
:100830000B4A002098470023236010BDD3ED097AAE
:100840009FED087A67EE877AFCEEE77A17EE903A2A
:10085000236010BD8000002002B13713AC60010896
:100860009460010800007A4400B5114A83B05369CE
:100870000190C3B10F491868884209D0D2F86C3191
:100880000D490E4A00209847012003B05DF804FB93
:10089000DDED017ADFED0A6AF8EE677A87EEA67A77
:1008A00083ED097AF0E7184603B05DF804FB00BF5A
:1008B0008000002002B13713AC6001089460010889
:1008C00000007A440E4A536910B504461BB10D4925
:1008D0001868884208D0D2F86C310B490B4A0020C6
:1008E00098470023236010BDD3ED0A7A9FED087A64
:1008F00067EE877AFCEEE77A17EE903A236010BD38
:100900008000002002B13713AC6001089460010838
:1009100000007A4400B5114A83B053690190C3B115
:100920000F491868884209D0D2F86C310D490E4A37
:1009300000209847012003B05DF804FBDDED017A4B
:10094000DFED0A6AF8EE677A87EEA67A83ED0A7A17
:10095000F0E7184603B05DF804FB00BF80000020FC
:1009600002B13713AC6001089460010800007A44BA
:100970000E4A536910B504461BB10D4918688842E8
:1009800008D0D2F86C310B490B4A0020984700235D
:10099000236010BDD3ED0B7A9FED087A67EE877A5E
:1009A000FCEEE77A17EE903A236010BD800000203D
:1009B00002B13713AC6001089460010800007A446A
:1009C00000B5114A83B053690190C3B10F4918684B
:1009D000884209D0D2F86C310D490E4A0020984760
:1009E000012003B05DF804FBDDED017ADFED0A6A5A
:1009F000F8EE677A87EEA67A83ED0B7AF0E7184671
:100A000003B05DF804FB00BF8000002002B1371383
:100A1000AC6001089460010800007A440E4A5369F2
:100A200010B504461BB10D491868884208D0D2F8A9
:100A30006C310B490B4A002098470023236010BDFE
:100A4000D3ED0D7A9FED087A67EE877AFCEEE77AB0
:100A500017EE903A236010BD8000002002B13713DA
:100A6000AC6001089460010800007A4400B5114AA6
:100A700083B053690190C3B10F491868884209D007
:100A8000D2F86C310D490E4A00209847012003B07E
:100A90005DF804FBDDED017ADFED0A6AF8EE677AB6
:100AA00087EEA67A83ED0D7AF0E7184603B05DF87D
:100AB00004FB00BF8000002002B13713AC600108C6
:100AC0009460010800007A440E4A536910B5044648
:100AD0001BB10D491868884208D0D2F86C310B4917
:100AE0000B4A002098470023236010BDD3ED0E7AF7
:100AF0009FED087A67EE877AFCEEE77A17EE903A78
:100B0000236010BD8000002002B13713AC600108E3
:100B10009460010800007A4400B5114A83B053691B
:100B20000190C3B10F491868884209D0D2F86C31DE
:100B30000D490E4A00209847012003B05DF804FBE0
:100B4000DDED017ADFED0A6AF8EE677A87EEA67AC4
:100B500083ED0E7AF0E7184603B05DF804FB00BFA2
:100B60008000002002B13713AC60010894600108D6
:100B700000007A440A4A536910B504461BB109497A
:100B80001868884208D0D2F86C310749074A00201B
:100B900098470123236010BD93F84430236010BDB3
:100BA0008000002002B13713AC6001089460010896
:100BB0000C4A53699BB110B50B491C688C4207D095
:100BC000D2F86C3109490A4A00209847012010BD2B
:100BD000003818BF012083F84400012010BD1846DA
:100BE000704700BF8000002002B13713AC600108DD
:100BF000946001080A4A536910B504461BB10949BB
:100C00001868884208D0D2F86C310749074A00209A
:100C100098470123236010BD93F84530236010BD31
:100C20008000002002B13713AC6001089460010815
:100C30000C4A53699BB110B50B491C688C4207D014
:100C4000D2F86C3109490A4A00209847012010BDAA
:100C5000003818BF012083F84500012010BD184658
:100C6000704700BF8000002002B13713AC6001085C
:100C7000946001080C4A536910B504461BB10B4936
:100C80001868884208D0D2F86C310949094A002016
:100C900098470323236010BD93F846305A1E042A58
:100CA00088BF0023236010BD8000002002B13713ED
:100CB000AC600108946001080C4A536913B1411EED
:100CC000042901D90020704710B509491C688C42DD
:100CD00007D0D2F86C310749074A00209847012015
:100CE00010BD83F84600012010BD00BF8000002029
:100CF00002B13713AC600108946001080A4A5369D5
:100D000010B504461BB109491868884208D0D2F8CA
:100D10006C310749074A002098470023236010BD23
:100D2000B3F84830236010BD8000002002B13713B3
:100D3000AC600108946001080A4A536983B110B598
:100D400009491C688C4207D0D2F86C310749084A1F
:100D500000209847012010BDA3F84800012010BDD5
:100D6000184670478000002002B13713AC600108BC
:100D7000946001080E4A536910B504461BB10D4931
:100D80001868884208D0D2F86C310B490B4A002011
:100D900098470023236010BDD3ED137A9FED087AA6
:100DA00067EE877AFCEEE77A17EE903A236010BD83
:100DB0008000002002B13713AC6001089460010884
:100DC00000007A4400B5114A83B053690190C3B161
:100DD0000F491868884209D0D2F86C310D490E4A83
:100DE00000209847012003B05DF804FBDDED017A97
:100DF000DFED0A6AF8EE677A87EEA67A83ED137A5A
:100E0000F0E7184603B05DF804FB00BF8000002047
:100E100002B13713AC6001089460010800007A4405
:100E20000E4A536910B504461BB10D491868884233
:100E300008D0D2F86C310B490B4A002098470023A8
:100E4000236010BDD3ED147A9FED087A67EE877AA0
:100E5000FCEEE77A17EE903A236010BD8000002088
:100E600002B13713AC6001089460010800007A44B5
:100E700000B5114A83B053690190C3B10F49186896
:100E8000884209D0D2F86C310D490E4A00209847AB
:100E9000012003B05DF804FBDDED017ADFED0A6AA5
:100EA000F8EE677A87EEA67A83ED147AF0E71846B3
:100EB00003B05DF804FB00BF8000002002B13713CF
:100EC000AC6001089460010800007A440A4A536942
:100ED00010B504461BB109491868884208D0D2F8F9
:100EE0006C310749074A002098470023236010BD52
:100EF00093F86130236010BD8000002002B13713E9
:100F0000AC600108946001080C4A53699BB110B5AC
:100F10000B491C688C4207D0D2F86C3109490A4A47
:100F200000209847012010BD003818BF012083F829
:100F30006100012010BD1846704700BF80000020EE
:100F400002B13713AC600108946001080A4A536982
:100F500010B504461BB109491868884208D0D2F878
:100F60006C310749074A002098470023236010BDD1
:100F7000B3F85630236010BD8000002002B1371353
:100F8000AC600108946001080A4A536983B110B546
:100F900009491C688C4207D0D2F86C310749084ACD
:100FA00000209847012010BDA3F85600012010BD75
:100FB000184670478000002002B13713AC6001086A
:100FC000946001080A4A536910B504461BB10949E7
:100FD0001868884208D0D2F86C310749074A0020C7
:100FE00098470123236010BD93F86230236010BD41
:100FF0008000002002B13713AC6001089460010842
:101000000C4A53699BB110B50B491C688C4207D040
:10101000D2F86C3109490A4A00209847012010BDD6
:10102000003818BF012083F86200012010BD184667
:10103000704700BF8000002002B13713AC60010888
:10104000946001080E4A536910B504461BB10D495E
:101050001868884208D0D2F86C310B490B4A00203E
:1010600098470023236010BDD3ED197A9FED087ACD
:1010700067EE877AFCEEE77A17EE903A236010BDB0
:101080008000002002B13713AC60010894600108B1
:1010900000007A4400B5114A83B053690190C3B18E
:1010A0000F491868884209D0D2F86C310D490E4AB0
:1010B00000209847012003B05DF804FBDDED017AC4
:1010C000DFED0A6AF8EE677A87EEA67A83ED197A81
:1010D000F0E7184603B05DF804FB00BF8000002075
:1010E00002B13713AC6001089460010800007A4433
:1010F00072B6BFF34F8FBFF36F8F054B93F8743108
:1011000062B6BFF34F8FBFF36F8F0360704700BFAE
:101110008000002072B6BFF34F8FBFF36F8F064B76
:10112000003818BF012083F8740162B6BFF34F8FF7
:10113000BFF36F8F012070478000002072B6BFF3AD
:101140004F8FBFF36F8F054BD3F8783162B6BFF383
:101150004F8FBFF36F8F0360704700BF8000002088
:1011600072B6BFF34F8FBFF36F8F0F4BD3F87C2155
:1011700032B1002062B6BFF34F8FBFF36F8F70475D
:101180009A680A4910B442F000424FF400748C622D
:10119000C3F87C019A60012062B6BFF34F8FBFF3A2
:1011A0006F8F5DF8044B70478000002000040048FA
:1011B00090F824C0BCF1010F3CD070B590F825C068
:1011C0000124A44580F824405FFA8CFE04D000235B
:1011D00080F82430022070BD022580F82550046874
:1011E0000025C5632668456C26F00106266005F0DB
:1011F0001C05066C0EFA05F5756063608368102B9C
:10120000036B0BBFA260A160E160E2604BB1236899
:1012100043F00E032360236843F0010300202360A2
:1012200070BD236823F004032360236843F00A039E
:101230002360F0E7022070472DE9F041814C002344
:1012400084F8803194F8E531012B0D46D4F88C11E7
:1012500009D0B1F5827F6BD1D8B2D4F89031002B90
:1012600066D1042864D1002D62D092B2002A5FD0EA
:1012700094F8E431012B5BD094F8E531D4F888611F
:10128000C4F8C051042B1CBF052384F8E5310121AB
:101290000023C4F8E83184F8E411A4F8C621A4F8C6
:1012A000CE21C4E975337368A4F8C42123F4C04384
:1012B000C4F8C851A4F8CC217360D4F89431D4F8A0
:1012C000E001B3F5E06F35D8D4F8DC319969736883
:1012D000B1F5806F43F48053736000F086808369BA
:1012E000B3F5806F6DD094F8E531574A042B574B16
:1012F00018BF1346564A0363564B4363564B18BFF9
:101300001346C362B4F8CE314FF00008C0F83880FD
:101310009BB206F10C012A46FFF74AFF074670B15F
:10132000D4F8E83184F8E48143F01003C4F8E831DC
:10133000BDE8F081736823F480537360D3E773686A
:10134000D4F8DC0143F001037360B4F8C6310A46F7
:10135000C0E90B77C0E90D7729469BB2FFF728FF5C
:1013600000284FD133685B0626D5002384F8E4318A
:10137000736843F020037360736843F00203736083
:10138000D4F8EC2194F88031002BD1D141F287318F
:101390000BE072B694F8803103B930BF62B6BFF388
:1013A0006F8F94F88031002BC2D1D4F8EC319B1AA6
:1013B0008B42EED9BDE8F081336843F040033360DF
:1013C000D3E7736823F480537360B4F8CE3113F01D
:1013D000010F73681FD123F400537360B4F8CE314A
:1013E000C3F34E03A4F8CE317DE7D20773681DD452
:1013F00023F480437360B4F8C631C3F34E03A4F8FA
:10140000C6316CE7D4F8E83184F8E47143F0100396
:10141000C4F8E8318CE743F400537360B4F8CE317C
:10142000C3F34E030133A4F8CE315CE743F48043A9
:101430007360B4F8C631C3F34E030133A4F8C63168
:101440004DE700BF80000020CD170008C917000835
:101450005D1C0008D1170008AD1B000870B4436C78
:10146000066C056831682C6803F01C0304229A405E
:101470000A420ED014F0040F0BD02B689B0603D445
:101480002B6823F004032B60036B7260CBB170BC3C
:10149000184702229A400A4215D014F0020F12D0C7
:1014A0002B68990606D42B6823F00A032B600123CE
:1014B00080F82530C36A7260002180F82410002B68
:1014C000E5D170BC704708229A400A42F9D0220741
:1014D000F7D52A68416B22F00E022A60012202FA37
:1014E00003F300247360C26380F8244080F8252051
:1014F0000029E6D070BC0847002310B480F84230C1
:1015000090F84120212A4FF0200118D1112280F8B3
:101510004110026390F84110046801F0280122682C
:101520004363282914BF6FF0F2016FF042010A40B3
:10153000002322605DF8044B80F84030704712228F
:1015400080F84110026390F84120016802F02802FF
:101550000C684363282A14BF6FF0F4026FF0440252
:10156000224000230A605DF8044B80F84030704749
:10157000264A9368D26813F00C0305D00C2B32D0A6
:10158000042B3ED122487047204A1168090754BFF6
:10159000D2F8942012681F4954BFC2F30322C2F349
:1015A000031251F82200002BEDD0184BDB6803F03A
:1015B0000303022B23D0184A032B08BF1046134BFA
:1015C000D968DA68DB68C3F34163C2F30622C1F36A
:1015D0000211013300FB02F201315B00B2FBF1F2B8
:1015E000B2FBF3F0704702F00302012ACCD0074BA4
:1015F000DB6803F00303022B4FF00000DBD104484B
:10160000DDE7082B044818BF002070470010024097
:101610000024F400F81F010800127A0021498B6DA4
:10162000DB0082B01CD5204B1B6803F4C063B3F50C
:10163000007F29D080282ED831D0A0F17002B2FAD4
:1016400082F2520919490B6823F0070313430B6018
:10165000086800F00700801A18BF012002B0704728
:101660008B6D114A43F080538B658B6D03F0805373
:101670000193019B13688A6D03F4C06322F08052CA
:10168000B3F5007F8A65D5D1802806D9A0288CBF04
:1016900002220122D6E70322D4E70022D2E7022267
:1016A000D0E700BF00100240007000400020024060
:1016B000434A036830B4D468A40707D0D46804F060
:1016C00003049C424AD0012030BC7047022B56D004
:1016D000032B4DD0012BF6D112689207F3D5384C6D
:1016E000E26822F0730213434268013A43EA0213AC
:1016F000E360334C334A236823F080632360D2F8DD
:10170000EC5104E0D2F8EC315B1B022B3BD8236890
:101710001B01F7D483681B02002936D12169C568F3
:1017200021F0784121F4FE4143EAC5630B43236174
:1017300023490B6843F080630B60D2F8EC4104E06E
:10174000D2F8EC311B1B022B1DD80B681B01F7D5FF
:1017500082690B69134300200B61B5E7002CB2D0FE
:10176000D3684268C3F3021301339342ABD1C0E79D
:101770001468A403B3D412685203A4D5AFE7126867
:101780005505A0D5ABE703209EE7012921690BD0C1
:1017900021F0C06121F4FE41194343695B08013B1C
:1017A00041EA43612161C3E721F4C00121F4FE4114
:1017B0000B4301694908013943EA41532361B7E703
:1017C0000010024080000020704700BF704700BF3B
:1017D000836A19684A6822F003024A601A6E4FF061
:1017E000010C42F010021A6683F85DC0704700BF1A
:1017F000836A0022A3F85A20A3F85220704700BF42
:10180000B1F804C093680A899A80BCF1000C18BF33
:101810004FF0010CCA7983F800C091F806C083F834
:1018200001C09A709860704703460068D3F8E810CA
:101830004268C3F8F0101047D0E90F23816B0069AC
:10184000184700BF0068C368184700BF704700BF53
:1018500000688368184700BF2DE9F047D0F8008082
:101860000546B8F1000F22D0D8F8987037B3144E5F
:1018700007F148044FF00009583754F8040F20B11D
:10188000D6F864319847C4F80090A742F5D1D8F84B
:101890009800D6F8643100B19847D6F864314046D4
:1018A0009847D6F864312846BDE8F0471847044EFB
:1018B0002846D6F86431BDE8F0471847004EECE7FB
:1018C000800000202DE9F047C36D87690569002479
:1018D0007C8081461C7000F14806A04656F8043F03
:1018E000FBB1B3F838C0B3F89400B3F89610B3F86E
:1018F000DC2005EB400005EB410105EB420205EB66
:101900004C0CC3E91301C3F8A820C3F814C03C7001
:101910001868D3F8E020416883F8E880C3F8E42031
:1019200088470134E4B2042CD8D1D9F80000BDE8CE
:10193000F0474368184700BF70B50446806980B11E
:10194000E3694BB1104B93F8F0212AB1D3F86C3115
:101950000E4A0F49012098472068BDE8704083680F
:101960001847094D0B4AD5F86C3109499847E36986
:1019700043B195F8F0312BB1D5F86C31034A0449E5
:1019800001209847002070BD80000020C060010841
:10199000D0600108E060010830B40269B0F842305C
:1019A00090F8381032F81330032908BF83F400434D
:1019B00040F2E51101FB03F31B0C816C8446A3F597
:1019C00089700880BCF83C10DCF84C0032F811102B
:1019D00039B1BCF8401032F81110012994BF002130
:1019E00001210170BCF83E00BCF83A10DCF8505000
:1019F00032F8111032F81020DCF8544040F2E510B3
:101A000000FB02F2A3EB12431BB2002BBCF94420F3
:101A1000DCF80000B8BF5B421BB29A42A1F10102A0
:101A2000B2FA82F2ACBF0023012352092A7023705C
:101A300030BC4368184700BF0068C368184700BF40
:101A4000836910B50446CBB10E4B93F8F02152B91F
:101A500063698BB10B4B0C4AD3F86C310B490020F6
:101A60009847002010BDD3F86C31094A074901207E
:101A700098476369002BEDD1012010BDC369002B8D
:101A8000E2D1E5E780000020346101081861010817
:101A9000FC6001080068C368184700BF00688368DD
:101AA000184700BF70B5114E114A3368A2FB0323DB
:101AB0009B09013BB3F1807F01D3012070BD4FF042
:101AC000E0220C495361F02381F8233000250723DD
:101AD0000F28956104461361EFD801464FF0FF309F
:101AE00009F01CFF7460284670BD00BF0000002094
:101AF000D34D621000ED00E00CB4F0B5ADB032ABE8
:101B000006AE53F8042B059304460D463046962145
:101B10000FF07EFB9528C4BF1C4BCDF8AA301C4BA0
:101B20001C49D3F8EC71A1FB07311B4BA3FB072326
:101B3000980B1A4BA3FB07234FEA931C184B4FF447
:101B40007A7202FB1C77A3FB00E25209042CC2EB61
:101B50000212A0EB8202A3FB0CE398BF114800978E
:101B60004FEA531394BF005D3F20C3EB0313019072
:101B7000CDE90256490DACEB83030B480FF022FB75
:101B80002DB0BDE8F04002B0704700BF2E2E2E00F1
:101B900080000020B17C219573B2E745D34D6210DF
:101BA00089888888806101085C61010838B52A4A03
:101BB0000368D2F8EC511B689B061BD4846A236827
:101BC000A2685868616820F0200058609AB158688F
:101BD000B1F5827F20F00100586022D029462046CE
:101BE00008F006F9B0B901230022A4F8462084F8D1
:101BF0005D30236E38BD5A68B1F5827F0CBF22F08C
:101C0000030222F001025A602946204608F0F0F84B
:101C10000028E8D0236E43F02003236620232366A8
:101C2000E1E7B2F5004F12D11A6822F040022946CE
:101C30001A60204608F0DCF80028EBD12A464FF461
:101C4000C061204608F070F80028CCD0E2E7B2F579
:101C5000806FE9D0C2E700BF80000020F8B51C4DBE
:101C60000368D5F8EC711B68846A9B062CD426683F
:101C7000736823F0200373603A464FF4C051204646
:101C800008F052F858B93946204608F0B1F830B992
:101C90003A464FF4C061204608F046F838B1236E4A
:101CA00043F020032366236E43F02003236673680A
:101CB00023F00303736000220123E287A4F8462087
:101CC00084F85D30236E13B9012385F88031F8BDA7
:101CD00080000020F8B595692B7802EB43030F468E
:101CE000B3F84460536901466888144603EB40002A
:101CF00072000FF009FA6B88E26D1E4413786E8053
:101D000003B93B791370F8BD2DE9F04F2DED048B2D
:101D1000038F8DB00546002B00F01581B0F84030E0
:101D2000428F0469B0F850E007925B000293838F02
:101D3000C28F34F913300B92BEF1000F00F0038113
:101D40001B010893D0E91223D718B0F85200B5F858
:101D50004230DFED8A8ADFF830B20193FE434FF064
:101D60000008F6EE009A0990C1460496CDF828E0E6
:101D7000834B83FB0710F917C1EBA00101EB410076
:101D8000A7EBC00000281FFA89F886B2C0F2EB80EA
:101D9000002FC0F2F180089B09B2090481FB030106
:101DA000002906DA4FF6FF7C10EB0C0C604641F17F
:101DB0000001079B000C40EA0140991934F9111009
:101DC000A0EB011007EE900AB8EEE79A29EE289AE8
:101DD000B0EE490A0DF0F2FBB0EE408AB0EE490ACF
:101DE0000DF006F9019B002B00F0A2800B9BB5F8CB
:101DF00044A01E4404EB46030020CDE9059703935D
:101E00000646009059E095F838C0BCF1000F4BD061
:101E100007EE101A07EE903AF8EEC76AF8EEE77A86
:101E200026EE806A27EE887A66EE886A37EE467A72
:101E300067EE807AB5EEC07A77EEA67AF1EE10FA08
:101E40004CBF37EE697A37EE297AF5EEC07AF1EEBB
:101E500010FABDEEC77A4CBF77EEE97A77EEA97A31
:101E600017EE103AFDEEE77A5B4517EE901A47F64B
:101E7000FF70B8BF5B468342D5F85490A8BF0346B5
:101E80005945B8BF594699F800E08142A8BF0146BC
:101E9000BEF1000F04D117EE100A98425BD0E6465F
:101EA00089F800E01BB209B2A352009B7980534429
:101EB0000093019B01369E4238D0009B95F839C0B3
:101EC00008EB5302029B92B203EB8202A718A35EB7
:101ED000B7F90210BCF1000F95D00398B0F800C01C
:101EE0000CF01F0E0EF1300E03FB0EFE4FEA9C238A
:101EF000203BCCF3441C01FB03F3BEF1000F0CF1BB
:101F0000300C01FB0CFCB8BF0EF13F0E002BB8BF2C
:101F10001F334FEAAE1EBCF1000F0EEB6313B8BFC8
:101F20000CF13F0C1BB24CF38F116CE7DDE9059708
:101F3000099B049A1F44D31A04930A9B09F10109CF
:101F400099457FF415AF286843680DB0BDEC048B4C
:101F5000BDE8F04F184717EE900AB0EB010E18BF1E
:101F60004FF0010E9CE71836B6B2049B054AA2FB5F
:101F700003016FEA11110EE70026F6E70000803733
:101F8000ABAAAA2AABAAAAAA0080FFFFBFF34F8F71
:101F90000549064BCA6802F4E0621343CB60BFF305
:101FA0004F8F00BFFDE700BF00ED00E00400FA0521
:101FB0001A4B10B50446406AC01A83B2022B25D0D2
:101FC000042B27D0164B93F8F831033B012B04D890
:101FD0002268536843F40043536094F8413003F09F
:101FE0002803282B10D1226894F84130136823F07D
:101FF000FC03136094F84030012B05D004212046E7
:1020000007F04AFF00B910BDFFF7C0FF184607F000
:102010009BFFD7E780B207F097FFD3E77402002059
:102020008000002008B50A4B01221A7290F8413056
:10203000202B01D0FFF7AAFF02680649282380F869
:1020400041301368416343F0B803136008BD00BF1B
:1020500000000020152F000810B400232022174C88
:10206000C4624363036380F8412080F842304B0729
:10207000026811D5436A526A1A70436A028D0133AD
:1020800043624AB1438D013B9BB24385436C013AA5
:1020900043F0040302854364036890F8412090F8FC
:1020A00041201A68102422F0FE0200211A60DC612F
:1020B0005DF8044B80F84010B4E700BF0000FFFF5C
:1020C00010B590F84120104C10494FF0000C02F070
:1020D000280284F8F8C1282A4FF6FF7CA1F80AC02C
:1020E0000FD1016890F841200A6822F0FC020A60D2
:1020F00090F84030012B04D0022107F0CDFE00B94A
:1021000010BDFFF743FF00BF80000020000000204B
:1021100008B5836A9A6B0AB100219163DA6B0AB140
:102120000021916393F84120602A4FF0000208D00B
:102130001A63596C83F84020042900D108BDFFF7C9
:1021400025FF202183F8411083F840201A6308BD41
:10215000FEE700BFFEE700BFFEE700BFFEE700BFEF
:10216000FEE700BF704700BF704700BF704700BF69
:10217000034AD2F8EC310133C2F8EC31704700BFAA
:10218000800000200C4B0D49D3F8FC214FF4801047
:102190004861D168490503D4012283F81D227047A4
:1021A000D168C9B261F49061D1600120012283F845
:1021B000200283F81D2270478000002000040140A7
:1021C000034B5A69120744BF08225A61704700BF87
:1021D000000401400148FFF741B900BFA4020020FC
:1021E0000148FFF73BB900BFEC0200200148FFF7B0
:1021F00035B900BF340300200148FFF72FB900BFF5
:102200007C030020084810B4D0F84433D0F8784359
:1022100099691A682CB1234600F551705DF8044B9A
:1022200018475DF8044B704780000020034B5A6943
:10223000120544BF4FF400625A6170470004014028
:1022400010B51B4C1B4AD4F8FC314FF4802151616E
:102250009A68D20402D5DA68D00509D49A68910444
:1022600002D5DA68920515D4012384F81D3210BD19
:10227000DA68D2B262F4C0720121DA604FF4807081
:1022800084F8981309F036F980B9D4F8FC3184F851
:102290009803E3E7DA68D2B262F42072DA600121CF
:1022A000012384F8991384F81D3210BDFFF76EFEE8
:1022B0008000002000040140034AD2F8883043F433
:1022C0007003C2F88830704700ED00E070B5434DF0
:1022D00092B02C22002107A80EF004FED5F89C63D2
:1022E000002E72D00023CDE90533D5F8FC210193EF
:1022F000D46814F00804FBD102A809F09BF8002868
:1023000069D101A809F0CAF8002864D19DF8082015
:1023100012B1334C02FB04F49DF809301BB14EF6A8
:10232000602202FB03449DF80A301BB14FF47A721D
:1023300002FB0344049A039BD5F808120991D31AAF
:102340004FF47A75013205FB03F3B3FBF2F3254A30
:1023500033442344A2FB03022148520D00FB1233F5
:102360002148A0FB0340800B4EF6602606FB10338D
:102370008DF81D001D481E4CA0FB0260000900EBFB
:102380004000A2EBC0028DF81C20A4FB03029209BE
:1023900005FB123301FB0333A4FB0343A1EB9311B1
:1023A0008DF81E204FF400704FF000424FF0606334
:1023B000089111900C920E9309F09CF858B907A857
:1023C00009F03EF938B912B070BD4FF4007009F051
:1023D00091F80028F7D0FFF7D9FD00BF800000205A
:1023E00080EE3600B17C219573B2E745ABAAAAAA6C
:1023F000D34D62100FB400B50F4A9BB01CAB92F8DE
:10240000A01353F8042B009321B91BB05DF804EB23
:1024100004B07047642101A80EF0FAFE6328C8BF1B
:10242000064B0748C8BF199301A90EF0CBFE1BB09D
:102430005DF804EB04B07047800000202E2E2E00C3
:102440005469010872B6BFF34F8FBFF36F8F064B0D
:102450009A6840EA0201996062B6BFF34F8FBFF3FA
:102460006F8F0248C6E700BF800000208861010826
:1024700090F82520022A03D00422C263012070476D
:102480000168426C10B50C6824F00E040C600C68F6
:1024900024F001040C6002F01C02046C012101FA1A
:1024A00002F26260826B80F82510002480F82440DC
:1024B00002B19047002010BD70B5584D95F8F8C195
:1024C0000CF0FD0CBCF1010F82B0044645D02B6826
:1024D00043F001032B6094F8413003F02803282BCC
:1024E00039D1236894F841201A6822F0FA021A6060
:1024F00094F84020012A2ED094F8412001212A2A64
:1025000084F8401068D029202021002284F841005E
:1025100084F8421062645A684148042122F400425F
:102520005A6061854FF08072618DE2629D699A699F
:1025300021853C496163D103606203D52A0744BF0A
:102540000822DA61002284F840201A6842F0FA0278
:102550001A6002B070BDFFF719FD032385F8F8314A
:102560000023314E0193D5F8A43370894BB3B5F8ED
:10257000A81361B301EB410103EB810102E00C33CD
:1025800099421ED01A888242F9D15B6803B301A830
:102590009847019A7089110EC2F3074EC2F30723C0
:1025A0005FFA82FC85F8F6314FF6FF73984285F8A2
:1025B000F41185F8F5E185F8F7C18CD00130708110
:1025C00089E7EE234FF0000C9E461946EAE78C4659
:1025D000EE239E461946E5E794F841101A6801F08B
:1025E0002801282914BF6FF0F4016FF044010A405C
:1025F0001A601A68100486D51A68E06B22F400424B
:102600001A6000283FF47FAF084B8363FFF730FF69
:1026100010B1E06B836B9847236874E7800000205B
:1026200074020020152F000800000020112100086E
:1026300001680B68002280F842205A040CD50B6810
:1026400023F480430B6090F84130292B0ED090F892
:1026500041302A2B20D070471B04F4D50B6823F49B
:1026600000430B6090F84130292BF0D12822212320
:1026700080F84120036390F841300A6803F0280392
:10268000282B14BF6FF0F2036FF0420313400022B7
:102690000B6080F840200FE72822222380F8412099
:1026A000036390F841300A6803F02803282B14BF15
:1026B0006FF0F4036FF04403134000220B6080F8C6
:1026C000402075E430B40468A169A569A368E26894
:1026D000C268022AC1F300410ED1C3F3C21383EAD8
:1026E000154313F0060307D1826C01328264826CB9
:1026F000022A0DD030BC704723680B4D002223F016
:10270000B80323602A7280F8402051B930BCD7E466
:1027100008228364E261044A80F840301372002981
:10272000F4D030BCC8E600BF0000002010B504465D
:10273000544A94F84130002084F84200E2626085F7
:10274000626C1143A3F12802022A2368616432D823
:1027500094F8411094F8412001F02801282902F052
:10276000280214BFF6214621282A1A680CBFC94343
:102770006FF0F6010A40282043491A6084F84100AE
:10278000A06B226B616318B1112A3ED0212A3CD084
:10279000E06B18B1122A4DD0222A4BD094F8413068
:1027A000602B4FF0000363D02363626C84F84030E9
:1027B000042A64D110BD94F8412094F841201A688D
:1027C00022F0FE021A609A69920748BF98629A69DD
:1027D000D10703D49A6942F001029A6194F841202A
:1027E000602A10D0202284F841209A6992060AD5E6
:1027F0009A69D00605D51022DA61626C42F00402B3
:1028000062642022DA610021BAE71A6851042AD4EE
:1028100090F82530012BC1D01C4A8263002384F834
:102820004030FFF725FE0028C4D0A06BBDE8104063
:10283000836B18471A68120403D51A6822F4004201
:102840001A6090F82530012BA8D0104A826300232B
:1028500084F84030FFF70CFE0028ABD0E06BBDE8F9
:102860001040836B18471A6822F480421A60CFE741
:10287000202284F8412084F84030236310BDFFF704
:1028800085FB00BF0000FFFF152F00081121000885
:1028900030B40368202282B0DA6190F84120212A06
:1028A00090F841204AD0222A56D05A68324C00254E
:1028B00022405A60314C4563CD06C46205D51022D2
:1028C000DA61426C42F00402426490F84120602ACE
:1028D0002DD09A69910744BF00229A629A69D20763
:1028E00003D49A6942F001029A61436C90F8412046
:1028F000602A0BD053B990F84120212A0AD090F8D1
:102900004120222A06D002B030BC7047416C02B090
:1029100030BC0BE7202280F84120036390F842206E
:1029200080F8403080F8423002B030BC70474C072D
:10293000CFD55A6AD2B20192019ACAE702F02802B0
:102940001C68282A14BF6FF0F2026FF04202224086
:1029500011241A600463A8E790F841201C6802F073
:102960002802282A14BF6FF0F4026FF044022240BC
:1029700012241A60046398E700E800FE0000FFFFDD
:1029800038B590F84030012B00F085800123CD064A
:10299000044680F8403001D5D00659D40D063AD50A
:1029A00050064DD523681A6822F040021A60628DE5
:1029B00092B2002A71D05868628D92B2FF2AC0F399
:1029C000090078D8618DE26A89B212F5803F2185CD
:1029D00000F082805FFA81FCE26A4FEA0C4C42EA26
:1029E0000C020243404D586822F000422840024346
:1029F0005A60628D521A92B2628594F84120222A5E
:102A00001A680CBF42F4004242F480421A6000206F
:102A100084F8400038BD4D0612D5500610D5638DA0
:102A20009BB2002B40D123685A689201EFD4E26A2E
:102A300012F5803F34D15A6842F480425A60E6E78A
:102A40008B06E4D59306E2D52046FFF721FFDEE7AB
:102A5000236826481022DA61616C626B41F0040140
:102A60008242616425D022498A4222D021498A4289
:102A700014BF2022602219680A431A609A699107DC
:102A800044BF00229A629A69D207C0D49A6942F080
:102A900001029A61BBE7022038BD5B689A0103D44A
:102AA0002046FEF729FDB2E740212046FFF73EFE13
:102AB000ADE76022DFE79A69D10306D501212185C0
:102AC0004FF4803C4FF0807289E7FF2121854FF45D
:102AD0007F0C4FF0807282E75FFA81FC4FEA0C4C6A
:102AE0004FF000727BE700BF009C00FC81290008CA
:102AF00065300008F92A000838B590F84030012BFD
:102B000000F0D680012380F84030CB06044602D581
:102B1000D00600F1A9808B070BD5900709D5226854
:102B2000216D91624FF0FF332365002084F840004F
:102B300038BD0B063AD5550640F18C8094F84120FB
:102B4000236802F028021968282A14BF6FF0F202E5
:102B50006FF042020A401A601A6842F090021A604E
:102B6000628D92B2002A00F0B880628D92B2FF2A84
:102B700040F2A2809869654DE16C5A68C0F300404C
:102B800000280CBF4FF47F004FF4803002EA0502AA
:102B9000C1F3090142EA000242EA010242F08072F6
:102BA0000CBFFF21012121855A6040E04B0651D521
:102BB00050064FD594F84110236855481A6801F023
:102BC0002801282914BF6FF0F2016FF042010A407A
:102BD0001A601A684F4942F090021A6094F841C096
:102BE000628D92B2BCF1220F08BF0846FF2A79D944
:102BF0009A69C2F30042002AE26CC2F309020CBFD8
:102C00004FF47F054FF4803542EA000242EA0502A4
:102C10005868414D22F0004200EA050042EA0002F5
:102C20000CBFFF21012142F0807221855A60628D24
:102C3000521A92B2628594F84120222A1A684FF003
:102C400000000CBF42F4004242F480421A6084F853
:102C500040006DE788067FF568AF93067FF565AFA6
:102C60002046FFF715FE60E723682C481022DA6142
:102C7000616C626B41F00401824261641AD02849A0
:102C80008A4217D027498A4214BF2022602219683D
:102C90000A431A609A69910744BF00229A629A69AE
:102CA000D2073FF542AF9A6942F001029A613CE7D0
:102CB000022038BD6022EAE7618D144DE26C58684D
:102CC00089B22840C2F30902CDB242EA054202436A
:102CD00042F0007221855A60A9E740212046FFF7A3
:102CE00025FD22E7618DE26C89B2CDB2C2F3090203
:102CF00042EA05420243084D5868218522F000420D
:102D00002840024342F000725A6090E7009C00FCA9
:102D10000020008000240080009800FC8129000829
:102D200065300008F92A000870B5036804460D46AE
:102D30001968C06A94F841202026213ADE61092AE8
:102D40000ED8DFE802F079050D0D0D0D0DAC7905FB
:102D500094F841201A6822F0FC021A6022222263B1
:102D60005A686A4E42F400425A605A6832405A60C9
:102D70009A69920744BF00229A629A69D60703D4DF
:102D80009A6942F001029A614A043CD51A6822F419
:102D900080421A60A26B1AB11268526892B26285C0
:102DA0006A070AD55A6A636A1A70636A01336362F2
:102DB000238D25F00405002B6AD1638D9BB21BB1D6
:102DC000636C43F004036364EB0601D5CE063CD488
:102DD000002384F84230666C6363002E6AD1E36A94
:102DE0004B4DAB4219D194F8413084F84060222B0E
:102DF0004FF0200384F841302046266373D0BDE8AD
:102E00007040FFF759BB0E04CAD51A6822F400427D
:102E10001A60E26B002ABFD1C2E72046FFF708FC28
:102E20002023E56284F8406084F841302046266320
:102E3000BDE87040FFF7F6B894F841201A6822F018
:102E4000FA021A60212222638AE7638D9BB2002B6B
:102E500039D194F84130282B4FD094F84120236881
:102E6000292A4FF01002DA61B2D110F5803FAFD0BD
:102E70009A69910744BF00229A629A69D20703D4E3
:102E80009A6942F001029A612046FFF7D1FB9FE761
:102E9000013B2385638D013B9BB263858DE794F8ED
:102EA000412094F841201A6822F0FE021A600022A4
:102EB000226355E7616C2046FFF738FC94F84130F7
:102EC000282B14D070BD23681022DA61636C43F0A4
:102ED0000403636430F080737FF47AAF616C204642
:102EE000FFF724FC74E7BDE87040FFF761B829469E
:102EF0002046BDE87040FFF7AFB8B0F1007FACD11D
:102F000029462046FFF7A8F862E700BF00E800FE68
:102F10000000FFFF38B590F840C0C56ABCF1010F52
:102F20006DD04FF0010C11F0200F04460B4680F8D5
:102F300040C002D012F0200F51D1D80615D5D106CD
:102F400013D5628D92B2002A5BD194F84120282AD1
:102F50007ED094F841202368292A4FF01002DA61CC
:102F600062D0002084F8400038BD590719D41907F1
:102F700001D5100739D49907F3D59307F1D5638D9F
:102F80009BB2002B4CD0616A236811F8012B9A6226
:102F9000638D228D6162013B9BB2013A638522857C
:102FA000DFE75007E3D5638D9BB26BB12268636A9C
:102FB000526A1A70638D616A228D013B0131013AB8
:102FC0009BB2616222856385638D9BB2002BC8D161
:102FD00015F5803FC5D02046FFF72AFBC1E7FFF774
:102FE000A3FE002084F84000BEE794F8413003F0CF
:102FF0002803282B28D023680822DA61B1E70220B1
:1030000038BD23681022DA61636C43F00403636403
:1030100035F08073A5D1616C2046FFF787FBA0E7F0
:1030200035F080739DD1D6E715F5803F99D09A6928
:10303000950744BF00229A629A69D007CBD49A6957
:1030400042F001029A61C6E72046FFF73BFB88E7A2
:10305000B5F1007F7FF47DAF19462046FEF7FCFFF7
:103060007FE700BF38B590F840C0C56ABCF1010FDA
:103070004CD04FF0010C11F0200F04460B4680F8A5
:1030800040C002D012F0200F30D1D90626D5D0068C
:1030900024D55104C2F380303AD5E16B09B1120452
:1030A0003BD4A26B1AB112685268002A3DD0236843
:1030B0001022DA61636C43F00403636494F84130D6
:1030C00035F08072DBB20DD1213B092B52D8DFE8FD
:1030D00003F04F565151515151514F56190701D5D7
:1030E000130709D4002084F8400038BDFFF71CFE08
:1030F000002084F84000F8E794F8413003F02803FA
:10310000282B3FD023680822DA61EBE7022038BD84
:10311000110429D5E16B0029C9D00A685268002A38
:1031200034D1A26B0AB100283ED194F84120282A5C
:1031300032D094F841202368292A4FF01002DA6136
:10314000D0D115F5803FCDD09A69950744BF0022B4
:103150009A629A69D00703D49A6942F001029A618F
:103160002046FFF765FABDE723681022DA61B9E768
:1031700021232363616C2046FFF7D8FAB2E72223AC
:103180002363F7E72046FFF79DFAABE7A26B002A1F
:103190008DD000288BD086E7B5F1007FC9D11946C4
:1031A0002046FEF759FF9DE712685268BDE700BF51
:1031B0002DE9F04F00233E4E4FF00F094FF0030A68
:1031C0004DE03C4FB84265D03B4FB84266D03B4FD4
:1031D000B84268D0DFF8E8B058450CBF4FF0040B98
:1031E0004FF0070B0BFA04F4A44513D1346824EA1A
:1031F0000E043460746824EA0E047460F46824EAEF
:103200000E04F460B46824EA0E04B460AC6824EAE6
:103210000804AC6004685D000AFA05F54FEAD30CB7
:103220002C4300EB8C0C046003F00704DCF820E076
:10323000A40009FA04F42EEA0404CCF820408468BF
:1032400024EA05048460446824EA02024260C268F9
:1032500022EA0502C260013331FA03F218D00122DA
:103260009A4012EA010EF6D023F0030505F18045DD
:1032700005F5803503F00304D5F808C0A40009FA69
:1032800004F8B0F1904F08EA0C0C9AD10024ABE797
:10329000BDE8F08F012707FA04F4A5E74FF0020B11
:1032A0000BFA04F4A0E74FF0030B0BFA04F49BE7CE
:1032B000000401400004004800080048000C0048D9
:1032C0000010004830B5524C5248D4F8AC33242298
:1032D00083B0C4F828241968002221F00101834238
:1032E00019601A605A609A6067D04B4A934273D053
:1032F00000220123CDE900224848C4F8302484F894
:103300002424C4F828241946C4F82C24C4F80C2416
:10331000C4F8102408F02CFBD4F8EC21D4F8EC31DC
:103320009B1A012BFAD93D48002205690223CDE9F9
:103330000022012108F01CFBD4F8EC2105F0010566
:10334000D4F8EC319B1A012BFAD93448036913F0F5
:10335000010317D000230121CDE90033032208F037
:1033600007FB05F152014B002D48C4F84C330DF01A
:1033700029FF08F0F9FB18B994F88533202B0AD0FF
:10338000FEF704FE0121CDE90033032208F0F0FA34
:1033900005F15101E7E7D4F84423224922482823C4
:1033A00084F885331368C4F8780343F0B8034FF406
:1033B00000701360886103B030BD02F1804202F5F5
:1033C00004324FF4C061136E23F480434FF09040F9
:1033D0001366FFF7EDFE8BE702F5E6320F21936DE2
:1033E00023F4003393654FF09040FFF7E1FED4F8EB
:1033F000200408F017FDD4F81C0408F013FD0B4B53
:103400004022C3F88420BFF34F8FBFF36F8F6FE765
:10341000800000200038014000440040001C0048AB
:10342000A461010800040048152F000800E100E035
:10343000F0B58D4B02689D68DE680446D00683B007
:1034400005F00C0506F0030640F13481002D40F034
:10345000FA80854B1B68990700F16681824B276AC9
:103460001A68120756BFD3F894301B681B0903F083
:10347000F0039F4200F2E8817B4B1A6842F0080299
:103480001A601A6822F0F0023A431A605A68E16939
:1034900022F47F4242EA01225A60002D00F00B82A2
:1034A000FEF766F8704B9A68704BC2F30312134430
:1034B0006F4A93F8303003F01F0320FA03F350688B
:1034C0001360FEF7EFFA002840F033812268D0073E
:1034D00000F1F48090071FD50C2D00F0CD81E3683A
:1034E0006148002B00F08481036843F4807303601B
:1034F000604BD3F8EC6105E0D3F8EC11891B02298D
:1035000000F24D8101684905F6D54368216923F031
:10351000F85343EA01634360160718D563695248BC
:10352000002B00F01481D0F8943043F00103C0F870
:103530009430504BD3F8EC6105E0D3F8EC11891BC3
:10354000022900F22C81D0F894108907F5D5500794
:103550003ED5454B996DC90000F14881996D41F008
:10356000805199659B6D03F080530193019B01206D
:10357000414E3368DF0540F102813E4BA1680129CD
:1035800000F04781052900F0AA81374ED6F89070E7
:1035900027F00107C6F89070D6F8907027F004075E
:1035A000C6F89070002940F03B81D3F8ECC141F29D
:1035B000883706E0D3F8EC11A1EB0C01B94200F218
:1035C000EE80D6F890108907F4D4002840F06D8181
:1035D000970618D5636A2449002B00F05181D1F871
:1035E0009820244B42F00102C1F89820D3F8EC0156
:1035F00005E0D3F8EC21121A022A00F2D080D1F8AB
:1036000098209607F5D5A36ADBB1022B00F07581EF
:103610000C2D00F08D801449164B0A6822F0807240
:103620000A60D3F8EC0105E0D3F8EC21121A022A63
:1036300000F2B5800A689201F6D4CA680F4B1340B5
:10364000CB60002075E00C2D00F09580A369064842
:10365000002B00F0A7800168064B41F001010160DA
:10366000D3F8EC7112E000BF00100240F81F01080F
:10367000000000208000002000700040FCFFEEFEF3
:10368000D3F8EC11C91B022900F28980016889076F
:10369000F6D5036843F0080303600368216A23F04A
:1036A000F0030B4303604368E16923F47F4343EA7B
:1036B00001234360D30722D5082D3ED00C2D3AD0EC
:1036C0006368B3F5803F7ED0B3F5A02F00F0FA8099
:1036D0009548016821F480310160016821F480215E
:1036E0000160002B74D1914BD3F8EC7104E0D3F856
:1036F000EC11C91B642952D801688903F7D49707D4
:103700007FF50AAF042D7FF4E7AE874B1B685805A1
:1037100001D5E36863B1844920694B6823F0F8530D
:1037200043EA00634B60F7E6A369002B7FF496AE93
:10373000012003B0F0BD032EC2D17B4B1B689F0359
:103740007FF5C8AE6368002B7FF4C4AEF0E7D0F815
:10375000943023F00103C0F89430744BD3F8EC613B
:1037600004E0D3F8EC11891B022918D8D0F8941082
:103770008F07F6D4EBE6012E7FF468AF69E6336875
:1037800043F480733360694BD3F8EC713168C90539
:103790003FF5F4AED3F8EC11C91B0229F6D903208A
:1037A00003B0F0BD0168614B21F001010160D3F865
:1037B000EC7104E0D3F8EC11C91B0229EFD80168C1
:1037C0008907F7D476E758490B6843F480330B60D8
:1037D000564B5548D3F8EC7104E0D3F8EC11C91BF3
:1037E0006429DCD801688903F7D588E70020BFE6A3
:1037F000036823F4807303604C4BD3F8EC6104E05E
:10380000D3F8EC11891B0229C9D801684F05F7D4F8
:1038100082E6454ED6F8901041F00101C6F89010AE
:10382000D3F8ECC1404E41F2883705E0D3F8EC11F3
:10383000A1EB0C01B942B2D8D6F890108907F5D5A2
:1038400000283FF4C5AE30E03846FDF7E7FE00281B
:103850007FF46EAF344B1A6842F008021A601A689F
:1038600022F0F0023A431A605A68E16922F47F427A
:1038700042EA01225A6013E6022E7FF430AE44E79A
:10388000D1F89820294B22F00102C1F89820D3F8F2
:10389000EC0105E0D3F8EC21121A022A3FF67FAFC3
:1038A000D1F898209207F5D4ADE61F498B6D23F02F
:1038B00080538B658CE63846FDF7B0FE00283FF458
:1038C000EFAD35E703F18043A3F53C33196841F4CC
:1038D00080211960196841F48031196078E7124934
:1038E000D1F8906046F00406C1F89060D1F890607D
:1038F00046F00106C1F8906092E70B4AE66AD36889
:1039000003F00301B1424BD00C2D3FF411AF064937
:103910000B685F013FF50CAF0A68044B22F0807220
:103920000A60D3F8EC0109E000100240800000209A
:10393000D3F8EC21121A022A3FF631AF0A6895013A
:10394000F6D4C868354A0240606B324342EA00222E
:10395000A06B42EAC062206B013842EA0012D4E94F
:103960000F506C08013C4008013842EA445242EAD8
:103970004062CA600A682A4842F080720A60CA68D7
:1039800042F08072CA60D3F8EC1105E0D3F8EC2164
:10399000521A022A3FF603AF02689401F6D550E6A8
:1039A000216B03F070000139B0EB011FACD1606BEB
:1039B00003F4FE41B1EB002FA6D1A06B03F07841D8
:1039C000B1EBC06FA0D1E16B4908013903F4C0002D
:1039D000B0EB415F98D1216C490803F0C063013915
:1039E000B3EB416F90D1136898013FF52AAE11688F
:1039F0000C4B41F080711160D16841F08071D16051
:103A0000D3F8EC0105E0D3F8EC11091A02293FF6CE
:103A1000C6AE11688901F6D513E600BF8C809D0102
:103A20000010024080000020514AF8B5136803F0EE
:103A300007038B420BD2136823F007030B43136079
:103A4000136803F007038B4201D00120F8BD04681E
:103A500014F0020E04F001036AD0464E8568B26885
:103A600002F0F002954204D9B26822F0F0022A4333
:103A7000B260002B67D04268032A5ED03D4B022A19
:103A80001B686CD0002A6FD19E07DED5394D3A4EA7
:103A9000AB6823F003031343AB60D6F8EC719200DC
:103AA00041F2883C04E0D6F8EC31DB1B634559D881
:103AB000AB6803F00C039342F5D1BEF1000F41D186
:103AC0002B4A136803F007038B4209D9136823F0CC
:103AD00007030B431360136803F007038B42B4D151
:103AE000620706D5234AC168936823F4E0630B4359
:103AF0009360230707D51F4A0169936823F4605335
:103B000043EAC1039360FDF733FD1A491B4A8968F4
:103B10001B4CC1F303110A44034692F8302060683D
:103B200002F01F02D3402360BDE8F840FDF7BABFA2
:103B3000002BC5D04268032AA0D10E4B1B689B0105
:103B4000A4D482E785680B4A936803F0F0039D4292
:103B5000B6D2936823F0F0032B439360B0E79F0342
:103B600094D472E70320F8BD5D057FF56EAF8DE755
:103B7000002002400010024080000020F81F0108D1
:103B800000000020F0B504680546200583B000F170
:103B9000F6800026A10351D5A54B9A6DD20040F1C5
:103BA000F8800027A349A44A0B6843F480730B6094
:103BB000D2F8EC0105E0D2F8EC311B1A022B00F22E
:103BC00001810B68DB05F6D5AEBB9949A86DD1F82C
:103BD000903013F4407326D0834224D0D1F890C0A3
:103BE000D1F8903043F48033C1F89030D1F8903060
:103BF00023F48033C1F890301CF0010F2CF4407393
:103C0000C1F890300FD0D2F8ECE141F2883C06E0E8
:103C1000D2F8EC31A3EB0E03634500F2D380D1F868
:103C200090309B07F4D5824AD2F8903023F4407349
:103C30000343C2F89030002F40F0C880E10708D558
:103C40007B4A296AD2F8883023F003030B43C2F879
:103C50008830A20708D5764A696AD2F8883023F0FE
:103C60000C030B43C2F88830630708D5704AA96A71
:103C7000D2F8883023F030030B43C2F88830A7060F
:103C800008D56B4AE96AD2F8883023F440630B43C5
:103C9000C2F88830A00508D5654AE96BD2F88830AB
:103CA00023F440230B43C2F88830610508D5604AED
:103CB000296CD2F8883023F440130B43C2F88830C3
:103CC000620608D55A4A296BD2F8883023F440534B
:103CD0000B43C2F88830230608D5554A696BD2F8E1
:103CE000883023F440430B43C2F88830E70508D5F9
:103CF0004F4AA96BD2F8883023F440330B43C2F803
:103D0000883020030ED54A4AA96CD2F8883023F0B7
:103D100040630B43B1F1006FC2F888305CD0B1F161
:103D2000806F74D061030ED5414AE96CD2F88830B7
:103D300023F040630B43B1F1006FC2F8883050D0DC
:103D4000B1F1806F6BD062040BD539492A6DD1F87F
:103D5000883023F040531343B2F1805FC1F88830BC
:103D60004DD0230408D5324A696DD2F8883023F04B
:103D700080430B43C2F88830304603B0F0BD6F6C0F
:103D8000B7F5000F10D0B7F5400F12D077B301266A
:103D900000E79A6D42F080529A659B6D03F0805364
:103DA0000193019B0127FDE6214AD36843F4803348
:103DB000D3601F4AD2F8883023F440033B43C2F853
:103DC0008830E6E60326002F3FF438AF184A936D9B
:103DD00023F08053936531E7D36843F48013D360B5
:103DE000A0E7D36843F48013D360ACE73946281DBD
:103DF000FDF75EFC064600287FF4CCAED9E7022131
:103E0000281DFDF755FC002818BF0646A9E701212B
:103E1000281DFDF74DFC002818BF064682E701214A
:103E2000281DFDF745FC002818BF06468BE700BF9C
:103E30000010024000700040800000202DE9F04199
:103E4000C16F05689EB00446002947D02423E3676C
:103E50002A68636A22F001022A60002B40F0AD80DC
:103E6000D4E90412A36828680B431343E169A84A04
:103E70000B43024013432B606B68E26823F440530A
:103E80001343A44A6B609542A369AA6800F0DB80E3
:103E9000206A22F43062034313439F4AAB60954289
:103EA00000F04A819D4B9D4240F00D8103F5E633C1
:103EB000D3F8883003F00C030C2B00F26381DFE8A9
:103EC00013F0D4016101610161011101610161011E
:103ED000610171016101610161016A0180F878107D
:103EE0005C2207A80CF0FEFF8B4B9D4200F0F08196
:103EF0008A4B9D42AAD1022707A80797FFF742FEE7
:103F00000646002840F01A82854B864D9A6D42F491
:103F100000329A659A6D02F400320492049ADA6CC7
:103F200042F00102DA64DB6C03F001030393072221
:103F30000323CDE90032039903463A464FF09040FF
:103F40000F214FF0800807F013FDC5E9AE76C5E9F3
:103F5000B068C5E9B266C5E9B46605F52D76724B61
:103F6000C5F8B432304607F037FC002840F0E6814F
:103F70006667102305F53F76C5E9C208C5E9C400A8
:103F8000C5E9C600C5F804333046684BC5F8007370
:103F9000C5F8DC42C5F8FC3207F01EFC01460028DB
:103FA00040F0CC8126672620C5F8244307F0B6FCF4
:103FB0005F4B40225A60256848E71E0705D56A68AE
:103FC000616B22F400420A436A60D80705D56A682B
:103FD000A16A22F400320A436A60990705D56A682B
:103FE000E16A22F480320A436A605A0705D56A689A
:103FF000216B22F480220A436A60DF0605D5AA6895
:10400000A16B22F480520A43AA609E0605D5AA68D5
:10401000E16B22F400520A43AA60580609D56A6887
:10402000216C22F480120A43B1F5801F6A6000F00F
:10403000048119067FF514AF6B68A26C23F400238A
:1040400013436B600CE722F4306213433449AB60D6
:10405000D1F8883003F44063B3F5006F00F0898035
:1040600000F2E580002B00F05981FDF781FA064649
:10407000002E7FD16A682B49002322F49042C4E9C4
:104080001A336A60AA6822F02A02AA602A6842F0FB
:1040900001022A60C4F88430D1F8EC612B681A0759
:1040A00000F186802B685B0700F19D8000232022B1
:1040B0001846E26784F87830C4F880202366636687
:1040C0001EB0BDE8F0811B4B9D425BD103F5E4338C
:1040D000D3F8883003F03003202B63D059D8002B5D
:1040E00000F0C380B1F5004F00F02F81FDF740FADA
:1040F0000028BFD0636800EB5300B0FBF3F04FF62D
:10410000EF73A0F110029A423CD8E860B2E700BF1A
:10411000F369FFEF00800040003801400044004098
:1041200000100240800000206C000240800002402D
:1041300000E100E00048004002F55842D2F8883023
:1041400003F00303022B2DD0032B24D0012BC9D065
:10415000864BB1F5004F186800F098809268844B48
:10416000C2F3C222134493F8403003F01F03D84037
:10417000BEE7804E626802EB4203B34202D8B6EB60
:10418000023F61D90023C4E91A3301201EB0BDE803
:10419000F081302BF6D1B1F5004F00F0D3804FF411
:1041A0000040A7E7B1F5004F00F0CA807148A1E7D1
:1041B0006FF07E4332464FF40011204607F070FB4B
:1041C00000283FF46FAF236853E8002F22F08002ED
:1041D00043E800210029F7D12023E367002384F876
:1041E00078300320D2E76FF07E4332464FF48001EF
:1041F000204607F055FB00283FF458AF236853E8EA
:10420000002F22F4907243E800210029F7D103F136
:10421000080252E8002F22F0010203F1080040E8F2
:1042200000210029F3D12023C4F88030D6E7B3F56C
:10423000406FA7D14FF400469CE76A68616C22F496
:10424000C0020A436A60F4E60023500819464FF49E
:104250008077E6FB070109F0B9FF474BA0F54072F4
:104260009A428FD8454BD86004E7B1F5004F6FD024
:10427000434A3F4B92683D49C2F302221344086807
:1042800093F8403003F01F03D84031E79268384B71
:10429000C2F3C222134493F8403003F01F03D84006
:1042A00000283FF4E7AE4300626803EB5203B3FB20
:1042B000F2F34FF6EF72A3F1100191423FF662AFB5
:1042C00023F00F0292B2C3F342031343EB60D1E633
:1042D000012307A80793FFF755FC034670BB284A44
:1042E000116E41F480411166116E01F48041069116
:1042F0000699D16C41F00101D164D26C02F0010247
:10430000059207210322CDE90021059802224FF4EE
:10431000C0614FF0904007F02BFB97E58A68144B83
:10432000C2F302221344114A93F84030166803F096
:104330001F03DE40002E3FF49DAE1BE7FDF726FE77
:10434000104BB1E74FF48033AEE7FDF711F9A7E763
:104350000B4A074B92680549C2F3022213440868CE
:1043600093F8403003F01F03D84099E70000002085
:10437000F81F01080024F400FFFC0F00008000403B
:10438000001002400048E801F0B4C56F202D4CD168
:104390000C4601B112B90120F0BC70471946002546
:1043A0002123C0F88450C36783682B4FA0F85020A6
:1043B000B3F5805FD7F8EC61A0F8522038D0B0F8A0
:1043C0005220036892B2B2B1DA69120604D44A1CD0
:1043D0001DD1DA691206FCD50CB314F8012B1A852D
:1043E000B0F85220013A92B2A0F85220B0F8522010
:1043F00092B2002AE8D1DA69520604D44C1C1DD1CD
:10440000DA695106FCD52023C3670020C4E7D7F83A
:10441000EC21921B914219D3C1B11A68D4E735F847
:10442000022BC2F308021A85DAE70220F0BC7047BB
:104430000369002BC3D125461C46C0E7D7F8EC2101
:10444000921B914202D309B11A68D4E72023C367B3
:10445000F0BC0320704700BF80000020026852E8D3
:10446000003F23F4907342E800310029F7D102F1B4
:10447000080353E8003F23F0010302F1080C4CE865
:1044800000310029F3D1036E012B06D00023202236
:10449000C0F8802083660366704752E8003F23F02F
:1044A000100342E800310029F0D052E8003F23F029
:1044B000100342E800310029EFD1E7E770B5AE4CB8
:1044C000D4F8AC53EB692A68A96840F60F000342A0
:1044D00040F08780980602D5960600F1F380D4F864
:1044E0000C04012816D0D80202D5490200F1F4804C
:1044F0001E0605D4590602D5530600F1258170BD6C
:104500001006F7D5D4F81834002BF8D0BDE8704069
:104510009A481847DE06E6D5D006E4D510232B626C
:10452000AB68B4F804245B0640F14281D4F820342F
:1045300019684B689BB2002B00F07C81934280F09D
:104540007981A4F806340B689E0644D455E8003FF0
:1045500023F4807345E800324AB1D4F8AC2352E822
:10456000003F23F4807342E800310029F5D1D4F8EC
:10457000AC2302F1080353E8003F23F001030832A3
:1045800042E800310029F2D1D4F8AC2302F108034B
:1045900053E8003F23F04003083242E8003100298D
:1045A000F2D12023C4F82C34C4F80C14D4F8AC2372
:1045B00052E8003F23F0100342E800310029F5D112
:1045C000D4F8203493F82520022A00F03A810422FE
:1045D000DA6383F824100223C4F81034B4F80634E4
:1045E00070BD11F0010640F09E80654802423FF424
:1045F00076AFD8070FD5D10540F1D68001212962C9
:10460000D4F8301441F00101C4F8301499076BD587
:10461000002E40F08C8058077DD51E0700F1C18028
:104620001E050AD5500108D54FF400612962D4F85F
:10463000301441F02001C4F83014D4F830140029AB
:104640003FF45DAF990602D5920600F1A080D4F840
:104650003024AB6802F0280203F04003134300F05B
:10466000E6804648FFF7FAFEAB685B067FF547AF8A
:1046700005F1080353E8003F23F0400305F108016A
:1046800041E8003262B1D4F8AC2302F1080353E8E8
:10469000003F23F04003083242E800310029F2D104
:1046A000D4F8200400283FF42AAF364B8363FDF78B
:1046B000DFFE00283FF423AFD4F82004BDE87040AB
:1046C000836B1847D4F81434002B3FF418AF04F56B
:1046D0006B70BDE8704018474FF480132B6270BDBB
:1046E000D1058BD4980722D4590714D5002E94D025
:1046F00004212962D4F83014180741F00201C4F8EB
:1047000030148DD508212962D4F8301441F0080105
:10471000C4F8301484E7190782D502F02001314330
:104720003FF47EAFEEE7D807DAD499072CD5022103
:104730002962D4F830145E0741F00401C4F8301443
:10474000D6D41907DED46BE755E8003F23F04003C9
:1047500045E800324AB1D4F8AC2352E8003F23F0D8
:10476000400342E800310029F5D120220023C4F89B
:104770002824C4F8183470BD800000202C040020C8
:1047800020010004F11700085E07B1D4D9E7D4F87E
:104790001434002B3FF45BAF35489847D4F8AC5342
:1047A00055E79006AED43BE798073FF534AF9BE75B
:1047B000B4F80614B4F806349BB289B2002B3FF467
:1047C0009EAE91423FF49BAE55E8003F23F49073B8
:1047D00045E800324AB1D4F8AC2352E8003F23F454
:1047E000907342E800310029F5D1D4F8AC2302F1EE
:1047F000080353E8003F23F00103083242E8003188
:104800000029F2D12023C4F82C34C4F81414C4F8BD
:104810000C14D4F8AC2352E8003F23F0100342E814
:1048200000310029F5D10223C4F8103470BDC4F85A
:10483000303470BD93427FF462AE0B689D06F2D4B3
:1048400070BD1A681D6C106820F00E0010601068B2
:1048500020F0010010605A6C012002F01C0200FAE6
:1048600002F26A6083F8250083F82410B3E600BFE3
:104870002C04002008B518B10E4B02689A4208D0EB
:104880000D4B0E4AD3F86C310D490020984700209B
:1048900008BD032907D9084B0A4AD3F86C310849E7
:1048A00000209847F3E701EB810100EB81000089CC
:1048B00008BD00BF0FB0371380000020BC610108A5
:1048C000D4610108DC61010818B1024BD3F86431EE
:1048D000184770478000002010B520B10B4B0268CC
:1048E0009A42044608D00A4B0A4AD3F86C310A4966
:1048F000BDE810400020184700690023236008B17C
:10490000FFF7E2FF2046BDE81040DDE70EB03713A9
:1049100080000020F46101080C6201082DE9F041DB
:10492000184F1D46D7F8703113B1BDE8F041184754
:10493000D7F868314FEA4208002AF6D08F1EA8F156
:10494000020406468E460C443A4632F802CF9CFAE0
:104950009CFCA242A2F800C0F7D142467146304604
:1049600098470DB9BDE8F08137F8023F5BBAA7421E
:104970003B80F7D037F8023F5BBAA7423B80F3D1C8
:10498000F0E700BF8000002000B583B041F4A041F3
:10499000012394464FEA124EADF80010ADF80230F4
:1049A000042200236946ADF804E0ADF806C0FFF725
:1049B000B5FF03B05DF804FB2DE9F04383B01D465D
:1049C00043F440534FF00008BDF82840ADF80030E4
:1049D0008946164669460123032245F48055074659
:1049E000ADF80280ADF80480FFF798FFADF80050F5
:1049F000BDF9045004FA09F46C4004EA060255407B
:104A00004346694638460222ADF80250FFF786FF5A
:104A100003B0BDE8F08300BFF8B505460088002A62
:104A20001C460CBF4FF400534FF48053B0F59C6FFD
:104A30000E460FD300F151077F008342BFB236D23A
:104A40001C4B1D4AD3F86C311C49002098474FF08D
:104A5000000C03E040F662274FF0010C1849194A98
:104A6000C4E9011202F11912E26002F11912226185
:104A70002346002262805122A28223F8167B2968F5
:104A80006A68A868EF68C4F816105A609860DF601A
:104A90002969A8696A699861196196E803005A61F1
:104AA000AA8B9A83343484E803006046F8BD4FF043
:104AB000010CD3E780000020146201083462010871
:104AC0000100020003001B0010B50F4C8C4611467C
:104AD000B4F85C2103F1020EB2EB4E0F07D2D4F80A
:104AE0006C310A4A0A49BDE8104000201847013BD2
:104AF0004CF4A04C4B802EF00042A1F800C0BDE861
:104B0000104000230AE700BF80000020486201082F
:104B10006862010830B583B00025294600957B23E3
:104B2000FF220446FFF748FF0121009120468B2316
:104B30000222FFF741FF8B238022009507212046A8
:104B4000FFF73AFF03B030BD70B582B043F23702D1
:104B500000230092ADF80430032201236946054684
:104B6000FFF7DCFEBDF8043013F0C00F1AD143F29A
:104B70001C02012300920024694603222846ADF856
:104B80000440FFF7CBFEBDF804301B0517D50F4BD3
:104B90000F4AD3F86C610F4920462B46B047204698
:104BA00002B070BD094B93F8F021002ADFD0D3F892
:104BB0006C41094A07492B460120A047D7E7284600
:104BC000FFF7A8FF012002B070BD00BF80000020E9
:104BD000C0620108A86201087C620108F0B583B0D8
:104BE00043F21C02009201230E4600240322694670
:104BF0000746ADF80440FFF791FEBDF8043013F40A
:104C0000006517D141F21B042B4669463846022243
:104C1000009446F40066FFF781FE38462B4669464D
:104C20000222ADF80040ADF80260FFF777FE0120E8
:104C300003B0F0BD054B064AD3F86C510549204638
:104C40003B46A847204603B0F0BD00BF80000020CF
:104C5000F0620108A8620108F0B5012983B0054699
:104C6000144622D002290AD01C4B1D4AD3F86C41AD
:104C70001C4903460020A047002003B0F0BD43F2CA
:104C8000460384270026ADF800302846012303227E
:104C90006946ADF80260ADF80460FFF73FFEBDF86D
:104CA000040030B16CB90120E7E743F245038327E4
:104CB000E8E70A4B0C4AD3F86C410A492B46A04757
:104CC000DAE747F480573346694628460222ADF8B2
:104CD0000070ADF80260FFF721FEE4E780000020DD
:104CE00020630108A86201083C630108F0B50129AE
:104CF00085B00646154633D0022925D143F232034A
:104D000001240027ADF808300322012302A9304610
:104D1000ADF80A70ADF80C70FFF700FEBDF80C306E
:104D20006B8003F00702012A2A802AD013F00600C4
:104D30001AD11849184AD1F86C4118490096A04771
:104D40000024204605B0F0BD124B154AD3F86C4143
:104D5000124903460020A0474FF440530024D0E7F7
:104D600043F233030C46CCE7023A012AE9D9094A57
:104D70000096D2F86C4109490A4A3846A0472F806C
:104D8000DEE70449084AD1F86C41044900963846E8
:104D9000A047D5E78000002070630108A8620108E1
:104DA00020630108D4630108A063010810B582B034
:104DB00001AA01210446FFF799FF002201212046A4
:104DC000FFF74AFFBDF80430022B09D00649074A15
:104DD000D1F86C4106490020A047002002B010BD68
:104DE000012002B010BD00BF80000020086401084F
:104DF0005064010870B582B0032204460092002678
:104E000040F249130021FFF7D7FD0125204640F26B
:104E10004913009604220221FFF7CEFD204640F2FE
:104E20004913009510220421FFF7C6FD204640F2E9
:104E30004913202200950521FFF7BEFDFF220092B5
:104E4000204640F249134FF47F520621FFF7B4FD8C
:104E500040F24B1300952A4631462046FFF7ACFD41
:104E600002B070BD70B584B00322044600250092E4
:104E700040F249130E460021FFF79EFD40F2491310
:104E80000422022120460095FFF796FD40F24913C7
:104E90001022042120460095FFF78EFD40F24913B1
:104EA0002022052120460095FFF786FD40F2491398
:104EB0004FF47F52009506212046FFF77DFD0EB985
:104EC00004B070BD044E03962B46022203A920466F
:104ED000FFF724FD04B070BD3110C0AC2DE9F04FD8
:104EE0002DED108B9BB090F85E401D4690F85C3025
:104EF0000893042CB0F85830039380468946164630
:104F00001AD8D0ED147AF5EEC07AF1EE10FA00F16D
:104F1000F88190F86630002B00F0978290F85B30B3
:104F2000002B00F09282024C024A059407E000BF79
:104F300080000020B4640108C74CC84A0594D4F826
:104F40006C31C74900209847D8ED157AD4F8BC34A5
:104F5000009307EE103AF5EEC07AF1EE10FAB8EED3
:104F6000478A40F3D281C8EE278AF6EE007A78EEBF
:104F7000A78A039B002B00F0A88198F85E30049369
:104F800098F85A30002B40F0A78198F86020022A48
:104F900041F03E8198F85E40012C00F0ED83002442
:104FA000224634990C71A6F8AC21002B00F09981AF
:104FB00098F85F30012B00F01184022B00F0F88389
:104FC000002B40F0E98301231A46F384328598F8D8
:104FD0006030012B00F0D983022B00F0D583002B29
:104FE00000F01484059B9F4AD3F86C319C49002043
:104FF0009847B9F1000F00F0788100230093B9F8C9
:10500000E410B9F808307180B9F8E610B180B9F849
:10501000E2103180B9F8E810F180B9F8021031815E
:105020009B00B9F8041071819BB2B9F80610B181E8
:1050300003F13002B9F80A10F18192B2B9F82010E8
:1050400031825F2AB9F82210718240F2F2818649DA
:10505000A1FB0201890901EB4101A2EB411189B2D7
:1050600000201A4604460B460121F2820322B38235
:1050700072830023009A7384B483F0833183318474
:105080006B800123C5F80A30002A00F066870027EC
:10509000CDE9017706F13E039FED749A9FED74AA66
:1050A000DFED779ACDE90696B34605F10E0A444640
:1050B0001E46049AFBB29A4200F22A810023AAF803
:1050C0000030AAF8083033800137042F0AF1020AB1
:1050D00006F102060BF1560B04F11404E9D1039B0F
:1050E000AA89DDF804E012FB03F26B8992B2134443
:1050F0009BB2DDE90696591C012089B20090B6F8F2
:10510000AC01012804D1DDE9020404FB00F00290A7
:10511000029FB8F8640098F863C098F862B04FF640
:10512000FF74A74228BF27464408A4F1030A98F851
:105130006640A6F89EB18CF0010C0338A6F8A6C113
:10514000A6F8A471A6F8A0E1A6F8A801A6F8AAA15D
:10515000AA81AB80E980002C00F02B81413399B209
:105160004024012329802C81A6F8C031B9F1000F19
:1051700003D0B9F80C30A6F8C231009B002B40F0E8
:105180004281349A98ED145A00231360089BA6F8C4
:10519000B231039B012B40F23381B8F85830023B07
:1051A00001229BB29FED336ADFED335A98F85A1013
:1051B000F1EE007AC8EE066A68EE277A68EE255AA4
:1051C00087EE867AC5EE867AB6EE006A76EE866A55
:1051D00037EE067AFCEEE66AB5EE405AD8ED155A7F
:1051E000A6F8AE31F1EE10FA16EE903A77EE867A26
:1051F000BCEEC77AA6F8B02114BF01220022FCEE53
:10520000E77A328798F85B20A6F8B43117EE103AA7
:10521000A6F8B63117EE903AF5EE405AA6F8B83136
:10522000009BF1EE10FA14BF01200020002B40F08B
:10523000C28031867286708598F861300F4A009876
:10524000C6F8BA210121B184A6F8BE311BB0BDEC6D
:10525000108BBDE8F08F00BF800000207064010853
:105260008C640108B0650108ABAAAAAA2549123EC0
:105270008FC2753D0024744900009643FF07010862
:1052800000000000B5EEC07AF1EE10FA00F11583CF
:1052900098F85A20002A00F01383B5EE407AF1EE18
:1052A00010FA05D1F5EE407AF1EE10FA40F0C8831D
:1052B0005FED0D8A059B754AD3F86C317449002067
:1052C0009847039B002B7FF458AE039B049398F8F8
:1052D0005A30002B3FF459AE349A00231371A6F8CC
:1052E000AC31B9F1000F7FF488AE0123A5F802902C
:1052F0006B81CE4602214A46CDF80890CDF8009049
:10530000FDE6644C644A059419E6DFED648A30E6F4
:105310000123338098F85C90228940F2FF3340F2F9
:10532000FF11B9F1000F18BF0B4652B39A4228D8AB
:10533000A27B237C42B1022B06D1059B584AD3F8AD
:105340006C31DDE9069622E0E07B002840F04982DE
:10535000012B00F0AF80059B524AD3F86C314C49C9
:105360000090DDE906969847DDF804E0039BAA89E2
:1053700012FB03F26B8992B213449BB2591C89B29F
:10538000BDE6059B484AD3F86C31DDE906964049F5
:1053900000209847039BAA89DDF804E012FB03F282
:1053A0006B8992B213449BB2591C002089B20090C1
:1053B000A5E62346D6E6B5EE405AF1EE10FA0AD03D
:1053C000C8EE057A77EE867AFCEEE77A17EE903A29
:1053D000B3871B0C7387002361F30F03F5EE405A6C
:1053E00062F31F43F1EE10FA708533633FF424AF8C
:1053F000FCEEE87A17EE903A1A0CB285F3851BE7BB
:1054000000221346CEE698F85D30072B15D8274CBE
:105410009FED229A234493F84C30A6F8A231349B96
:1054200083ED009A049B002B40F04D8298ED145AB6
:10543000ACE603200124002117E6349A98ED145AB3
:105440000023136000230093A0E6012C40F2EA81C0
:1054500098F80F104246012303E00133A34200F005
:10546000E181084692F82310814202F11402F4D23D
:10547000084F0F4AD7F86C41054905970020A0470F
:10548000D8ED157AD7F8BC3462E500BF1465010881
:105490008C64010880000020A06401080000000066
:1054A000E06501080C660108D0650108F81F0108D5
:1054B000E06401086FF00B030993E288A3880A9265
:1054C000182A009340F29D8202EB820303EB031340
:1054D00003EB032302EB4303C3F3CC0242EA43335F
:1054E0009BB240F6AA22934200F2DE82B24B0A9AA5
:1054F000A3FB02231B090E93013B9BB215935C2374
:105500000D9318230B930098002840F0E084059B2E
:10551000AA4AD3F86C31AA499847B9F1000F00F0B4
:10552000C9844FF000090222009B099913FB02F283
:1055300092B20092226811440A460C910A99013BEA
:1055400001FB0323099302F5C34328334CF2503285
:10555000934208D9059B9B4AD3F86C3198490020A7
:1055600098474FF00009099B03F5C34328334CF2D9
:105570005032934208D9059B934AD3F86C31904935
:10558000002098474FF000090C9A002AC0F242838D
:105590008E4880FB0230D217C2EBA00000B2099BFC
:1055A000002BC0F22B83894981FB0331099BDB1758
:1055B000C3EBA101119309B280B2091A0C9B0F90A1
:1055C000824880FB03C0C2EBA00288B209B20E9BE6
:1055D0001091B0FBF3F0411C0A901FFA81FE0B986A
:1055E0001821B1FBF0F30E930C9B02EB4202B3EBDC
:1055F000C20200F1FC8213B2139393B20C93099A86
:105600007248119B0B9980FB020CC3EBAC0303EBBC
:10561000430C0C9BB3FBF1F001FB103081B2B2EBF9
:10562000CC03099100F100831AB219929BB20E9A31
:105630000B98511E099A89B21891BEF1010F11FB06
:10564000002189B200F0F682099A0C98824240F05B
:105650000483994200F05884002301221393169288
:10566000149312920E930C9B9A00099BABF8822024
:105670009B00ABF88430B9F1000F40F0FA826C2344
:10568000179336230C937D223D234FF00009ABF88E
:105690007C300F9BABF87A200C9A1099C3F1290348
:1056A00013441AB21192521A9BB2292A0F9308DCA2
:1056B000059B474AD3F86C314149002098474FF089
:1056C0000009119B179A934208DB059B414AD3F8C6
:1056D0006C313B49002098474FF000090D9B2C2B63
:1056E00000F212821E2B40F2E8831E3B0F229BB277
:1056F0000D92ABF89A30159B0C99ABF89430139B34
:10570000ABF87E10ABF88E300F990A9BABF8801087
:105710000D99ABF89610ABF89820002B40F0D28191
:10572000149B002B0E9B08BF00230E93129B002B93
:1057300000F0DD83099A199B9B1A0B9A93FBF2F3F5
:105740009BB2169AABF89220ABF88C300E9AABF85D
:1057500088200023ABF89030ABF88A300A9BABF876
:105760008630B9F1000F40F0BF82CDF80090DDF82F
:1057700004E0DDE90696F9E598F81020013A012ADF
:105780007FF60DAC22460CE400237363B9F1000FE1
:1057900042D00123009332E4059B0F4AD3F86C31C9
:1057A000074900209847B9F1000F7FF426AC9CE52B
:1057B00000231A4609E400BFABAAAAAA586601084A
:1057C0008C640108A4660108B8660108ABAAAA2A7D
:1057D000EC6601080C670108906501080022FFF7DC
:1057E000F4BB013B042B00F23B8501A252F823F0ED
:1057F000B5540008395A000805580008315A000805
:10580000055800086FF00C03099356E64FF001139A
:105810007363B9F1000FBCD100236B800123C5F87D
:105820000A3034E4BA4B98ED157A0593D3F8BC34BA
:10583000009306EE903AB5EEC07AF1EE10FAB8EEAB
:10584000668A7FF71FADC8EE078AF6EE007A78EE1B
:10585000A78A18EE900A0CF043FA59B1059BAD4A9D
:10586000D3F86C31AC4900209847039B002B7FF4A0
:1058700084AB2BE598F85A20002A7FF41BAD039BDC
:1058800098F85F10002B98F8603014BF2046002075
:105890009942049008D9059BA04AD3F86C319E49DF
:1058A00000209847FFF76CBB022B00F0BB84349BB1
:1058B0001A71A6F8AC21FFF77BBBDFED998ACDE723
:1058C000DFED978ADBE7B6F8AC31B6F8A421012BFF
:1058D00000F0CC8007EE902ADFED929AB8EE67AA2E
:1058E000B7EE089AF2EE02DA059B9FED8F0AD3F825
:1058F000BC34019307EE903AB8EE67FA80EE0F0AD7
:1059000009F0FAFB98F86030022B2FEE00FA00F253
:105910001F8104EB830498F85E3094ED15EAD4ED12
:1059200018FA002B00F02681009BDFED7DEA9FED49
:105930007FBA9FED7FDADFED7FCA9FED7FCADFED93
:105940007FBADFED7FAADDF8149044460025227C63
:10595000052A00F29280022A40F29A804FF0300A23
:105960000827E27B052A00F27084DFE802F03E415E
:105970003B034744F0EE4B7A8FEE276A228998F872
:105980005E1002FB077702377F00BFB2A2880135A5
:1059900014349FED6C7AC6EE076A07EE90AAF8EE13
:1059A000677A87EEA66A07EE907AF8EE677A87EE56
:1059B000A67A07EE902AF8EE677AEAB267EE277ABF
:1059C000914277EE867A77EEA97A77EE897A7EEE43
:1059D000A7EABCD898ED145A002B40F0CF80009372
:1059E000FFF7D4BBF0EE6A7AC6E7F0EE6C7AC3E755
:1059F000F0EE4D7AC0E7F0EE4C7ABDE7F0EE6B7A50
:105A0000BAE70A9A002A4FD01823B3FBF2F302FB3D
:105A100003F3C3F118039BB21593002B44D10A9AE8
:105A20000B92531E9B009BB20D9301230E936AE5CC
:105A30006FF00F03099340E56FF0060309933CE50F
:105A400098F85F2098F860309A427FF431AC039B5D
:105A5000349ADFED338A002B14BF234600230493CE
:105A600000231371A6F8AC31FFF7A2BAF0EE499A01
:105A7000F0EE49DAB0EE49AA36E7D9F86C31324A8D
:105A80002549002098474FF0180A0427002368E7AB
:105A9000012A05D0022AF0D14FF03C0A0A2760E71C
:105AA0004FF0480A0C275CE7059B284AD3F86C3175
:105AB00019490020984700230122CDE90D321593A2
:105AC0000B922AE5149B002B0E9B08BF00230E931C
:105AD000129B33B1099A199B9B1A0B9A93FBF2F311
